:020000040800F2
:1000000000000120310100083D4D0008B55F0008E7
:100010003D4D00083D4D00083D4D0008000000002A
:100020000000000000000000000000003D4D00083E
:100030003D4D0008000000003D4D00083D4D00080A
:100040003D4D00083D4D00083D4D00083D4D000868
:100050003D4D00083D4D00083D4D00083D4D000858
:100060003D4D00083D4D00083D4D00083D4D000848
:100070003D4D00083D4D00083D4D00083D4D000838
:100080003D4D00083D4D00083D4D00083D4D000828
:100090003D4D00083D4D00083D4D00083D4D000818
:1000A0003D4D00083D4D00083D4D00083D4D000808
:1000B0003D4D00083D4D00083D4D00083D4D0008F8
:1000C0003D4D00083D4D00083D4D00083D4D0008E8
:1000D0003D4D00083D4D00083D4D00083D4D0008D8
:1000E0003D4D00083D4D0008000000003D4D00085A
:1000F0003D4D00083D4D00083D4D00083D4D0008B8
:100100003D4D00083D4D00083D4D00083D4D0008A7
:100110003D4D00083D4D00083D4D00083D4D000897
:100120003D4D00083D4D00083D4D00083D4D000887
:1001300004F006FE084809490022814201D004C0AB
:10014000FBE707480749084A814202D008CA08C0AD
:10015000FAE700F00BF800DE0000002004000020A9
:100160000000002000000020D070000880B56F461D
:1001700000F000F880B56F46ADF50C7D00F038F961
:1001800007F8010C17F8010CC00730B9FFE745F676
:10019000C470C0F6000004F01CFE00F070FC07F80C
:1001A000020C17F8020CC00730B9FFE745F6D4700F
:1001B000C0F6000004F00DFE0DA8019004F0CFFB86
:1001C000019943A80290B1E83C50A0E83C5091E866
:1001D0003C5080E83C50082000F04DFD839083A8FF
:1001E00004F07FF802998590012005908490849A0C
:1001F00085984392449037A80390B1E83C50A0E81A
:100200003C5091E83C5080E83C50382000F033FDF1
:10021000809080A804F065F80399024605988292C0
:100220008190819A82983F9240902BA80490B1E8E7
:100230003C50A0E83C5091E83C5080E83C500E20F7
:1002400000F019FD749074A804F04BF8049902466C
:10025000059876927590759A7698359236901FA883
:100260000690B1E83C50A0E83C5091E83C5080E852
:100270003C5004F071FB0699A7F1F10007907B90C8
:1002800077A802F032FF079A77987899799BDDF882
:10029000E8C1CDF8FCC17E937D917C9019A80C90AB
:1002A0007CA902F06FFC0C9A6DA9084692E8785080
:1002B00080E8785050A801F07FFA04F0C4FBA7F161
:1002C000D200089000F0C2FA089800F0B3FA04F0E7
:1002D000F5F907F8D10CA7F1D1000A9073905AA84C
:1002E000099004F076FB4FF4E13004F09CF9099991
:1002F000024658A80B9004F05FFB0A980B990C9AE1
:1003000000F0A5FE0C9804F0A2F95C9000F02BFF21
:100310005CA84FF4FA6103F081FCFFE75CA84FF49E
:10032000FA6103F07BFC50A801F005F95E905EA92C
:10033000889145F6A510C0F6000089908A918691B3
:10034000879086988799699168906898699967916C
:10035000669045F6F871C0F6000160A8009066AAA4
:1003600000F059FB0099A7F1B90000F031FF07F840
:10037000B10C17F8B10C00F001000128CED0CDE788
:1003800084B000900191007800F00100029009789B
:1003900001F001010391401AB0FA80F0400904B065
:1003A000704780B56F4682B004F0AAFC019000F05F
:1003B0000100012804D0FFE7002007F8050C03E046
:1003C000012007F8050CFFE717F8050C00F0010005
:1003D00002B080BD80B56F4682B007F8010C46F2CE
:1003E0000801C0F60001781EFFF7CAFF02B080BD09
:1003F00080B56F4600F084F880BD40F20001C2F283
:10040000000101200870704780B56F4694B00193D9
:10041000029203910C900D910E920F9346F23401CB
:10042000C0F600011091119012900146049108B994
:10043000FFE719E002984FF0553101EA5001401AE8
:100440004FF0333101EA900120F0CC30084400EB4A
:10045000101020F0F0304FF001314843000E13909F
:100460001398012801D006E026E00498029901398A
:1004700008421AD0F8E746F23400C0F600000590B2
:100480000120069045F6EC70C0F600000168406857
:1004900009910A90042007900020089046F2D41198
:1004A000C0F6000105A804F09EFC0398B0FA80F1A4
:1004B0004909009138B10AE046F2BC00C0F60000DC
:1004C000A62104F0C2FC4FF0FF300B9003E000982F
:1004D000C00760B904E001980B9988420ED90CE07E
:1004E00003996FF00040B0FBF1F00B90F3E746F298
:1004F000AC00C0F6000005F0DFF9DDE714B080BD08
:1005000080B56F4684B0FFF74CFF019007F8020CEE
:1005100000F023FB04F0F7FB03A800F0F2FA014619
:1005200001980A46029207F8011CFFF753FF28B909
:10053000FFE7029800F0010004B080BD00F008FB66
:10054000F7E780B56F4684B0FFF72BFF019007F8FF
:10055000020C00F002FB04F0D6FB03A800F0ABFB9A
:10056000014601980A46029207F8011CFFF732FF84
:1005700028B9FFE7029800F0010004B080BD00F048
:10058000E7FAF7E780B56F46AAB0059106900A90A2
:100590000B9104F03DF8014607910C90022007F8FA
:1005A000850C17F8850C022808D0FFE717F8850C92
:1005B00000F0010007F8710CE8BB29E005980699E6
:1005C000042209920E910F9009A80390109004F054
:1005D0001FF80399119004300490209021912590E8
:1005E000269004F074FA01460398229123911E91FB
:1005F00024911F911EA91FAA00F04FF901460498EB
:10060000096827902891299004F0C6FA2AB080BD85
:10061000079810300290199000201A90189018A88E
:1006200000F088F80146029809681B901C911D9003
:1006300004F0B2FAC2E7079810300190139000203E
:100640001490129012A800F09EF8014601980968D3
:1006500015901691179004F09FFAAFE780B56F469A
:10066000AAB0059106900A900B9103F0D1FF0146C4
:1006700007910C90022007F8850C17F8850C0228CA
:1006800008D0FFE717F8850C00F0010007F8710C9F
:10069000E8BB29E0059806990B2209920E910F906C
:1006A00009A80390109003F0B3FF03991190043050
:1006B0000490209021912590269004F008FA01469C
:1006C0000398229123911E9124911F911EA91FAA84
:1006D00000F0CDF8014604980968279028912990E8
:1006E00004F05AFA2AB080BD079810300290199091
:1006F00000201A90189018A800F051F801460298AE
:1007000009681B901C911D9004F046FAC2E70798F7
:1007100010300190139000201490129012A800F055
:100720007DF801460198096815901691179004F01C
:1007300033FAAFE780B56F468AB0019004901A2073
:100740000290002028B9FFE70298C0B2202806D303
:1007500013E046F24420C0F6000005F04EF8019880
:10076000029901F01F020121914005900691079026
:100770000891016009900AB080BD46F25420C0F68D
:10078000000005F086F887B0019002904FF4806178
:100790000391049005910160069007B0704780B501
:1007A0006F468AB00190049019200290002028B969
:1007B000FFE70298C0B2202806D313E046F2442097
:1007C000C0F6000005F019F80198029901F01F0227
:1007D00001219140059006910790089101600990D0
:1007E0000AB080BD46F25420C0F6000005F051F872
:1007F00082B00090019121F0F0000099096840EA70
:10080000011002B0704782B00090019121F4706035
:100810000099096840EA012002B0704787B0019052
:1008200002904FF4007103910490059101600690CD
:1008300007B0704780B56F4682B001460191781FBE
:10084000FFF7A0FE03F0D0FE02B080BD80B56F467A
:1008500082B001460191781FFFF700FF00F002F817
:1008600002B080BD80B56F4600F035F880BD80B520
:100870006F468CB00192029003910492059106910B
:100880000968FFF7B5FF01460198079008910990A4
:100890000A9101600B900CB080BD80B56F468CB0A2
:1008A0000192029003910492059106910968FFF765
:1008B000AAFF014601980790089109900A910160EA
:1008C0000B900CB080BD80B56F4682B0019000F0F7
:1008D00007F802B080BD80B56F4600F09BF880BD80
:1008E00080B56F4692B0029004900078C00720B99E
:1008F000FFE7022007F8390C03E0002007F8390C65
:10090000FFE7029803F0FAFE01900890A7F1390181
:10091000009109910D900E9004F0D9F801460098CD
:100920000A910B9106910C91079106A907AA00F074
:100930000AF80146019809680F901091119004F08F
:100940002BF912B080BD80B56F468EB001920A4679
:10095000019902920246029804920590069100F0D5
:1009600005FC01460A910B9104980078079107F85D
:10097000150C07990991096821F0E061039146F28D
:10098000C021C0F6000102F0DBF80146039801F037
:10099000070207990C9140EA0260086007980D90E1
:1009A0000EB080BD80B56F4686B00390049004F011
:1009B0005AF90290029868B9FFE746F2D020C0F6D3
:1009C00000000178407801F0010107F8121C07F8D7
:1009D000110C09E00298007807F8010C07F8110CD7
:1009E000012007F8120CFFE717F8120C17F8111C7A
:1009F00006B080BD8CB000900191029003910491EB
:100A00000590069107900890014409910A900B9176
:100A10000CB07047704783B0009101460098019078
:100A2000029208600220486045F6EC70C0F60000B3
:100A3000036840680B6148618A600120C86003B0A8
:100A4000704780B56F4682B0009007F8011C00F037
:100A50005AFC02B080BD82B0FFE700208DF8040090
:100A6000FFE79DF8040000F0010002B0704781B07C
:100A700001B0704782B0FFE7FFE702B0704780B572
:100A80006F46FFF75EFD80BD40F20101C2F200013A
:100A900001200870704780B56F4682B000900191C8
:100AA00000F002F802B080BD80B56F4686B00090BD
:100AB00001910390FFE70098FFF774FF00F0010039
:100AC00007F80F0C07F80E1C17F80F0CC00750B1F1
:100AD000FFE717F80E1C07F8011C01A8FFF7B1FF8C
:100AE000FFF7C8FF02E0FFF7C2FF00E0E3E706B050
:100AF00080BD80B56F4682B0019002F0F1FA02B07D
:100B000080BD80B56F4682B0019040F20000C2F215
:100B100000000078C00730B9FFE7FFF76EFC012046
:100B200007F8060C03E0002007F8060CFFE717F8AB
:100B3000060C00F0010002B080BD81B08DF802000B
:100B40008DF803009DF8030000F0010001B070472C
:100B500080B56F4604F0CCF880BD80B56F4604F0D8
:100B6000C5F880BD80B56F4694B0019202910390A4
:100B7000059006910792802805D3FFE70398B0F50A
:100B8000006F0BD305E0019801210491002862D188
:100B900016E00398B0F5803F0CD305E001980221E0
:100BA0000491012848D80BE00198042104910328FE
:100BB0000CD805E0019803210491022827D8FFE70B
:100BC000019A0398049904F0BCF81AE0029903987A
:100BD00008914A1C09928A1C0A92CA1C0B92820C28
:100BE0001E2363F3DF020A70030B022262F39F13DA
:100BF0004B70830962F39F138B7062F39F10C87070
:100C0000FFE70298129004980090139028E0029950
:100C100003980C914A1C0D928A1C0E92020B0E2313
:100C200063F31F120A708309022262F39F134B7051
:100C300062F39F108870E4E7029903980F914A1CB1
:100C400010928209062363F35F120A70022262F394
:100C50009F104870D5E70398029911910870D0E76A
:100C6000009B029801221146FFF7CEFBFFE7009997
:100C7000029814B080BD80B56F4682B0019000F03C
:100C800002F802B080BD80B56F4682B0019044F298
:100C90004021C0F20F01A0FB0110009128B9FFE72D
:100CA000009803F06DFB02B080BD46F22830C0F61C
:100CB000000004F0C8FD80B56F4682B0019040F29C
:100CC0000100C2F200000078C00730B9FFE7FFF76B
:100CD000DBFE012007F8060C03E0002007F8060CF5
:100CE000FFE717F8060C00F0010002B080BD80B5E8
:100CF0006F46B8B008910A90169103F0E3FE0146E2
:100D000008980A4609921791FFF7F3FE0E900EA875
:100D100003F0E7FA01460A980B9100680C9048B17D
:100D2000FFE70B980C99B0FBF1F00D900D980F2890
:100D300015D805E046F29830C0F6000004F0BCFD7E
:100D400046F2BC31C0F600010FA8079003F0DCFFAB
:100D5000079846F2C431C0F6000104F044F809983F
:100D60000830019019900DA81A9000211B9118913C
:100D700018A900F050F80146019809681C901D91CF
:100D80001E9003F009FF0A9909980C3004908A1DFF
:100D9000039205310291219022922391279028906D
:100DA00003F095FE029902460398249225921F9221
:100DB000269220921FAA20AB00F03DF8014604982D
:100DC000096829902A912B9003F0E6FE0A99099868
:100DD000097907F8891C103006902E90A7F1890137
:100DE00005912F913390349003F071FE01460598E0
:100DF000309131912C9132912D912CA92DAA00F096
:100E00008CF801460698096835903691379003F0C2
:100E1000C3FE38B080BD88B00091014600980191B2
:100E20000290019909680390049105900691016070
:100E3000079008B0704780B56F469CB00193029050
:100E40000391059206931293139302980078C007BA
:100E500020B9FFE7002007F85E0C03E0012007F847
:100E60005E0CFFE7019817F85E1C0A9001F0010381
:100E700007F8423C0A990C91096821F4805107F85F
:100E8000413C0A9A199241EA03311160149015907D
:100E900003980078022804D1FFE7012007F85D0CD1
:100EA00003E0002007F85D0CFFE7019917F85D0CDF
:100EB0000D9100F0010007F8350C46F25841C0F6DC
:100EC0000001FFF73AFE034601980F9007F82E3C09
:100ED0000F991191096821F4007107F82D3C0F9AC0
:100EE000189241EA432111601690179003990B78EC
:100EF000002B18BF0123079007F84E3C0799099172
:100F0000096821F4806107F84D3C079A1A9241EA7A
:100F1000832111601B901CB080BD80B56F468CB0E2
:100F20000290039104920892099202980078059227
:100F300007F8150C05990791096821F440510191B2
:100F400046F25841C0F6000101F0FAFD0146019851
:100F500001F0030205990A9140EA02300860059801
:100F60000B900CB080BD80B56F4682B0009007F842
:100F7000011CC9B200F002F802B080BD80B56F4616
:100F800098B0ADF81010069003F09CFD0146039157
:100F9000079008900A900B9003F099FD0990059036
:100FA00005A8159016909DF81400C00907F8010CCB
:100FB00007F84D0CA7F14D001390149017F84D0C45
:100FC000C00720B9FFE7012007F84E0C18E003988E
:100FD000043001900D9004A80E90002102910F9111
:100FE0000C910CA900F012F80146019809681090C4
:100FF0001191129003F0D0FD029807F84E0CFFE714
:1010000017F84E0C00F0010018B080BD80B56F4697
:101010008AB001900291069107910198008803918E
:1010200027F8160C039905910968009146F258417A
:10103000C0F6000101F08CFD02460098039908916A
:1010400062F308000860039809900AB080BD80B57B
:101050006F469CB00592039102900B900C9241F266
:101060000000C4F2020000900D900F9001F080FD8E
:101070000E21019103F05FFB00980E9001F07DFDC1
:10108000019903F04DFB009801F077FD019903F001
:101090003CFB0298FFF717FC039946F2D432C0F6E6
:1010A000000208A8049000F09BF804980599FFF747
:1010B0001EFEA7F15100109043F60C00C4F201008F
:1010C000069013901790189003F001FD149015905E
:1010D00011901690129011A812A900F00AF801467A
:1010E0000698096819901A911B9003F055FD1CB0E1
:1010F00080BD9AB00091014600980291039014902F
:1011000015900490059001228DF81A2005990791F9
:1011100009688DF81B20059B189341F40051196054
:1011200012901390089009908DF82A2009990B913C
:1011300009688DF82B20099B179341F0080119606D
:10114000109011900C900D908DF83A200D990F9100
:1011500009688DF83B200D9A169241F00401116048
:1011600019901AB0704781B001B0704789B00190F2
:10117000029106910791039100218DF812100398B6
:101180000590006820F004008DF813100399089171
:101190000860039809B0704780B56F468AB0009127
:1011A000014600980191049105900021039103A943
:1011B000069104220792FFF7D5FC0246019802929D
:1011C0000A4602990891099200F082F80AB080BD9F
:1011D00080B56F4682B0019000F009F802B080BD82
:1011E0000A460146106852684A6008607047F0B5C8
:1011F00003AF4DF8048D98B0009101900B900C91C5
:101200000868029048680390C968049118B9FFE71C
:10121000049820B108E00398012813D004E00120CD
:1012200008900020099008E045F6EC70C0F6000038
:101230000168406808910990FFE708A80E90089897
:1012400058B90EE004980028EED1FFE702980D90FF
:101250000168406808910990EFE7012007F8450C04
:1012600003E0002007F8450CFFE7002007F8310CE9
:1012700017F8310CC00708B9FFE706E0089909988C
:1012800006910790069888B9FFE70198009B12AA7B
:10129000114693E8705181E8705146F2E431C0F68E
:1012A000000103F0E8FD07F8590C09E001980699E0
:1012B000079A1091119200F00BF807F8590CFFE70C
:1012C00017F8590C00F0010018B05DF8048BF0BD60
:1012D00080B56F4688B000920A4600990192024696
:1012E00001980292059206900791FFF783FB024650
:1012F000084602990392049003A8FFF7CCFBFFF77E
:10130000AAFB08B080BD80B56F4686B001900A4642
:10131000029204908DF81410FFE70299019800687A
:10132000FFF721FE07F8090C17F8090CC00710B9E0
:10133000FFE706B080BDF0E780B56F4682B007F8E2
:10134000010C00F024F802B080BD80B56F4682B079
:1013500007F8010C00F00AF802B080BD81B003204C
:101360008DF803009DF8030001B0704781B08DF83F
:1013700003009DF8030001B0704781B000208DF894
:1013800003009DF8030000F0010001B0704781B038
:101390008DF802009DF80200C00720B9FFE7002089
:1013A0008DF8030003E001208DF80300FFE79DF8AE
:1013B000030000F0010001B0704780B56F46ACB08B
:1013C00003900A460492089007F88B1C18300C9082
:1013D00042F20840C4F201000D900F90109003F00B
:1013E00076FB0E90069006A829902A900698C0F3E6
:1013F000C05007F8010C07F8990CA7F19900279045
:10140000289017F8990CC00720B1FFE7002007F8D3
:101410009A0C31E0039818300B9042F20840C4F265
:10142000010002901E902290239003F050FB1F9029
:1014300020901C9021901D901CA81DA900F04BF835
:1014400001460298096824902591269003F0A4FB98
:10145000039801F03BFE079007A802F042FF41F21B
:101460005971CDF2B711A0FB0110000C03F01EF969
:10147000012007F89A0CFFE70499039801F02FFA6E
:101480000146019127F88A0C17F89A0CC00718B981
:10149000FFE701982CB080BD039818300A9042F203
:1014A0000840C4F20100009013901790189003F0C8
:1014B0000EFB1490159011901690129011A812A97D
:1014C00000F021F801460098096819901A911B90C4
:1014D00003F062FBDDE78BB00190029109910A9164
:1014E0000491059101218DF81A1005980790006864
:1014F0008DF81B100599089140F4000008600598CC
:1015000003900BB070478BB00190029109910A9142
:101510000491059100218DF81A1005980790006834
:1015200020F400008DF81B100599089108600598BB
:1015300003900BB0704780B56F4692B007900D9046
:1015400000F0C3F902460798134608930B46099327
:1015500002F0010207F80E2C07F80D1C01F0BBFD8C
:101560000C900CA802F0BDFE01460A91002808D29A
:10157000FFE70A9844F68071C0F21201884214D83D
:101580000BE00A9844F68071C0F212018842F0D84C
:10159000FFE7002007F8190C73E00A984EF260315B
:1015A000C0F21601884214D80BE00A984EF260315E
:1015B000C0F216018842F0D8FFE7012007F8190CA5
:1015C0005FE00A9849F60071C0F22401884214D8FD
:1015D0000BE00A9849F60071C0F224018842F0D865
:1015E000FFE7022007F8190C4BE00A9844F6605117
:1015F000C0F22F01884214D80BE00A9844F66051DB
:10160000C0F22F018842F0D8FFE7032007F8190C39
:1016100037E00A9840F60011C0F23D01884214D824
:101620000BE00A9840F60011C0F23D018842F0D864
:10163000FFE7042007F8190C23E00A9844F640312C
:10164000C0F24C01884210D80BE00A9844F64031B1
:10165000C0F24C018842F0D8FFE7052007F8190CCA
:101660000FE0072007F8190C0BE00A9849F6807183
:10167000C0F2D5018842F4D8FFE7062007F8190C1C
:10168000FFE7079817F8191C00F02FF907981021A9
:10169000FFF793FE46F23451C0F6000101F060FA04
:1016A0000146079804910F911121FFF786FE46F23B
:1016B0004451C0F6000101F053FA014604980A466D
:1016C000059210914FF4966180FB01100A46069234
:1016D000B0EBE17F03D1FFE7059878B105E046F272
:1016E0005450C0F6000004F0AEF80598013058B927
:1016F000FFE70698B0F1004F1CD005E046F25450C9
:10170000C0F6000004F0D8F8099A07980899069BDB
:10171000DDF814C093FBFCF30293119301F0010177
:1017200000F0D9F8029940F29650421A039288428A
:1017300010D605E046F25450C0F6000004F096F8CA
:1017400003980A2180FB01100A460192B0EBE17F69
:101750000ED105E046F26450C0F6000004F060F8D7
:10176000012058B9FFE70198B0F1004F15D005E00E
:1017700046F26450C0F6000004F065F801984BF69C
:101780008361C2F6A07180FB0101C81000EBD1702B
:1017900019300090002048B905E046F26450C0F6C8
:1017A000000004F063F8009812B080BD46F2645067
:1017B000C0F6000004F021F8F0B503AF4DF804BD09
:1017C00098B00A910890FFF7C9FD0990FFF7D5FD81
:1017D00009990A9A8DF848108DF849000CA80B90C9
:1017E000014692E8785081E8785000F023F90B9890
:1017F00000F0CCF80B9800F004F90B9800F0E5F934
:101800000B9800F079F80B9801F065FC139040F606
:10181000C41002F00CFF149013A814A902F0AFFA40
:1018200090B9FFE70CA8079000F015F90799089800
:10183000B1E80C10A0E80C1091E80C5080E80C50B6
:1018400018B05DF804BBF0BD0CA8049001F03EFC9C
:1018500001460498059101F03EFC0146059802F00E
:1018600026FA0146481802460692884216D3FFE738
:10187000069816900CA801F029FC02904FF44870CD
:1018800002F0D5FE0146029802F02BFA01460698B6
:101890000A4603921791884206D8C3E746F274506D
:1018A000C0F6000003F0CFFF06980399421A019298
:1018B000884204D3FFE7019802F0F8FEB2E746F24F
:1018C0007450C0F6000003F0ABFF81B00090017EC1
:1018D000407E01B0704782B000908DF806108DF800
:1018E00007200276417602B0704782B000908DF8F2
:1018F0000710017602B0704780B56F4690B0019036
:1019000003901830049042F20840C4F201000090A5
:1019100007900B900C9003F0DAF80890099005906E
:101920000A90069005A806A900F018F8014600984C
:1019300009680D900E910F9003F02EF9019801F0B7
:10194000C5FB02904FF4487002F071FE0146029808
:1019500002F0C7F902F0AAFE10B080BD8BB0019072
:10196000029109910A910491059101218DF81A10B3
:101970000598079000688DF81B100599089140F0B4
:1019800001000860059803900BB0704780B56F4662
:101990008EB001901830029042F20840C4F201006B
:1019A0000090059009900A9003F091F80690079036
:1019B00003900890049003A804A900F00AF80146D7
:1019C000009809680B900C910D9003F0E5F80EB0AB
:1019D00080BD8BB00190029109910A91049105910B
:1019E00000218DF81A1005980790006820F001007A
:1019F0008DF81B10059908910860059803900BB0AD
:101A0000704780B56F4686B0039041F20000C4F283
:101A1000020001900490059001F0AFF809210291B5
:101A200002F07EFE019801F0A8F8029902F06DFE26
:101A300006B080BD80B56F4684B0019041F20000D1
:101A4000C4F202000290039001F092F8092102F022
:101A500072FE04B080BD80B56F46B4B001900790AF
:101A600018300B9042F20840C4F20100029021901D
:101A70002590269003F02BF8229023901F9024901D
:101A800020901FA820A900F070F80146029809686C
:101A900027902891299003F07FF8FFE701981830EC
:101AA0000A9042F20840C4F2010010901290139084
:101AB00003F00DF81190049004A8319032909DF835
:101AC0001000C0F3C00007F8010C07F8C10CA7F123
:101AD000C1002A902D9017F8C10CC0070028DDD155
:101AE000FFE701981830099042F20840C4F2010063
:101AF000009016901A901B9002F0E9FF1790189032
:101B000014901990159014A815A900F046F80146F4
:101B1000009809681C901D911E9003F03DF8FFE7A6
:101B200001981830089042F20840C4F201000C906D
:101B30000E900F9002F0CBFF0D90069006A82E900D
:101B40002F909DF81800C0F3800007F80D0C07F8DF
:101B5000B90CA7F1B9002B902C9017F8B90CC0075D
:101B60000028DDD1FFE734B080BD8BB00190029139
:101B700009910A910491059101218DF81A10059897
:101B8000079000688DF81B100599089140F0080037
:101B90000860059803900BB070478BB001900291DC
:101BA00009910A910491059101218DF81A10059867
:101BB000079000688DF81B100599089140F004000B
:101BC0000860059803900BB0704780B56F46AAB0C7
:101BD000059018300390089042F20840C4F20100CA
:101BE000019016901A901B9002F071FF17901890B8
:101BF00014901990159014A815A900F044F8014606
:101C0000019809681C901D911E9002F0C5FF039871
:101C1000079042F20440C4F2010002902190259006
:101C2000269002F054FF229023901F902490209041
:101C30001FA820A900F06FF80146029809682790B4
:101C40002891299002F0A8FF0398069042F22C40B8
:101C5000C4F2010004900B900F90109002F037FF37
:101C60000C900D9009900E900A9009A80AA900F016
:101C70007CF801460498096811901291139002F0C3
:101C80008BFF2AB080BD80B56F469AB00390049157
:101C9000149115910B910C91002107F8321C0C98AE
:101CA0000E90006820F0020007F8311C0C990F918B
:101CB00008600C981890199006900790012107F879
:101CC000461C07980990006807F8451C07990A9177
:101CD00040F4801008600798169017901090072025
:101CE00007F8210C10991291096821F460210191E3
:101CF00046F2C441C0F6000100F022FF01460198FF
:101D000001F007021099139140EA424008601098D0
:101D100005901AB080BD92B0019002910E910F9182
:101D200009910A9100218DF82E100A980C900068F4
:101D300020F480708DF82F100A990D9108600A9890
:101D4000109011900490059001218DF81A100598BB
:101D5000079000688DF81B100599089140F4006009
:101D600008600598039012B0704780B56F468CB03C
:101D700003900491089109910591002007F8150C32
:101D800005990791096821F47001019146F2C44157
:101D9000C0F6000100F0D4FE0146019801F00F02E8
:101DA00005990A9140EA0250086005980B900CB022
:101DB00080BDD4D480B56F46ADF58B6D259227914B
:101DC0000246259826922A928DF8AE108DF8AF0023
:101DD00046F27451C0F60001FFF7B7FA27998DF863
:101DE000A700C8B201462891112814D82899DFE825
:101DF00011F01D00420067008C00B100D600FB000E
:101E00002E01530178019D01C201E70116023B0238
:101E100060028502AA0246F28450C0F6000046F233
:101E20007452C0F60002282102F0FCFF26981830F8
:101E30003D9042F21040C4F201002490DC900DF17C
:101E4000A7012391DD91E190E29002F040FE01466E
:101E50002398DE91DF91DA91E091DB91DAA9DBAA98
:101E600000F099FA014624980968E390E491E5901E
:101E700002F092FE8CE2269818303C9042F210401C
:101E8000C4F201002290E8900DF1A7012191E9919F
:101E9000ED90EE9002F01BFE01462198EA91EB9145
:101EA000E691EC91E791E6A9E7AA00F096FA0146DF
:101EB00022980968EF90F091F19002F06DFE67E2D0
:101EC000269818303B9042F21040C4F20100209056
:101ED000C4900DF1A7011F91C591C990CA9002F05D
:101EE000F6FD01461F98C691C791C291C891C39152
:101EF000C2A9C3AA00F097FA014620980968CB90BE
:101F0000CC91CD9002F048FE42E2269818303A90EB
:101F100042F21040C4F201001E90A0900DF1A70102
:101F20001D91A191A590A69002F0D1FD01461D98AA
:101F3000A291A3919E91A4919F919EA99FAA00F026
:101F400098FA01461E980968A790A891A99002F0F6
:101F500023FE1DE226981830399042F21040C4F258
:101F600001001C90B8900DF1A7011B91B991BD9093
:101F7000BE9002F0ACFD01461B98BA91BB91B691A0
:101F8000BC91B791B6A9B7AA00F099FA01461C987E
:101F90000968BF90C091C19002F0FEFDF8E126985B
:101FA0001830389042F21040C4F201001A90D090DC
:101FB0000DF1A7011991D191D590D69002F087FD2E
:101FC00001461998D291D391CE91D491CF91CEA9B7
:101FD000CFAA00F09AFA01461A980968D790D891CA
:101FE000D99002F0D9FDD3E126981830379042F20B
:101FF0001040C4F20100189047F8280C0DF1A70119
:10200000179147F8241C47F8140C47F8100C02F0FD
:102010005EFD0146179847F8201C47F81C1C47F83E
:10202000301C47F8181C47F82C1CA7F13001A7F109
:102030002C0200F090FA01461898096847F80C0C39
:1020400047F8081C47F8040C02F0A6FDA0E126980A
:102050001830369042F21040C4F20100169064909D
:102060000DF1A7011591659169906A9002F02FFD1D
:10207000014615986691679162916891639162A992
:1020800063AA00F08EFA0146169809686B906C916D
:102090006D9002F081FD7BE126981830359042F278
:1020A0001040C4F20100149058900DF1A701139153
:1020B00059915D905E9002F00AFD014613985A9185
:1020C0005B9156915C91579156A957AA00F08FFAEF
:1020D0000146149809685F906091619002F05CFD80
:1020E00056E126981830349042F21040C4F20100B4
:1020F000129088900DF1A701119189918D908E9089
:1021000002F0E5FC014611988A918B9186918C91A1
:10211000879186A987AA00F090FA0146129809686B
:102120008F909091919002F037FD31E12698183010
:10213000339042F20C40C4F20100109094900DF1E3
:10214000A7010F91959199909A9002F0C0FC0146D9
:102150000F989691979192919891939192A993AAA1
:1021600000F091FA0146109809689B909C919D900F
:1021700002F012FD0CE126981830329042F20C4029
:10218000C4F201000E90AC900DF1A7010D91AD913C
:10219000B190B29002F09BFC01460D98AE91AF91C8
:1021A000AA91B091AB91AAA9ABAA00F08EFA014610
:1021B0000E980968B390B491B59002F0EDFCE7E099
:1021C00026981830319042F20C40C4F201000C9075
:1021D00047F8580C0DF1A7010B9147F8541C47F82C
:1021E000440C47F8400C02F072FC01460B9847F88B
:1021F000501C47F84C1CFE9147F8481CFF91FEA963
:10220000FFAA00F088FA01460C98096847F83C0CD0
:1022100047F8381C47F8340C02F0BEFCB8E02698AA
:102220001830309042F20C40C4F201000A90F49051
:102230000DF1A7010991F591F990FA9002F047FC90
:1022400001460998F691F791F291F891F391F2A96C
:10225000F3AA00F086FA01460A980968FB90FC91FF
:10226000FD9002F099FC93E0269818302F9042F2EE
:102270000C40C4F2010008904C900DF1A7010791A9
:102280004D915190529002F022FC014607984E91D8
:102290004F914A9150914B914AA94BAA00F087FA6D
:1022A00001460898096853905491559002F074FCC7
:1022B0006EE0269818302E9042F20C40C4F20100D5
:1022C00006907C900DF1A70105917D9181908290FF
:1022D00002F0FDFB014605987E917F917A918091F5
:1022E0007B917AA97BAA00F088FA014606980968D2
:1022F00083908491859002F04FFC49E02698183035
:102300002D9042F20C40C4F20100049040900DF177
:10231000A701039141914590469002F0D8FB0146F8
:102320000398429143913E9144913F913EA93FAA27
:1023300000F089FA0146049809684790489149904D
:1023400002F02AFC24E0269818302C9042F20C402F
:10235000C4F20100029070900DF1A70101917191FA
:102360007590769002F0B3FB0146019872917391DB
:102370006E9174916F916EA96FAA00F08AFA01466E
:102380000298096877907891799002F005FCFFE750
:102390000DF58B6D80BD80B56F468CB002900391BA
:1023A00004920892099202980078059207F8150C99
:1023B000059907910968019146F2C441C0F60001F0
:1023C00000F0BEFB0246019805990A9162F30200F3
:1023D000086005980B900CB080BD80B56F468CB03E
:1023E0000290039104920892099202980078059253
:1023F00007F8150C05990791096821F0380101913A
:1024000046F2C441C0F6000100F09AFB0146019873
:1024100001F0070205990A9140EAC2000860059898
:102420000B900CB080BD80B56F468CB002900391CC
:1024300004920892099202980078059207F8150C08
:1024400005990791096821F4E071019146F2C441B0
:10245000C0F6000100F074FB0146019801F007028C
:1024600005990A9140EA8210086005980B900CB01B
:1024700080BD80B56F468CB00290039104920892A3
:10248000099202980078059207F8150C05990791B2
:10249000096821F46061019146F2C441C0F600016F
:1024A00000F04EFB0146019801F0070205990A91E0
:1024B00040EA4220086005980B900CB080BD80B5C2
:1024C0006F468CB002900391049208920992029890
:1024D0000078059207F8150C05990791096821F411
:1024E000E041019146F2C441C0F6000100F028FB32
:1024F0000146019801F0070205990A9140EA02306D
:10250000086005980B900CB080BD80B56F468CB00C
:102510000290039104920892099202980078059221
:1025200007F8150C05990791096821F460310191AC
:1025300046F2C441C0F6000100F002FB01460198DA
:1025400001F0070205990A9140EAC2300860059837
:102550000B900CB080BD80B56F468CB0029003919B
:1025600004920892099202980078059207F8150CD7
:1025700005990791096821F4E011019146F2C441DF
:10258000C0F6000100F0DCFA0146019801F00702F4
:1025900005990A9140EA8240086005980B900CB0BA
:1025A00080BD80B56F468CB0029003910492089272
:1025B000099202980078059207F8150C0599079181
:1025C000096821F46001019146F2C441C0F600019E
:1025D00000F0B6FA0146019801F0070205990A9148
:1025E00040EA4250086005980B900CB080BD80B561
:1025F0006F468CB00290039104920892099202985F
:102600000078059207F8150C05990791096821F0E3
:10261000E061019146F2C441C0F6000100F090FA79
:102620000146019801F0070205990A9140EA02600B
:10263000086005980B900CB080BD80B56F468CB0DB
:1026400002900391049208920992029800780592F0
:1026500007F8150C05990791096821F0605101915F
:1026600046F2C441C0F6000100F06AFA0146019842
:1026700001F0070205990A9140EAC26008600598D6
:102680000B900CB080BD80B56F468CB0029003916A
:1026900004920892099202980078059207F8150CA6
:1026A000059907910968019146F2C441C0F60001FD
:1026B00000F046FA0246019805990A9162F3020079
:1026C000086005980B900CB080BD80B56F468CB04B
:1026D0000290039104920892099202980078059260
:1026E00007F8150C05990791096821F03801019147
:1026F00046F2C441C0F6000100F022FA01460198FA
:1027000001F0070205990A9140EAC20008600598A5
:102710000B900CB080BD80B56F468CB002900391D9
:1027200004920892099202980078059207F8150C15
:1027300005990791096821F4E071019146F2C441BD
:10274000C0F6000100F0FCF90146019801F0070213
:1027500005990A9140EA8210086005980B900CB028
:1027600080BD80B56F468CB00290039104920892B0
:10277000099202980078059207F8150C05990791BF
:10278000096821F46061019146F2C441C0F600017C
:1027900000F0D6F90146019801F0070205990A9167
:1027A00040EA4220086005980B900CB080BD80B5CF
:1027B0006F468CB00290039104920892099202989D
:1027C0000078059207F8150C05990791096821F41E
:1027D000E041019146F2C441C0F6000100F0B0F9B9
:1027E0000146019801F0070205990A9140EA02307A
:1027F000086005980B900CB080BD80B56F468CB01A
:10280000029003910492089209920298007805922E
:1028100007F8150C05990791096821F460310191B9
:1028200046F2C441C0F6000100F08AF90146019861
:1028300001F0070205990A9140EAC2300860059844
:102840000B900CB080BD80B56F468CB002900391A8
:1028500004920892099202980078059207F8150CE4
:1028600005990791096821F4E011019146F2C441EC
:10287000C0F6000100F064F90146019801F007027A
:1028800005990A9140EA8240086005980B900CB0C7
:1028900080BD80B56F468CB002900391049208927F
:1028A000099202980078059207F8150C059907918E
:1028B000096821F46001019146F2C441C0F60001AB
:1028C00000F03EF90146019801F0070205990A91CE
:1028D00040EA4250086005980B900CB080BD80B56E
:1028E0006F46D0B003908DF819100E9018300290FA
:1028F000159042F24C40C4F20100229024902590A1
:1029000002F0E5F8014603982391079107A9479142
:102910004891BDF81C1027F81A1CADF81A100DF1DB
:102920001A014391027E9DF81910FFF743FA0298AD
:10293000149042F23440C4F20100019034900DF141
:1029400019010091359139903A9002F0C0F8014692
:1029500000983691379132913891339132A933AA48
:1029600000F092F80146019809683B903C913D9037
:1029700002F012F902990398139100F119010491E0
:1029800042F20840C4F201000590289029912D9050
:102990002E9002F09CF8014604982A912B912691E2
:1029A0002C91279126A927AA00F090F801460598B6
:1029B00009682F903091319002F0EEF8FFE703980C
:1029C0001830129042F20840C4F20100169018909C
:1029D000199002F07CF81790099009A84D904E903C
:1029E0000998C0F3805007F8010C8DF823000DF111
:1029F00023003E9040909DF82300C0070028DED1C0
:102A0000FFE703981830119042F20040C4F2010031
:102A10001A901C901D9002F05AF81B900B900BA876
:102A20004A904B909DF82C00C0F3400007F80D0C25
:102A30008DF82B000DF12B003F9041909DF82B005D
:102A4000C0070028DDD0FFE703981830109042F24D
:102A50004C40C4F201001E902090219002F037F803
:102A60001F900D900DA844904590BDF8340027F8B4
:102A7000260CADF832000DF132004290BDF8320064
:102A8000ADF83E0050B080BD80B56F468CB002906E
:102A9000039104920892099202980078059207F82F
:102AA000150C059907910968019146F2C441C0F6D9
:102AB000000100F045F80246019805990A9162F379
:102AC0000400086005980B900CB080BD80B56F467F
:102AD00092B00190029103921092119209920A927F
:102AE000012107F81A1C0A980C90006807F8191CB5
:102AF0000A990D9140F4800008600A9800900E90A9
:102B00000F900198007800F0010046F27451C0F671
:102B10000001FEF711FC02460098059007F82E2CE4
:102B200005980790006820F4006007F82D2C05999F
:102B3000089140EAC22008600598049012B080BD58
:102B400081B08DF802008DF80300C0B201B070476B
:102B500081B0ADF80000ADF8020080B201B070475E
:102B600081B0ADF80000ADF8020080B201B070474E
:102B700081B00090183001B0704781B000900C30E7
:102B800001B07047B0B502AFE4B00692099105906C
:102B90001B920AA8079000F0BBFD069801F049F8C7
:102BA0000146079808910C302691279030212891F2
:102BB000259125A900F0F0F80146089809682990A8
:102BC0002A912B9001F0E8FF099841F20001C4F22C
:102BD00002011C9101F041FA38B9FFE70998007A27
:102BE00000F0010001283BD07DE041F20000C4F27A
:102BF0000200049039903D903E9001F068FF3A90B9
:102C00003B9037903C90389037A838A900F00DF9E8
:102C10000146049809683F904091419001F0BCFF43
:102C2000FFE741F20000C4F20200219023902490BB
:102C300001F04DFF2290119011A85E905F901198C5
:102C4000C0F3404007F8150C8DF843000DF1430028
:102C50005B905C909DF84300C0070028E1D0BDE781
:102C60000999487A8DF84A0041F20400C4F2020042
:102C700002904F900DF14A0201925092519155905D
:102C8000569001F024FF09990246019852925392FE
:102C90004D9254924E924DAA4EAB00F0DEF8014692
:102CA0000298096857905891599001F075FF41F2C8
:102CB0000000C4F20200039044904890499001F053
:102CC00006FF4590469042904790439042A843A902
:102CD00000F002F90146039809684A904B914C9024
:102CE00001F05AFF39E0099C04F1080E04F10E0CC2
:102CF00004F10C0304F10D0204F10A0104F10B00CC
:102D00001494CDF854E0CDF858C017931892199147
:102D10001A9041F20400C4F2020000902E9032900A
:102D2000339001F0D4FE2F9030902C9031902D9064
:102D300014A82CA92DAA00F0E7F80146009809680C
:102D400034903591369001F027FF05980AA991E853
:102D50003C5080E83C5064B0B0BD41F20000C4F289
:102D600002001D901F90209001F0B1FE1E90139064
:102D700013A8619062901398C0F3406007F8090CA3
:102D80008DF84B000DF14B005A905D909DF84B0073
:102D9000C0070028E1D0A6E780B56F4690B0029149
:102DA000049008910C910D9104980390182001F063
:102DB00046FC01460398069106A900F0BCFF68B9DD
:102DC000FFE704980190302001F039FC014601989A
:102DD000079107A900F0AFFF40B903E0002007F812
:102DE000290C07E0022007F8290C03E0012007F86E
:102DF000290CFFE7029917F8290C099107F8150C1F
:102E000009990B910968009146F20861C0F600012A
:102E1000FFF796FE0246009809990E9162F30200B0
:102E2000086009980F9010B080BD8BB0019002919E
:102E300009910A910491059101218DF81A100598C4
:102E4000079000688DF81B100599089140F48030B8
:102E50000860059803900BB0704780B56F4694B03A
:102E600003900491059206931093119303980078B0
:102E70000C9307F8190C0C990E91096821F4701144
:102E8000019146F20861C0F60001FFF759FE0146C4
:102E9000019801F00F020C990F9140EA82400860FE
:102EA0000C98029012901390049801F0D6F8024604
:102EB0000298089007F82A2C08980A90006820F4D5
:102EC000803007F8292C08990B9140EA02400860ED
:102ED0000898079014B080BD8BB0019002910991C1
:102EE0000A910491059101218DF81A100598079017
:102EF00000688DF81B100599089140F080700860FB
:102F0000059803900BB0704780B56F46B8B0039238
:102F100009900C910D923492359280690078169246
:102F200007F8810C46F20861C0F60001079101F034
:102F3000C7F8039A0799189207F8790C189A1A9209
:102F4000126822F440420292FFF7FAFD029B039AB4
:102F50000799844609980CF0030EDDF860C0CDF89F
:102F60006CC043EA8E33CCF8003032923392006961
:102F700000788DF82C009DF82C00249207F8490C5D
:102F8000249A2692126822F460520492FFF7D8FD28
:102F9000049A07990346099803F0070C249B27938A
:102FA00042EACC221A60249A30923192C0680078AA
:102FB00007F8B30C17F8B30C1C9207F8690C1C9AAD
:102FC0001E92126822F4E0620592FFF7B9FD059A9D
:102FD00007990346099803F0070C1C9B1F9342EACC
:102FE0000C221A601C9A2E922F928068007807F8A3
:102FF000B20C17F8B20C289207F8390C289A2A92CA
:10300000126822F0F0020692FFF79AFD069A0799DD
:103010000346099803F00F0C289B2B9342EA0C12ED
:103020001A60289A08923692379240690078109276
:1030300000F0010007F8990C01F037F808990346F1
:103040000998129107F8923C12991491096821F499
:10305000800107F8913C129A159241EA8351116060
:1030600012990A912C912D91406801F00AF848B903
:10307000FFE70998006800F0F0FF07F8A50C07F8D3
:10308000B10C03E0022007F8B10CFFE70A9917F82A
:10309000B10C209107F8590C2099229109680191EF
:1030A00046F20861C0F60001FFF74AFD02460198AA
:1030B0002099239162F30100086020980F9038B0A6
:1030C00080BD81B00090006801B0704781B0009071
:1030D000C06801B0704781B00090006901B07047CE
:1030E00081B00090806801B07047F0B503AF4DF833
:1030F000048DBAB01A9101461A981B910168406874
:103100001C911D901C98012804D1FFE71D982F9059
:103110001E9005E040F60010C0F23D001E90FFE753
:103120001A98006A012808D1FFE71A98406A189097
:1031300030901E98199048B102E001201F900BE0DA
:1031400018981999B0FBF1F01F9005E046F27860ED
:10315000C0F6000002F0B0FB1F98012807D1FFE77E
:10316000002007F86E0C1C98012803D006E01F9879
:1031700080BB2CE01D983190239005E041F20020A7
:10318000C0F27A002390FFE717F86E1C17F86D0C59
:1031900001F001018DF880108DF8810023982190B5
:1031A000FFE71A989DF880209DF88110134615932B
:1031B0000B46169302F0010207F82E2C07F82D1C7F
:1031C000219917913391806801283DD042E01F98E2
:1031D00038B109E01F981028F9D8FFE71F9824900C
:1031E00005E00120249002E010202490FFE79DF8E4
:1031F0009000811E149102280DD3FFE7149807F860
:10320000620C012007F8630C1E982499A0FB0110A2
:10321000139198B905E046F28860C0F6000002F00C
:10322000FFFA139817F8632C17F8621C02F00102DA
:103230008DF880208DF881102190B2E746F29860D9
:10324000C0F6000002F0FFFA1A98C068129034909D
:1032500068B103E0072007F8610C22E01798129983
:10326000B0FBF1F00146119100280AD205E046F2C8
:10327000A860C0F6000002F01FFB1198022808D0D9
:103280000BE011980128F8D8FFE7072007F8610C38
:1032900007E0082007F8610C03E0119802280DD818
:1032A00008E017F8610C07F85B0C17F85B0C0B28AB
:1032B00054D848E0119805280CD807E01198052843
:1032C000F8D8FFE7092007F8610CEAE711980B2806
:1032D0000CD807E011980B28F8D8FFE70A2007F868
:1032E000610CDEE7119827280CD807E011982728F1
:1032F000F8D8FFE70B2007F8610CD2E711985F2898
:103300000CD807E011985F28F8D8FFE70C2007F8E1
:10331000610CC6E71198BF280CD807E01198BF28A8
:10332000F8D8FFE70D2007F8610CBAE70F2007F87F
:10333000610CB6E71198C0090228F7D8FFE70E2004
:1033400007F8610CADE717F8610C07F8590C17F88E
:10335000590CC11F1091072810D30AE017F8610C0F
:1033600007F85A0C17F85A0C811F0F91062830D312
:103370002AE01098C0B2202806D30EE046F2B860CA
:10338000C0F6000002F04CFA109800F01F01012076
:10339000884001460E9160B105E046F2C860C0F673
:1033A000000002F076FA17980E99B0FBF1F0269023
:1033B00005E046F2D860C0F6000002F07DFA1A98E7
:1033C0000069012826D02AE00F98C0B2202806D331
:1033D0000EE046F2E860C0F6000002F021FA0F9815
:1033E00000F01F010120884001460D9160B105E009
:1033F00046F2F860C0F6000002F04BFA17980D99FB
:10340000B0FBF1F02690DAE746F20870C0F6000053
:1034100002F052FA1A9840693590289007E02698F1
:1034200045F20011C0F2252188420ED307E026990B
:103430002898084402460C9288420ED308E045F2D0
:103440000010C0F225202890F1E726982890EEE79A
:103450000C98411E0B9150B105E046F21870C0F671
:10346000000002F0CAF928980A9098B105E046F2E7
:103470002870C0F6000002F0D3F90B980A99B0FB4F
:10348000F1F00146099102280ED3FFE709980228BE
:103490000ED005E046F22870C0F6000002F00CFAEB
:1034A0000998022811D80CE003208DF8A40003E04D
:1034B00004208DF8A400FFE71A988069012818D02D
:1034C0001FE0099805280CD807E009980528F8D8C6
:1034D000FFE705208DF8A400EEE707208DF8A40093
:1034E000EAE709980B28F8D8FFE706208DF8A40032
:1034F000E2E71A98C069079036902699089168B15A
:1035000003E0032007F8530C22E008980799B0FB6A
:10351000F1F00146069100280AD205E046F2387023
:10352000C0F6000002F0C8F90698022808D00BE0A7
:1035300006980128F8D8FFE7032007F8530C07E0A6
:10354000042007F8530C03E0069802280FD80AE07D
:1035500017F8530C07F8520C17F8520CC11E0591BE
:1035600003281DD317E0069805280CD807E0069815
:103570000528F8D8FFE7052007F8530CE8E70720EF
:1035800007F8530CE4E706980B28F8D8FFE7062065
:1035900007F8530CDCE70598C0B2202806D311E0E9
:1035A00046F24870C0F6000002F03AF9059800F0C3
:1035B0001F0101208840014603913790269904910C
:1035C00018B305E046F25870C0F6000002F061F949
:1035D00017981699159A049BDDF80CC0B3FBFCF301
:1035E0009C46CDF808C03893DDF870C01D9BCDF81F
:1035F000A8C02B9302F001028DF8B0208DF8B11015
:103600002D902A98012806D00CE046F26870C0F68A
:10361000000002F051F99DF8B00000F0010001280F
:1036200004D0FFE7012007F8510C0BE02D984AF277
:103630000021C0F24A418842F4D1FFE7002007F898
:10364000510CFFE71A98806A012806D1FFE71A9803
:10365000C06A0190399068B103E0032007F83D0C7F
:1036600032E002980199B0FBF1F001460091002888
:103670000AD205E046F27870C0F6000002F01CF9AC
:10368000009802280CD807E000980228F8D8FFE735
:10369000002007F83D0C17E0009804280CD807E03C
:1036A00000980428F8D8FFE7012007F83D0C0BE04C
:1036B000032007F83D0C07E000980728F8D8FFE73B
:1036C000022007F83D0CFFE71B99169C159D17F883
:1036D00061EC9DF8A4C017F8533C17F8512C17F86B
:1036E0003D0CDDF870801D9EC1F800804E6005F035
:1036F00001050D724C7281F80EE081F80CC04B731D
:1037000002F001028A72C8723AB05DF8048BF0BD13
:10371000F0B503AF4DF804BDAEB019911A902491E5
:10372000087AC00750B1FFE71998417A0A46189203
:1037300007F8311C0068012805D009E019980068D5
:10374000012833D037E01998406826901C9005E096
:1037500040F60010C0F23D001C90FFE718981C993D
:103760001691C0B202301790002038B9FFE71698C2
:103770001799A0FB0110159148B905E046F2887031
:10378000C0F6000002F039F815981B9005E046F2EB
:103790009870C0F6000002F056F81998807B07F880
:1037A0004F0C17F84F0C0B2818D80AE019984068EE
:1037B00027901B90F1E741F20020C0F27A001B90A5
:1037C000EBE719981B991391807B07F84D0C17F8BC
:1037D0004D0CC11F1491072812D30CE019981B99A6
:1037E0001191807B07F84E0C17F84E0C811F129137
:1037F000062836D330E01498C0B2202806D30EE055
:1038000046F2A870C0F6000002F00AF8149800F022
:103810001F01012088400146109160B105E046F289
:10382000B870C0F6000002F034F813981099B0FB9D
:10383000F1F01D9005E046F2C870C0F6000002F0FD
:103840003BF81998007B8DF87C009DF87C00C11E28
:103850000F9103282BD325E01298C0B2202806D35D
:103860000EE046F2D870C0F6000001F0D9FF1298C1
:1038700000F01F010120884001460E9160B105E073
:1038800046F2E870C0F6000002F003F811980E99B5
:10389000B0FBF1F01D90D4E746F2F870C0F60000DE
:1038A00002F00AF80F98C0B2082806D314E046F6D2
:1038B0000800C0F6000001F0B3FF0F9800F0070108
:1038C0000120884001460B9107F8250C1D990C91A9
:1038D00001460D91C0B105E046F61800C0F60000A3
:1038E00001F0D7FF19980C990D9AB1FBF2F10A4635
:1038F00009922991407B07F84B0C17F84B0CC11E1D
:103900000A9103280BD305E046F62800C0F6000014
:1039100001F0D2FF0A98C0B2082806D314E046F698
:103920003800C0F6000001F07BFF0A9800F00701A4
:10393000012088400146069107F81D0C1D9907914A
:1039400001460891D0B105E046F64800C0F60000F7
:1039500001F09FFF19980799089AB1FBF2F10A4606
:1039600004922B91C07A07F84A0C17F84A0C411CB4
:10397000C8B20A46059288420FD105E046F65800C3
:10398000C0F6000001F098FF0598400007F8150CFC
:10399000C0B20146039110B305E046F66800C0F6D8
:1039A000000001F02AFF19980499039AB1FBF2F183
:1039B0000A4602922D91D0F800C04368027A417AFB
:1039C0001B98CDF880C0219302F001028DF8882069
:1039D0008DF8891023902098012806D00CE046F637
:1039E0007800C0F6000001F067FF9DF8880000F045
:1039F0000100012804D0FFE7002007F8490C14E07B
:103A00002398019046F60041C0F2DC21884208D09C
:103A1000FFE701984AF20021C0F24A418842EBD107
:103A2000FFE7012007F8490CFFE71B984AF2012144
:103A3000C0F24A4188420BD3FFE746F68800C0F641
:103A4000000046F61412C0F600028A2101F0EAF9DD
:103A50001D984AF20021C0F24A418842EDD8FFE7A2
:103A6000099845F20011C0F225218842E5D8FFE708
:103A700004984AF20021C0F24A418842DDD8FFE7AB
:103A8000029849F68071C0F2D5018842D5D8FFE787
:103A90001D9800F040F90646099800F03CF90546EB
:103AA000049800F038F904461B9800F034F90146F8
:103AB0000298009100F02FF9DDF818C0009B1A99C8
:103AC000DDF82CE0024617F8490C0E604D608C6062
:103AD00081F814E081F815C0CB600A6100F00100A4
:103AE00088752EB05DF804BBF0BD81B0009001B0C8
:103AF000704781B0009001B0704780B56F468AB0C2
:103B000003900691089006A800F05EFC0146039819
:103B10000491FFF7EAFF00F0E4FB014604984DF63C
:103B20008362C4F21B32A1FB0221890CA0FB0110AD
:103B3000059118B9FFE70598079005E046F68C1047
:103B4000C0F6000001F07FFE079810B9FFE70AB049
:103B500080BD07986FF07F4100F032F9014603986D
:103B600001910991FFF7C5FF0199043000F05AFC5B
:103B70000398FFF7BEFF043000F079FC0398FFF7CD
:103B8000B8FF043000F086FC01990798421A0292AF
:103B9000884203D3FFE70298079005E046F69C10A1
:103BA000C0F6000001F03CFE0398FFF7A2FF0430CE
:103BB00000F04BFC0028F7D0FFE70398FFF799FFD0
:103BC000043000F081FCBFE780B56F4684B00091FF
:103BD0000146009801910291039000F0A4F801467B
:103BE0000198FFF78AFF04B080BD80B56F4684B0AE
:103BF0000090029003914FF47A70A1FB00100191A4
:103C000030B9FFE701990098FFF7DEFF04B080BDEF
:103C100046F61420C0F6000001F015FE80B56F4690
:103C200082B0009027F8021C89B2FFF7DEFF02B0D5
:103C300080BD81B0009042F20000C4F2020001B0E9
:103C4000704783B002900190002000900098019985
:103C500003B0704784B000900390007AC00730B979
:103C6000FFE70098043002900020019005E00098E2
:103C70000430029001200190FFE70198029904B0FE
:103C8000704780B56F4682B0009001910068096866
:103C900000F0C3FA02B080BD80B56F4682B00090DC
:103CA00001910068096800F069FA02B080BD80B532
:103CB0006F4686B001910390049100F017FB0199C3
:103CC00002460292059031B1FFE702980199B0FBDC
:103CD000F1F006B080BD46F67C20C0F6000001F091
:103CE000EBFD80B56F4686B001910390049100F022
:103CF0001CFB019902460292059031B1FFE7029840
:103D00000199B0FBF1F006B080BD46F67C20C0F60C
:103D1000000001F0D1FD80B56F4682B0019000F047
:103D2000CDFA02B080BD80B56F4682B0019000F040
:103D300050FB02B080BD80B56F4684B00290039105
:103D4000FFF79FFF07F8090C17F8090C022807D0A6
:103D5000FFE717F8091C481CC0B2022805D3FFE78B
:103D6000002007F80A0C04E0FEDE012007F80A0C28
:103D7000FFE717F80A0C00F0010004B080BD80B521
:103D80006F4684B002900391FFF786FF07F8090C95
:103D900017F8090C022809D0FFE717F8090CFF38BB
:103DA000B0FA80F0400907F80A0C03E0002007F899
:103DB0000A0CFFE717F80A0C00F0010004B080BD00
:103DC00080B56F4682B00090019100F002F802B019
:103DD00080BD80B56F4684B000900191012007F846
:103DE000020C684601A900F02DF907F8030C17F83A
:103DF000031C481CC0B2022802D3FFE706E0FEDE27
:103E0000002007F8020C0098029002E0019802904E
:103E100003E0FFE7029804B080BD17F8020CC0076A
:103E20000028F7D0FFE7F5E787B003900491A0FBE7
:103E30000110002818BF01200A46009205918DF854
:103E40001A008DF81B009DF81B00C00728B9FFE77A
:103E5000009802900120019008E045F6EC70C0F651
:103E600000000168406801910290FFE70198029903
:103E700007B07047B0B502AF90B01C460191014643
:103E80000198099008910B940A92A4FB015CA0FB95
:103E9000023E2B44A1FB0221C9184FF0000343F15D
:103EA0000003002C18BF0124002818BF0120204067
:103EB000BEF1000F18BF4FF0010E40EA0E00BCF13A
:103EC000000F18BF4FF0010C40EA0C0018431346D6
:103ED00002930B4603930C920D9107F80A0C07F816
:103EE000090C17F8090CC00748B9FFE703980299B5
:103EF0000691079000200590012004900CE046F602
:103F00009021C0F600010A684B688868C96805936B
:103F1000049207910690FFE704980599069A079B7B
:103F200010B0B0BD80B56F46A2B0019003910F9064
:103F3000FFF787FE059006910598029030B1FFE7E4
:103F40000298012817D0FFE72AE0FEDE06980790C6
:103F500007A810900398089008A811900799039853
:103F60001C911D90096802680020914298BF0120B1
:103F700007F8750C15E00698099009A812900398A7
:103F80000A900AA813900999039820912190096832
:103F900002680020914238BF012007F8750C00E04C
:103FA00008E017F8750CC00720B9FFE7002007F8F4
:103FB000760C0DE00198FFF74DFE0B900C910B98DD
:103FC000009058B1FFE7009801281AD0FFE72BE0D6
:103FD00017F8760C00F0010022B080BD0C98149008
:103FE00003A915910D900DA9169103991A911B9093
:103FF000096802680020914298BF012007F8760CFA
:1040000016E00C98179003A918910E900EA919911B
:1040100003991E911F90096802680020914238BFE1
:10402000012007F8760C03E0012007F8760CFFE783
:10403000CEE780B56F4682B000900191FFF772FF26
:1040400002B080BD80B56F4684B0019002910198A6
:10405000029900F00CFB04B080BD82B001900068B2
:10406000012804D1FFE701208DF8030003E00020C0
:104070008DF80300FFE79DF8030000F0010002B097
:10408000704782B001900078C00720B1FFE701209F
:104090008DF8030003E000208DF80300FFE79DF892
:1040A000030000F0010002B0704781B08DF80200FB
:1040B0008DF803009DF8030000F0010001B0704787
:1040C00081B08DF802008DF803009DF8030001B067
:1040D000704780B56F4684B000900390FFE700986A
:1040E00000F04EF9029001200190FFE7019802993B
:1040F00004B080BD80B56F468EB001900990FFE797
:104100000198012200231946FFF7B4FE059104909F
:1041100007930692049801280FD1FFE706980799A4
:104120000B910A904FF47A72002301F09FFD024632
:1041300000920D910C9031B102E00020029009E054
:104140000020029006E0009800F00EF90390012094
:104150000290FFE7029803990EB080BD80B56F46CC
:1041600082B00190FFF7C6FF02B080BD80B56F46F8
:1041700082B00190FFF7ADFF02B080BD80B56F4601
:1041800096B0049105900B900C91FFE705980121E2
:10419000FFF74AFE02460498029203910D920E9197
:1041A0004FF47A71FFF740FE029B039A0F90109133
:1041B0000793089209900A910798012804D1FFE714
:1041C0000998012804D0FFE7022007F83D0C20E001
:1041D0000898009011900A990191129114901591EC
:1041E000884205D3FFE700980199884208D803E088
:1041F000FF2007F8090C07E0002007F8090C03E08E
:10420000012007F8090CFFE717F8090C07F83D0C27
:10421000FFE717F83D0C16B080BD80B56F4696B02D
:10422000049105900B900C91FFE705980121FFF791
:10423000FBFD02460498029203910D920E9144F206
:104240004021C0F20F01FFF7EFFD029B039A0F9090
:1042500010910793089209900A910798012804D1B8
:10426000FFE70998012804D0FFE7022007F83D0C7A
:1042700020E00898009011900A99019112911490F1
:104280001591884205D3FFE700980199884208D824
:1042900003E0FF2007F8090C07E0002007F8090CED
:1042A00003E0012007F8090CFFE717F8090C07F8ED
:1042B0003D0CFFE717F83D0C16B080BD80B56F468A
:1042C00082B001900090002028B9FFE7009800F02C
:1042D00057F802B080BD46F67C20C0F6000001F021
:1042E000B2FA81B00090006801B0704780B56F46A7
:1042F0008CB00A90FFF73AFF0290039102980128D0
:1043000004D1FFE703980B900CB080BD46F6B021B6
:10431000C0F6000104A8019000F0F6FC019846F6F2
:104320007C21C0F6000100F05EFD80B56F468CB0C8
:104330000A90FFF713FF029003910298012804D11D
:10434000FFE703980B900CB080BD46F6B021C0F695
:10435000000104A8019000F0D7FC019846F67C21EA
:10436000C0F6000100F03FFD80B56F4682B00090BE
:10437000019000F08BF900F08BF9009802B080BD3D
:1043800080B56F4682B00090019000F081F900F096
:104390007FF9009802B080BD80B56F4682B0009072
:1043A000019000F074F900F073F9009802B080BD3C
:1043B00080B56F4682B00090019000F069F900F07E
:1043C00066F9009802B080BD81B00090006801B02D
:1043D000704780B56F4682B001900090002028B9E8
:1043E000FFE70098FFF7E4FF02B080BD46F6143007
:1043F000C0F6000001F027FA80B56F4684B0019145
:104400000290039141B1FFE701990298B0FBF1F0EE
:104410000290029804B080BD46F67C20C0F60000F1
:1044200001F04AFA80B56F4688B00090019107907C
:104430004EF21400CEF20000029003910490059118
:10444000069000F0A9FB08B080BD80B56F4686B02D
:10445000019005904EF21000CEF200000290039001
:10446000049000F034FBC0F3004006B080BD80B57E
:104470006F4688B0019007904EF21800CEF200000F
:1044800002900021039104900591069000F084FBB6
:1044900008B080BD80B56F468AB0029009904EF298
:1044A0001000CEF20000019003900490059000F0FF
:1044B0000EFB00F015FC014601980690079108904C
:1044C00000F06AFB0AB080BD80B56F468AB00290EA
:1044D00009904EF21000CEF200000190039004907B
:1044E000059000F0F4FA00F0F5FB01460198069003
:1044F0000791089000F050FB0AB080BD80B56F4670
:1045000094B0039007F83D1C059017F83D0CC007C8
:10451000B0B9FFE7039813904EF21000CEF20000FE
:10452000029007900890099000F0D1FA00F0B2F8DC
:10453000014602980C900D910E9000F02DFB15E0B5
:10454000039812904EF21000CEF2000001900690F7
:104550000A900B9000F0BBFA00F0A2F80146019817
:104560000F901091119000F017FBFFE714B080BD81
:1045700080B56F4600F075F880BD80B56F4600F0DD
:1045800070F880BD80B56F4600F06BF880BD80B5D7
:104590006F4600F066F880BD80B56F4600F061F8A8
:1045A00080BD80B56F4600F05CF880BD80B56F4679
:1045B00000F05CF880BD80B56F4600F052F880BD19
:1045C00080B56F4600F052F880BD80B56F4600F0B0
:1045D0004DF880BD80B56F4600F043F880BD80B5D2
:1045E0006F4600F03EF880BD80B56F4600F039F8A8
:1045F00080BD80B56F4600F034F880BD80B56F4651
:1046000000F02FF880BD80B56F4600F02AF880BD1D
:1046100081B0FFE740F60000C4F201000090FFE720
:10462000009801B0704781B0009001B0704780B52C
:104630006F4682B00190FFF797FE02B080BD80B553
:104640006F4682B00190FFF7A7FE02B080BD80B533
:104650006F4684B0029000F0DEF900F0D8F904B0A3
:1046600080BD80B56F4600F014F880BD704782B001
:104670000090019102680B6800209A4288BF0120D7
:10468000411E9A4238BF084602B0704770477047D3
:104690007047704782B0019040F0040002B070474C
:1046A00082B0019020F0040002B0704780B56F46E0
:1046B00082B0019000F01EFB02B080BD80B56F4655
:1046C00086B041F20000C4F2020000900390049012
:1046D000FEF74EFA0021019100F02DF800980590A8
:1046E000FEF74BFA019900F01BF80098FEF745FA27
:1046F000019900F00AF8012006B080BD81B0009059
:104700000420C4F2010001B0704780B56F4682B04A
:10471000009007F8011C002200F018F802B080BDDC
:1047200080B56F4682B0009007F8011C012200F0AE
:104730000DF802B080BD80B56F4682B0009007F8DA
:10474000011C012200F085F802B080BD80B56F46E3
:104750008EB0134606930B460793099007F80E1C7C
:1047600007F80D2C089046F62430C0F6000008A982
:10477000FFF75FFC58B9FFE746F63030C0F600009F
:1047800046F6D832C0F60002492100F04BFB0798EC
:10479000C0B220280BD3FFE746F6E830C0F6000091
:1047A00046F60442C0F600021A2100F03BFB0798CF
:1047B000C0B2014604910B90089800F14041059168
:1047C000B0F1804F06D3FFE705984101C00E039179
:1047D00070B905E046F61440C0F6000001F020F87C
:1047E000039901F184400246029288420CD305E00D
:1047F00046F61440C0F6000001F025F80498810048
:10480000800F019170B905E046F62440C0F6000023
:1048100000F0F3FF02990198084402460092884292
:1048200011D305E046F63440C0F6000001F00BF865
:10483000009806990C9001F0010107F8011C00F0A6
:10484000ABF90EB080BD46F62440C0F6000000F083
:10485000D4FF80B56F468EB0134606930B46079380
:10486000099007F80E1C07F80D2C089046F6243026
:10487000C0F6000008A9FFF7DCFB58B9FFE746F6D1
:104880003030C0F6000046F6D832C0F600024921AA
:1048900000F0C8FA0798C0B220280BD3FFE746F60D
:1048A000E830C0F6000046F60442C0F600021A21C5
:1048B00000F0B8FA0798C0B2014604910B9008982E
:1048C00000F140410591B0F1804F06D3FFE7059814
:1048D0004101C00E039170B905E046F61440C0F6E0
:1048E000000000F09DFF039901F18440024602920E
:1048F00088420CD305E046F61440C0F6000000F0F4
:10490000A2FF04988100800F019170B905E046F67E
:104910002440C0F6000000F070FF0299019808449E
:1049200002460092884211D305E046F63440C0F6B4
:10493000000000F088FF009806990C9001F001013A
:1049400007F8011C00F028F90EB080BD46F624409F
:10495000C0F6000000F051FF81B001B07047B0B563
:1049600002AF99B000210C910E9110911291149107
:1049700016910C9A0D99009201910E9A0F9902923C
:104980000391109A119904920591129A1399069223
:104990000791149A159908920991169A17990A92F3
:1049A0000B916946B1E83C50A0E83C5091E83C507E
:1049B00080E83C5019B0B0BD82B000920A46014672
:1049C000009801901060106852684A60086002B058
:1049D000704780B56F4682B000904FF4E130FFF72A
:1049E00022FE0099002207F8032C07F8022C07F892
:1049F000012C086017F8030C00F00100887117F80B
:104A0000020C487117F8010C087102B080BD81B02A
:104A1000009001B0704780B56F4684B0009002905E
:104A2000012007F8090C17F8090C00F00101A7F1A3
:104A30000A00FFF763FD0098FEF743FB0821FFF72C
:104A4000DBFC04B080BD80B56F4686B041F200004B
:104A5000C4F20200009003900490FEF789F802214E
:104A60000191FFF768FE00980590FEF786F801991E
:104A7000FFF756FE0098FEF780F80199FFF745FE14
:104A8000FFF78FFDFFF7BAFDFFF781FDFFF784FD0C
:104A9000FFF7B9FDFFF776FDFFF76FFDFFF79FFD0D
:104AA000FFF7A7FDFFF787FDFFF79EFDFFF760FD0E
:104AB000FFF790FDFFF77AFDFFF782FDFFF785FD19
:104AC00006B080BD43F60000C4F20100704780B517
:104AD0006F4684B001900290FFE70198042100F036
:104AE00007F8FFE7019800680390039804B080BDC1
:104AF00080B56F468EB0019109900A9146F67041DB
:104B0000C0F600010B910C900146029108B9FFE735
:104B100019E001984FF0553101EA5001401A4FF069
:104B2000333101EA900120F0CC30084400EB101042
:104B300020F0F0304FF001314843000E0D900D98F9
:104B4000012807D00CE046F6FC40C0F600006E21BC
:104B500000F07BF902980199013908421AD0F2E776
:104B600046F67040C0F6000003900120049045F620
:104B7000EC70C0F6000001684068079108900420BE
:104B800005900020069046F6EC41C0F6000103A80F
:104B900000F029F90EB080BD80B56F4684B0009159
:104BA000019002900391FFE70198042100F006F8BC
:104BB000FFE700980199086004B080BD80B56F469A
:104BC0008EB000910890099146F67041C0F6000140
:104BD0000A910B900C900146019108B9FFE719E08A
:104BE00000984FF0553101EA5001401A4FF033312F
:104BF00001EA900120F0CC30084400EB101020F0C6
:104C0000F0304FF001314843000E0D900D9801280F
:104C100007D00CE046F66A50C0F600006F2100F0A5
:104C200014F901980099013908421AD0F2E746F6C2
:104C30007040C0F6000002900120039045F6EC7031
:104C4000C0F60000016840680691079004200490B7
:104C50000020059046F6EC41C0F6000102A800F0E5
:104C6000C2F80EB080BD91B0009005900120069072
:104C70000790FFE70098011D089141680391099092
:104C800003A90A9100680B900399401AB0FA80F0CA
:104C900040098DF80B00FFE79DF80B00C00720B915
:104CA000FFE700980068049002E0002001900EE009
:104CB0000099081D0C900D9008680E900130086056
:104CC000FFE704A80F90049810900190FFE7019867
:104CD00011B0704782B0019020F0010002B070471F
:104CE00082B0019040F0010002B0704772B6704788
:104CF00062B67047012101EB50000138FDD17047C9
:104D0000EFF310807047704782B000910146009821
:104D1000019008600120486045F6EC70C0F6000084
:104D2000026840680A614861042088600020C86009
:104D300002B0704781B00090FFE7FEE7FFE7FEE7B3
:104D4000704780B56F46A8B001AB4FF0200C07C389
:104D500003A945F67F300E9145F6DF01C0F600014C
:104D600008230D9101A9C0F600001E930123CDE98F
:104D70000B010021CDE91CC304232691CDE91A13B0
:104D800002221691CDE914C110A9089146F60071CE
:104D90000F9002A8C0F600010A90032004910AA90E
:104DA000CDE9061046F618718DF89C008DF87C0050
:104DB000C0F600018DF85C000990059004A82592CA
:104DC000CDF890C02292209218921292109200F088
:104DD0000AF880B56F46024646F62870C0F6000015
:104DE0002B2100F01FF880B56F4684B0CDE901019A
:104DF00001A80122ADF80C20FFF79CFF80B56F469B
:104E00008AB00DF1040C90E870430020634683E8FB
:104E100070438DF8240007A88DF82510CDE907C24E
:104E2000FFF788FF80B56F4688B094460122019253
:104E300006AA0023CDE906010092042268466146D5
:104E4000049303930292FFF7CEFF80B56F4688B0BC
:104E50000022CDE90601049201230392042202926A
:104E600046F668726846C0F600020021019306AB60
:104E70000093FFF7C3FFF0B503AF2DE9000F8BB030
:104E800092460322DAF8106007AB8DF82820202222
:104E900006920022002E07C30492029263D0DAF831
:104EA0001400002800F08C80DAF800404FEA401B24
:104EB000DAF80850013820F078404FF000084FF041
:104EC00000090130019004EB09014A683AB1DDE9BB
:104ED0000703DB6809689847002840F0838006EBE9
:104EE00008000069069006EB8900017F8DF8281004
:104EF000D0E90221836909937AB1012A02D155F8D8
:104F000031203AB10022CDE9022156F80820022AC8
:104F10000AD10FE005EBC10149680122CDE9022168
:104F200056F80820022A05D04168012A07D155F811
:104F300031200AB1002203E005EBC10149680122DA
:104F4000CDE90421416955F8310005EBC1014A68FA
:104F500002A99047002845D108F1200809F1080965
:104F6000C345B0D126E0DAF80C0048B3DAF80840BF
:104F70000DF10808DAF800B0002604EBC00901388A
:104F800020F06040013001900BEBC6014A682AB165
:104F9000DDE90703DB680968984718BB04EBC60521
:104FA0004146D5E900029047E0B905F10800013615
:104FB0004845E9D10199DAF80400814205D316E0A9
:104FC0000021DAF80400814211D2DAF800000A4622
:104FD00050F8311000EBC2004268DDE90703DB68DE
:104FE000984720B101200BB0BDE8000FF0BD0020B4
:104FF0000BB0BDE8000FF0BDF0B503AF2DE9000F19
:1050000085B0D7F80CA01C461546002949D0D0F829
:105010001CB02B221BF0010108BF4FF4881201EBDA
:105020000A09D7F808805FEA4B7144D5102C049226
:1050300053D2002C5DD004F0030CA2084FF0000105
:1050400059D002F003026E1CCDE90148A1EB820E9B
:105050006FF003020395B518043295F9033095F902
:10506000044013F1410FC8BF013114F1410FC8BF13
:10507000013195F9053013F1410FC8BF013195F9A0
:10508000063013F1410F0EEB0203C8BF01310433A8
:10509000E1D1039D0432DDE90148BCF1000F2ED1BE
:1050A00045E0D0F81CB00AF101092D22D7F808809C
:1050B0005FEA4B71BAD400250168E9BB2146D0E90B
:1050C0000546009131462B46204600F0EFF860B1CE
:1050D000012005B0BDE8000FF0BD06462846214678
:1050E00000F026F90146304621E0F36820464146AB
:1050F00076E000211BE00022BCF1000F17D0AB5678
:1051000013F1410FC8BF0131BCF1010F0FD02A4488
:1051100092F9013013F1410FC8BF0131BCF1020F08
:1051200005D092F9022012F1410FC8BF0131049A53
:10513000894401680029C1D0CDE90285D0F80480F6
:10514000C84510D95FEA0B711CD490F82010A8EB69
:10515000090B0492A146DFE801F05B0255025946B3
:105160004FF0000B54E02146D0E90546009131464E
:10517000039B204600F09AF878B3012005B0BDE803
:10518000000FF0BD3021D0F810B02346016101219D
:1051900090F82050D0E9054680F820103146019063
:1051A00000932046039B00F081F80146012000296E
:1051B0007FF48FAF0495A8EB0900DDF80880451C4B
:1051C000013D14D032692046302190470028F7D0A5
:1051D000012005B0BDE8000FF0BDF368204602993C
:1051E000524605B0BDE8000FBDE8F0401847F3682F
:1051F0002046414652469847B8B3012005B0BDE865
:10520000000FF0BD0BF101024FEA5B014FEA520BB8
:10521000D0E904644D1CD0F81880013D0BD0D8F8BB
:1052200010202046314690470028F6D0012005B0D6
:10523000BDE8000FF0BDCDF800902046DDE9033257
:10524000414600F033F820B1012005B0BDE8000F61
:10525000F0BDD8F80C30204602995246984778B1F4
:10526000012005B0BDE8000FF0BD0198049980F859
:105270002010C0F810B0002005B0BDE8000FF0BD50
:105280000025AB4509D0D8F810202046314690477C
:1052900001350028F5D0691E00E059460020594527
:1052A00038BF012005B0BDE8000FF0BDF0B503AF79
:1052B0004DF8048DD7F808801C460E46B2F5881FBD
:1052C0000AD033691146054698470146284619B168
:1052D00001205DF8048BF0BD3CB1F36821464246E5
:1052E0005DF8048BBDE8F040184700205DF8048BA2
:1052F000F0BD80B56F468CB0CDE90001002047F2CB
:105300009C0106900220C0F600010390059008A8B9
:10531000029101A9049045F67F30C0F60000CDE966
:10532000090111460B906846089002A8FFF75BFD43
:10533000F0B503AF2DE9000F81B08346033020F0B4
:10534000030AAAEB0B0841450AD3A1EB080E5FEA5A
:105350009E0905D00EF0030CDA455BD10020A0E0D9
:1053600089B301F0030C8B084FF0000030D0A0EBA4
:1053700083030BF101066FF003057219043592F9EE
:10538000031092F9044011F1410FC8BF013014F12C
:10539000410FC8BF013092F9051011F1410FC8BF8C
:1053A000013092F9061011F1410F03EB0501C8BF5E
:1053B00001300431E1D12B1DBCF1000F0CD101B043
:1053C000BDE8000FF0BD002001B0BDE8000FF0BD4A
:1053D0000023BCF1000FF2D01BF9031011F1410FB3
:1053E000C8BF0130BCF1010FE9D00BEB030292F909
:1053F000011011F1410FC8BF0130BCF1020FDED026
:1054000092F9021011F1410FC8BF013001B0BDE89F
:10541000000FF0BDABEB0A0010F1040F02D9002021
:10542000002522E00BF1010100206FF003068D1929
:1054300095F9034095F9042014F1410FC8BF0130DC
:1054400012F1410FC8BF013095F9052012F1410F4B
:10545000C8BF013095F9062012F1410FC8BF0130D5
:1054600016F1080506F10406E1D1DA4519D01BF959
:10547000051011F1410FC8BF0130B8F1010F10D074
:105480000BEB050191F9012012F1410FC8BF01306A
:10549000B8F1020F05D091F9021011F1410FC8BF08
:1054A00001300BEB08020026BCF1000F1AD02EF0E1
:1054B0000301114491F9005015F1410FC8BF0126B5
:1054C000BCF1010F0ED091F9015015F1410FC8BF89
:1054D0000136BCF1020F05D091F9021011F1410F14
:1054E000C8BF013630444FF0FF1811E0002608EA2B
:1054F000162126F0FF231944A9EB0B090AEB8B02B6
:105500001BF0030501EB014100EB114040F041812C
:10551000B9F1000F3FF453AFB9F1C00FCB4628BF2C
:105520004FF0C00B9246B9F1040FDFD36FF00F01BB
:1055300001EB8B020121302A01EB1211009102D202
:1055400000265546A7E021F003020026554695E8BF
:105550000A50043A6FEA01084FEAD81444EA91115C
:105560006FEA030421F0FE314FEAD41444EA9313A6
:10557000314423F0FE3319446FEA0C034FEAD3138E
:1055800043EA9C1323F0FE3319446FEA0E034FEAFB
:10559000D31343EA9E1323F0FE3319442B696FEAB9
:1055A00003064FEAD61646EA931323F0FE33194456
:1055B0006B696FEA03064FEAD61646EA931323F0A7
:1055C000FE331944AB696FEA03064FEAD61646EA82
:1055D000931323F0FE331944EB696FEA03064FEA95
:1055E000D61646EA931323F0FE3319442B6A6FEA6A
:1055F00003064FEAD61646EA931323F0FE33194406
:105600006B6A6FEA03064FEAD61646EA931323F055
:10561000FE331944AB6A6FEA03064FEAD61646EA30
:10562000931323F0FE331944EB6A6FEA03064FEA43
:10563000D61646EA931323F0FE3319442B6B6FEA18
:1056400003064FEAD61646EA931323F0FE331944B5
:105650006B6B6FEA03064FEAD61646EA931323F004
:10566000FE331944AB6B6FEA03064FEAD61646EADF
:10567000931323F0FE331944EB6B05F140056FEAF9
:1056800003064FEAD61646EA931323F0FE3303EBE4
:1056900001067FF45CAF00994FF0FF1811F0030C86
:1056A0003FF425AF95E81A40BCF1010F6FEA010203
:1056B0004FEAD21242EA91116FEA030221F0FE3161
:1056C0004FEAD212314442EA931222F0FE321144E0
:1056D0006FEA04024FEAD21242EA941222F0FE323A
:1056E00011446FEA0E024FEAD21242EA9E1222F0F1
:1056F000FE3202EB01063FF4FAAE05F1100EBCF1EA
:10570000020F9EE80E406FEA01044FEAD41444EA07
:1057100091116FEA020421F0FE314FEAD41444EAF9
:105720009212314422F0FE3211446FEA03024FEA32
:10573000D21242EA931222F0FE3211446FEA0E02B4
:105740004FEAD21242EA9E1222F0FE3202EB01062A
:105750003FF4CDAE20352ECDCC43E40944EA91117F
:1057600021F0FE313144D643F60946EA921222F086
:10577000FE321144DA43D20942EA931222F0FE3299
:105780001144EA43D20942EA951222F0FE32561839
:10579000ADE60BF0FC03012D5AF823106FEA01026D
:1057A0004FEAD21242EA911121F0FE3215D00AEBF3
:1057B0008301022D4B686FEA03064FEAD61646EACC
:1057C000931323F0FE331A4407D08968CB43DB09D7
:1057D00043EA911121F0FE310A44FF21C0F2070192
:1057E00001EA122122F0FF22114401EB014100EBFA
:1057F000114001B0BDE8000FF0BD80B56F4686B026
:105800000146002001220490019246F6F8520390CE
:105810000420C0F60002029068460092FFF7E3FA07
:1058200080B56F4686B001460020012204900192A7
:1058300046F6246203900420C0F6000202906846F7
:105840000092FFF7D0FA80B56F4686B0014600207F
:1058500001220490019246F6506203900420C0F6A3
:105860000002029068460092FFF7BDFA80B56F46CD
:1058700086B00146002001220490019246F678622B
:1058800003900420C0F60002029068460092FFF7E1
:10589000AAFA80B56F4686B0014600200122049026
:1058A000019246F6A46203900420C0F60002029022
:1058B00068460092FFF797FA80B56F4686B00146BA
:1058C000002001220490019247F2C80203900420B4
:1058D000C0F60002029068460092FFF784FAB0B565
:1058E00002AFA2B000680DF1080C812500F00F0294
:1058F00002F137040A2A38BF02F130040CEB05022A
:1059000002F8024C040929D004F00F0404F1370313
:105910000A2C38BF04F13003040A02F8033C21D0FA
:1059200004F00F03A5F1040E03F137040A2B38BF6E
:1059300003F1300402F8044C040B17D004F00F03F9
:10594000754603F137040A2B38BF03F13004000C0D
:1059500002F8054CCAD1AEF101000AE0A81EA5F17B
:10596000010E06E0E81EA5F1020E02E0EA1E7046F6
:10597000964681280FD2CEF1810260440223CDE900
:10598000000246F69C720846C0F600020121FFF7AD
:1059900033FB22B0B0BD46F68C728021C0F6000207
:1059A000FFF7A7FCF0B503AF2DE9000F87B0026841
:1059B0000E46B2F1FF3F4BDD42F210718A42C0F059
:1059C0008D804EF2FF0841F2597C039646F69E7692
:1059D000A7F126090023C0F2F558CDF2B71C41F219
:1059E0007B4AC0F600064FF0640BA2FB0C0509EBE6
:1059F0000304043B42454FEA553000FB11250246A3
:105A0000A9B24FEA910101FB0AF14FEA514136F880
:105A100011E001FB1B51A4F806E089B236F8111021
:105A2000218142F21071E0D8039E03F10A0102467F
:105A3000632A56D810460A2869D346F69E72023960
:105A4000C0F6000232F81000A7F12602505264E0BE
:105A500046F69E78544242F210708442C0F6000826
:105A600063D341F2597AA7F126090021CDF2B71A82
:105A700041F27B4B4FF0640E0396A4FB0A2609EB20
:105A800001050439720B02FB10461FFA86FC4FEA2F
:105A90009C0303FB0BF35B0C38F81300E88003FB5B
:105AA0001E604EF2FF03C0F2F5539C42144680B2D2
:105AB00038F81000288142F21070DED8039E01F100
:105AC0000A031446632C33D821460A2942D338F8F6
:105AD0001110981EA7F12602115241E00A21632AF3
