:020000040800F2
:100000000000012031010008C134000875410008DA
:10001000C1340008C1340008C134000800000000E9
:10002000000000000000000000000000C1340008D3
:10003000C134000800000000C1340008C1340008C9
:10004000C1340008C1340008C1340008C1340008BC
:10005000C1340008C1340008C1340008C1340008AC
:10006000C1340008C1340008C1340008C13400089C
:10007000C1340008C1340008C1340008C13400088C
:10008000C1340008C1340008C1340008C13400087C
:10009000C1340008C1340008C1340008C13400086C
:1000A000C1340008C1340008C1340008C13400085C
:1000B000C1340008C1340008C1340008C13400084C
:1000C000C1340008C1340008C1340008C13400083C
:1000D000C1340008C1340008C1340008C13400082C
:1000E000C1340008C134000800000000C134000819
:1000F000C1340008C1340008C1340008C13400080C
:10010000C1340008C1340008C1340008C1340008FB
:10011000C1340008C1340008C1340008C1340008EB
:10012000C1340008C1340008C1340008C1340008DB
:1001300003F0C8F9084809490022814201D004C0EF
:10014000FBE707480749084A814202D008CA08C0AD
:10015000FAE700F00BF800DE0000002004000020A9
:1001600000000020000000204452000880B56F46C7
:1001700000F000F880B56F46C0B000F026F907F82F
:10018000010C17F8010CC00730B9FFE744F28410E6
:10019000C0F6000003F097F900F063FC07F8020CCA
:1001A00017F8020CC00730B9FFE744F29410C0F60C
:1001B000000003F088F90FA8059002F0FFFF0599F1
:1001C00021A80690B1E83C50A0E83C5091E83C5092
:1001D00080E83C5002F0EFFF0699A7F14900079034
:1001E0003A9036A801F0DBFB079A36983799389B8E
:1001F000DDF8E4C0CDF8F8C03D933C913B901BA8DE
:1002000008903BA901F0F1F8089802F0A4FC2E90A8
:1002100003F01DF8A7F1420000F05DFA02F0F4FCD3
:1002200007F8410CA7F14100099000F0C4FA0898C2
:1002300000F078FC0A9001200C9001F078F8099900
:1002400002460A9800F092FC01460C98309107F89B
:100250003B0C17F83B1C30A80B9000F02FFB0B98C1
:1002600000F00BFB02460C9891B213460D93ADF8CB
:10027000D420002227F83A2C890841F27B425143CE
:10028000490C0A460E9227F82A1C3290FFE70120FB
:1002900007F8310C17F8311C37F83A2C30A800F069
:1002A00048FB0E9837F83A1C039180B2329980FBD4
:1002B00001100A460492B0EBE17F08D1FFE70399F1
:1002C0000498084402460292884213D605E044F29C
:1002D000A410C0F6000003F093FE0298002100F085
:1002E000CCFB0D9927F83A0C37F83A0C89B28842C2
:1002F0000AD205E044F2B410C0F6000003F05AFE42
:1003000037F83A0C58B9FFE732984FF0FF3180FBCD
:1003100001100A460192B0EBE17F09D105E02EA859
:1003200045F2F05102F0AAF8B1E701983290F6E7F1
:1003300044F2C410C0F6000003F062FE82B00090E8
:10034000019102680B6800209A42C8BF0120411E3B
:100350009A42B8BF084602B0704784B0009001913D
:10036000007800F001000290097801F0010103918A
:10037000401AB0FA80F0400904B0704780B56F466B
:1003800082B003F07FF8019000F00100012804D052
:10039000FFE7002007F8050C03E0012007F8050C33
:1003A000FFE717F8050C00F0010002B080BD80B532
:1003B0006F4682B007F8010C44F2D411C0F6000178
:1003C000781EFFF7CAFF02B080BD80B56F4600F00F
:1003D00096F880BD40F20001C2F2000101200870D1
:1003E000704780B56F4684B00190029101980299E0
:1003F000FFF7A4FF04B080BD80B56F468EB01346F2
:1004000006930B460793099007F80E1C07F80D2C6E
:10041000089044F2D810C0F6000008A902F087F94D
:1004200058B9FFE744F2E410C0F6000044F28C2211
:10043000C0F60002492103F06FF80798C0B22028E7
:100440000BD3FFE744F29C20C0F6000044F2B82230
:10045000C0F600021A2103F05FF80798C0B2014607
:1004600004910B90089800F140410591B0F1804F44
:1004700006D3FFE705984101C00E039170B905E06E
:1004800044F2C820C0F6000003F0A7FD039901F173
:1004900084400246029288420CD305E044F2C82010
:1004A000C0F6000003F0ACFD04988100800F0191BC
:1004B00070B905E044F2D820C0F6000003F07AFDE0
:1004C00002990198084402460092884211D305E03F
:1004D00044F2E820C0F6000003F092FD009806996F
:1004E0000C9001F0010107F8011C02F054FF0EB05E
:1004F00080BD44F2D820C0F6000003F05BFD80B55B
:100500006F4684B0FFF73AFF019007F8020C00F045
:1005100004FB02F0BAFF03A800F0DEFA01460198DE
:100520000A46029207F8011CFFF741FF28B9FFE7CE
:10053000029800F0010004B080BD00F0E9FAF7E78E
:1005400080B56F4684B0FFF719FF019007F8020CE1
:1005500000F0E3FA02F099FF03A800F006FF01465D
:1005600001980A46029207F8011CFFF720FF28B9FC
:10057000FFE7029800F0010004B080BD00F0C8FA67
:10058000F7E780B56F46AAB0059106900A900B91E7
:1005900002F0CEFA014607910C90022007F8850C74
:1005A00017F8850C022808D0FFE717F8850C00F033
:1005B000010007F8710CE0BB28E0059806990B22B2
:1005C00009920E910F9009A80390109002F0B0FAD2
:1005D000039904901190209021912590269002F08B
:1005E00075FE01460398229123911E9124911F913B
:1005F0001EA91FAA00F080F80146049809682790F8
:100600002891299002F0C7FE2AB080BD07981030CB
:100610000290199000201A90189018A800F032F853
:100620000146029809681B901C911D9002F0B3FED0
:10063000C3E7079810300190139000201490129097
:1006400012A800F009F80146019809681590169162
:10065000179002F0A0FEB0E787B001900290202131
:100660000391049005910160069007B0704782B035
:100670000090019121F470000099096840EA01504E
:1006800002B0704780B56F468AB001900490152083
:100690000290002028B9FFE70298C0B2202806D3B4
:1006A00013E044F25830C0F6000003F083FC0198D8
:1006B000029901F01F0201219140059006910790D7
:1006C0000891016009900AB080BD44F26830C0F61C
:1006D000000003F0A8FC80B56F4682B0014601918E
:1006E000781FFFF74EFF00F002F802B080BD80B522
:1006F0006F4600F05BF880BD80B56F468CB001920C
:10070000029003910492059106910968FFF7AFFFEB
:10071000014601980790089109900A9101600B9099
:100720000CB080BD80B56F4688B007F8190C44F254
:100730007831C0F60001A7F1190000F05FF950B957
:10074000FFE744F27931C0F60001A7F1190000F08B
:1007500055F958B900E0F4E744F27A31C0F60001E7
:10076000A7F1190000F04AF958B900E01AE044F284
:100770007B31C0F60001A7F1190000F03FF980B904
:1007800000E0F4E744F28C31C0F6000102A80090CA
:1007900002F07CFE009844F2F831C0F6000102F04D
:1007A0009CFEEFE717F8190C08B080BD80B56F46C6
:1007B00000F033F980BD80B56F4692B0029004908E
:1007C0000078C00720B9FFE7022007F8390C03E0E2
:1007D000002007F8390CFFE7029802F035FA019083
:1007E0000890A7F13901009109910D900E9002F047
:1007F0006DFD014600980A910B9106910C910791AD
:1008000006A907AA00F00AF80146019809680F90A6
:100810001091119002F0BFFD12B080BD80B56F46FF
:100820008EB001920A460199029202460298049201
:100830000590069100F0F2F801460A910B91049898
:100840000078079107F8150C07990991096821F0BC
:10085000E061039144F26441C0F6000100F0A1FDA3
:100860000146039801F0070207990C9140EA0260E3
:10087000086007980D900EB080BD80B56F468AB0B5
:10088000009040F20040C4F20000029040F22C4080
:10089000C4F2000006900890099002F017FD07903E
:1008A000019001A804900590BDF80400ADF80C007B
:1008B000012127F81A1C01300AB080BD80B56F46AF
:1008C00088B0029101460298059107F8070CFFF7DE
:1008D00029FF07F80D0C17F80D0C0146039107F8D6
:1008E000060C012107F8051C40F20041C4F200018A
:1008F000079103281BD8FFE7039840F22041C4F278
:1009000000010091C0B28100084601900020B0EBC8
:10091000112F06D1FFE7019900980122FFF76CFD26
:1009200005E044F2D440C0F6000003F069FB08B0D3
:1009300080BD80B56F4692B0039202910146029845
:10094000069107F82B0C27F82A2CFFF7EBFE039AE9
:1009500007F8310C17F8310C91B2089107F8210C07
:1009600040F20041C4F200010A91014604910428BA
:1009700008D3FFE7049844F2D442C0F600020421F1
:1009800002F0F4FD049940F23440C4F2000000EBA0
:10099000810001900C9008A80D9000210E910B9100
:1009A0000BA900F0ADFB0146019809680F9010916A
:1009B000119002F0F0FC12B080BD80B56F4686B099
:1009C0000191049005910078C00740B9FFE744F217
:1009D000E440C0F6000002900820039007E044F2D3
:1009E000F440C0F6000002900F200390FFE701984A
:1009F0000299039A03F075F806B080BD83B00090A9
:100A0000019100788DF80A0009788DF80B10401AD2
:100A1000B0FA80F0400903B07047704780B56F4668
:100A20008AB002900391079108910491022007F87F
:100A3000110C04990691096821F44061009144F277
:100A40006051C0F6000100F0ACFC0146009801F0D6
:100A500003020499099140EA8220086004980AB0D0
:100A600080BD80B56F46FFF76BFD80BD40F2010190
:100A7000C2F2000101200870704780B56F4682B055
:100A80000090019100F002F802B080BD80B56F4681
:100A900084B000900191684601A9FFF7A2FC07F815
:100AA000020C17F8021C481CC0B2022802D3FFE750
:100AB00003E0FEDE0198029002E00098029000E060
:100AC000FFE7029804B080BD80B56F4682B0019008
:100AD00000F05DFF02B080BD80B56F4682B001902E
:100AE00040F20000C2F200000078C00730B9FFE712
:100AF000FFF770FC012007F8060C03E0002007F860
:100B0000060CFFE717F8060C00F0010002B080BDEC
:100B100080B56F4602F0B4FC80BD80B56F4602F030
:100B2000ADFC80BD80B56F4688B00290049041F264
:100B30000000C4F2020000900590079000F041FC14
:100B40000121019102F020F90098069000F03EFC8E
:100B5000019902F0F8F8009800F038FC019902F0D1
:100B6000DCF80298FFF7B0FF08B080BD80B56F4693
:100B7000ADF53C7D1F9101461F9820912192239055
:100B800001F0F9FFFFE7FFE7FFE720A80430014687
:100B90001D9101218DF8891006218DF88A109DF88C
:100BA00089209DF88A108DF8D6208DF8D7103690C0
:100BB0009DF8D6001E901E99DFE801F0032F5B8799
:100BC000FEDE1D983A9040F20040C4F20000B09062
:100BD000B1901820B29040F21840C4F200001C906E
:100BE0006C900DF1D7011B916D917190729002F094
:100BF0006DFB01461B986E916F916A9170916B919C
:100C00006AA96BAA00F040FB01461C980968739022
:100C10007491759002F0BFFB83E01D983B9040F209
:100C20000040C4F20000B390B4901820B59040F298
:100C30001840C4F200001A9078900DF1D701199174
:100C400079917D907E9002F041FB014619987A914E
:100C50007B9176917C91779176A977AA00F09CFAA6
:100C600001461A9809687F908091819002F093FB69
:100C700057E01D983C9040F20040C4F20000B6904E
:100C8000B7901C20B89040F21C40C4F200001890AD
:100C900060900DF1D701179161916590669002F017
:100CA00015FB01461798629163915E9164915F9183
:100CB0005EA95FAA00F034FA0146189809686790A7
:100CC0006891699002F067FB2BE01D983D9040F21F
:100CD0000040C4F20000B990BA901C20BB9040F2D2
:100CE0001C40C4F2000016908F900DF1D7011591B1
:100CF00090919490959002F0E9FA0146159891919F
:100D000092918D9193918E918DA98EAA00F080FA87
:100D100001461698096896909791989002F03BFBCF
:100D2000FFE7FFE7FFE7FFE720A81190043001216C
:100D30008DF8B7102E90429040F20040C4F20000AF
:100D400010909B900DF1B7010F919C91A090A190F4
:100D500002F0BCFA01460F989D919E9199919F9146
:100D60009A9199A99AAA00F057F901461098096832
:100D7000A290A391A49002F00EFB21A801F08BFD9C
:100D8000014611981391129101F085FD01461398C7
:100D90000A4614922690279158B1FFE714981299A9
:100DA000B0FBF1F001460D912890411E0E9190B1DB
:100DB00005E044F2D050C0F6000003F047F90E9968
:100DC000080C02460B922990012000EB11400C9078
:100DD000002070B905E044F2E050C0F6000003F0D6
:100DE000FCF80D980C99B0FBF1F0411E0A9130B15E
:100DF0000BE044F2F050C0F6000003F0DBF844F2E0
:100E00000060C0F6000003F0E8F80A980B992A90F9
:100E100002460692ADF89210259020A80430089062
:100E2000ADF8AE102C90439040F22840C4F2000080
:100E3000079052900DF1AE005390002154915191C2
:100E400051A900F0C8F801460798096855905691D5
:100E5000579002F0A0FA08990A980A46099231912F
:100E6000329050B9FFE701208DF8C3009DF8C30010
:100E700000F001008DF8C20024E006990020B0EBDC
:100E8000114FF0D1FFE709980699339134903E90C5
:100E900040F22C40C4F2000005904B9033A84C90D7
:100EA00000214D914A914AA900F01AF9014605988E
:100EB00009684E904F91509002F06DFA02208DF823
:100EC000C200FFE79DF8C2008DF8E2009DF8E20045
:100ED000022819D0FFE79DF8E20000F001008DF82C
:100EE000E30044F27460C0F600006946086044F212
:100EF0009460C0F6000044F28463C0F600032B2126
:100F00000DF1E30202F050FB20A8043002902F9074
:100F1000419040F20040C4F200000490A790AB90D2
:100F2000AC9002F0D3F9A890A990A590AA90A690B1
:100F3000A5A8A6A900F0A5F8014604980968AD90F7
:100F4000AE91AF9002F027FA0298409040F2144020
:100F5000C4F2000001905990002003905A905890DC
:100F600058A800F0A6F80146019809685B905C91CA
:100F70005D9002F010FA029904983F918490889055
:100F8000899002F0A3F98590869082908790839053
:100F900082A883A900F05DF80146049809688A9048
:100FA0008B918C9002F0F7F9029A0398049937928A
:100FB000399245914690449044A800F0A1F9014629
:100FC0000498096847904891499002F0E4F9209804
:100FD0000DF53C7D80BD80B56F468AB001900291D1
:100FE0000891099101980088049127F8120C04993E
:100FF00006910968009144F21C71C0F6000100F0EE
:10100000D8F9024600980499079162F30F0008602E
:10101000049803900AB080BD8AB0009001910292BA
:101020000892099200980078049200F001028DF86D
:10103000162004980690006820F080008DF8172094
:101040000499079140EAC2100860049803900AB01E
:1010500070478BB00190029109910A91049105911A
:1010600000218DF81A1005980790006820F0040000
:101070008DF81B10059908910860059803900BB036
:1010800070478BB00190029109910A9104910591EA
:1010900001218DF81A100598079000688DF81B1033
:1010A0000599089140F004000860059803900BB082
:1010B00070478AB001900890099003900490012134
:1010C0008DF816100498069000688DF81710049992
:1010D000079140F001000860049802900AB0704740
:1010E00088B0009101460098019102900199096829
:1010F00004900591069007910160039008B0704735
:1011000088B0009101460098019102900199096808
:1011100004900591069007910160039008B0704714
:1011200080B56F4694B00290049105920D920E9294
:1011300006920792012107F82E1C0798109000686C
:1011400007F82D1C0799129140F0080008600799D4
:101150000B910C910298007807F8410C17F8410C9C
:10116000099107F8250C09990F91096821F0700180
:10117000019144F21C71C0F6000100F012F9014621
:10118000019801F007020999119140EA02100860E4
:101190000998139014B080BD80B56F4694B002904A
:1011A000049105920D920E9206920792012107F882
:1011B0002E1C07981090006807F82D1C07991291B3
:1011C00040F40060086007990B910C910298007838
:1011D00007F8410C17F8410C099107F8250C0999FB
:1011E0000F91096821F4E041019144F21C71C0F6AD
:1011F000000100F0D6F80146019801F007020999B4
:10120000119140EA023008600998139014B080BD33
:1012100080B56F4694B00290049105920D920E92A3
:1012200006920792012107F82E1C0798109000687B
:1012300007F82D1C0799129140F400600860079987
:101240000B910C910298007807F8410C17F8410CAB
:10125000099107F8250C09990F91096821F4E041DB
:10126000019144F21C71C0F6000100F09AF80146A9
:10127000019801F007020999119140EA02300860D3
:101280000998139014B080BD80B56F4694B0029059
:10129000049105920D920E9206920792012107F891
:1012A0002E1C07981090006807F82D1C07991291C2
:1012B00040F00800086007990B910C9102980078A3
:1012C00007F8410C17F8410C099107F8250C09990A
:1012D0000F91096821F07001019144F21C71C0F670
:1012E000000100F05EF80146019801F0070209993B
:1012F000119140EA021008600998139014B080BD63
:101300008AB00190089009900390049001218DF813
:1013100016100498069000688DF81710049907912C
:1013200040F001000860049802900AB0704780B550
:101330006F4682B0019000F002F802B080BD80B527
:101340006F4682B001904FF47A71A0FB01100091BA
:1013500028B9FFE7009801F0A3FA02B080BD44F27B
:101360008470C0F6000002F04BFE80B56F4682B07C
:10137000019040F20100C2F200000078C00730B9CD
:10138000FFE7FFF773FB012007F8060C03E00020DE
:1013900007F8060CFFE717F8060C00F0010002B092
:1013A00080BD81B08DF802008DF80300C0B201B09D
:1013B000704781B0ADF80000ADF8020080B201B016
:1013C000704781B000901C3001B0704781B0009030
:1013D000103001B0704781B00090183001B07047F4
:1013E00081B000900C3001B07047B0B502AFE4B0EE
:1013F0000692099105901B920AA8079000F0E2FD61
:10140000069801F04CF80146079808910C30269197
:10141000279030212891259125A900F0F0F8014668
:101420000898096829902A912B9001F0B4FF099837
:1014300041F20001C4F202011C9101F08CF938B9AB
:10144000FFE70998007A00F0010001283BD07DE019
:1014500041F20000C4F20200049039903D903E90A9
:1014600001F034FF3A903B9037903C90389037A889
:1014700038A900F00DF90146049809683F904091A1
:10148000419001F088FFFFE741F20000C4F2020042
:1014900021902390249001F019FF2290119011A81F
:1014A0005E905F901198C0F3404007F8150C8DF8DE
:1014B00043000DF143005B905C909DF84300C00732
:1014C0000028E1D0BDE70999487A8DF84A0041F239
:1014D0000400C4F2020002904F900DF14A02019202
:1014E000509251915590569001F0F0FE09990246A4
:1014F0000198529253924D9254924E924DAA4EABF5
:1015000000F0DEF80146029809685790589159900A
:1015100001F041FF41F20000C4F202000390449048
:101520004890499001F0D2FE4590469042904790F5
:10153000439042A843A900F002F9014603980968C4
:101540004A904B914C9001F026FF39E0099C04F140
:10155000080E04F10E0C04F10C0304F10D0204F169
:101560000A0104F10B001494CDF854E0CDF858C0F2
:101570001793189219911A9041F20400C4F20200D4
:1015800000902E903290339001F0A0FE2F9030907A
:101590002C9031902D9014A82CA92DAA00F0E7F8DA
:1015A00001460098096834903591369001F0F3FEB9
:1015B00005980AA991E83C5080E83C5064B0B0BD61
:1015C00041F20000C4F202001D901F90209001F033
:1015D0007DFE1E90139013A8619062901398C0F343
:1015E000406007F8090C8DF84B000DF14B005A9044
:1015F0005D909DF84B00C0070028E1D0A6E780B5BC
:101600006F4690B00291049008910C910D9104984E
:101610000390182001F097FA01460398069106A955
:1016200000F080FF68B9FFE704980190302001F0D6
:101630008AFA01460198079107A900F073FF40B9A3
:1016400003E0002007F8290C07E0022007F8290C26
:1016500003E0012007F8290CFFE7029917F8290C8D
:10166000099107F8150C09990B910968009144F24A
:10167000F071C0F60001FFF794FE02460098099948
:101680000E9162F30200086009980F9010B080BDBF
:101690008BB00190029109910A9104910591012169
:1016A0008DF81A100598079000688DF81B100599A1
:1016B000089140F480300860059803900BB07047A3
:1016C00080B56F4694B003900491059206931093F1
:1016D0001193039800780C9307F8190C0C990E914C
:1016E000096821F47011019144F2F071C0F6000113
:1016F000FFF757FE0146019801F00F020C990F9178
:1017000040EA824008600C9802901290139004986E
:1017100001F021F802460298089007F82A2C089850
:101720000A90006820F4803007F8292C08990B9162
:1017300040EA024008600898079014B080BD8BB062
:101740000190029109910A910491059101218DF86E
:101750001A100598079000688DF81B1005990891DC
:1017600040F080700860059803900BB0704780B51A
:101770006F46B8B0039209900C910D923492359255
:1017800080690078169207F8810C44F2F071C0F677
:101790000001079101F012F8039A0799189207F8CF
:1017A000790C189A1A92126822F440420292FFF7BA
:1017B000F8FD029B039A0799844609980CF0030EE2
:1017C000DDF860C0CDF86CC043EA8E33CCF8003051
:1017D00032923392006900788DF82C009DF82C002D
:1017E000249207F8490C249A2692126822F4605237
:1017F0000492FFF7D6FD049A07990346099803F06F
:10180000070C249B279342EACC221A60249A309238
:101810003192C068007807F8B30C17F8B30C1C922B
:1018200007F8690C1C9A1E92126822F4E062059275
:10183000FFF7B7FD059A07990346099803F0070CCF
:101840001C9B1F9342EA0C221A601C9A2E922F9224
:101850008068007807F8B20C17F8B20C289207F8E5
:10186000390C289A2A92126822F0F0020692FFF7A9
:1018700098FD069A07990346099803F00F0C289BD8
:101880002B9342EA0C121A60289A089236923792E9
:1018900040690078109200F0010007F8990C00F000
:1018A00082FF089903460998129107F8923C129911
:1018B0001491096821F4800107F8913C129A15925D
:1018C00041EA8351116012990A912C912D9140683F
:1018D00000F055FF48B9FFE70998006800F03BFFAA
:1018E00007F8A50C07F8B10C03E0022007F8B10CCB
:1018F000FFE70A9917F8B10C209107F8590C2099C5
:1019000022910968019144F2F071C0F60001FFF7DD
:1019100048FD024601982099239162F30100086076
:1019200020980F9038B080BD81B00090006801B061
:10193000704780B56F4686B002900590043000F085
:10194000AAFF01460298039100F01CF8C0B20128DA
:1019500003D1FFE70120049002E002200490FFE79A
:1019600003980499A0FB0110019128B9FFE70198A1
:1019700000F096FF06B080BD44F66000C0F600009F
:1019800002F03EFB81B00090007D01B0704780B551
:101990006F4682B00190FFF7CCFF02B080BDF0B57A
:1019A00003AF4DF8048DBAB01A9101461A981B91F5
:1019B000016840681C911D901C98012804D1FFE724
:1019C0001D982F901E9005E040F60010C0F23D00DB
:1019D0001E90FFE71A98006A012808D1FFE71A98BD
:1019E000406A189030901E98199048B102E001208A
:1019F0001F900BE018981999B0FBF1F01F9005E0CB
:101A000044F67000C0F6000002F020FB1F98012889
:101A100007D1FFE7002007F86E0C1C98012803D0BF
:101A200006E01F9880BB2CE01D983190239005E0C4
:101A300041F20020C0F27A002390FFE717F86E1CF5
:101A400017F86D0C01F001018DF880108DF8810000
:101A500023982190FFE71A989DF880209DF8811027
:101A6000134615930B46169302F0010207F82E2C2D
:101A700007F82D1C219917913391806801283DD0DA
:101A800042E01F9838B109E01F981028F9D8FFE705
:101A90001F98249005E00120249002E0102024905B
:101AA000FFE79DF89000811E149102280DD3FFE7F7
:101AB000149807F8620C012007F8630C1E9824990B
:101AC000A0FB0110139198B905E044F68000C0F620
:101AD000000002F082FA139817F8632C17F8621CC2
:101AE00002F001028DF880208DF881102190B2E77C
:101AF00044F69000C0F6000002F082FA1A98C0681E
:101B00001290349068B103E0072007F8610C22E0DE
:101B100017981299B0FBF1F00146119100280AD2F2
:101B200005E044F6A000C0F6000002F08FFA11981C
:101B3000022808D00BE011980128F8D8FFE7072009
:101B400007F8610C07E0082007F8610C03E0119822
:101B500002280DD808E017F8610C07F85B0C17F89D
:101B60005B0C0B2854D848E0119805280CD807E0E6
:101B700011980528F8D8FFE7092007F8610CEAE773
:101B800011980B280CD807E011980B28F8D8FFE71C
:101B90000A2007F8610CDEE7119827280CD807E027
:101BA00011982728F8D8FFE70B2007F8610CD2E737
:101BB00011985F280CD807E011985F28F8D8FFE744
:101BC0000C2007F8610CC6E71198BF280CD807E075
:101BD0001198BF28F8D8FFE70D2007F8610CBAE785
:101BE0000F2007F8610CB6E71198C0090228F7D852
:101BF000FFE70E2007F8610CADE717F8610C07F856
:101C0000590C17F8590CC11F1091072810D30AE07E
:101C100017F8610C07F85A0C17F85A0C811F0F912E
:101C2000062830D32AE01098C0B2202806D30EE050
:101C300044F6B000C0F6000002F0CFF9109800F0B2
:101C40001F010120884001460E9160B105E044F675
:101C5000C000C0F6000002F0E6F917980E99B0FB3C
:101C6000F1F0269005E044F6D000C0F6000002F046
:101C7000EDF91A980069012826D02AE00F98C0B221
:101C8000202806D30EE044F6E000C0F6000002F083
:101C9000A4F90F9800F01F010120884001460D9122
:101CA00060B105E044F6F000C0F6000002F0BBF9B8
:101CB00017980D99B0FBF1F02690DAE744F6001082
:101CC000C0F6000002F0C2F91A98406935902890D9
:101CD00007E0269845F20011C0F2252188420ED374
:101CE00007E026992898084402460C9288420ED3B1
:101CF00008E045F20010C0F225202890F1E7269870
:101D00002890EEE70C98411E0B9150B105E044F687
:101D10001010C0F6000002F04DF928980A9098B112
:101D200005E044F62010C0F6000002F056F90B98CA
:101D30000A99B0FBF1F00146099102280ED3FFE7A2
:101D4000099802280ED005E044F62010C0F60000E5
:101D500002F07CF90998022811D80CE003208DF8D4
:101D6000A40003E004208DF8A400FFE71A9880691E
:101D7000012818D01FE0099805280CD807E0099819
:101D80000528F8D8FFE705208DF8A400EEE7072026
:101D90008DF8A400EAE709980B28F8D8FFE7062099
:101DA0008DF8A400E2E71A98C0690790369026994A
:101DB000089168B103E0032007F8530C22E008986B
:101DC0000799B0FBF1F00146069100280AD205E020
:101DD00044F63010C0F6000002F038F906980228E8
:101DE00008D00BE006980128F8D8FFE7032007F891
:101DF000530C07E0042007F8530C03E00698022870
:101E00000FD80AE017F8530C07F8520C17F8520CC9
:101E1000C11E059103281DD317E0069805280CD88C
:101E200007E006980528F8D8FFE7052007F8530CC7
:101E3000E8E7072007F8530CE4E706980B28F8D8E2
:101E4000FFE7062007F8530CDCE70598C0B220280E
:101E500006D311E044F64010C0F6000002F0BDF8D1
:101E6000059800F01F01012088400146039137903A
:101E70002699049118B305E044F65010C0F600000E
:101E800002F0D1F817981699159A049BDDF80CC04A
:101E9000B3FBFCF39C46CDF808C03893DDF870C066
:101EA0001D9BCDF8A8C02B9302F001028DF8B02045
:101EB0008DF8B1102D902A98012806D00CE044F638
:101EC0006010C0F6000002F0C1F89DF8B00000F00C
:101ED0000100012804D0FFE7012007F8510C0BE0B6
:101EE0002D984AF20021C0F24A418842F4D1FFE71E
:101EF000002007F8510CFFE71A98806A012806D1E4
:101F0000FFE71A98C06A0190399068B103E0032096
:101F100007F83D0C32E002980199B0FBF1F0014660
:101F2000009100280AD205E044F67010C0F60000C7
:101F300002F08CF8009802280CD807E000980228DC
:101F4000F8D8FFE7002007F83D0C17E000980428B8
:101F50000CD807E000980428F8D8FFE7012007F81C
:101F60003D0C0BE0032007F83D0C07E00098072824
:101F7000F8D8FFE7022007F83D0CFFE71B99169CF5
:101F8000159D17F861EC9DF8A4C017F8533C17F89D
:101F9000512C17F83D0CDDF870801D9EC1F80080B3
:101FA0004E6005F001050D724C7281F80EE081F86B
:101FB0000CC04B7302F001028A72C8723AB05DF82D
:101FC000048BF0BDF0B503AF4DF804BDAEB0199170
:101FD0001A902491087AC00750B1FFE71998417A06
:101FE0000A46189207F8311C0068012805D009E05C
:101FF00019980068012833D037E019984068269076
:102000001C9005E040F60010C0F23D001C90FFE778
:1020100018981C991691C0B202301790002038B958
:10202000FFE716981799A0FB0110159148B905E034
:1020300044F68010C0F6000001F0BCFF15981B901C
:1020400005E044F69010C0F6000001F0D9FF1998A1
:10205000807B07F84F0C17F84F0C0B2818D80AE0B4
:102060001998406827901B90F1E741F20020C0F2D8
:102070007A001B90EBE719981B991391807B07F866
:102080004D0C17F84D0CC11F1491072812D30CE00A
:1020900019981B991191807B07F84E0C17F84E0C7C
:1020A000811F1291062836D330E01498C0B2202840
:1020B00006D30EE044F6A010C0F6000001F08DFF3C
:1020C000149800F01F01012088400146109160B172
:1020D00005E044F6B010C0F6000001F0A4FF13982C
:1020E0001099B0FBF1F01D9005E044F6C010C0F669
:1020F000000001F0ABFF1998007B8DF87C009DF883
:102100007C00C11E0F9103282BD325E01298C0B28A
:10211000202806D30EE044F6D010C0F6000001F0EF
:102120005CFF129800F01F010120884001460E91CB
:1021300060B105E044F6E010C0F6000001F073FF66
:1021400011980E99B0FBF1F01D90D4E744F6F01011
:10215000C0F6000001F07AFF0F98C0B2082806D33D
:1021600014E044F60020C0F6000001F036FF0F989E
:1021700000F007010120884001460B9107F8250C6B
:102180001D990C9101460D91C0B105E044F6102057
:10219000C0F6000001F047FF19980C990D9AB1FBA9
:1021A000F2F10A4609922991407B07F84B0C17F887
:1021B0004B0CC11E0A9103280BD305E044F62020E6
:1021C000C0F6000001F042FF0A98C0B2082806D30A
:1021D00014E044F63020C0F6000001F0FEFE0A983C
:1021E00000F00701012088400146069107F81D0C08
:1021F0001D99079101460891D0B105E044F64020B1
:10220000C0F6000001F00FFF19980799089AB1FB7A
:10221000F2F10A4604922B91C07A07F84A0C17F89B
:102220004A0C411CC8B20A46059288420FD105E00B
:1022300044F65020C0F6000001F008FF0598400069
:1022400007F8150CC0B20146039110B305E044F63F
:102250006020C0F6000001F0ADFE19980499039AC1
:10226000B1FBF2F10A4602922D91D0F800C043680A
:10227000027A417A1B98CDF880C0219302F00102C6
:102280008DF888208DF8891023902098012806D099
:102290000CE044F67020C0F6000001F0D7FE9DF877
:1022A000880000F00100012804D0FFE7002007F8B3
:1022B000490C14E02398019046F60041C0F2DC215D
:1022C000884208D0FFE701984AF20021C0F24A4153
:1022D0008842EBD1FFE7012007F8490CFFE71B9884
:1022E0004AF20121C0F24A4188420BD3FFE744F68B
:1022F0008020C0F6000044F60C32C0F600028A21AD
:1023000001F00AF91D984AF20021C0F24A418842C0
:10231000EDD8FFE7099845F20011C0F22521884267
:10232000E5D8FFE704984AF20021C0F24A4188420A
:10233000DDD8FFE7029849F68071C0F2D5018842E6
:10234000D5D8FFE71D9800F0DDF80646099800F0A3
:10235000D9F80546049800F0D5F804461B9800F01B
:10236000D1F801460298009100F0CCF8DDF818C0D1
:10237000009B1A99DDF82CE0024617F8490C0E6014
:102380004D608C6081F814E081F815C0CB600A6163
:1023900000F0010088752EB05DF804BBF0BD81B07F
:1023A000009001B0704781B0009001B0704780B5D7
:1023B0006F468AB003900691089006A800F094FA40
:1023C000014603980491FFF7EAFF00F064FA014622
:1023D00004984DF68362C4F21B32A1FB0221890CE2
:1023E000A0FB0110059118B9FFE70598079005E0DB
:1023F00044F68430C0F6000001F002FE079810B9E0
:10240000FFE70AB080BD07986FF07F4100F0AEF89B
:102410000146039801910991FFF7C5FF0199043026
:1024200000F090FA0398FFF7BEFF043000F0AFFA17
:102430000398FFF7B8FF043000F0BCFA0199079841
:10244000421A0292884203D3FFE70298079005E000
:1024500044F69430C0F6000001F0BFFD0398FFF78A
:10246000A2FF043000F081FA0028F7D0FFE70398BC
:10247000FFF799FF043000F0B7FABFE780B56F4669
:1024800084B000910146009801910291039000F000
:1024900041F801460198FFF78AFF04B080BD81B082
:1024A000009042F20000C4F2020001B0704783B015
:1024B00002900190002000900098019903B07047AD
:1024C00084B000900390007AC00730B9FFE700980D
:1024D000043002900020019005E000980430029042
:1024E00001200190FFE70198029904B0704780B580
:1024F0006F4682B0009001910068096800F067F9AA
:1025000002B080BD80B56F4682B0019000F0B0F996
:1025100002B080BD80B56F4682B0019000F0E9F94D
:1025200002B080BD80B56F4684B002900391FFF782
:10253000DEFF07F8090C17F8090C022807D0FFE79F
:1025400017F8091C481CC0B2022805D3FFE7002079
:1025500007F80A0C04E0FEDE012007F80A0CFFE78A
:1025600017F80A0C00F0010004B080BD80B56F467A
:1025700082B00090019100F002F802B080BD80B5F9
:102580006F4684B000900191012007F8020C684664
:1025900001A900F0D5F807F8030C17F8031C481C34
:1025A000C0B2022802D3FFE706E0FEDE002007F8F3
:1025B000020C0098029002E00198029003E0FFE70D
:1025C000029804B080BD17F8020CC0070028F7D0AD
:1025D000FFE7F5E787B003900491A0FB0110002806
:1025E00018BF01200A46009205918DF81A008DF857
:1025F0001B009DF81B00C00728B9FFE70098029058
:102600000120019008E044F2EC40C0F600000168AF
:10261000406801910290FFE70198029907B0704766
:1026200080B56F46A2B0019003910F90FFF73FFF76
:10263000059006910598029030B1FFE702980128B5
:1026400017D0FFE72AE0FEDE0698079007A8109053
:102650000398089008A81190079903981C911D9061
:10266000096802680020914298BF012007F8750CA4
:1026700015E00698099009A8129003980A900AA8F4
:10268000139009990398209121900968026800200D
:10269000914238BF012007F8750C00E008E017F8F8
:1026A000750CC00720B9FFE7002007F8760C0DE095
:1026B0000198FFF705FF0B900C910B98009058B113
:1026C000FFE7009801281AD0FFE72BE017F8760CF7
:1026D00000F0010022B080BD0C98149003A9159160
:1026E0000D900DA9169103991A911B900968026823
:1026F0000020914298BF012007F8760C16E00C9854
:10270000179003A918910E900EA9199103991E9183
:102710001F90096802680020914238BF012007F825
:10272000760C03E0012007F8760CFFE7CEE780B5D2
:102730006F4682B000900191FFF772FF02B080BD3A
:1027400080B56F4684B0019002910198029900F023
:102750003DFA04B080BD82B001900068012804D128
:10276000FFE701208DF8030003E000208DF803004F
:10277000FFE79DF8030000F0010002B0704782B04F
:1027800001900078C00720B1FFE701208DF8030019
:1027900003E000208DF80300FFE79DF8030000F040
:1027A000010002B0704781B08DF802008DF803007F
:1027B0009DF8030000F0010001B0704781B08DF872
:1027C00002008DF803009DF8030001B0704780B54A
:1027D0006F4696B0049105900B900C91FFE7059819
:1027E0000121FFF7F7FE02460498029203910D9231
:1027F0000E9144F24021C0F20F01FFF7EBFE029B65
:10280000039A0F9010910793089209900A910798E4
:10281000012804D1FFE70998012804D0FFE702202E
:1028200007F83D0C20E00898009011900A9901915A
:10283000129114901591884205D3FFE700980199F1
:10284000884208D803E0FF2007F8090C07E00020C1
:1028500007F8090C03E0012007F8090CFFE717F857
:10286000090C07F83D0CFFE717F83D0C16B080BDCA
:1028700080B56F4682B001900090002028B9FFE734
:10288000009800F00DF802B080BD44F6FC30C0F6B0
:10289000000001F0B5FB81B00090006801B0704706
:1028A00080B56F4682B00090019000F09FF900F073
:1028B0009DF9009802B080BD80B56F4682B000904F
:1028C000019000F092F900F091F9009802B080BDFB
:1028D00080B56F4682B00090019000F087F900F05B
:1028E00084F9009802B080BD81B00090006801B00A
:1028F000704780B56F4682B001900090002028B9E3
:10290000FFE70098FFF7E4FF02B080BD44F668409F
:10291000C0F6000001F074FB80B56F4684B00191F1
:102920000290039141B1FFE701990298B0FBF1F0E9
:102930000290029804B080BD44F6FC30C0F600005E
:1029400001F084FB80B56F4688B00090019107903C
:102950004EF21400CEF20000029003910490059113
:10296000069000F018FD08B080BD80B56F4686B0B7
:10297000019005904EF21000CEF2000002900390FC
:10298000049000F0A3FCC0F3004006B080BD80B509
:102990006F4688B0019007904EF21800CEF200000A
:1029A00002900021039104900591069000F0F3FC41
:1029B00008B080BD80B56F468AB0029009904EF293
:1029C0001000CEF20000019003900490059000F0FA
:1029D0007DFC00F04DFD014601980690079108909E
:1029E00000F0D9FC0AB080BD80B56F468AB0029075
:1029F00009904EF21000CEF2000001900390049076
:102A0000059000F063FC00F02DFD01460198069052
:102A10000791089000F0BFFC0AB080BD80B56F46FA
:102A200094B0039007F83D1C059017F83D0CC007C3
:102A3000B0B9FFE7039813904EF21000CEF20000F9
:102A4000029007900890099000F040FC00F0D0F848
:102A5000014602980C900D910E9000F09CFC15E040
:102A6000039812904EF21000CEF2000001900690F2
:102A70000A900B9000F02AFC00F0C0F80146019883
:102A80000F901091119000F086FCFFE714B080BD0C
:102A900080B56F4600F069F880BD80B56F4600F0E4
:102AA00064F880BD80B56F4600F05FF880BD80B5EA
:102AB0006F4600F05AF880BD80B56F4600F055F8BB
:102AC00080BD80B56F4600F050F880BD80B56F4680
:102AD00000F04BF880BD80B56F4600F046F880BD31
:102AE00080B56F4600F041F880BD80B56F4600F0BC
:102AF00041F880BD80B56F4600F037F880BD80B5E5
:102B00006F4600F037F880BD80B56F4600F02DF8B5
:102B100080BD80B56F4600F028F880BD80B56F4657
:102B200000F023F880BD80B56F4600F01EF880BD30
:102B300081B0FFE740F60040C4F201000090FFE7DB
:102B4000009801B0704780B56F4682B00190FFF7E2
:102B5000B3FE02B080BD80B56F4684B0029000F035
:102B60005EFB00F058FB04B080BD80B56F4600F0FE
:102B70003EF880BD704780B56F4682B0019000F08E
:102B80006AF802B080BD80B56F468AB002900391AA
:102B9000079108910491022007F8110C04990691FD
:102BA000096821F44061009144F6D441C0F6000167
:102BB000FEF7F7FB0146009801F003020499099122
:102BC00040EA8220086004980AB080BD82B000907C
:102BD000019102680B6800209A4288BF0120411EC3
:102BE0009A4238BF084602B0704770477047704736
:102BF00082B0019040F0040002B0704782B00190B2
:102C000020F0040002B0704780B56F4686B041F2F4
:102C10000000C4F20200009003900490FEF7DBFB7A
:102C20000021019100F0A5F800980590FEF7D8FB6F
:102C3000019900F093F80098FEF7D2FB019900F09B
:102C400077F8012006B080BD81B000900420C4F266
:102C5000010001B0704780B56F4692B002900490B9
:102C60000078C00720B9FFE7022007F8390C03E01D
:102C7000002007F8390CFFE70298FFF7E5FF019005
:102C80000890A7F13901009109910D900E9000F084
:102C90001DFB014600980A910B9106910C9107913A
:102CA00006A907AA00F00AF80146019809680F90E2
:102CB0001091119000F06FFB12B080BD80B56F468F
:102CC0008EB001920A46019902920246029804923D
:102CD00005900691FFF757FF01460A910B91049862
:102CE0000078079107F8150C07990991096821F0F8
:102CF000E061039144F64051C0F60001FEF751FB3C
:102D00000146039801F0070207990C9140EA02601E
:102D1000086007980D900EB080BD80B56F4682B0F8
:102D2000009007F8011C002200F039F802B080BDC5
:102D300080B56F4682B0009007F8011C002200F0B9
:102D4000B1F802B080BD80B56F4682B0009007F840
:102D5000011C012200F023F802B080BD80B56F464F
:102D600082B0009007F8011C012200F09BF802B02D
:102D700080BD80B56F4682B0009007F8011C01222B
:102D800000F096F902B080BD80B56F4682B0009029
:102D900007F8011C012200F008F902B080BD80B5DF
:102DA0006F468EB0134606930B460793099007F8BB
:102DB0000E1C07F80D2C089044F65050C0F6000089
:102DC00008A9FFF7B4FC58B9FFE744F65C50C0F619
:102DD000000044F60462C0F60002492100F09CFBAA
:102DE0000798C0B220280BD3FFE744F61460C0F662
:102DF000000044F63062C0F600021A2100F08CFB9D
:102E00000798C0B2014604910B90089800F1404128
:102E10000591B0F1804F06D3FFE705984101C00E40
:102E2000039170B905E044F64060C0F6000001F07F
:102E3000D4F8039901F184400246029288420CD3EF
:102E400005E044F64060C0F6000001F0D9F80498AF
:102E50008100800F019170B905E044F65060C0F622
:102E6000000001F0A7F80299019808440246009278
:102E7000884211D305E044F66060C0F6000001F01E
:102E8000BFF8009806990C9001F0010107F8011CA9
:102E900000F081FA0EB080BD44F65060C0F600002C
:102EA00001F088F880B56F468EB0134606930B4646
:102EB0000793099007F80E1C07F80D2C089044F6AC
:102EC0005050C0F6000008A9FFF731FC58B9FFE7E1
:102ED00044F65C50C0F6000044F60462C0F60002FE
:102EE000492100F019FB0798C0B220280BD3FFE757
:102EF00044F61460C0F6000044F63062C0F60002EA
:102F00001A2100F009FB0798C0B2014604910B900A
:102F1000089800F140410591B0F1804F06D3FFE7DA
:102F200005984101C00E039170B905E044F6406078
:102F3000C0F6000001F051F8039901F18440024607
:102F4000029288420CD305E044F64060C0F60000CF
:102F500001F056F804988100800F019170B905E0E6
:102F600044F65060C0F6000001F024F80299019880
:102F7000084402460092884211D305E044F660609E
:102F8000C0F6000001F03CF8009806990C9001F0A2
:102F9000010107F8011C00F0FEF90EB080BD44F6F7
:102FA0005060C0F6000001F005F880B56F468EB0A5
:102FB000134606930B460793099007F80E1C07F873
:102FC0000D2C089044F65050C0F6000008A9FFF7F9
:102FD000AEFB58B9FFE744F65C50C0F6000044F67B
:102FE0000462C0F60002492100F096FA0798C0B2C8
:102FF00020280BD3FFE744F61460C0F6000044F627
:103000003062C0F600021A2100F086FA0798C0B2BA
:10301000014604910B90089800F140410591B0F1F0
:10302000804F06D3FFE705984101C00E039170B9A8
:1030300005E044F64060C0F6000000F0CEFF0399C2
:1030400001F184400246029288420CD305E044F626
:103050004060C0F6000000F0D3FF04988100800FAC
:10306000019170B905E044F65060C0F6000000F030
:10307000A1FF02990198084402460092884211D3A8
:1030800005E044F66060C0F6000000F0B9FF00986B
:1030900006990C9001F0010107F8011C00F07BF982
:1030A0000EB080BD44F65060C0F6000000F082FF14
:1030B00080B56F468EB0134606930B460793099072
:1030C00007F80E1C07F80D2C089044F65050C0F677
:1030D000000008A9FFF72BFB58B9FFE744F65C5046
:1030E000C0F6000044F60462C0F60002492100F078
:1030F00013FA0798C0B220280BD3FFE744F61460F8
:10310000C0F6000044F63062C0F600021A2100F05A
:1031100003FA0798C0B2014604910B90089800F199
:1031200040410591B0F1804F06D3FFE7059841017A
:10313000C00E039170B905E044F64060C0F600008F
:1031400000F04BFF039901F184400246029288424D
:103150000CD305E044F64060C0F6000000F050FFDC
:1031600004988100800F019170B905E044F6506029
:10317000C0F6000000F01EFF0299019808440246C4
:103180000092884211D305E044F66060C0F600006A
:1031900000F036FF009806990C9001F0010107F845
:1031A000011C00F0F8F80EB080BD44F65060C0F687
:1031B000000000F0FFFE81B001B07047B0B502AF73
:1031C00099B000210C910E911091129114911691C9
:1031D0000C9A0D99009201910E9A0F990292039107
:1031E000109A119904920591129A139906920791D7
:1031F000149A159908920991169A17990A920B91A7
:103200006946B1E83C50A0E83C5091E83C5080E869
:103210003C5019B0B0BD81B0009001B0704780B58E
:103220006F4684B000900290012007F8090C17F84F
:10323000090C00F00101A7F10A00FFF7EFFB00986D
:10324000FEF772FB0821FFF767FB04B080BD80B575
:103250006F4686B041F20000C4F202000090039075
:103260000490FEF7B8F803210191FFF782FD009862
:103270000590FEF7B5F80199FFF770FD0098FEF78D
:10328000AFF80199FFF754FDFFF702FCFFF70FFCC1
:10329000FFF717FCFFF729FCFFF731FCFFF702FCF3
:1032A000FFF70AFCFFF730FCFFF7F7FBFFF722FC04
:1032B000FFF716FCFFF72DFCFFF708FCFFF70BFCF0
:1032C000FFF72CFCFFF72FFC06B080BD80B56F46E2
:1032D00084B001900290FFE70198042100F007F804
:1032E000FFE7019800680390039804B080BD80B5A3
:1032F0006F468EB0019109900A9144F69C61C0F628
:1033000000010B910C900146029108B9FFE719E00A
:1033100001984FF0553101EA5001401A4FF0333116
:1033200001EA900120F0CC30084400EB101020F0AE
:10333000F0304FF001314843000E0D900D980128F8
:1033400007D00CE044F62870C0F600006E2100F0B3
:10335000F6F802980199013908421AD0F2E744F6CA
:103360009C60C0F6000003900120049044F2EC4001
:10337000C0F600000168406807910890042005909D
:103380000020069044F61871C0F6000103A800F072
:10339000A4F80EB080BD80B56F4684B00091019056
:1033A00002900391FFE70198042100F006F8FFE77F
:1033B00000980199086004B080BD80B56F468EB05A
:1033C00000910890099144F69C61C0F600010A91B1
:1033D0000B900C900146019108B9FFE719E00098A5
:1033E0004FF0553101EA5001401A4FF0333101EAF4
:1033F000900120F0CC30084400EB101020F0F030A9
:103400004FF001314843000E0D900D98012807D070
:103410000CE044F69670C0F600006F2100F08FF8C3
:1034200001980099013908421AD0F2E744F69C60ED
:10343000C0F6000002900120039044F2EC40C0F678
:103440000000016840680691079004200490002065
:10345000059044F61871C0F6000102A800F03DF88E
:103460000EB080BD82B0019020F0010002B0704724
:1034700082B0019040F0010002B0704772B6704710
:1034800062B67047EFF310807047704782B00091CA
:1034900001460098019008600120486044F2EC4029
:1034A000C0F60000026840680A6148610420886034
:1034B0000020C86002B0704781B00090FFE7FEE7CF
:1034C000FFE7FEE7704780B56F46024645F2B00061
:1034D000C0F600002B2100F01FF880B56F4684B0C5
:1034E000CDE9010101A80122ADF80C20FFF7E4FFAE
:1034F00080B56F468AB00DF1040C90E8704300204F
:10350000634683E870438DF8240007A88DF82510E2
:10351000CDE907C2FFF7D0FF80B56F4688B094466B
:103520000122019206AA0023CDE90601009204229D
:1035300068466146049303930292FFF7CEFF80B57D
:103540006F4688B00022CDE9060104920123039260
:103550000422029245F2F0026846C0F60002002101
:10356000019306AB0093FFF7C3FFD4D480B56F4639
:103570008CB0CDE90001002006900220084902919C
:1035800069460390059008A804900648CDE9090112
:1035900011460B9001A8089002A8FFF79EFF00BFFC
:1035A000345100087340000880B56F468EB08DE836
:1035B0000F00002045F24811089002200590C0F647
:1035C000000107900AA8069044F26110C0F60000BE
:1035D00004910D9002A80C9044F26910C0F600000E
:1035E000B9680B9068460A9004A8FFF776FFD4D418
:1035F000F0B503AF2DE9000F85B0D7F80CA01C463D
:103600001546002949D0D0F81CB02B221BF001012F
:1036100008BF4FF4881201EB0A09D7F808805FEA67
:103620004B7144D5102C049253D2002C5DD004F081
:10363000030CA2084FF0000159D002F003026E1CE7
:10364000CDE90148A1EB820E6FF003020395B51896
:10365000043295F9033095F9044013F1410FC8BFC6
:10366000013114F1410FC8BF013195F9053013F153
:10367000410FC8BF013195F9063013F1410F0EEB30
:103680000203C8BF01310433E1D1039D0432DDE9F7
:103690000148BCF1000F2ED145E0D0F81CB00AF172
:1036A00001092D22D7F808805FEA4B71BAD40025B2
:1036B0000168E9BB2146D0E90546009131462B4619
:1036C000204600F0EFF860B1012005B0BDE8000F22
:1036D000F0BD06462846214600F007FA014630466E
:1036E00021E0F3682046414676E000211BE00022FD
:1036F000BCF1000F17D0AB5613F1410FC8BF013119
:10370000BCF1010F0FD02A4492F9013013F1410F9F
:10371000C8BF0131BCF1020F05D092F9022012F1AD
:10372000410FC8BF0131049A894401680029C1D002
:10373000CDE90285D0F80480C84510D95FEA0B7145
:103740001CD490F82010A8EB090B0492A146DFE8E6
:1037500001F05B02550259464FF0000B54E0214640
:10376000D0E9054600913146039B204600F09AF8C7
:1037700078B3012005B0BDE8000FF0BD3021D0F8CE
:1037800010B023460161012190F82050D0E9054690
:1037900080F820103146019000932046039B00F0F2
:1037A00081F80146012000297FF48FAF0495A8EB32
:1037B0000900DDF80880451C013D14D0326920461F
:1037C000302190470028F7D0012005B0BDE8000F58
:1037D000F0BDF36820460299524605B0BDE8000FDF
:1037E000BDE8F0401847F3682046414652469847E6
:1037F000B8B3012005B0BDE8000FF0BD0BF1010228
:103800004FEA5B014FEA520BD0E904644D1CD0F83B
:103810001880013D0BD0D8F8102020463146904743
:103820000028F6D0012005B0BDE8000FF0BDCDF8AE
:1038300000902046DDE90332414600F033F820B124
:10384000012005B0BDE8000FF0BDD8F80C302046CF
:1038500002995246984778B1012005B0BDE8000FA3
:10386000F0BD0198049980F82010C0F810B0002035
:1038700005B0BDE8000FF0BD0025AB4509D0D8F874
:10388000102020463146904701350028F5D0691EAA
:1038900000E059460020594538BF012005B0BDE879
:1038A000000FF0BDF0B503AF4DF8048DD7F80880D8
:1038B0001C460E46B2F5881F0AD0336911460546EC
:1038C00098470146284619B101205DF8048BF0BDE8
:1038D0003CB1F368214642465DF8048BBDE8F040F8
:1038E000184700205DF8048BF0BDD4D4F0B503AFC9
:1038F0002DE9000F81B08846D0F800C08168BCF186
:10390000000F08BF5FEAC17334D0C9072DD0C66865
:1039100008EB020E00254146D6B9714525D091F934
:103920000010B1F1FF3FDCBFC9B2E02935B39542C9
:1039300023D218F9051011F1410F1FDC00211EE000
:10394000F0292CBF211DE11C0B1B013E1D44E4D0BE
:1039500071450AD00C4611F9013BB3F1FF3FF3DC8E
:10396000D9B2E029ECD2A11CEEE71546BCF1000F5C
:103970000CD178E0D0E9050178E0DFD1414600299B
:103980000CBF15468846BCF1000F6CD0D0F80490EF
:10399000102D32D2CDB305F0030CAA084FF0000170
:1039A00035D002F0030208F1010AA1EB820E6FF09C
:1039B00003020AEB0204043294F9036094F9043020
:1039C00016F1410FC8BF013113F1410FC8BF0131DA
:1039D00094F9053013F1410FC8BF013194F9063055
:1039E00013F1410F0EEB0203C8BF01310433E0D1E4
:1039F0000432BCF1000F0ED126E0064640462946AF
:103A000000F073F8014630461EE000211CE0002261
:103A1000BCF1000F18D018F9023013F1410FC8BFE4
:103A20000131BCF1010F0FD0424492F9013013F182
:103A3000410FC8BF0131BCF1020F05D092F902203D
:103A400012F1410FC8BF013189450CD990F82020EF
:103A5000A9EB01090021DFE802F01702111749461E
:103A60004FF0000910E0D0E905012A46CB68414635
:103A700001B0BDE8000FBDE8F040184709F10102B0
:103A80004FEA59014FEA5209D0E904AB4C1C866950
:103A9000013C06D032695846514690470028F7D07D
:103AA00005E0F368584641462A46984720B1012070
:103AB00001B0BDE8000FF0BD0024A14508D0326977
:103AC00058465146904701340028F6D0611E00E068
:103AD00049460020494538BF012001B0BDE8000F2C
:103AE000F0BDD0E90503DB681847F0B503AF2DE959
:103AF000000F81B08346033020F0030AAAEB0B08C5
:103B000041450AD3A1EB080E5FEA9E0905D00EF0ED
:103B1000030CDA455BD10020A0E089B301F0030C6F
:103B20008B084FF0000030D0A0EB83030BF10106AF
:103B30006FF003057219043592F9031092F90440ED
:103B400011F1410FC8BF013014F1410FC8BF01305E
:103B500092F9051011F1410FC8BF013092F906101A
:103B600011F1410F03EB0501C8BF01300431E1D170
:103B70002B1DBCF1000F0CD101B0BDE8000FF0BD52
:103B8000002001B0BDE8000FF0BD0023BCF1000F24
:103B9000F2D01BF9031011F1410FC8BF0130BCF185
:103BA000010FE9D00BEB030292F9011011F1410F63
:103BB000C8BF0130BCF1020FDED092F9021011F142
:103BC000410FC8BF013001B0BDE8000FF0BDABEB45
:103BD0000A0010F1040F02D90020002522E00BF1A9
:103BE000010100206FF003068D1995F9034095F946
:103BF000042014F1410FC8BF013012F1410FC8BFBA
:103C0000013095F9052012F1410FC8BF013095F937
:103C1000062012F1410FC8BF013016F1080506F168
:103C20000406E1D1DA4519D01BF9051011F1410F55
:103C3000C8BF0130B8F1010F10D00BEB050191F9AD
:103C4000012012F1410FC8BF0130B8F1020F05D0B9
:103C500091F9021011F1410FC8BF01300BEB0802BE
:103C60000026BCF1000F1AD02EF00301114491F987
:103C7000005015F1410FC8BF0126BCF1010F0ED055
:103C800091F9015015F1410FC8BF0136BCF1020F87
:103C900005D091F9021011F1410FC8BF013630442F
:103CA0004FF0FF1811E0002608EA162126F0FF2346
:103CB0001944A9EB0B090AEB8B021BF0030501EB7E
:103CC000014100EB114040F04181B9F1000F3FF498
:103CD00053AFB9F1C00FCB4628BF4FF0C00B92468F
:103CE000B9F1040FDFD36FF00F0101EB8B0201215B
:103CF000302A01EB1211009102D200265546A7E0AE
:103D000021F003020026554695E80A50043A6FEA6E
:103D100001084FEAD81444EA91116FEA030421F034
:103D2000FE314FEAD41444EA9313314423F0FE33B6
:103D300019446FEA0C034FEAD31343EA9C1323F0B0
:103D4000FE3319446FEA0E034FEAD31343EA9E137E
:103D500023F0FE3319442B696FEA03064FEAD616A7
:103D600046EA931323F0FE3319446B696FEA0306A6
:103D70004FEAD61646EA931323F0FE331944AB6993
:103D80006FEA03064FEAD61646EA931323F0FE3392
:103D90001944EB696FEA03064FEAD61646EA931315
:103DA00023F0FE3319442B6A6FEA03064FEAD61656
:103DB00046EA931323F0FE3319446B6A6FEA030655
:103DC0004FEAD61646EA931323F0FE331944AB6A42
:103DD0006FEA03064FEAD61646EA931323F0FE3342
:103DE0001944EB6A6FEA03064FEAD61646EA9313C4
:103DF00023F0FE3319442B6B6FEA03064FEAD61605
:103E000046EA931323F0FE3319446B6B6FEA030603
:103E10004FEAD61646EA931323F0FE331944AB6BF0
:103E20006FEA03064FEAD61646EA931323F0FE33F1
:103E30001944EB6B05F140056FEA03064FEAD6160D
:103E400046EA931323F0FE3303EB01067FF45CAFE5
:103E500000994FF0FF1811F0030C3FF425AF95E8DF
:103E60001A40BCF1010F6FEA01024FEAD21242EA96
:103E700091116FEA030221F0FE314FEAD212314470
:103E800042EA931222F0FE3211446FEA04024FEA32
:103E9000D21242EA941222F0FE3211446FEA0E026C
:103EA0004FEAD21242EA9E1222F0FE3202EB0106E3
:103EB0003FF4FAAE05F1100EBCF1020F9EE80E4081
:103EC0006FEA01044FEAD41444EA91116FEA020444
:103ED00021F0FE314FEAD41444EA9212314422F028
:103EE000FE3211446FEA03024FEAD21242EA931201
:103EF00022F0FE3211446FEA0E024FEAD21242EA79
:103F00009E1222F0FE3202EB01063FF4CDAE2035C8
:103F10002ECDCC43E40944EA911121F0FE31314425
:103F2000D643F60946EA921222F0FE321144DA43F1
:103F3000D20942EA931222F0FE321144EA43D20936
:103F400042EA951222F0FE325618ADE60BF0FC0361
:103F5000012D5AF823106FEA01024FEAD21242EA09
:103F6000911121F0FE3215D00AEB8301022D4B682E
:103F70006FEA03064FEAD61646EA931323F0FE33A0
:103F80001A4407D08968CB43DB0943EA911121F039
:103F9000FE310A44FF21C0F2070101EA122122F09A
:103FA000FF22114401EB014100EB114001B0BDE8DB
:103FB000000FF0BD80B56F4686B00146002001229B
:103FC0000490019245F2240203900420C0F60002FE
:103FD000029068460092FFF780FA80B56F4686B07F
:103FE0000146002001220490019245F25002039004
:103FF0000420C0F60002029068460092FFF76DFAB6
:1040000080B56F4686B001460020012204900192DF
:1040100045F27C0203900420C0F60002029068463C
:104020000092FFF75AFA80B56F4686B0014600202D
:1040300001220490019245F2A80203900420C0F6E8
:104040000002029068460092FFF747FA80B56F467B
:1040500086B00146002001220490019245F23C22E4
:1040600003900420C0F60002029068460092FFF719
:1040700034FAF0B503AF2DE9000F87B0046845F2BC
:104080005818A7F1260C0B4642F210718C42C0F66C
:1040900000083DD341F259794EF2FF0E0020CDF2D7
:1040A000B71941F27B4A4FF0640BC0F2F55E0393FF
:1040B000A4FB09360CEB00056246043874454FEA50
:1040C000563303FB11461C461FFA86FC4FEA9C013F
:1040D000944601FB0AF14FEA514138F8112001FBE7
:1040E0001B61EA8089B238F81110298142F21071FF
:1040F000DED81C46039B00F10A01632C0BD8204636
:104100000A2819D338F8100002392CF8010018E0F9
:104110000A21632CF3D9A0B241F27B428008023914
:1041200050436422400C00FB124292B238F8122035
:104130002CF801200A28E5D2013940F030000CF8B3
:104140000100C1F10A0061440122CDE900101846C6
:1041500001210023FFF74CFA07B0BDE8000FF0BDC6
:10416000D0E90002D26810470B46D0E90012184689
:08417000FFF7BCBBFFE7FEE70F
:104178007372632F6D61696E2E7273007841000847
:104188000B00000010000000270000007841000824
:104198000B000000120000002C000000784100080D
:1041A8000B000000390000001F00000078410008E3
:1041B8000B000000390000001000000078410008E2
:1041C8000B0000003D0000000D0000000000000092
:1041D80000000040FFFF0F4000000000617373659E
:1041E8007274696F6E206661696C65643A20285044
:1041F8004552495F414444524553535F53544152D9
:10420800542E2E3D504552495F4144445245535324
:104218005F454E44292E636F6E7461696E7328265C
:1042280061646472292F686F6D652F636C2F2E632C
:104238006172676F2F72656769737472792F737211
:10424800632F696E6465782E6372617465732E6975
:104258006F2D366631376432326262613135303003
:1042680031662F73746D3332663178782D68616CDE
:104278002D302E31302E302F7372632F62622E72E2
:10428800730000002D4200085C0000002D000000B3
:1042980005000000617373657274696F6E20666152
:1042A800696C65643A20626974203C2033320000EE
:1042B8002D4200085C0000002E00000005000000F0
:1042C8002D4200085C0000003100000029000000B9
:1042D8002D4200085C0000003100000013000000BF
:1042E8002D4200085C000000310000004D00000075
:1042F8002F686F6D652F636C2F2E636172676F2F48
:1043080072656769737472792F7372632F696E644B
:1043180065782E6372617465732E696F2D36663108
:10432800376432326262613135303031662F7374EE
:104338006D3332663178782D68616C2D302E3130CE
:104348002E302F7372632F6770696F2E727300009F
:10435800F84200085E000000130400003A00000064
:10436800F84200085E000000130400003500000059
:1043780000010203556E75736564206368616E6E93
:10438800656C00007C4300080E0000002F686F6D0C
:10439800652F636C2F2E636172676F2F7265676973
:1043A800737472792F7372632F696E6465782E63E4
:1043B80072617465732E696F2D36663137643232D7
:1043C8006262613135303031662F73746D33326615
:1043D8003178782D68616C2D302E31302E302F7366
:1043E80072632F74696D65722F70776D2E7273000A
:1043F8009443000863000000500000000D00000016
:104408002F686F6D652F636C2F2E636172676F2F36
:1044180072656769737472792F7372632F696E643A
:1044280065782E6372617465732E696F2D366631F7
:10443800376432326262613135303031662F7374DD
:104448006D333266312D302E31352E312F73726334
:104458002F67656E657269632E72730008440008E1
:104468005B00000055020000010000002F686F6D1E
:10447800652F636C2F2E636172676F2F7265676992
:10448800737472792F7372632F696E6465782E6303
:1044980072617465732E696F2D36663137643232F6
:1044A8006262613135303031662F73746D33326634
:1044B8003178782D68616C2D302E31302E302F7385
:1044C80072632F74696D65722E72730074440008EC
:1044D8005F000000EB020000010000004469736106
:1044E800626C6564000000000000000057726F6E87
:1044F800674175746F52656C6F61642F686F6D6585
:104508002F636C2F2E636172676F2F7265676973F3
:104518007472792F7372632F696E6465782E637273
:10452800617465732E696F2D366631376432326275
:1045380062613135303031662F73746D33326631D4
:104548002D302E31352E312F7372632F67656E65CE
:104558007269632E72730000034500085B00000057
:1045680055020000010000002F686F6D652F636C15
:104578002F2E636172676F2F726567697374727922
:104588002F7372632F696E6465782E637261746528
:10459800732E696F2D36663137643232626261314B
:1045A80035303031662F73746D3332663178782D3B
:1045B80068616C2D302E31302E302F7372632F745A
:1045C800696D65722E727300704500085F00000007
:1045D800E502000011000000704500085F000000BF
:1045E800E60200000F000000704500085F000000B0
:1045F800E702000017000000704500085F00000097
:10460800E70200000F0000002F686F6D652F636CD4
:104618002F2E636172676F2F726567697374727981
:104628002F7372632F696E6465782E637261746587
:10463800732E696F2D3666313764323262626131AA
:1046480035303031662F73746D3332663178782D9A
:1046580068616C2D302E31302E302F7372632F74B9
:10466800696D65722F70776D2E72730010460008A1
:10467800630000004801000027000000000000005F
:104688000100000001000000BB09000863616C6CB8
:1046980065642060526573756C743A3A756E77720A
:1046A8006170282960206F6E20616E2060457272EB
:1046B800602076616C75652F686F6D652F636C2F50
:1046C8002E636172676F2F72656769737472792FD1
:1046D8007372632F696E6465782E63726174657393
:1046E8002E696F2D36663137643232626261313538
:1046F800303031662F73746D333266312D302E3180
:10470800352E312F7372632F67656E657269632E5C
:1047180072730000BF4600085B00000055020000ED
:10472800010000002F686F6D652F636C2F2E636189
:1047380072676F2F72656769737472792F7372630A
:104748002F696E6465782E6372617465732E696F64
:104758002D3666313764323262626131353030313C
:10476800662F66756769742D302E332E372F737256
:10477800632F726174652E72730000002C47000865
:10478800550000004B020000010000002F686F6D0B
:10479800652F636C2F2E636172676F2F726567696F
:1047A800737472792F7372632F696E6465782E63E0
:1047B80072617465732E696F2D36663137643232D3
:1047C8006262613135303031662F73746D33326611
:1047D800312D302E31352E312F7372632F67656E70
:1047E800657269632E727300944700085B000000CD
:1047F80055020000010000002F686F6D652F636C83
:104808002F2E636172676F2F72656769737472798F
:104818002F7372632F696E6465782E637261746595
:10482800732E696F2D3666313764323262626131B8
:1048380035303031662F73746D3332663178782DA8
:1048480068616C2D302E31302E302F7372632F72C9
:1048580063632E7273000000004800085D000000CA
:104868006D01000019000000004800085D0000000C
:104878002B0200000D000000004800085D00000049
:104888004102000013000000004800085D0000001D
:104898004102000026000000004800085D000000FA
:1048A8004502000013000000004800085D000000F9
:1048B800570200001C000000004800085D000000CE
:1048C8005702000016000000004800085D000000C4
:1048D800570200000D000000004800085D000000BD
:1048E800550200001C000000004800085D000000A0
:1048F8005502000016000000004800085D00000096
:10490800550200000D000000004800085D0000008E
:104918006102000021000000004800085D0000005E
:104928006102000020000000004800085D0000004F
:104938006A02000013000000004800085D00000043
:10494800750200001A000000004800085D00000021
:104958007502000015000000004800085D00000016
:104968007602000015000000004800085D00000005
:104978008002000013000000004800085D000000ED
:104988009F02000019000000004800085D000000B8
:104998009F0200000D000000004800085D000000B4
:1049A800A90200001C000000004800085D0000008B
:1049B800A902000016000000004800085D00000081
:1049C800A90200000D000000004800085D0000007A
:1049D800A70200001C000000004800085D0000005D
:1049E800A702000016000000004800085D00000053
:1049F800A70200000D000000004800085D0000004C
:104A0800AC0200001A000000004800085D00000029
:104A1800AC02000015000000004800085D0000001E
:104A2800AD02000015000000004800085D0000000D
:104A3800AF0200001A000000004800085D000000F6
:104A4800AF02000015000000004800085D000000EB
:104A5800B002000015000000004800085D000000DA
:104A6800B202000014000000004800085D000000C9
:104A7800B302000016000000617373657274696FF9
:104A88006E206661696C65643A20737973636C6B38
:104A9800203C3D2037325F3030305F3030302026C8
:104AA800262068636C6B203C3D2037325F30303005
:104AB8005F3030302026262070636C6B31203C3DFF
:104AC8002033365F3030305F3030302026260A20E1
:104AD8002020202020202070636C6B32203C3D2059
:104AE80037325F3030305F30303020262620616426
:104AF80063636C6B203C3D2031345F3030305F3075
:104B080030300000004800085D000000BD020000D1
:104B1800090000002F686F6D652F636C2F2E63618D
:104B280072676F2F72656769737472792F73726316
:104B38002F696E6465782E6372617465732E696F70
:104B48002D36663137643232626261313530303148
:104B5800662F73746D3332663178782D68616C2DE9
:104B6800302E31302E302F7372632F74696D657259
:104B78002F64656C61792E72730000001C4B00086D
:104B8800650000002A0000001D0000001C4B000802
:104B980065000000340000000D0000002F686F6DF4
:104BA800652F636C2F2E636172676F2F726567695B
:104BB800737472792F7372632F696E6465782E63CC
:104BC80072617465732E696F2D36663137643232BF
:104BD8006262613135303031662F66756769742DD0
:104BE800302E332E372F7372632F726174652E72D5
:104BF80073000000A44B0008550000004B020000A1
:104C0800010000002F686F6D652F636C2F2E6361A4
:104C180072676F2F72656769737472792F73726325
:104C28002F696E6465782E6372617465732E696F7F
:104C38002D36663137643232626261313530303157
:104C4800662F66756769742D302E332E372F737271
:104C5800632F6475726174696F6E2E727300000041
:104C68000C4C0008590000006F0200000100000011
:104C78002F686F6D652F636C2F2E636172676F2FBE
:104C880072656769737472792F7372632F696E64C2
:104C980065782E6372617465732E696F2D3666317F
:104CA800376432326262613135303031662F737465
:104CB8006D333266312D302E31352E312F737263BC
:104CC8002F67656E657269632E727300784C0008F1
:104CD8005B00000055020000010000002F686F6DA6
:104CE800652F636C2F2E636172676F2F726567691A
:104CF800737472792F7372632F696E6465782E638B
:104D080072617465732E696F2D366631376432327D
:104D18006262613135303031662F73746D333266BB
:104D2800312D302E31352E312F7372632F67656E1A
:104D3800657269632E727300E44C00085B00000022
:104D4800550200000100000000000040FFFF0F4076
:104D580000000000617373657274696F6E2066618C
:104D6800696C65643A2028504552495F4144445271
:104D78004553535F53544152542E2E3D504552498A
:104D88005F414444524553535F454E44292E636F57
:104D98006E7461696E73282661646472292F686F66
:104DA8006D652F636C2F2E636172676F2F72656755
:104DB80069737472792F7372632F696E6465782EC4
:104DC8006372617465732E696F2D3666313764328C
:104DD800326262613135303031662F73746D33322F
:104DE800663178782D68616C2D302E31302E302F59
:104DF8007372632F62622E7273000000A54D000863
:104E08005C0000002D000000050000006173736560
:104E18007274696F6E206661696C65643A206269B4
:104E280074203C2033320000A54D00085C000000CF
:104E38002E00000005000000A54D00085C000000E1
:104E48003100000029000000A54D00085C000000AA
:104E58003100000013000000A54D00085C000000B0
:104E6800310000004D00000069735F616C69676E76
:104E780065645F746F3A20616C69676E206973209E
:104E88006E6F74206120706F7765722D6F662D7458
:104E9800776F0000704E00082A0000002F686F6DC1
:104EA800652F636C2F2E7275737475702F746F6F06
:104EB8006C636861696E732F737461626C652D78B9
:104EC80038365F36342D756E6B6E6F776E2D6C6964
:104ED8006E75782D676E752F6C69622F7275737495
:104EE8006C69622F7372632F727573742F6C6962A9
:104EF800726172792F636F72652F7372632F70748A
:104F0800722F636F6E73745F7074722E7273000009
:104F1800A44E000872000000430600000D000000C7
:104F2800756E7361666520707265636F6E6469740F
:104F3800696F6E2873292076696F6C617465643AAD
:104F4800207074723A3A726561645F766F6C61744E
:104F5800696C652072657175697265732074686122
:104F6800742074686520706F696E74657220617250
:104F780067756D656E7420697320616C69676E650D
:104F88006420616E64206E6F6E2D6E756C6C756E2C
:104F98007361666520707265636F6E646974696FAA
:104FA8006E2873292076696F6C617465643A207085
:104FB80074723A3A77726974655F766F6C61746976
:104FC8006C652072657175697265732074686174A7
:104FD8002074686520706F696E74657220617267ED
:104FE800756D656E7420697320616C69676E6564A0
:104FF80020616E64206E6F6E2D6E756C6C617474BA
:10500800656D707420746F206164642077697468BA
:10501800206F766572666C6F770000000550000897
:105028001C000000617474656D707420746F2073C7
:10503800756274726163742077697468206F76652D
:1050480072666C6F770000002C5000082100000089
:10505800617474656D707420746F206D756C7469FB
:10506800706C792077697468206F766572666C6FEA
:105078007700000058500008210000006174746532
:105088006D707420746F207368696674206C65662F
:10509800742077697468206F766572666C6F770024
:1050A800845000082300000063616C6C6564206014
:1050B8004F7074696F6E3A3A756E7772617028290D
:1050C80060206F6E206120604E6F6E656020766193
:1050D8006C7565636F72652F7372632F70616E698B
:1050E800636B696E672E7273DB5000081500000051
:1050F800DD00000005000000696E646578206F75AA
:1051080074206F6620626F756E64733A20746865E8
:10511800206C656E20697320206275742074686540
:1051280020696E64657820697320000000510008CA
:105138002000000020510008120000003A20000062
:1051480001000000000000004451000802000000B7
:10515800303030313032303330343035303630372B
:105168003038303931303131313231333134313511
:1051780031363137313831393230323132323233F7
:1051880032343235323632373238323933303331DD
:1051980033323333333433353336333733383339C3
:1051A80034303431343234333434343534363437BB
:1051B80034383439353035313532353335343535A1
:1051C8003536353735383539363036313632363387
:1051D800363436353636363736383639373037316D
:1051E8003732373337343735373637373738373953
:1051F800383038313832383338343835383638374B
:105208003838383939303931393239333934393530
:105218003936393739383939617474656D707420A5
:10522800746F20646976696465206279207A657292
:0C5238006F000000205200081900000068
:0400000508000131BD
:00000001FF
