:020000040800F2
:10000000000001203101000863360008CB370008EA
:1000100063360008633600086336000800000000FD
:10002000000000000000000000000000633600082F
:1000300063360008000000006336000863360008DD
:10004000633600086336000863360008633600082C
:10005000633600086336000863360008633600081C
:10006000633600086336000863360008633600080C
:1000700063360008633600086336000863360008FC
:1000800063360008633600086336000863360008EC
:1000900063360008633600086336000863360008DC
:1000A00063360008633600086336000863360008CC
:1000B00063360008633600086336000863360008BC
:1000C00063360008633600086336000863360008AC
:1000D000633600086336000863360008633600089C
:1000E000633600086336000800000000633600082D
:1000F000633600086336000863360008633600087C
:10010000633600086336000863360008633600086B
:10011000633600086336000863360008633600085B
:10012000633600086336000863360008633600084B
:1001300003F099FA084809490022814201D004C01D
:10014000FBE707480749084A814202D008CA08C0AD
:10015000FAE700F00BF800DE0000002004000020A9
:1001600000000020000000202C44000880B56F46ED
:1001700000F000F880B56F46E8B043F2D070C0F6EA
:10018000000051900F20529000F08CF907F8010CFC
:1001900017F8010CC00730B9FFE743F2EC70C0F666
:1001A000000003F061FA00F03EFE07F8020C17F8B9
:1001B000020CC00730B9FFE743F2FC70C0F6000044
:1001C00003F052FA0DA8019003F023F8019937A823
:1001D0000290B1E83C50A0E83C5091E83C5080E8E7
:1001E0003C50082000F092FE649064A802F0D3FC1A
:1001F00002996690012004906590659A66983792FE
:1002000038902BA80390B1E83C50A0E83C5091E80E
:100210003C5080E83C50482000F078FE619061A896
:1002200002F0B9FC03990246049863926290629AC4
:100230006398339234901FA80590B1E83C50A0E831
:100240003C5091E83C5080E83C5002F0DFFF0599BB
:10025000A7F1910006905C9058A801F0FCFC069A6A
:10026000589859995A9BDDF86CC1CDF880C15F93BD
:100270005E915D9019A80B905DA901F043FA03F01F
:100280003CF844A8079000F078FB079800F05AFB70
:1002900003F072F8A7F18F0000F060FBA7F18E0069
:1002A00000F073FC02F064FE07F88D0CA7F18D00DE
:1002B0000990549047A8089002F0E5FF4FF4E13010
:1002C00002F01CFE0899024645A80A9002F0CEFFF3
:1002D00009980A990B9A01F003F901F08DF90B982E
:1002E00002F018FE4A90022001F0DAF901460846B1
:1002F0000C9055914AA802F0B6F943F2D071C0F6BD
:100300000001A7F17A000F2201F096F907F8710CAD
:10031000A7F1710000F05FFD28B9FFE70C994AA82A
:1003200002F0A1F904E0A7F18E0000F048FCF5E727
:10033000A7F1790000F062FF00F0010007F86E0CF1
:1003400007F86D1C17F86E0CC00750B9FFE717F8D7
:100350006D0C07F8450C8DF8310100208DF8300147
:1003600004E017F86D0C042805D1E1E74CA800F073
:100370001EFDC8B909E017F86D0C8DF85C018DF809
:10038000310101208DF83001F0E7A7F1790000F08C
:1003900035FF00F0010007F86A0C07F8691C17F830
:1003A0006A0CC00728B10EE0A7F18E0000F0EDFB4B
:1003B000EBE717F8690C07F8430C8DF835010020BE
:1003C0008DF8340104E017F8690C042805D1DCE746
:1003D0009DF83401C00750B114E017F8690C07F814
:1003E000420C8DF8350101208DF83401F0E79DF8BD
:1003F00035010146009107F8410CA7F18E0000F08D
:10040000C4FB04E0A7F18E0000F0D9FB0DE00099D9
:10041000A7F17A0000F0F0FF07F8670C17F8670CF7
:10042000C00708B9FFE700E0F1E74AA8642102F03D
:10043000ABF9AAE784B000900191007800F00100C8
:100440000290097801F001010391401AB0FA80F09E
:10045000400904B0704780B56F4682B003F0E3F8FE
:10046000019000F00100012804D0FFE7002007F808
:10047000050C03E0012007F8050CFFE717F8050C51
:1004800000F0010002B080BD80B56F4682B007F871
:10049000010C43F60C01C0F60001781EFFF7CAFFFD
:1004A00002B080BD80B56F4600F008F880BD40F214
:1004B0000001C2F2000101200870704780B56F464C
:1004C00084B0FFF7C8FF019007F8020C00F019FD97
:1004D00003F0ACF803A800F0E8FC014601980A46D6
:1004E000029207F8011CFFF7CFFF28B9FFE7029837
:1004F00000F0010004B080BD00F0FEFCF7E780B51D
:100500006F4684B0FFF7A7FF019007F8020C00F0D8
:10051000F8FC03F08BF803A800F018FD01460198E1
:100520000A46029207F8011CFFF7AEFF28B9FFE761
:10053000029800F0010004B080BD00F0DDFCF7E798
:1005400080B56F46AAB0059106900A900B9102F013
:10055000CAFC014607910C90022007F8850C17F899
:10056000850C022808D0FFE717F8850C00F0010081
:1005700007F8710CE0BB28E0059806990322099260
:100580000E910F9009A80390109002F0ACFC039913
:1005900004901190209021912590269002F030FF38
:1005A00001460398229123911E9124911F911EA927
:1005B0001FAA00F0A8FA014604980968279028911C
:1005C000299002F082FF2AB080BD07981030029077
:1005D000139000201490129012A800F073F90146B5
:1005E0000298096815901691179002F06EFFC3E704
:1005F000079810300190199000201A90189018A8B0
:1006000000F095F90146019809681B901C911D9016
:1006100002F05BFFB0E780B56F46AAB00591069087
:100620000A900B9102F054FC014607910C900220B5
:1006300007F8850C17F8850C022808D0FFE717F893
:10064000850C00F0010007F8710CE8BB29E0059863
:100650000699042209920E910F9009A80390109018
:1006600002F036FC039911900430049020902191FF
:100670002590269002F0C4FE014603982291239112
:100680001E9124911F911EA91FAA00F068FA01462D
:100690000498096827902891299002F016FF2AB043
:1006A00080BD079810300290199000201A90189081
:1006B00018A800F088F80146029809681B901C9160
:1006C0001D9002F002FFC2E70798103001901390CE
:1006D00000201490129012A800F09EF80146019894
:1006E000096815901691179002F0EFFEAFE780B5FC
:1006F0006F46AAB0059106900A900B9102F0E8FBB4
:10070000014607910C90022007F8850C17F8850C1C
:10071000022808D0FFE717F8850C00F0010007F861
:10072000710CE8BB29E0059806990B2209920E91FD
:100730000F9009A80390109002F0CAFB0399119042
:1007400004300490209021912590269002F058FECC
:1007500001460398229123911E9124911F911EA975
:100760001FAA00F0E6F9014604980968279028912D
:10077000299002F0AAFE2AB080BD0798103002909E
:10078000199000201A90189018A800F051F801460E
:10079000029809681B901C911D9002F096FEC2E71A
:1007A000079810300190139000201490129012A816
:1007B00000F0B1F80146019809681590169117905C
:1007C00002F083FEAFE780B56F468AB001900490D7
:1007D0001A200290002028B9FFE70298C0B2202812
:1007E00006D313E043F66C00C0F6000002F08EFF63
:1007F0000198029901F01F02012191400590069194
:1008000007900891016009900AB080BD43F67C0012
:10081000C0F6000002F0B3FF87B0019002904FF4E1
:1008200080610391049005910160069007B07047C4
:1008300080B56F468AB00190049019200290002084
:1008400028B9FFE70298C0B2202806D313E043F688
:100850006C00C0F6000002F059FF0198029901F007
:100860001F020121914005900691079008910160B7
:1008700009900AB080BD43F67C00C0F6000002F08B
:100880007EFF82B00090019121F0F000009909688C
:1008900040EA011002B0704782B00090019121F44B
:1008A00070600099096840EA012002B0704782B088
:1008B0000090019121F470000099096840EA01500C
:1008C00002B0704780B56F468AB001900490152041
:1008D0000290002028B9FFE70298C0B2202806D372
:1008E00013E043F66C00C0F6000002F00FFF019821
:1008F000029901F01F020121914005900691079095
:100900000891016009900AB080BD43F67C00C0F6F2
:10091000000002F034FF87B0019002904FF40071A4
:100920000391049005910160069007B0704787B06D
:10093000019002902021039104900591016006909E
:1009400007B0704780B56F4682B001460191781FAD
:10095000FFF761FE02F0A3FA02B080BD80B56F46DA
:1009600082B00190012107F8061C17F8061C01F05F
:10097000010100F00EF802B080BD80B56F4682B074
:1009800001460191781FFFF7B2FE00F04AF802B06D
:1009900080BD80B56F4696B00390059007F83E1C69
:1009A00007F83D1CA7F14500079017F83D0CC0075C
:1009B000B8B9FFE7A7F14500099002F094FA1030AA
:1009C00002900B9000200C900A900AA800F090F87A
:1009D0000146029809680D900E910F9002F075FD86
:1009E00016E0A7F14500089002F07DFA1030019062
:1009F000119000201290109010A800F045F80146C8
:100A00000198096813901491159002F05EFDFFE7BC
:100A10000399A7F14500FFF793FD00F007F816B022
:100A200080BD80B56F4600F0F1F880BD80B56F469F
:100A300000F0E7F880BD80B56F468AB00190049061
:100A400015200290002028B9FFE70298C0B22028A4
:100A500006D313E043F68C00C0F6000002F056FE09
:100A60000198029901F01F02012191400590069121
:100A700007900891016009900AB080BD43F69C0080
:100A8000C0F6000002F07BFE80B56F468AB0019090
:100A9000049015200290002028B9FFE70298C0B208
:100AA000202806D313E043F68C00C0F6000002F0C5
:100AB0002DFE0198029901F01F020121914005903D
:100AC000069107900891016009900AB080BD43F635
:100AD0009C00C0F6000002F052FE87B00190029028
:100AE00020210391049005910160069007B07047A2
:100AF00087B001900290202103910490059101603C
:100B0000069007B0704780B56F468CB00192029096
:100B100003910492059106910968FFF7C8FE01460A
:100B200001980790089109900A9101600B900CB010
:100B300080BD80B56F468CB0019202900391049203
:100B4000059106910968FFF79CFE01460198079000
:100B5000089109900A9101600B900CB080BD80B59E
:100B60006F468CB001920290039104920591069118
:100B70000968FFF791FE01460198079008910990D6
:100B80000A9101600B900CB080BD80B56F468AB0B1
:100B90000290039002F0A7F9103001900590002018
:100BA0000690049004A8FFF746FF014601980968E3
:100BB00007900891099002F088FC0AB080BD80B5CA
:100BC0006F468AB00290039002F08DF910300190C8
:100BD000059000200690049004A8FFF77EFF0146D0
:100BE0000198096807900891099002F06EFC0AB01C
:100BF00080BD80B56F4682B0019000F00CF802B065
:100C000080BD80B56F4600F0A0F880BD80B56F460E
:100C100000F09BF880BD80B56F4692B002900490C2
:100C20000078C00720B9FFE7022007F8390C03E07D
:100C3000002007F8390CFFE7029802F0B9F901909B
:100C40000890A7F13901009109910D900E9002F0E2
:100C5000D7FB014600980A910B9106910C910791E0
:100C600006A907AA00F00AF80146019809680F9042
:100C70001091119002F029FC12B080BD80B56F4632
:100C80008EB001920A46019902920246029804929D
:100C90000590069100F0B3FC01460A910B9104986F
:100CA0000078079107F8150C07990991096821F058
:100CB000E061039143F60811C0F6000100F008FD61
:100CC0000146039801F0070207990C9140EA02607F
:100CD000086007980D900EB080BD80B56F4686B055
:100CE0000390049002F058FC0290029868B9FFE764
:100CF00043F61810C0F600000178407801F00101B9
:100D000007F8121C07F8110C09E00298007807F8A0
:100D1000010C07F8110C012007F8120CFFE717F877
:100D2000120C17F8111C06B080BD8CB00090019118
:100D30000290039104910590069107900890014458
:100D400009910A900B910CB07047704780B56F46BF
:100D500082B0009007F8011C00F089FC02B080BD51
:100D600080B56F4684B00190019800909DF8000016
:100D7000C00760B9FFE7BDF80200ADF80C0000F055
:100D80004DFA07F8060C002007F8070C09E09DF85B
:100D9000010007F8010C07F8060C012007F8070C02
:100DA000FFE717F8070C17F8061C04B080BD82B0E7
:100DB00001900078C00720B9FFE701208DF80300FB
:100DC00003E000208DF80300FFE79DF8030000F02A
:100DD000010002B0704782B001900078C00720B9CE
:100DE000FFE701208DF8030003E000208DF80300E9
:100DF000FFE79DF8030000F0010002B0704782B0E9
:100E0000FFE700208DF80400FFE79DF8040000F0E4
:100E1000010002B0704781B001B0704782B0FFE7B7
:100E2000FFE702B0704780B56F46FFF768FB80BDF3
:100E300040F20101C2F2000101200870704780B544
:100E40006F4682B00090019100F002F802B080BDC0
:100E500080B56F4686B0009001910390FFE700983F
:100E6000FFF73BFF00F0010007F80F0C07F80E1C1E
:100E700017F80F0CC00750B1FFE717F80E1C07F862
:100E8000011C01A8FFF762FFFFF7C8FF02E0FFF7B0
:100E9000C2FF00E0E3E706B080BD80B56F4682B0D8
:100EA000019000F0D3FE02B080BD80B56F4682B0E5
:100EB000019040F20000C2F200000078C00730B993
:100EC000FFE7FFF7F4FA012007F8060C03E0002023
:100ED00007F8060CFFE717F8060C00F0010002B057
:100EE00080BD81B08DF802008DF803009DF80300ED
:100EF00000F0010001B0704780B56F4602F091FB31
:100F000080BD80B56F4602F08AFB80BD80B56F461C
:100F100082B0019000F002F802B080BD80B56F464B
:100F200082B0019044F24021C0F20F01A0FB0110F9
:100F3000009128B9FFE7009801F032FE02B080BDB1
:100F400043F67010C0F6000002F006FC80B56F4654
:100F500082B0019040F20100C2F200000078C007A8
:100F600030B9FFE7FFF764FF012007F8060C03E044
:100F7000002007F8060CFFE717F8060C00F0010048
:100F800002B080BD80B56F46B8B008910A90169146
:100F900002F031FA014608980A4609921791FFF7C4
:100FA0007CFF0E900EA801F0F6FD01460A980B9109
:100FB00000680C9048B1FFE70B980C99B0FBF1F07A
:100FC0000D900D980F2815D805E043F6E010C0F6F7
:100FD000000002F0E7FB43F60421C0F600010FA871
:100FE000079002F024FB079843F60C21C0F600019D
:100FF00002F044FB09980830019019900DA81A904E
:1010000000211B91189118A900F050F80146019891
:1010100009681C901D911E9002F057FA0A990998D0
:101020000C3004908A1D0392053102912190229286
:1010300023912790289002F0E3F902990246039841
:10104000249225921F92269220921FAA20AB00F094
:101050003DF801460498096829902A912B9002F0E6
:1010600034FA0A990998097907F8891C1030069012
:101070002E90A7F1890105912F913390349002F0C1
:10108000BFF901460598309131912C9132912D9103
:101090002CA92DAA00F08CF8014606980968359015
:1010A0003691379002F011FA38B080BD88B00091C7
:1010B00001460098019102900199096803900491FA
:1010C000059006910160079008B0704780B56F46A3
:1010D0009CB001930290039105920693129313938F
:1010E00002980078C00720B9FFE7002007F85E0CDF
:1010F00003E0012007F85E0CFFE7019817F85E1C7B
:101100000A9001F0010307F8423C0A990C91096822
:1011100021F4805107F8413C0A9A199241EA0331BF
:1011200011601490159003980078022804D1FFE70D
:10113000012007F85D0C03E0002007F85D0CFFE7D5
:10114000019917F85D0C0D9100F0010007F8350CBE
:1011500043F68821C0F60001FFF7C3FE034601985D
:101160000F9007F82E3C0F991191096821F4007136
:1011700007F82D3C0F9A189241EA4321116016900E
:10118000179003990B78002B18BF0123079007F8DD
:101190004E3C07990991096821F4806107F84D3C9C
:1011A000079A1A9241EA832111601B901CB080BDFE
:1011B00080B56F468CB00290039104920892099218
:1011C00002980078059207F8150C059907910968AF
:1011D00021F44051019143F68821C0F6000100F04E
:1011E00077FA0146019801F0030205990A9140EA55
:1011F0000230086005980B900CB080BD80B56F463A
:1012000084B0019000F00FF80290029800900098CE
:1012100003900398FFF7A4FD04B080BD81B0ADF842
:10122000020001B0704780B56F46BAB00A9002F074
:10123000E2F8014601910B9011901390149002F086
:10124000DFF81290039003A8319032909DF80C00C3
:1012500000F0010007F8190C8DF8140005A8219082
:1012600022909DF81400C007A0B9FFE703A82B90B7
:101270002C909DF80C00C0F3400007F8310C07F8E3
:10128000D20CA7F1D2002090239017F8D20CC007FF
:10129000D8B907E0032007F8D30C17F8D30C07F8E8
:1012A000D50C42E003A82E902F909DF80C00C0F3BF
:1012B000800007F8250C8DF8180006A81F902490D0
:1012C0009DF81800C007E0B907E0002007F8D10C2E
:1012D00017F8D10C07F8D50C27E003A83490359007
:1012E0009DF80C00C0F3C00007F80D0C07F8CE0CF9
:1012F000A7F1CE001E90259017F8CE0CC00760B95C
:1013000007E0012007F8CF0C17F8CF0C07F8D50C31
:101310000BE0042007F8D50C07E0022007F8CD0CFD
:1013200017F8CD0C07F8D50CFFE717F8D50C0428F3
:1013300021D0FFE7019817F8D51C009107F8B51CDC
:101340000D900F90109002F05BF8014601980E91FD
:10135000043019901B901C9002F052F8014600983E
:101360001A918DF81C009DF81C008DF809000120D1
:101370008DF8080013E003A8379038909DF80C0012
:10138000C0F3401007F8010C07F8CB0CA7F1CB0015
:101390001D90269017F8CB0CC00770B902E0029898
:1013A0003AB080BD042007F8C10C17F8C10C8DF8C5
:1013B000090001208DF80800F1E70198043015902C
:1013C0001790189002F01CF81690089008A8289022
:1013D0002990BDF820006FF35F2027F83E0C27F816
:1013E000CA0CA7F1CA00279037F8CA0CADF80A005A
:1013F00000208DF80800D2E780B56F4682B00090DB
:1014000007F8011CC9B200F002F802B080BD80B537
:101410006F4698B0ADF81010069001F0ECFF014651
:101420000391079008900A900B9001F0E9FF099052
:10143000059005A8159016909DF81400C00907F8AE
:10144000010C07F84D0CA7F14D001390149017F8FC
:101450004D0CC00720B9FFE7012007F84E0C18E03B
:101460000398043001900D9004A80E900021029181
:101470000F910C910CA900F012F80146019809682F
:1014800010901191129002F020F8029807F84E0C7B
:10149000FFE717F84E0C00F0010018B080BD80B5D2
:1014A0006F468AB0019002910691079101980088D9
:1014B000039127F8160C039905910968009143F6EA
:1014C0008821C0F6000100F00BF90246009803994C
:1014D000089162F308000860039809900AB080BD83
:1014E00080B56F469CB00592039102900B900C92D0
:1014F00041F20000C4F2020000900D900F9000F045
:10150000F7F80E21019101F070FD00980E9000F0A7
:10151000F4F8019901F05EFD009800F0EEF80199F1
:1015200001F04DFD0298FFF764FB039943F61C227E
:10153000C0F6000208A8049000F077F80498059916
:10154000FFF720FDA7F15100109043F60C00C4F204
:101550000100069013901790189001F051FF14901D
:10156000159011901690129011A812A900F00AF887
:1015700001460698096819901A911B9001F0A5FF81
:101580001CB080BD9AB00091014600980291039072
:10159000149015900490059001228DF81A20059959
:1015A000079109688DF81B20059B189341F40051A1
:1015B000196012901390089009908DF82A200999CB
:1015C0000B9109688DF82B20099B179341F00801B6
:1015D0001960109011900C900D908DF83A200D9993
:1015E0000F9109688DF83B200D9A169241F0040185
:1015F000116019901AB0704781B001B0704789B07E
:101600000190029106910791039100218DF812102B
:1016100003980590006820F004008DF813100399DA
:1016200008910860039809B070470A46014610689F
:1016300052684A600860704780B56F4688B0009273
:101640000A4600990192024601980292059206907C
:101650000791FFF76AFB024608460299039204903D
:1016600003A8FFF7ECFBFFF7CAFB08B080BD80B50D
:101670006F4686B001900A46029204908DF81410CD
:10168000FFE7029901980068FFF7B6FE07F8090C1A
:1016900017F8090CC00710B9FFE706B080BDF0E7E6
:1016A00080B56F4682B0019044F24021C0F20F0134
:1016B000A0FB0110009128B9FFE7009801F088FA1B
:1016C00002B080BD43F6F420C0F6000002F044F8FA
:1016D00081B08DF802008DF80300C0B201B07047F0
:1016E00081B0ADF80000ADF8020080B201B07047E3
:1016F00081B00090183001B0704781B000900C307C
:1017000001B07047B0B502AFE4B006920991059000
:101710001B920AA8079000F0B1FD069801F03FF86F
:101720000146079808910C30269127903021289186
:10173000259125A900F0F0F801460898096829903C
:101740002A912B9001F0C1FE099841F20001C4F2E8
:1017500002011C9101F07FF938B9FFE70998007A7E
:1017600000F0010001283BD07DE041F20000C4F20E
:101770000200049039903D903E9001F041FE3A9075
:101780003B9037903C90389037A838A900F00DF97D
:101790000146049809683F904091419001F095FE00
:1017A000FFE741F20000C4F2020021902390249050
:1017B00001F026FE2290119011A85E905F90119882
:1017C000C0F3404007F8150C8DF843000DF14300BD
:1017D0005B905C909DF84300C0070028E1D0BDE716
:1017E0000999487A8DF84A0041F20400C4F20200D7
:1017F00002904F900DF14A020192509251915590F2
:10180000569001F0FDFD09990246019852925392BB
:101810004D9254924E924DAA4EAB00F0DEF8014626
:101820000298096857905891599001F04EFE41F284
:101830000000C4F20200039044904890499001F0E7
:10184000DFFD4590469042904790439042A843A9BF
:1018500000F002F90146039809684A904B914C90B8
:1018600001F033FE39E0099C04F1080E04F10E0C7E
:1018700004F10C0304F10D0204F10A0104F10B0060
:101880001494CDF854E0CDF858C0179318921991DC
:101890001A9041F20400C4F2020000902E9032909F
:1018A000339001F0ADFD2F9030902C9031902D9021
:1018B00014A82CA92DAA00F0E7F8014600980968A1
:1018C00034903591369001F000FE05980AA991E810
:1018D0003C5080E83C5064B0B0BD41F20000C4F21E
:1018E00002001D901F90209001F08AFD1E90139021
:1018F00013A8619062901398C0F3406007F8090C38
:101900008DF84B000DF14B005A905D909DF84B0007
:10191000C0070028E1D0A6E780B56F4690B00291DD
:10192000049008910C910D9104980390182001F0F7
:10193000E9FA01460398069106A900F073FF68B919
:10194000FFE704980190302001F0DCFA014601988D
:10195000079107A900F066FF40B903E0002007F8EF
:10196000290C07E0022007F8290C03E0012007F802
:10197000290CFFE7029917F8290C099107F8150CB3
:1019800009990B910968009143F66031C0F6000196
:10199000FFF79EFE0246009809990E9162F302003D
:1019A000086009980F9010B080BD8BB00190029133
:1019B00009910A910491059101218DF81A10059859
:1019C000079000688DF81B100599089140F480304D
:1019D0000860059803900BB0704780B56F4694B0CF
:1019E0000390049105920693109311930398007845
:1019F0000C9307F8190C0C990E91096821F47011D9
:101A0000019143F66031C0F60001FFF761FE014627
:101A1000019801F00F020C990F9140EA8240086092
:101A20000C98029012901390049801F014F802465A
:101A30000298089007F82A2C08980A90006820F469
:101A4000803007F8292C08990B9140EA0240086081
:101A50000898079014B080BD8BB001900291099155
:101A60000A910491059101218DF81A1005980790AB
:101A700000688DF81B100599089140F0807008608F
:101A8000059803900BB0704780B56F46B8B00392CD
:101A900009900C910D9234923592806900781692DB
:101AA00007F8810C43F66031C0F60001079101F0A0
:101AB00005F8039A0799189207F8790C189A1A9260
:101AC000126822F440420292FFF702FE029B039A40
:101AD0000799844609980CF0030EDDF860C0CDF834
:101AE0006CC043EA8E33CCF80030329233920069F6
:101AF00000788DF82C009DF82C00249207F8490CF2
:101B0000249A2692126822F460520492FFF7E0FDB4
:101B1000049A07990346099803F0070C249B27931E
:101B200042EACC221A60249A30923192C06800783E
:101B300007F8B30C17F8B30C1C9207F8690C1C9A41
:101B40001E92126822F4E0620592FFF7C1FD059A29
:101B500007990346099803F0070C1C9B1F9342EA60
:101B60000C221A601C9A2E922F928068007807F837
:101B7000B20C17F8B20C289207F8390C289A2A925E
:101B8000126822F0F0020692FFF7A2FD069A07996A
:101B90000346099803F00F0C289B2B9342EA0C1282
:101BA0001A60289A0892369237924069007810920B
:101BB00000F0010007F8990C00F075FF0899034642
:101BC0000998129107F8923C12991491096821F42E
:101BD000800107F8913C129A159241EA83511160F5
:101BE00012990A912C912D91406800F048FF48B954
:101BF000FFE70998006800F02EFF07F8A50C07F82A
:101C0000B10C03E0022007F8B10CFFE70A9917F8BE
:101C1000B10C209107F8590C209922910968019183
:101C200043F66031C0F60001FFF752FD024601980D
:101C30002099239162F30100086020980F9038B03A
:101C400080BD81B00090006801B0704781B0009005
:101C5000806801B07047F0B503AF4DF8048DBAB09D
:101C60001A9101461A981B91016840681C911D90B9
:101C70001C98012804D1FFE71D982F901E9005E0C5
:101C800040F60010C0F23D001E90FFE71A98006A6F
:101C9000012808D1FFE71A98406A189030901E98E2
:101CA000199048B102E001201F900BE01898199993
:101CB000B0FBF1F01F9005E043F6D030C0F6000015
:101CC00001F070FD1F98012807D1FFE7002007F8F9
:101CD0006E0C1C98012803D006E01F9880BB2CE0F6
:101CE0001D983190239005E041F20020C0F27A0067
:101CF0002390FFE717F86E1C17F86D0C01F0010137
:101D00008DF880108DF8810023982190FFE71A98B4
:101D10009DF880209DF88110134615930B4616936D
:101D200002F0010207F82E2C07F82D1C21991791BB
:101D30003391806801283DD042E01F9838B109E016
:101D40001F981028F9D8FFE71F98249005E001207C
:101D5000249002E010202490FFE79DF89000811E5F
:101D6000149102280DD3FFE7149807F8620C0120A4
:101D700007F8630C1E982499A0FB0110139198B9E1
:101D800005E043F6E030C0F6000001F0D2FC139805
:101D900017F8632C17F8621C02F001028DF88020FE
:101DA0008DF881102190B2E743F6F030C0F60000C4
:101DB00001F0D2FC1A98C0681290349068B103E028
:101DC000072007F8610C22E017981299B0FBF1F098
:101DD0000146119100280AD205E043F60040C0F602
:101DE000000001F0DFFC1198022808D00BE01198E8
:101DF0000128F8D8FFE7072007F8610C07E0082062
:101E000007F8610C03E0119802280DD808E017F8D4
:101E1000610C07F85B0C17F85B0C0B2854D848E0F2
:101E2000119805280CD807E011980528F8D8FFE785
:101E3000092007F8610CEAE711980B280CD807E095
:101E400011980B28F8D8FFE70A2007F8610CDEE7A5
:101E5000119827280CD807E011982728F8D8FFE711
:101E60000B2007F8610CD2E711985F280CD807E027
:101E700011985F28F8D8FFE70C2007F8610CC6E737
:101E80001198BF280CD807E01198BF28F8D8FFE7B1
:101E90000D2007F8610CBAE70F2007F8610CB6E7D0
:101EA0001198C0090228F7D8FFE70E2007F8610C47
:101EB000ADE717F8610C07F8590C17F8590CC11F5A
:101EC0001091072810D30AE017F8610C07F85A0C94
:101ED00017F85A0C811F0F91062830D32AE010986A
:101EE000C0B2202806D30EE043F61040C0F6000032
:101EF00001F01FFC109800F01F01012088400146EE
:101F00000E9160B105E043F62040C0F6000001F0FC
:101F100036FC17980E99B0FBF1F0269005E043F6D9
:101F20003040C0F6000001F03DFC1A98006901281D
:101F300026D02AE00F98C0B2202806D30EE043F640
:101F40004040C0F6000001F0F4FB0F9800F01F01C4
:101F50000120884001460D9160B105E043F65040F4
:101F6000C0F6000001F00BFC17980D99B0FBF1F0E2
:101F70002690DAE743F66040C0F6000001F012FC5C
:101F80001A9840693590289007E0269845F200118C
:101F9000C0F2252188420ED307E0269928980844EC
:101FA00002460C9288420ED308E045F20010C0F2BF
:101FB00025202890F1E726982890EEE70C98411EFE
:101FC0000B9150B105E043F67040C0F6000001F0FF
:101FD0009DFB28980A9098B105E043F68040C0F632
:101FE000000001F0A6FB0B980A99B0FBF1F0014646
:101FF000099102280ED3FFE7099802280ED005E0C8
:1020000043F68040C0F6000001F0CCFB099802289E
:1020100011D80CE003208DF8A40003E004208DF813
:10202000A400FFE71A988069012818D01FE00998DA
:1020300005280CD807E009980528F8D8FFE70520FF
:102040008DF8A400EEE707208DF8A400EAE70998D0
:102050000B28F8D8FFE706208DF8A400E2E71A98CD
:10206000C069079036902699089168B103E0032073
:1020700007F8530C22E008980799B0FBF1F00146ED
:10208000069100280AD205E043F69040C0F6000011
:1020900001F088FB0698022808D00BE0069801287A
:1020A000F8D8FFE7032007F8530C07E0042007F8EF
:1020B000530C03E0069802280FD80AE017F8530CD7
:1020C00007F8520C17F8520CC11E059103281DD3B6
:1020D00017E0069805280CD807E006980528F8D8D8
:1020E000FFE7052007F8530CE8E7072007F8530C33
:1020F000E4E706980B28F8D8FFE7062007F8530C0A
:10210000DCE70598C0B2202806D311E043F6A040D2
:10211000C0F6000001F00DFB059800F01F01012042
:1021200088400146039137902699049118B305E041
:1021300043F6B040C0F6000001F021FB1798169955
:10214000159A049BDDF80CC0B3FBFCF39C46CDF85C
:1021500008C03893DDF870C01D9BCDF8A8C02B9344
:1021600002F001028DF8B0208DF8B1102D902A9860
:10217000012806D00CE043F6C040C0F6000001F094
:1021800011FB9DF8B00000F00100012804D0FFE72A
:10219000012007F8510C0BE02D984AF20021C0F203
:1021A0004A418842F4D1FFE7002007F8510CFFE7CD
:1021B0001A98806A012806D1FFE71A98C06A019030
:1021C000399068B103E0032007F83D0C32E0029833
:1021D0000199B0FBF1F00146009100280AD205E018
:1021E00043F6D040C0F6000001F0DCFA0098022867
:1021F0000CD807E000980228F8D8FFE7002007F87D
:102200003D0C17E0009804280CD807E0009804283B
:10221000F8D8FFE7012007F83D0C0BE0032007F892
:102220003D0C07E000980728F8D8FFE7022007F8E0
:102230003D0CFFE71B99169C159D17F861EC9DF866
:10224000A4C017F8533C17F8512C17F83D0CDDF8D3
:1022500070801D9EC1F800804E6005F001050D7272
:102260004C7281F80EE081F80CC04B7302F0010251
:102270008A72C8723AB05DF8048BF0BDF0B503AF56
:102280004DF804BDAEB019911A902491087AC00798
:1022900050B1FFE71998417A0A46189207F8311CA5
:1022A0000068012805D009E019980068012833D09A
:1022B00037E01998406826901C9005E040F6001021
:1022C000C0F23D001C90FFE718981C991691C0B20F
:1022D00002301790002038B9FFE716981799A0FB35
:1022E0000110159148B905E043F6E040C0F6000042
:1022F00001F00CFA15981B9005E043F6F040C0F68B
:10230000000001F029FA1998807B07F84F0C17F8A4
:102310004F0C0B2818D80AE01998406827901B909A
:10232000F1E741F20020C0F27A001B90EBE7199828
:102330001B991391807B07F84D0C17F84D0CC11FAA
:102340001491072812D30CE019981B991191807BE6
:1023500007F84E0C17F84E0C811F1291062836D341
:1023600030E01498C0B2202806D30EE043F60050A7
:10237000C0F6000001F0DDF9149800F01F01012003
:1023800088400146109160B105E043F61050C0F658
:10239000000001F0F4F913981099B0FBF1F01D90D2
:1023A00005E043F62050C0F6000001F0FBF9199853
:1023B000007B8DF87C009DF87C00C11E0F910328E6
:1023C0002BD325E01298C0B2202806D30EE043F6A6
:1023D0003050C0F6000001F0ACF9129800F01F0177
:1023E0000120884001460E9160B105E043F640505F
:1023F000C0F6000001F0C3F911980E99B0FBF1F09E
:102400001D90D4E743F65050C0F6000001F0CAF921
:102410000F98C0B2082806D314E043F66050C0F607
:10242000000001F086F90F9800F0070101208840B4
:1024300001460B9107F8250C1D990C9101460D9151
:10244000C0B105E043F67050C0F6000001F097F906
:1024500019980C990D9AB1FBF2F10A46099229914B
:10246000407B07F84B0C17F84B0CC11E0A91032850
:102470000BD305E043F68050C0F6000001F092F95E
:102480000A98C0B2082806D314E043F69050C0F66C
:10249000000001F04EF90A9800F007010120884081
:1024A0000146069107F81D0C1D99079101460891F8
:1024B000D0B105E043F6A050C0F6000001F05FF98E
:1024C00019980799089AB1FBF2F10A4604922B91E8
:1024D000C07A07F84A0C17F84A0C411CC8B20A46E1
:1024E000059288420FD105E043F6B050C0F60000D7
:1024F00001F058F90598400007F8150CC0B20146E4
:10250000039110B305E043F6C050C0F6000001F09F
:10251000FDF819980499039AB1FBF2F10A46029268
:102520002D91D0F800C04368027A417A1B98CDF80B
:1025300080C0219302F001028DF888208DF8891067
:1025400023902098012806D00CE043F6D050C0F626
:10255000000001F027F99DF8880000F00100012833
:1025600004D0FFE7002007F8490C14E023980190FD
:1025700046F60041C0F2DC21884208D0FFE701980E
:102580004AF20021C0F24A418842EBD1FFE7012024
:1025900007F8490CFFE71B984AF20121C0F24A41B3
:1025A00088420BD3FFE743F6E050C0F6000043F645
:1025B0006C62C0F600028A2101F07FF81D984AF291
:1025C0000021C0F24A418842EDD8FFE7099845F260
:1025D0000011C0F225218842E5D8FFE704984AF2AD
:1025E0000021C0F24A418842DDD8FFE7029849F64F
:1025F0008071C0F2D5018842D5D8FFE71D9800F060
:1026000001F90646099800F0FDF80546049800F027
:10261000F9F804461B9800F0F5F80146029800917D
:1026200000F0F0F8DDF818C0009B1A99DDF82CE0F6
:10263000024617F8490C0E604D608C6081F814E07A
:1026400081F815C0CB600A6100F0010088752EB0DA
:102650005DF804BBF0BD81B0009001B0704781B05F
:10266000009001B0704780B56F468AB00390069124
:10267000089006A800F0B8FA014603980491FFF705
:10268000EAFF00F088FA014604984DF68362C4F22E
:102690001B32A1FB0221890CA0FB0110059118B986
:1026A000FFE70598079005E043F6E460C0F60000F8
:1026B00001F052F8079810B9FFE70AB080BD0798FB
:1026C0006FF07F4100F0D2F8014603980191099123
:1026D000FFF7C5FF0199043000F0B4FA0398FFF743
:1026E000BEFF043000F0D3FA0398FFF7B8FF0430C0
:1026F00000F0E0FA01990798421A0292884203D347
:10270000FFE70298079005E043F6F460C0F600008A
:1027100001F00FF80398FFF7A2FF043000F0A5FACC
:102720000028F7D0FFE70398FFF799FF043000F087
:10273000DBFABFE780B56F4684B000910146009890
:1027400001910291039000F065F801460198FFF7AE
:102750008AFF04B080BD80B56F4684B000900290BF
:1027600003914FF47A70A1FB0010019130B9FFE79B
:1027700001990098FFF7DEFF04B080BD43F66C704E
:10278000C0F6000000F0E8FF80B56F4682B0009010
:1027900007F8011CC9B2FFF7DEFF02B080BD81B0AF
:1027A000009042F20000C4F2020001B0704783B012
:1027B00002900190002000900098019903B07047AA
:1027C00084B000900390007AC00730B9FFE700980A
:1027D000043002900020019005E00098043002903F
:1027E00001200190FFE70198029904B0704780B57D
:1027F0006F4682B0009001910068096800F067F9A7
:1028000002B080BD80B56F4682B0019000F0B0F993
:1028100002B080BD80B56F4682B0019000F0E9F94A
:1028200002B080BD80B56F4684B002900391FFF77F
:10283000DEFF07F8090C17F8090C022807D0FFE79C
:1028400017F8091C481CC0B2022805D3FFE7002076
:1028500007F80A0C04E0FEDE012007F80A0CFFE787
:1028600017F80A0C00F0010004B080BD80B56F4677
:1028700082B00090019100F002F802B080BD80B5F6
:102880006F4684B000900191012007F8020C684661
:1028900001A900F0D5F807F8030C17F8031C481C31
:1028A000C0B2022802D3FFE706E0FEDE002007F8F0
:1028B000020C0098029002E00198029003E0FFE70A
:1028C000029804B080BD17F8020CC0070028F7D0AA
:1028D000FFE7F5E787B003900491A0FB0110002803
:1028E00018BF01200A46009205918DF81A008DF854
:1028F0001B009DF81B00C00728B9FFE70098029055
:102900000120019008E043F6E470C0F60000016881
:10291000406801910290FFE70198029907B0704763
:1029200080B56F46A2B0019003910F90FFF73FFF73
:10293000059006910598029030B1FFE702980128B2
:1029400017D0FFE72AE0FEDE0698079007A8109050
:102950000398089008A81190079903981C911D905E
:10296000096802680020914298BF012007F8750CA1
:1029700015E00698099009A8129003980A900AA8F1
:10298000139009990398209121900968026800200A
:10299000914238BF012007F8750C00E008E017F8F5
:1029A000750CC00720B9FFE7002007F8760C0DE092
:1029B0000198FFF705FF0B900C910B98009058B110
:1029C000FFE7009801281AD0FFE72BE017F8760CF4
:1029D00000F0010022B080BD0C98149003A915915D
:1029E0000D900DA9169103991A911B900968026820
:1029F0000020914298BF012007F8760C16E00C9851
:102A0000179003A918910E900EA9199103991E9180
:102A10001F90096802680020914238BF012007F822
:102A2000760C03E0012007F8760CFFE7CEE780B5CF
:102A30006F4682B000900191FFF772FF02B080BD37
:102A400080B56F4684B0019002910198029900F020
:102A500071FA04B080BD82B001900068012804D1F1
:102A6000FFE701208DF8030003E000208DF803004C
:102A7000FFE79DF8030000F0010002B0704782B04C
:102A800001900078C00720B1FFE701208DF8030016
:102A900003E000208DF80300FFE79DF8030000F03D
:102AA000010002B0704781B08DF802008DF803007C
:102AB0009DF8030000F0010001B0704781B08DF86F
:102AC00002008DF803009DF8030001B0704780B547
:102AD0006F4696B0049105900B900C91FFE7059816
:102AE0000121FFF7F7FE02460498029203910D922E
:102AF0000E9144F24021C0F20F01FFF7EBFE029B62
:102B0000039A0F9010910793089209900A910798E1
:102B1000012804D1FFE70998012804D0FFE702202B
:102B200007F83D0C20E00898009011900A99019157
:102B3000129114901591884205D3FFE700980199EE
:102B4000884208D803E0FF2007F8090C07E00020BE
:102B500007F8090C03E0012007F8090CFFE717F854
:102B6000090C07F83D0CFFE717F83D0C16B080BDC7
:102B700080B56F4682B001900090002028B9FFE731
:102B8000009800F00DF802B080BD43F6D470C0F696
:102B9000000000F0E1FD81B00090006801B07047D6
:102BA00080B56F4682B00090019000F0D3F900F03C
:102BB000D1F9009802B080BD80B56F4682B0009018
:102BC000019000F0C6F900F0C5F9009802B080BD90
:102BD00080B56F4682B00090019000F0BBF900F024
:102BE000B8F9009802B080BD81B00090006801B0D3
:102BF000704780B56F4682B001900090002028B9E0
:102C0000FFE70098FFF7E4FF02B080BD44F2480000
:102C1000C0F6000000F0A0FD80B56F4684B00191C1
:102C20000290039141B1FFE701990298B0FBF1F0E6
:102C30000290029804B080BD43F6D470C0F6000044
:102C400000F0B0FD80B56F4688B00090019107900C
:102C50004EF21400CEF20000029003910490059110
:102C6000069000F032FC08B080BD80B56F4686B09B
:102C7000019005904EF21000CEF2000002900390F9
:102C8000049000F0BDFBC0F3004006B080BD80B5ED
:102C90006F4688B0019007904EF21800CEF2000007
:102CA00002900021039104900591069000F00DFC24
:102CB00008B080BD80B56F468AB0029009904EF290
:102CC0001000CEF20000019003900490059000F0F7
:102CD00097FB00F09EFC0146019806900791089032
:102CE00000F0F3FB0AB080BD80B56F468AB0029059
:102CF00009904EF21000CEF2000001900390049073
:102D0000059000F07DFB00F07EFC014601980690E6
:102D10000791089000F0D9FB0AB080BD80B56F46DE
:102D200094B0039007F83D1C059017F83D0CC007C0
:102D3000B0B9FFE7039813904EF21000CEF20000F6
:102D4000029007900890099000F05AFB00F004F9F7
:102D5000014602980C900D910E9000F0B6FB15E024
:102D6000039812904EF21000CEF2000001900690EF
:102D70000A900B9000F044FB00F0F4F80146019833
:102D80000F901091119000F0A0FBFFE714B080BDF0
:102D900080B56F4600F0C8F880BD80B56F4600F082
:102DA000C3F880BD80B56F4600F0BEF880BD80B529
:102DB0006F4600F0B9F880BD80B56F4600F0B4F8FA
:102DC00080BD80B56F4600F0AFF880BD80B56F461E
:102DD00000F0AAF880BD80B56F4600F0A5F880BD70
:102DE00080B56F4600F0A0F880BD80B56F4600F05A
:102DF0009BF880BD80B56F4600F096F880BD80B529
:102E00006F4600F091F880BD80B56F4600F091F8F4
:102E100080BD80B56F4600F087F880BD80B56F46F5
:102E200000F082F880BD80B56F4600F07DF880BD6F
:102E300080B56F4600F07DF880BD80B56F4600F02C
:102E400073F880BD80B56F4600F06EF880BD80B528
:102E50006F4600F06EF880BD80B56F4600F064F8F4
:102E600080BD80B56F4600F064F880BD80B56F46C8
:102E700000F05FF880BD80B56F4600F055F880BD6A
:102E800080B56F4600F050F880BD80B56F4600F009
:102E90004BF880BD80B56F4600F046F880BD80B528
:102EA0006F4600F041F880BD80B56F4600F03CF8F9
:102EB00080BD80B56F4600F037F880BD80B56F46A5
:102EC00000F032F880BD80B56F4600F02DF880BD6F
:102ED00081B0FFE740F60000C4F201000090FFE778
:102EE000009801B0704781B0FFE740F60040C4F29F
:102EF00001000090FFE7009801B0704781B000909A
:102F000001B0704780B56F4682B00190FFF754FE64
:102F100002B080BD80B56F4684B0029000F0D5F954
:102F200000F0CFF904B080BD80B56F4600F013F813
:102F300080BD704782B00090019102680B6800204C
:102F40009A4288BF0120411E9A4238BF084602B00B
:102F5000704770477047704782B0019040F004009E
:102F600002B0704782B0019020F0040002B07047B8
:102F700080B56F4686B041F20000C4F202000090B6
:102F800003900490FEF7B4FB0021019100F02DF8AE
:102F900000980590FEF7B1FB019900F01BF800982E
:102FA000FEF7ABFB019900F00AF8012006B080BDE6
:102FB00081B000900420C4F2010001B0704780B5D8
:102FC0006F4682B0009007F8011C002200F018F84C
:102FD00002B080BD80B56F4682B0009007F8011C3A
:102FE000012200F00DF802B080BD80B56F4682B0BE
:102FF000009007F8011C012200F085F802B080BDA6
:1030000080B56F468EB0134606930B460793099022
:1030100007F80E1C07F80D2C089044F25800C0F673
:10302000000008A9FFF703FD58B9FFE744F2640068
:10303000C0F6000044F20C12C0F60002492100F074
:103040003CFB0798C0B220280BD3FFE744F21C10CA
:10305000C0F6000044F23812C0F600021A2100F057
:103060002CFB0798C0B2014604910B90089800F120
:1030700040410591B0F1804F06D3FFE7059841012B
:10308000C00E039170B905E044F24810C0F600008C
:1030900000F04FFB039901F18440024602928842FE
:1030A0000CD305E044F24810C0F6000000F054FBD9
:1030B00004988100800F019170B905E044F2581026
:1030C000C0F6000000F022FB029901980844024675
:1030D0000092884211D305E044F26810C0F6000067
:1030E00000F03AFB009806990C9001F0010107F8F6
:1030F000011C00F0EAF90EB080BD44F25810C0F691
:10310000000000F003FB80B56F468EB013460693B7
:103110000B460793099007F80E1C07F80D2C089032
:1031200044F25800C0F6000008A9FFF780FC58B927
:10313000FFE744F26400C0F6000044F20C12C0F64F
:103140000002492100F0B9FA0798C0B220280BD339
:10315000FFE744F21C10C0F6000044F23812C0F63B
:1031600000021A2100F0A9FA0798C0B201460491A2
:103170000B90089800F140410591B0F1804F06D3C3
:10318000FFE705984101C00E039170B905E044F2D4
:103190004810C0F6000000F0CCFA039901F1844019
:1031A0000246029288420CD305E044F24810C0F671
:1031B000000000F0D1FA04988100800F019170B9ED
:1031C00005E044F25810C0F6000000F09FFA0299A2
:1031D0000198084402460092884211D305E044F267
:1031E0006810C0F6000000F0B7FA009806990C903D
:1031F00001F0010107F8011C00F067F90EB080BD75
:1032000044F25810C0F6000000F080FA81B001B01E
:103210007047B0B502AF99B000210C910E9110919A
:103220001291149116910C9A0D99009201910E9A97
:103230000F9902920391109A119904920591129A92
:10324000139906920791149A159908920991169A62
:1032500017990A920B916946B1E83C50A0E83C509E
:1032600091E83C5080E83C5019B0B0BD82B000926B
:103270000A460146009801901060106852684A6042
:10328000086002B0704780B56F4682B000904FF47E
:10329000E130FFF733FE0099002207F8032C07F80E
:1032A000022C07F8012C086017F8030C00F001004D
:1032B000887117F8020C487117F8010C087102B0F8
:1032C00080BD81B0009001B0704780B56F4684B07A
:1032D00000900290012007F8090C17F8090C00F083
:1032E0000101A7F10A00FFF719FD0098FEF7A9FCFC
:1032F0000821FFF791FC04B080BD80B56F4686B011
:1033000041F20000C4F20200009003900490FEF726
:10331000EFF902210191FFF768FE00980590FEF792
:10332000ECF90199FFF756FE0098FEF7E6F90199CE
:10333000FFF745FEFFF75EFDFFF7C0FDFFF746FD17
:10334000FFF749FDFFF7BFFDFFF73BFDFFF72FFD3F
:10335000FFF7A0FDFFF7ADFDFFF774FDFFF79FFD41
:10336000FFF720FDFFF787FDFFF74EFDFFF779FD23
:10337000FFF77CFD06B080BD80B56F4686B041F298
:103380000000C4F20200009003900490FEF7B0F930
:1033900003210191FFF729FE00980590FEF7ADF992
:1033A0000199FFF717FE0098FEF7A7F90199FFF7BB
:1033B00006FEFFF7EDFCFFF713FDFFF720FDFFF71B
:1033C00037FDFFF744FDFFF7F7FCFFF70EFDFFF7B2
:1033D00043FDFFF7E2FCFFF730FDFFF724FDFFF7A9
:1033E0004FFDFFF716FDFFF719FDFFF74EFDFFF745
:1033F0005BFD06B080BD43F60000C4F201007047DB
:1034000080B56F4684B001900290FFE701980421D7
:1034100000F007F8FFE7019800680390039804B0F4
:1034200080BD80B56F468EB0019109900A9144F23B
:10343000A411C0F600010B910C900146029108B94D
:10344000FFE719E001984FF0553101EA5001401AA9
:103450004FF0333101EA900120F0CC30084400EB0A
:10346000101020F0F0304FF001314843000E0D9065
:103470000D98012807D00CE044F23020C0F600007F
:103480006E2100F02DF902980199013908421AD0F5
:10349000F2E744F2A410C0F600000390012004906B
:1034A00043F6E470C0F60000016840680791089098
:1034B000042005900020069044F22021C0F600016F
:1034C00003A800F0DBF80EB080BD80B56F4684B075
:1034D0000091019002900391FFE70198042100F010
:1034E00006F8FFE700980199086004B080BD80B538
:1034F0006F468EB000910890099144F2A411C0F675
:1035000000010A910B900C900146019108B9FFE768
:1035100019E000984FF0553101EA5001401A4FF080
:10352000333101EA900120F0CC30084400EB101058
:1035300020F0F0304FF001314843000E0D900D980F
:10354000012807D00CE044F29E20C0F600006F2155
:1035500000F0C6F801980099013908421AD0F2E744
:1035600044F2A410C0F6000002900120039043F63C
:10357000E470C0F6000001684068069107900420DE
:1035800004900020059044F22021C0F6000102A81A
:1035900000F074F80EB080BD91B00090059001204D
:1035A00006900790FFE70098011D0891416803917C
:1035B000099003A90A9100680B900399401AB0FA88
:1035C00080F040098DF80B00FFE79DF80B00C00765
:1035D00020B9FFE700980068049002E00020019005
:1035E0000EE00099081D0C900D9008680E900130B7
:1035F0000860FFE704A80F90049810900190FFE77F
:10360000019811B0704782B0019020F0010002B023
:10361000704782B0019040F0010002B0704772B66E
:10362000704762B67047EFF310807047704782B002
:10363000009101460098019008600120486043F61F
:10364000E470C0F60000026840680A614861042026
:1036500088600020C86002B0704781B00090FFE72A
:10366000FEE7FFE7FEE7704780B56F46024644F28B
:10367000B830C0F600002B2100F01FF880B56F466F
:1036800084B0CDE9010101A80122ADF80C20FFF7BB
:10369000E4FF80B56F468AB00DF1040C90E87043EA
:1036A0000020634683E870438DF8240007A88DF856
:1036B0002510CDE907C2FFF7D0FF80B56F4688B06F
:1036C00094460122019206AA0023CDE90601009248
:1036D000042268466146049303930292FFF7CEFFEB
:1036E00080B56F4688B00022CDE90601049201231F
:1036F00003920422029244F2F8326846C0F60002B5
:103700000021019306AB0093FFF7C3FF80B56F461E
:1037100086B00146002001220490019244F22C322E
:1037200003900420C0F60002029068460092FFF762
:10373000A5FF80B56F4686B00146002001220490A7
:10374000019244F2583203900420C0F60002029025
:1037500068460092FFF792FF80B56F4686B001463B
:10376000002001220490019244F28432039004204C
:10377000C0F60002029068460092FFF77FFF80B516
:103780006F4686B00146002001220490019244F267
:10379000B03203900420C0F6000202906846009206
:1037A000FFF76CFF80B56F4686B00146002001220E
:1037B0000490019244F2244203900420C0F60002D7
:1037C000029068460092FFF759FFFFE7FEE7D4D466
:1037D00048656C6C6F2C20776F726C64210D0A73D6
:1037E00072632F6D61696E2E72730000DF370008FF
:1037F0000B0000001300000027000000DF37000866
:103800000B000000140000002C000000002F686F67
:103810006D652F636C2F2E636172676F2F72656702
:1038200069737472792F7372632F696E6465782E71
:103830006372617465732E696F2D36663137643239
:10384000326262613135303031662F73746D3332DC
:10385000663178782D68616C2D302E31302E302F06
:103860007372632F6770696F2E7273000D380008D2
:103870005E000000130400003A0000000D3800084C
:103880005E00000013040000350000000D38000841
:103890005E00000028020000410000000D38000812
:1038A0005E000000280200003C0000002F686F6DE1
:1038B000652F636C2F2E636172676F2F7265676966
:1038C000737472792F7372632F696E6465782E63D7
:1038D00072617465732E696F2D36663137643232CA
:1038E0006262613135303031662F73746D33326608
:1038F000312D302E31352E312F7372632F67656E67
:10390000657269632E727300AC3800085B000000BA
:10391000550200000100000000002F686F6D652F48
:10392000636C2F2E636172676F2F726567697374A2
:1039300072792F7372632F696E6465782E6372617A
:103940007465732E696F2D36663137643232626268
:10395000613135303031662F66756769742D302ED0
:10396000332E372F7372632F726174652E7273005A
:103970001A390008550000004B0200000100000049
:103980002F686F6D652F636C2F2E636172676F2FC9
:1039900072656769737472792F7372632F696E64CD
:1039A00065782E6372617465732E696F2D3666318A
:1039B000376432326262613135303031662F737470
:1039C0006D3332663178782D68616C2D302E313050
:1039D0002E302F7372632F73657269616C2E727350
:1039E0008039000860000000780100000F0000002E
:1039F000696D706F737369626C65206261756420B4
:103A000072617465F0390008140000008039000804
:103A10006000000079010000050000008039000806
:103A2000600000002D010000260000002F686F6D6F
:103A3000652F636C2F2E636172676F2F72656769E4
:103A4000737472792F7372632F696E6465782E6355
:103A500072617465732E696F2D3666313764323248
:103A60006262613135303031662F73746D33326686
:103A7000312D302E31352E312F7372632F67656EE5
:103A8000657269632E7273002C3A00085B000000B7
:103A900055020000010000002F686F6D652F636CF8
:103AA0002F2E636172676F2F726567697374727905
:103AB0002F7372632F696E6465782E63726174650B
:103AC000732E696F2D36663137643232626261312E
:103AD00035303031662F66756769742D302E332E80
:103AE000372F7372632F6475726174696F6E2E72F3
:103AF00073000000983A0008590000006F020000AF
:103B0000010000002F686F6D652F636C2F2E6361BD
:103B100072676F2F72656769737472792F7372633E
:103B20002F696E6465782E6372617465732E696F98
:103B30002D36663137643232626261313530303170
:103B4000662F73746D333266312D302E31352E3140
:103B50002F7372632F67656E657269632E727300CF
:103B6000043B00085B00000055020000010000005B
:103B70002F686F6D652F636C2F2E636172676F2FD7
:103B800072656769737472792F7372632F696E64DB
:103B900065782E6372617465732E696F2D36663198
:103BA000376432326262613135303031662F73747E
:103BB0006D3332663178782D68616C2D302E31305E
:103BC0002E302F7372632F7263632E7273000000A6
:103BD000703B00085D0000002B0200000D0000009B
:103BE000703B00085D00000041020000130000006F
:103BF000703B00085D00000041020000260000004C
:103C0000703B00085D00000045020000130000004A
:103C1000703B00085D000000570200001C0000001F
:103C2000703B00085D000000570200001600000015
:103C3000703B00085D000000570200000D0000000E
:103C4000703B00085D000000550200001C000000F1
:103C5000703B00085D0000005502000016000000E7
:103C6000703B00085D000000550200000D000000E0
:103C7000703B00085D0000006102000021000000B0
:103C8000703B00085D0000006102000020000000A1
:103C9000703B00085D0000006A0200001300000095
:103CA000703B00085D000000750200001A00000073
:103CB000703B00085D000000750200001500000068
:103CC000703B00085D000000760200001500000057
:103CD000703B00085D00000080020000130000003F
:103CE000703B00085D0000009F020000190000000A
:103CF000703B00085D0000009F0200000D00000006
:103D0000703B00085D000000A90200001C000000DC
:103D1000703B00085D000000A902000016000000D2
:103D2000703B00085D000000A90200000D000000CB
:103D3000703B00085D000000A70200001C000000AE
:103D4000703B00085D000000A702000016000000A4
:103D5000703B00085D000000A70200000D0000009D
:103D6000703B00085D000000AC0200001A0000007B
:103D7000703B00085D000000AC0200001500000070
:103D8000703B00085D000000AD020000150000005F
:103D9000703B00085D000000AF0200001A00000048
:103DA000703B00085D000000AF020000150000003D
:103DB000703B00085D000000B0020000150000002C
:103DC000703B00085D000000B2020000140000001B
:103DD000703B00085D000000B30200001600000008
:103DE000617373657274696F6E206661696C656476
:103DF0003A20737973636C6B203C3D2037325F301F
:103E000030305F3030302026262068636C6B203CD9
:103E10003D2037325F3030305F3030302026262072
:103E200070636C6B31203C3D2033365F3030305F47
:103E30003030302026260A2020202020202020700C
:103E4000636C6B32203C3D2037325F3030305F3066
:103E5000303020262620616463636C6B203C3D205B
:103E600031345F3030305F3030300000703B00085C
:103E70005D000000BD020000090000002F686F6DAA
:103E8000652F636C2F2E636172676F2F7265676990
:103E9000737472792F7372632F696E6465782E6301
:103EA00072617465732E696F2D36663137643232F4
:103EB0006262613135303031662F73746D33326632
:103EC0003178782D68616C2D302E31302E302F7383
:103ED00072632F74696D65722F64656C61792E72DF
:103EE000730000007C3E0008650000002A0000000E
:103EF0001D0000007C3E000865000000340000004A
:103F00000D0000002F686F6D652F636C2F2E6361AD
:103F100072676F2F72656769737472792F7372633A
:103F20002F696E6465782E6372617465732E696F94
:103F30002D3666313764323262626131353030316C
:103F4000662F73746D3332663178782D68616C2D0D
:103F5000302E31302E302F7372632F74696D65727D
:103F60002F68616C5F30322E72730000043F0008CE
:103F7000660000001A000000170000002F686F6D37
:103F8000652F636C2F2E636172676F2F726567698F
:103F9000737472792F7372632F696E6465782E6300
:103FA00072617465732E696F2D36663137643232F3
:103FB0006262613135303031662F66756769742D04
:103FC000302E332E372F7372632F726174652E7209
:103FD000730000007C3F0008550000004B02000009
:103FE0000100000000000000000000002F686F6D5D
:103FF000652F636C2F2E636172676F2F726567691F
:10400000737472792F7372632F696E6465782E638F
:1040100072617465732E696F2D3666313764323282
:104020006262613135303031662F66756769742D93
:10403000302E332E372F7372632F6475726174695B
:104040006F6E2E7273000000EC3F000859000000F4
:104050006F0200000100000000000040FFFF0F4061
:1040600000000000617373657274696F6E20666191
:10407000696C65643A2028504552495F4144445276
:104080004553535F53544152542E2E3D504552498F
:104090005F414444524553535F454E44292E636F5C
:1040A0006E7461696E73282661646472292F686F6B
:1040B0006D652F636C2F2E636172676F2F7265675A
:1040C00069737472792F7372632F696E6465782EC9
:1040D0006372617465732E696F2D36663137643291
:1040E000326262613135303031662F73746D333234
:1040F000663178782D68616C2D302E31302E302F5E
:104100007372632F62622E7273000000AD4000086C
:104110005C0000002D000000050000006173736565
:104120007274696F6E206661696C65643A206269B9
:1041300074203C2033320000AD4000085C000000D9
:104140002E00000005000000AD4000085C000000EB
:104150003100000029000000AD4000085C000000B4
:104160003100000013000000AD4000085C000000BA
:10417000310000004D00000069735F616C69676E7B
:1041800065645F746F3A20616C69676E20697320A3
:104190006E6F74206120706F7765722D6F662D745D
:1041A000776F0000784100082A0000002F686F6DCB
:1041B000652F636C2F2E7275737475702F746F6F0B
:1041C0006C636861696E732F737461626C652D78BE
:1041D00038365F36342D756E6B6E6F776E2D6C6969
:1041E0006E75782D676E752F6C69622F727573749A
:1041F0006C69622F7372632F727573742F6C6962AE
:10420000726172792F636F72652F7372632F70748E
:10421000722F636F6E73745F7074722E727300000E
:10422000AC41000872000000430600000D000000D1
:10423000756E7361666520707265636F6E64697414
:10424000696F6E2873292076696F6C617465643AB2
:10425000207074723A3A726561645F766F6C617453
:10426000696C652072657175697265732074686127
:10427000742074686520706F696E74657220617255
:1042800067756D656E7420697320616C69676E6512
:104290006420616E64206E6F6E2D6E756C6C756E31
:1042A0007361666520707265636F6E646974696FAF
:1042B0006E2873292076696F6C617465643A20708A
:1042C00074723A3A77726974655F766F6C6174697B
:1042D0006C652072657175697265732074686174AC
:1042E0002074686520706F696E74657220617267F2
:1042F000756D656E7420697320616C69676E6564A5
:1043000020616E64206E6F6E2D6E756C6C617474BE
:10431000656D707420746F206164642077697468BF
:10432000206F766572666C6F770000000D430008A1
:104330001C000000617474656D707420746F2073CC
:10434000756274726163742077697468206F766532
:1043500072666C6F77000000344300082100000093
:10436000617474656D707420746F206D756C746900
:10437000706C792077697468206F766572666C6FEF
:10438000770000006043000821000000617474653C
:104390006D707420746F207368696674206C656634
:1043A000742077697468206F766572666C6F770029
:1043B0008C4300082300000063616C6C656420601E
:1043C0004F7074696F6E3A3A756E77726170282912
:1043D00060206F6E206120604E6F6E656020766198
:1043E0006C7565636F72652F7372632F70616E6990
:1043F000636B696E672E7273E3430008150000005B
:10440000DD00000005000000617474656D707420AB
:10441000746F20646976696465206279207A6572B8
:0C4420006F0000000844000819000000B4
:0400000508000131BD
:00000001FF
