:020000040800F2
:100000000000012031010008250D0008830E0008C2
:10001000250D0008250D0008250D00080000000032
:10002000000000000000000000000000250D000896
:10003000250D000800000000250D0008250D000812
:10004000250D0008250D0008250D0008250D0008C8
:10005000250D0008250D0008250D0008250D0008B8
:10006000250D0008250D0008250D0008250D0008A8
:10007000250D0008250D0008250D0008250D000898
:10008000250D0008250D0008250D0008250D000888
:10009000250D0008250D0008250D0008250D000878
:1000A000250D0008250D0008250D0008250D000868
:1000B000250D0008250D0008250D0008250D000858
:1000C000250D0008250D0008250D0008250D000848
:1000D000250D0008250D0008250D0008250D000838
:1000E000250D0008250D000800000000250D000862
:1000F000250D0008250D0008250D0008250D000818
:10010000250D0008250D0008250D0008250D000807
:10011000250D0008250D0008250D0008250D0008F7
:10012000250D0008250D0008250D0008250D0008E7
:1001300000F0FAFD084809490022814201D004C0BC
:10014000FBE707480749084A814202D008CA08C0AD
:10015000FAE700F00BF800DE0000002004000020A9
:100160000000002000000020FC12000880B56F464F
:1001700000F000F880B56F4682B000F055F807F83F
:10018000010C17F8010CC00730B9FFE740F6946086
:10019000C0F6000000F0D7FD00F0B5FCB81F00F07D
:1001A0001AF9FFE7781F00F0F0F944F24020C0F29E
:1001B0000F0000F05DFAF5E784B00090019100783F
:1001C00000F001000290097801F001010391401A4A
:1001D000B0FA80F0400904B0704780B56F4682B035
:1001E00000F0ADFD019000F00100012804D0FFE710
:1001F000002007F8050C03E0012007F8050CFFE7D5
:1002000017F8050C00F0010002B080BD80B56F4604
:1002100082B007F8010C40F6A461C0F60001781E18
:10022000FFF7CAFF02B080BD80B56F4600F008F846
:1002300080BD40F20001C2F2000101200870704749
:1002400080B56F4684B0FFF7C8FF019007F8020C35
:1002500000F009FA00F076FD03A800F0E3F901468A
:1002600001980A46029207F8011CFFF7CFFF28B950
:10027000FFE7029800F0010004B080BD00F0EEF945
:10028000F7E780B56F46AAB0059106900A900B91EA
:1002900000F0F6FA014607910C90022007F8850C51
:1002A00017F8850C022808D0FFE717F8850C00F036
:1002B000010007F8710CE0BB28E0059806990322BD
:1002C00009920E910F9009A80390109000F0D8FAAF
:1002D000039904901190209021912590269000F090
:1002E00051FC01460398229123911E9124911F9164
:1002F0001EA91FAA00F033F9014604980968279047
:100300002891299000F0A3FC2AB080BD07981030F6
:100310000290139000201490129012A800F027F879
:1003200001460298096815901691179000F08FFC0D
:10033000C3E7079810300190199000201A90189088
:1003400018A800F03DF80146019809681B901C911F
:100350001D9000F07CFCB0E782B00090019121F488
:1003600070000099096840EA015002B0704780B5FA
:100370006F468AB00190049015200290002028B9A1
:10038000FFE70298C0B2202806D313E040F60470BD
:10039000C0F6000000F029FD0198029901F01F024B
:1003A0000121914005900691079008910160099004
:1003B0000AB080BD40F61470C0F6000000F04EFD9B
:1003C00087B0019002902021039104900591016073
:1003D000069007B0704780B56F4682B0019001214A
:1003E00007F8061C17F8061C01F0010100F002F8DE
:1003F00002B080BD80B56F4696B00390059007F8B7
:100400003E1C07F83D1CA7F14500079017F83D0C6E
:10041000C007B8B9FFE7A7F14500099000F030FA2E
:10042000103002900B9000200C900A900AA800F067
:100430008BF80146029809680D900E910F9000F01C
:1004400006FC16E0A7F14500089000F019FA1030FC
:100450000190119000201290109010A800F040F828
:1004600001460198096813901491159000F0EFFB74
:10047000FFE70399A7F14500FFF703FF00F002F83B
:1004800016B080BD80B56F4600F0C6F880BD80B55F
:100490006F468AB00190049015200290002028B980
:1004A000FFE70298C0B2202806D313E040F624707C
:1004B000C0F6000000F099FC0198029901F01F02BB
:1004C00001219140059006910790089101600990E3
:1004D0000AB080BD40F63470C0F6000000F0BEFCEB
:1004E00080B56F468AB001900490152002900020DC
:1004F00028B9FFE70298C0B2202806D313E040F6DF
:100500002470C0F6000000F070FC0198029901F020
:100510001F0201219140059006910790089101600A
:1005200009900AB080BD40F63470C0F6000000F0BB
:1005300095FC87B0019002902021039104900591D1
:100540000160069007B0704787B0019002902021AB
:100550000391049005910160069007B0704780B543
:100560006F468CB00192029003910492059106911E
:100570000968FFF7F1FE014601980790089109907C
:100580000A9101600B900CB080BD80B56F469AB0A7
:1005900002900390059000F073F90C300A900C90D3
:1005A0000D9000F0EFFA0B90049004A808900990C9
:1005B0009DF810008006002816D5FFE702980690E7
:1005C00000F05EF910300190159000201690149004
:1005D00014A8FFF75CFF014601980968179018916D
:1005E000199000F034FB15E00298079000F048F9EC
:1005F000103000900F90002010900E900EA8FFF782
:1006000098FF01460098096811901291139000F02C
:100610001EFBFFE71AB080BD80B56F4600F001F801
:1006200080BD704780B56F4682B0019040F20000F7
:10063000C2F200000078C00730B9FFE7FFF7F9FD0C
:10064000012007F8060C03E0002007F8060CFFE77E
:1006500017F8060C00F0010002B080BD80B56F46AF
:1006600000F065FB80BD80B56F4600F05EFB80BD8D
:1006700080B56F4682B0019000F05BFB02B080BD98
:1006800083B002900190002000900098019903B07F
:10069000704784B000900390007AC00730B9FFE73C
:1006A0000098043002900020019005E0009804308A
:1006B000029001200190FFE70198029904B0704771
:1006C00080B56F46A2B0019003910F90FFF7D8FF5D
:1006D000059006910598029030B1FFE70298012835
:1006E00017D0FFE72AE0FEDE0698079007A81090D3
:1006F0000398089008A81190079903981C911D90E1
:10070000096802680020914298BF012007F8750C23
:1007100015E00698099009A8129003980A900AA873
:10072000139009990398209121900968026800208C
:10073000914238BF012007F8750C00E008E017F877
:10074000750CC00720B9FFE7002007F8760C0DE014
:100750000198FFF79EFF0B900C910B98009058B1F9
:10076000FFE7009801281AD0FFE72BE017F8760C76
:1007700000F0010022B080BD0C98149003A91591DF
:100780000D900DA9169103991A911B9009680268A2
:100790000020914298BF012007F8760C16E00C98D3
:1007A000179003A918910E900EA9199103991E9103
:1007B0001F90096802680020914238BF012007F8A5
:1007C000760C03E0012007F8760CFFE7CEE780B552
:1007D0006F4682B000900191FFF772FF02B080BDBA
:1007E00080B56F4600F057F880BD80B56F4600F0C9
:1007F00052F880BD80B56F4600F04DF880BD80B5E1
:100800006F4600F048F880BD80B56F4600F043F8B1
:1008100080BD80B56F4600F03EF880BD80B56F4664
:1008200000F039F880BD80B56F4600F034F880BD27
:1008300080B56F4600F02FF880BD80B56F4600F0A0
:100840002FF880BD80B56F4600F025F880BD80B5DB
:100850006F4600F025F880BD80B56F4600F01BF8AC
:1008600080BD80B56F4600F016F880BD80B56F463C
:1008700000F011F880BD80B56F4600F00CF880BD27
:1008800081B0FFE740F60040C4F201000090FFE7AE
:10089000009801B0704780B56F4600F00CF880BD3D
:1008A000704781B00090183001B0704781B000905F
:1008B0000C3001B07047704780B56F4682B0009031
:1008C00007F8011C002200F018F802B080BD80B5C6
:1008D0006F4682B0009007F8011C012200F00DF86D
:1008E00002B080BD80B56F4682B0009007F8011C51
:1008F000012200F085F802B080BD80B56F468EB051
:10090000134606930B460793099007F80E1C07F849
:100910000D2C089040F64470C0F6000008A9FFF7BF
:1009200056FF58B9FFE740F65070C0F6000040F699
:10093000F872C0F60002492100F02EFA0798C0B202
:1009400020280BD3FFE741F20800C0F6000041F277
:100950002402C0F600021A2100F01EFA0798C0B265
:10096000014604910B90089800F140410591B0F1C7
:10097000804F06D3FFE705984101C00E039170B97F
:1009800005E041F23400C0F6000000F041FA03999E
:1009900001F184400246029288420CD305E041F204
:1009A0003400C0F6000000F046FA04988100800F81
:1009B000019170B905E041F24400C0F6000000F07A
:1009C00014FA02990198084402460092884211D311
:1009D00005E041F25400C0F6000000F02CFA009847
:1009E00006990C9001F0010107F8011C00F02FF9A5
:1009F0000EB080BD41F24400C0F6000000F0F5F9F1
:100A000080B56F468EB0134606930B460793099048
:100A100007F80E1C07F80D2C089040F64470C0F63D
:100A2000000008A9FFF7D3FE58B9FFE740F6507061
:100A3000C0F6000040F6F872C0F60002492100F04E
:100A4000ABF90798C0B220280BD3FFE741F20800AA
:100A5000C0F6000041F22402C0F600021A2100F0A4
:100A60009BF90798C0B2014604910B90089800F1D9
:100A700040410591B0F1804F06D3FFE70598410151
:100A8000C00E039170B905E041F23400C0F60000D9
:100A900000F0BEF9039901F18440024602928842B7
:100AA0000CD305E041F23400C0F6000000F0C3F9B9
:100AB00004988100800F019170B905E041F2440073
:100AC000C0F6000000F091F902990198084402462E
:100AD0000092884211D305E041F25400C0F60000B4
:100AE00000F0A9F9009806990C9001F0010107F8AF
:100AF000011C00F0ACF80EB080BD41F24400C0F61D
:100B0000000000F072F980B56F4686B041F2000037
:100B1000C4F20200009003900490FFF7C2FE03218C
:100B20000191FFF7DFFE00980590FFF7BFFE0199E6
:100B3000FFF7CDFE0098FFF7B9FE0199FFF7BCFE65
:100B4000FFF74EFEFFF75BFEFFF763FEFFF775FE54
:100B5000FFF77DFEFFF74EFEFFF756FEFFF77CFE28
:100B6000FFF743FEFFF76EFEFFF762FEFFF779FE29
:100B7000FFF754FEFFF757FEFFF778FEFFF77BFE07
:100B800006B080BD80B56F4684B001900290FFE74B
:100B90000198042100F007F8FFE70198006803902E
:100BA000039804B080BD80B56F468EB00191099066
:100BB0000A9141F29001C0F600010B910C900146A0
:100BC000029108B9FFE719E001984FF0553101EAA9
:100BD0005001401A4FF0333101EA900120F0CC303F
:100BE000084400EB101020F0F0304FF00131484382
:100BF000000E0D900D98012807D00CE041F2241052
:100C0000C0F600006E2100F0DAF80298019901396F
:100C100008421AD0F2E741F29000C0F600000390BB
:100C20000120049041F29800C0F60000016840687D
:100C300007910890042005900020069041F21411BD
:100C4000C0F6000103A800F088F80EB080BD80B5A2
:100C50006F4684B00091019002900391FFE70198E4
:100C6000042100F006F8FFE700980199086004B03D
:100C700080BD80B56F468EB000910890099141F219
:100C80009001C0F600010A910B900C900146019171
:100C900008B9FFE719E000984FF0553101EA50011B
:100CA000401A4FF0333101EA900120F0CC30084473
:100CB00000EB101020F0F0304FF001314843000EEF
:100CC0000D900D98012807D00CE041F29210C0F66B
:100CD00000006F2100F073F8019800990139084273
:100CE0001AD0F2E741F29000C0F600000290012015
:100CF000039041F29800C0F6000001684068069138
:100D00000790042004900020059041F21411C0F6D1
:100D1000000102A800F021F80EB080BD81B0009063
:100D2000FFE7FEE7FFE7FEE7704772B6704762B67F
:100D30007047012101EB50000138FDD17047EFF3FE
:100D400010807047704780B56F46024641F2AC2074
:100D5000C0F600002B2100F01FF880B56F4684B06C
:100D6000CDE9010101A80122ADF80C20FFF7D6FF63
:100D700080B56F468AB00DF1040C90E870430020F6
:100D8000634683E870438DF8240007A88DF825108A
:100D9000CDE907C2FFF7C2FF80B56F4688B0944621
:100DA0000122019206AA0023CDE906010092042245
:100DB00068466146049303930292FFF7CEFF80B525
:100DC0006F4688B00022CDE9060104920123039208
:100DD0000422029241F2EC226846C0F60002002191
:100DE000019306AB0093FFF7C3FF80B56F4686B053
:100DF0000146002001220490019241F2202203903A
:100E00000420C0F60002029068460092FFF7A5FF9A
:100E100080B56F4686B00146002001220490019201
:100E200041F24C2203900420C0F600020290684672
:100E30000092FFF792FF80B56F4686B00146002012
:100E400001220490019241F2782203900420C0F61E
:100E50000002029068460092FFF77FFF80B56F4660
:100E600086B00146002001220490019241F2A422A2
:100E700003900420C0F60002029068460092FFF73B
:080E80006CFFFFE7FEE7D4D48C
:100E88007372632F6D61696E2E727300880E00088D
:100E98000B0000000C00000027000000002F686F06
:100EA8006D652F636C2F2E636172676F2F72656794
:100EB80069737472792F7372632F696E6465782E03
:100EC8006372617465732E696F2D366631376432CB
:100ED800326262613135303031662F73746D33326E
:100EE800663178782D68616C2D302E31302E302F98
:100EF8007372632F6770696F2E727300A50E0008F6
:100F08005E000000130400003A000000A50E00086F
:100F18005E0000001304000035000000A50E000864
:100F28005E0000002802000041000000A50E000835
:100F38005E000000280200003C00000000000040A5
:100F4800FFFF0F4000000000617373657274696FE2
:100F58006E206661696C65643A2028504552495F85
:100F6800414444524553535F53544152542E2E3DED
:100F7800504552495F414444524553535F454E449E
:100F8800292E636F6E7461696E73282661646472BA
:100F9800292F686F6D652F636C2F2E636172676FE1
:100FA8002F72656769737472792F7372632F696E14
:100FB8006465782E6372617465732E696F2D366669
:100FC80031376432326262613135303031662F73C5
:100FD800746D3332663178782D68616C2D302E311E
:100FE800302E302F7372632F62622E7273000000EE
:100FF800990F00085C0000002D00000005000000AB
:10100800617373657274696F6E206661696C65647B
:101018003A20626974203C2033320000990F00089E
:101028005C0000002E00000005000000990F000879
:101038005C0000003100000029000000990F000842
:101048005C0000003100000013000000990F000848
:101058005C000000310000004D00000069735F6112
:101068006C69676E65645F746F3A20616C69676E5E
:10107800206973206E6F74206120706F7765722D00
:101088006F662D74776F0000641000082A00000056
:1010980000000000000000002F686F6D652F636C72
:1010A8002F2E7275737475702F746F6F6C6368610F
:1010B800696E732F737461626C652D7838365F368C
:1010C800342D756E6B6E6F776E2D6C696E75782D1D
:1010D800676E752F6C69622F727573746C69622FF5
:1010E8007372632F727573742F6C6962726172798F
:1010F8002F636F72652F7372632F7074722F636F13
:101108006E73745F7074722E72730000A010000802
:1011180072000000430600000D000000756E736148
:10112800666520707265636F6E646974696F6E2896
:1011380073292076696F6C617465643A20707472E3
:101148003A3A726561645F766F6C6174696C6520A8
:10115800726571756972657320746861742074684A
:101168006520706F696E74657220617267756D6550
:101178006E7420697320616C69676E656420616EA6
:1011880064206E6F6E2D6E756C6C756E736166651E
:1011980020707265636F6E646974696F6E28732955
:1011A8002076696F6C617465643A207074723A3A9B
:1011B80077726974655F766F6C6174696C652072AB
:1011C80065717569726573207468617420746865E7
:1011D80020706F696E74657220617267756D656ED7
:1011E8007420697320616C69676E656420616E6440
:1011F800206E6F6E2D6E756C6C617474656D707495
:1012080020746F206164642077697468206F766544
:1012180072666C6F77000000011200081C00000065
:10122800617474656D707420746F20737562747264
:101238006163742077697468206F766572666C6F75
:10124800770000002812000821000000617474650E
:101258006D707420746F206D756C7469706C792072
:1012680077697468206F766572666C6F7700000026
:101278005412000821000000617474656D707420B8
:10128800746F207368696674206C6566742077696A
:101298007468206F766572666C6F7700801200083C
:1012A8002300000063616C6C656420604F70746992
:1012B8006F6E3A3A756E77726170282960206F6E8A
:1012C800206120604E6F6E65602076616C75656385
:1012D8006F72652F7372632F70616E69636B696ECD
:1012E800672E7273D712000815000000DD00000099
:0412F80005000000ED
:0400000508000131BD
:00000001FF
