:020000040800F2
:100000000000012031010008F72300085F250008E7
:10001000F7230008F7230008F7230008000000007A
:10002000000000000000000000000000F7230008AE
:10003000F723000800000000F7230008F72300085A
:10004000F7230008F7230008F7230008F723000828
:10005000F7230008F7230008F7230008F723000818
:10006000F7230008F7230008F7230008F723000808
:10007000F7230008F7230008F7230008F7230008F8
:10008000F7230008F7230008F7230008F7230008E8
:10009000F7230008F7230008F7230008F7230008D8
:1000A000F7230008F7230008F7230008F7230008C8
:1000B000F7230008F7230008F7230008F7230008B8
:1000C000F7230008F7230008F7230008F7230008A8
:1000D000F7230008F7230008F7230008F723000898
:1000E000F7230008F723000800000000F7230008AA
:1000F000F7230008F7230008F7230008F723000878
:10010000F7230008F7230008F7230008F723000867
:10011000F7230008F7230008F7230008F723000857
:10012000F7230008F7230008F7230008F723000847
:1001300002F063F9084809490022814201D004C055
:10014000FBE707480749084A814202D008CA08C0AD
:10015000FAE700F00BF800DE0000002004000020A9
:100160000000002000000020E02E000880B56F464F
:1001700000F000F880B56F46B4B000F0A0F807F8C2
:10018000010C17F8010CC00730B9FFE742F27050BC
:10019000C0F6000002F032F900F09DFA07F8020CF8
:1001A00017F8020CC00730B9FFE742F28050C0F6E2
:1001B000000002F023F908A8039001F0B0FF0399B2
:1001C0001AA80490B1E83C50A0E83C5091E83C509B
:1001D00080E83C5001F0A0FF0499A7F1370005909A
:1001E0002E902AA800F093FD059A2A982B992C9B13
:1001F000DDF8B4C0CDF8C8C0319330912F9014A869
:1002000006902FA900F0DFFA01F0D2FFA7F1360027
:1002100000F04DF9069801F02AFE2790012000F029
:10022000A8FA014607912990FFE7A7F13500019050
:1002300000F017FA079927A8029001F070FA0198C8
:1002400000F029FA0298079901F069FAEDE784B005
:1002500000900191007800F001000290097801F00F
:1002600001010391401AB0FA80F0400904B07047D0
:1002700080B56F4682B002F0B6F8019000F0010040
:10028000012804D0FFE7002007F8050C03E0012057
:1002900007F8050CFFE717F8050C00F0010002B0A5
:1002A00080BD80B56F4682B007F8010C42F29051D4
:1002B000C0F60001781EFFF7CAFF02B080BD80B50E
:1002C0006F4600F008F880BD40F20001C2F2000164
:1002D00001200870704780B56F4684B0FFF7C8FFF3
:1002E000019007F8020C00F023FA02F07FF803A84F
:1002F00000F0FDF9014601980A46029207F8011C38
:10030000FFF7CFFF28B9FFE7029800F0010004B023
:1003100080BD00F008FAF7E780B56F4684B0FFF7BC
:10032000A7FF019007F8020C00F002FA02F05EF855
:1003300003A800F002FA014601980A46029207F863
:10034000011CFFF7AEFF28B9FFE7029800F001009B
:1003500004B080BD00F0E7F9F7E780B56F46AAB0BA
:10036000059106900A900B9101F06EFD01460791F0
:100370000C90022007F8850C17F8850C022808D08D
:10038000FFE717F8850C00F0010007F8710CE0BBDF
:1003900028E005980699032209920E910F9009A86A
:1003A0000390109001F050FD03990490119020905B
:1003B00021912590269001F03AFF01460398229161
:1003C00023911E9124911F911EA91FAA00F033F9B9
:1003D00001460498096827902891299001F08CFF24
:1003E0002AB080BD0798103002901390002014901E
:1003F000129012A800F027F801460298096815909B
:100400001691179001F078FFC3E70798103001901C
:10041000199000201A90189018A800F03DF8014695
:10042000019809681B901C911D9001F065FFB0E7D1
:1004300082B00090019121F470000099096840EAAF
:10044000015002B0704780B56F468AB001900490A9
:1004500015200290002028B9FFE70298C0B220289A
:1004600006D313E042F2F050C0F6000002F018F894
:100470000198029901F01F02012191400590069117
:1004800007900891016009900AB080BD42F20060B7
:10049000C0F6000002F03DF887B0019002902021E4
:1004A0000391049005910160069007B0704780B5F4
:1004B0006F4682B00190012107F8061C17F8061C50
:1004C00001F0010100F002F802B080BD80B56F4676
:1004D00096B00390059007F83E1C07F83D1CA7F165
:1004E0004500079017F83D0CC007B8B9FFE7A7F122
:1004F0004500099001F0A8FC103002900B900020FC
:100500000C900A900AA800F08BF80146029809683E
:100510000D900E910F9001F0EFFE16E0A7F145004F
:10052000089001F091FC1030019011900020129081
:10053000109010A800F040F8014601980968139047
:100540001491159001F0D8FEFFE70399A7F145003B
:10055000FFF703FF00F002F816B080BD80B56F46CC
:1005600000F0B3F880BD80B56F468AB0019004906A
:1005700015200290002028B9FFE70298C0B2202879
:1005800006D313E042F21060C0F6000001F088FFCD
:100590000198029901F01F020121914005900691F6
:1005A00007900891016009900AB080BD42F2206076
:1005B000C0F6000001F0ADFF80B56F468AB0019033
:1005C000049015200290002028B9FFE70298C0B2DD
:1005D000202806D313E042F21060C0F6000001F0BC
:1005E0005FFF0198029901F01F02012191400590DF
:1005F000069107900891016009900AB080BD42F20F
:100600002060C0F6000001F084FF87B001900290E6
:1006100020210391049005910160069007B0704776
:1006200087B0019002902021039104900591016010
:10063000069007B0704780B56F468CB0019202906B
:1006400003910492059106910968FFF7F1FE0146B6
:1006500001980790089109900A9101600B900CB0E5
:1006600080BD80B56F468AB00290039001F0ECFB2C
:1006700010300190059000200690049004A8FFF728
:1006800072FF01460198096807900891099001F0EE
:1006900033FE0AB080BD80B56F468AB002900390E9
:1006A00001F0D2FB103001900590002006900490DC
:1006B00004A8FFF7AAFF014601980968079008916E
:1006C000099001F019FE0AB080BD80B56F4600F0B8
:1006D00001F880BD704780B56F46FFF71DFE80BDF5
:1006E00040F20101C2F2000101200870704780B59C
:1006F0006F4682B0019040F20000C2F20000007824
:10070000C00730B9FFE7FFF7DFFD012007F8060C4F
:1007100003E0002007F8060CFFE717F8060C00F0CE
:10072000010002B080BD80B56F4601F05AFE80BD69
:1007300080B56F4601F053FE80BD80B56F4682B034
:10074000019040F20100C2F200000078C00730B909
:10075000FFE7FFF7C5FF012007F8060C03E00020C4
:1007600007F8060CFFE717F8060C00F0010002B0CE
:1007700080BD80B56F4682B0019044F24021C0F246
:100780000F01A0FB0110009128B9FFE7009801F0CC
:100790003EFA02B080BD42F28C60C0F6000001F06B
:1007A000A5FE81B08DF802008DF80300C0B201B043
:1007B000704781B00090183001B0704781B0009050
:1007C0000C3001B07047B0B502AFE4B006920991A9
:1007D00005901B920AA8079000F0ACFD069801F066
:1007E00005F80146079808910C3026912790302192
:1007F0002891259125A900F0F0F80146089809688C
:1008000029902A912B9001F077FD099841F200017F
:10081000C4F202011C9101F03DF938B9FFE70998D3
:10082000007A00F0010001283BD07DE041F2000099
:10083000C4F20200049039903D903E9001F0F7FC24
:100840003A903B9037903C90389037A838A900F008
:100850000DF90146049809683F904091419001F0DC
:100860004BFDFFE741F20000C4F20200219023900B
:10087000249001F0DCFC2290119011A85E905F9012
:100880001198C0F3404007F8150C8DF843000DF1A6
:1008900043005B905C909DF84300C0070028E1D0C6
:1008A000BDE70999487A8DF84A0041F20400C4F284
:1008B000020002904F900DF14A0201925092519124
:1008C0005590569001F0B3FC099902460198529256
:1008D00053924D9254924E924DAA4EAB00F0DEF8D8
:1008E00001460298096857905891599001F004FD0B
:1008F00041F20000C4F202000390449048904990F5
:1009000001F095FC4590469042904790439042A854
:1009100043A900F002F90146039809684A904B91F7
:100920004C9001F0E9FC39E0099C04F1080E04F157
:100930000E0C04F10C0304F10D0204F10A0104F1A0
:100940000B001494CDF854E0CDF858C017931892CA
:1009500019911A9041F20400C4F2020000902E9006
:100960003290339001F063FC2F9030902C903190B6
:100970002D9014A82CA92DAA00F0E7F801460098A4
:10098000096834903591369001F0B6FC05980AA9B3
:1009900091E83C5080E83C5064B0B0BD41F20000AA
:1009A000C4F202001D901F90209001F040FC1E90A8
:1009B000139013A8619062901398C0F3406007F8F9
:1009C000090C8DF84B000DF14B005A905D909DF88D
:1009D0004B00C0070028E1D0A6E780B56F4690B075
:1009E0000291049008910C910D91049803901820A5
:1009F00001F035FA01460398069106A900F031FF8F
:100A000068B9FFE704980190302001F028FA014608
:100A10000198079107A900F024FF40B903E00020E6
:100A200007F8290C07E0022007F8290C03E0012051
:100A300007F8290CFFE7029917F8290C099107F824
:100A4000150C09990B910968009142F2F861C0F602
:100A50000001FFF7A6FE0246009809990E9162F385
:100A60000200086009980F9010B080BD8BB0019013
:100A7000029109910A910491059101218DF81A10B2
:100A80000598079000688DF81B100599089140F4AF
:100A900080300860059803900BB0704780B56F46B2
:100AA00094B00390049105920693109311930398C8
:100AB00000780C9307F8190C0C990E91096821F431
:100AC0007011019142F2F861C0F60001FFF769FE72
:100AD0000146019801F00F020C990F9140EA824003
:100AE00008600C98029012901390049800F0D2FFC6
:100AF00002460298089007F82A2C08980A90006885
:100B000020F4803007F8292C08990B9140EA024024
:100B100008600898079014B080BD8BB001900291D6
:100B200009910A910491059101218DF81A100598F7
:100B3000079000688DF81B100599089140F08070AF
:100B40000860059803900BB0704780B56F46B8B049
:100B5000039209900C910D9234923592806900783D
:100B6000169207F8810C42F2F861C0F60001079175
:100B700000F0C3FF039A0799189207F8790C189AA6
:100B80001A92126822F440420292FFF70AFE029B78
:100B9000039A0799844609980CF0030EDDF860C0AB
:100BA000CDF86CC043EA8E33CCF8003032923392E9
:100BB000006900788DF82C009DF82C00249207F82D
:100BC000490C249A2692126822F460520492FFF78C
:100BD000E8FD049A07990346099803F0070C249B43
:100BE000279342EACC221A60249A30923192C0684C
:100BF000007807F8B30C17F8B30C1C9207F8690CCF
:100C00001C9A1E92126822F4E0620592FFF7C9FD59
:100C1000059A07990346099803F0070C1C9B1F933C
:100C200042EA0C221A601C9A2E922F928068007859
:100C300007F8B20C17F8B20C289207F8390C289A6A
:100C40002A92126822F0F0020692FFF7AAFD069A95
:100C500007990346099803F00F0C289B2B9342EA4F
:100C60000C121A60289A08923692379240690078DE
:100C7000109200F0010007F8990C00F033FF08997A
:100C800003460998129107F8923C12991491096849
:100C900021F4800107F8913C129A159241EA8351A0
:100CA000116012990A912C912D91406800F006FF75
:100CB00048B9FFE70998006800F0ECFE07F8A50CBA
:100CC00007F8B10C03E0022007F8B10CFFE70A991E
:100CD00017F8B10C209107F8590C20992291096856
:100CE000019142F2F861C0F60001FFF75AFD024699
:100CF00001982099239162F30100086020980F90D9
:100D000038B080BD81B00090006801B07047F0B588
:100D100003AF4DF8048DBAB01A9101461A981B9191
:100D2000016840681C911D901C98012804D1FFE7C0
:100D30001D982F901E9005E040F60010C0F23D0077
:100D40001E90FFE71A98006A012808D1FFE71A9859
:100D5000406A189030901E98199048B102E0012026
:100D60001F900BE018981999B0FBF1F01F9005E067
:100D700042F26870C0F6000001F0DEFB1F98012807
:100D800007D1FFE7002007F86E0C1C98012803D05C
:100D900006E01F9880BB2CE01D983190239005E061
:100DA00041F20020C0F27A002390FFE717F86E1C92
:100DB00017F86D0C01F001018DF880108DF881009D
:100DC00023982190FFE71A989DF880209DF88110C4
:100DD000134615930B46169302F0010207F82E2CCA
:100DE00007F82D1C219917913391806801283DD077
:100DF00042E01F9838B109E01F981028F9D8FFE7A2
:100E00001F98249005E00120249002E010202490F7
:100E1000FFE79DF89000811E149102280DD3FFE793
:100E2000149807F8620C012007F8630C1E982499A7
:100E3000A0FB0110139198B905E042F27870C0F65A
:100E4000000001F040FB139817F8632C17F8621CA0
:100E500002F001028DF880208DF881102190B2E718
:100E600042F28870C0F6000001F040FB1A98C0689A
:100E70001290349068B103E0072007F8610C22E07B
:100E800017981299B0FBF1F00146119100280AD28F
:100E900005E042F29870C0F6000001F04DFB119899
:100EA000022808D00BE011980128F8D8FFE70720A6
:100EB00007F8610C07E0082007F8610C03E01198BF
:100EC00002280DD808E017F8610C07F85B0C17F83A
:100ED0005B0C0B2854D848E0119805280CD807E083
:100EE00011980528F8D8FFE7092007F8610CEAE710
:100EF00011980B280CD807E011980B28F8D8FFE7B9
:100F00000A2007F8610CDEE7119827280CD807E0C3
:100F100011982728F8D8FFE70B2007F8610CD2E7D3
:100F200011985F280CD807E011985F28F8D8FFE7E0
:100F30000C2007F8610CC6E71198BF280CD807E011
:100F40001198BF28F8D8FFE70D2007F8610CBAE721
:100F50000F2007F8610CB6E71198C0090228F7D8EE
:100F6000FFE70E2007F8610CADE717F8610C07F8F2
:100F7000590C17F8590CC11F1091072810D30AE01B
:100F800017F8610C07F85A0C17F85A0C811F0F91CB
:100F9000062830D32AE01098C0B2202806D30EE0ED
:100FA00042F2A870C0F6000001F08DFA109800F02F
:100FB0001F010120884001460E9160B105E042F218
:100FC000B870C0F6000001F0A4FA17980E99B0FBB3
:100FD000F1F0269005E042F2C870C0F6000001F082
:100FE000ABFA1A980069012826D02AE00F98C0B2FF
:100FF000202806D30EE042F2D870C0F6000001F0BF
:1010000062FA0F9800F01F010120884001460D91FF
:1010100060B105E042F2E870C0F6000001F079FA34
:1010200017980D99B0FBF1F02690DAE742F2F870CC
:10103000C0F6000001F080FA1A98406935902890B7
:1010400007E0269845F20011C0F2252188420ED310
:1010500007E026992898084402460C9288420ED34D
:1010600008E045F20010C0F225202890F1E726980C
:101070002890EEE70C98411E0B9150B105E042F626
:101080000800C0F6000001F00BFA28980A9098B109
:1010900005E042F61800C0F6000001F014FA0B98C3
:1010A0000A99B0FBF1F00146099102280ED3FFE73F
:1010B000099802280ED005E042F61800C0F600009C
:1010C00001F03AFA0998022811D80CE003208DF8B3
:1010D000A40003E004208DF8A400FFE71A988069BB
:1010E000012818D01FE0099805280CD807E00998B6
:1010F0000528F8D8FFE705208DF8A400EEE70720C3
:101100008DF8A400EAE709980B28F8D8FFE7062035
:101110008DF8A400E2E71A98C069079036902699E6
:10112000089168B103E0032007F8530C22E0089807
:101130000799B0FBF1F00146069100280AD205E0BC
:1011400042F62800C0F6000001F0F6F906980228E1
:1011500008D00BE006980128F8D8FFE7032007F82D
:10116000530C07E0042007F8530C03E0069802280C
:101170000FD80AE017F8530C07F8520C17F8520C66
:10118000C11E059103281DD317E0069805280CD829
:1011900007E006980528F8D8FFE7052007F8530C64
:1011A000E8E7072007F8530CE4E706980B28F8D87F
:1011B000FFE7062007F8530CDCE70598C0B22028AB
:1011C00006D311E042F63800C0F6000001F07BF9CA
:1011D000059800F01F0101208840014603913790D7
:1011E0002699049118B305E042F64800C0F60000C5
:1011F00001F08FF917981699159A049BDDF80CC029
:10120000B3FBFCF39C46CDF808C03893DDF870C002
:101210001D9BCDF8A8C02B9302F001028DF8B020E1
:101220008DF8B1102D902A98012806D00CE042F6D6
:101230005800C0F6000001F07FF99DF8B00000F002
:101240000100012804D0FFE7012007F8510C0BE052
:101250002D984AF20021C0F24A418842F4D1FFE7BA
:10126000002007F8510CFFE71A98806A012806D180
:10127000FFE71A98C06A0190399068B103E0032033
:1012800007F83D0C32E002980199B0FBF1F00146FD
:10129000009100280AD205E042F66800C0F600007E
:1012A00001F04AF9009802280CD807E000980228BB
:1012B000F8D8FFE7002007F83D0C17E00098042855
:1012C0000CD807E000980428F8D8FFE7012007F8B9
:1012D0003D0C0BE0032007F83D0C07E000980728C1
:1012E000F8D8FFE7022007F83D0CFFE71B99169C92
:1012F000159D17F861EC9DF8A4C017F8533C17F83A
:10130000512C17F83D0CDDF870801D9EC1F800804F
:101310004E6005F001050D724C7281F80EE081F807
:101320000CC04B7302F001028A72C8723AB05DF8C9
:10133000048BF0BDF0B503AF4DF804BDAEB019910C
:101340001A902491087AC00750B1FFE71998417AA2
:101350000A46189207F8311C0068012805D009E0F8
:1013600019980068012833D037E019984068269012
:101370001C9005E040F60010C0F23D001C90FFE715
:1013800018981C991691C0B202301790002038B9F5
:10139000FFE716981799A0FB0110159148B905E0D1
:1013A00042F67800C0F6000001F07AF815981B901C
:1013B00005E042F68800C0F6000001F097F81998A1
:1013C000807B07F84F0C17F84F0C0B2818D80AE051
:1013D0001998406827901B90F1E741F20020C0F275
:1013E0007A001B90EBE719981B991391807B07F803
:1013F0004D0C17F84D0CC11F1491072812D30CE0A7
:1014000019981B991191807B07F84E0C17F84E0C18
:10141000811F1291062836D330E01498C0B22028DC
:1014200006D30EE042F69800C0F6000001F04BF83B
:10143000149800F01F01012088400146109160B10E
:1014400005E042F6A800C0F6000001F062F813982B
:101450001099B0FBF1F01D9005E042F6B800C0F61F
:10146000000001F069F81998007B8DF87C009DF868
:101470007C00C11E0F9103282BD325E01298C0B227
:10148000202806D30EE042F6C800C0F6000001F0A6
:101490001AF8129800F01F010120884001460E91B1
:1014A00060B105E042F6D800C0F6000001F031F866
:1014B00011980E99B0FBF1F01D90D4E742F6E800C8
:1014C000C0F6000001F038F80F98C0B2082806D323
:1014D00014E042F6F800C0F6000000F0F4FF0F98A8
:1014E00000F007010120884001460B9107F8250C08
:1014F0001D990C9101460D91C0B105E042F608100E
:10150000C0F6000001F005F819980C990D9AB1FB8E
:10151000F2F10A4609922991407B07F84B0C17F823
:101520004B0CC11E0A9103280BD305E042F618109C
:10153000C0F6000001F000F80A98C0B2082806D3EF
:1015400014E042F62810C0F6000000F0BCFF0A9834
:1015500000F00701012088400146069107F81D0CA4
:101560001D99079101460891D0B105E042F6381067
:10157000C0F6000000F0CDFF19980799089AB1FB5A
:10158000F2F10A4604922B91C07A07F84A0C17F838
:101590004A0C411CC8B20A46059288420FD105E0A8
:1015A00042F64810C0F6000000F0C6FF0598400063
:1015B00007F8150CC0B20146039110B305E042F6DE
:1015C0005810C0F6000000F06BFF19980499039AB8
:1015D000B1FBF2F10A4602922D91D0F800C04368A7
:1015E000027A417A1B98CDF880C0219302F0010263
:1015F0008DF888208DF8891023902098012806D036
:101600000CE042F66810C0F6000000F095FF9DF86F
:10161000880000F00100012804D0FFE7002007F84F
:10162000490C14E02398019046F60041C0F2DC21F9
:10163000884208D0FFE701984AF20021C0F24A41EF
:101640008842EBD1FFE7012007F8490CFFE71B9820
:101650004AF20121C0F24A4188420BD3FFE742F629
:101660007810C0F6000042F60422C0F600028A217B
:1016700000F0EDFE1D984AF20021C0F24A41884276
:10168000EDD8FFE7099845F20011C0F22521884204
:10169000E5D8FFE704984AF20021C0F24A418842A7
:1016A000DDD8FFE7029849F68071C0F2D501884283
:1016B000D5D8FFE71D9800F0CCF80646099800F051
:1016C000C8F80546049800F0C4F804461B9800F0DA
:1016D000C0F801460298009100F0BBF8DDF818C090
:1016E000009B1A99DDF82CE0024617F8490C0E60B1
:1016F0004D608C6081F814E081F815C0CB600A6100
:1017000000F0010088752EB05DF804BBF0BD81B01B
:10171000009001B0704781B0009001B0704780B573
:101720006F468AB003900691089006A800F07BFAF5
:10173000014603980491FFF7EAFF00F04BFA0146D7
:1017400004984DF68362C4F21B32A1FB0221890C7E
:10175000A0FB0110059118B9FFE70598079005E077
:1017600042F67C20C0F6000000F0C0FE079810B9D9
:10177000FFE70AB080BD07986FF07F4100F095F851
:101780000146039801910991FFF7C5FF01990430C3
:1017900000F064FA0398FFF7BEFF043000F083FA0C
:1017A0000398FFF7B8FF043000F090FA019907980A
:1017B000421A0292884203D3FFE70298079005E09D
:1017C00042F68C20C0F6000000F07DFE0398FFF783
:1017D000A2FF043000F055FA0028F7D0FFE7039885
:1017E000FFF799FF043000F08BFABFE781B000905B
:1017F00042F20000C4F2020001B0704783B00290D0
:101800000190002000900098019903B0704784B0C7
:1018100000900390007AC00730B9FFE700980430C9
:1018200002900020019005E0009804300290012011
:101830000190FFE70198029904B0704780B56F46A8
:1018400082B0009001910068096800F05FF902B071
:1018500080BD80B56F4682B0019000F0A8F902B05B
:1018600080BD80B56F4684B002900391FFF7E6FF1C
:1018700007F8090C17F8090C022807D0FFE717F83A
:10188000091C481CC0B2022805D3FFE7002007F856
:101890000A0C04E0FEDE012007F80A0CFFE717F847
:1018A0000A0C00F0010004B080BD80B56F4682B024
:1018B0000090019100F002F802B080BD80B56F4643
:1018C00084B000900191012007F8020C684601A93C
:1018D00000F0D5F807F8030C17F8031C481CC0B239
:1018E000022802D3FFE706E0FEDE002007F8020C24
:1018F0000098029002E00198029003E0FFE702984E
:1019000004B080BD17F8020CC0070028F7D0FFE72D
:10191000F5E787B003900491A0FB0110002818BFE1
:1019200001200A46009205918DF81A008DF81B00DF
:101930009DF81B00C00728B9FFE70098029001201E
:10194000019008E042F60430C0F6000001684068EB
:1019500001910290FFE70198029907B0704780B5A6
:101960006F46A2B0019003910F90FFF747FF0590DB
:1019700006910598029030B1FFE70298012817D030
:10198000FFE72AE0FEDE0698079007A8109003986C
:10199000089008A81190079903981C911D90096858
:1019A00002680020914298BF012007F8750C15E0ED
:1019B0000698099009A8129003980A900AA8139013
:1019C00009990398209121900968026800209142AA
:1019D00038BF012007F8750C00E008E017F8750C17
:1019E000C00720B9FFE7002007F8760C0DE001984A
:1019F000FFF70DFF0B900C910B98009058B1FFE78B
:101A0000009801281AD0FFE72BE017F8760C00F0B9
:101A1000010022B080BD0C98149003A915910D907F
:101A20000DA9169103991A911B900968026800206C
:101A3000914298BF012007F8760C16E00C98179099
:101A400003A918910E900EA9199103991E911F9048
:101A5000096802680020914238BF012007F8760C1F
:101A600003E0012007F8760CFFE7CEE780B56F466C
:101A700082B000900191FFF772FF02B080BD80B587
:101A80006F4684B0019002910198029900F0FFF92D
:101A900004B080BD82B001900068012804D1FFE746
:101AA00001208DF8030003E000208DF80300FFE71C
:101AB0009DF8030000F0010002B0704782B0019071
:101AC0000078C00720B1FFE701208DF8030003E094
:101AD00000208DF80300FFE79DF8030000F00100EF
:101AE00002B0704781B08DF802008DF803009DF8B8
:101AF000030000F0010001B0704781B08DF80200D2
:101B00008DF803009DF8030001B0704780B56F4663
:101B100096B0049105900B900C91FFE70598012178
:101B2000FFF7F7FE02460498029203910D920E9180
:101B300044F24021C0F20F01FFF7EBFE029B039A33
:101B40000F9010910793089209900A910798012825
:101B500004D1FFE70998012804D0FFE7022007F825
:101B60003D0C20E00898009011900A990191129183
:101B700014901591884205D3FFE700980199884297
:101B800008D803E0FF2007F8090C07E0002007F859
:101B9000090C03E0012007F8090CFFE717F8090C0E
:101BA00007F83D0CFFE717F83D0C16B080BD80B577
:101BB0006F4682B001900090002028B9FFE700989E
:101BC00000F00DF802B080BD42F6F420C0F600002F
:101BD00000F08CFC81B00090006801B0704780B5C7
:101BE0006F4682B00090019000F061F900F05FF95B
:101BF000009802B080BD80B56F4682B00090019021
:101C000000F054F900F053F9009802B080BD80B59F
:101C10006F4682B00090019000F049F900F046F95B
:101C2000009802B080BD81B00090006801B070479C
:101C300080B56F4684B001910290039141B1FFE7F6
:101C400001990298B0FBF1F00290029804B080BDB7
:101C500042F6F420C0F6000000F06EFC80B56F463E
:101C600088B00090019107904EF21400CEF200006F
:101C70000290039104900591069000F03DFB08B09E
:101C800080BD80B56F4686B0019005904EF2100081
:101C9000CEF2000002900390049000F0C8FAC0F366
:101CA000004006B080BD80B56F4688B001900790B7
:101CB0004EF21800CEF20000029000210391049031
:101CC0000591069000F018FB08B080BD80B56F4606
:101CD0008AB0029009904EF21000CEF200000190FE
:101CE00003900490059000F0A2FA00F072FB014608
:101CF000019806900791089000F0FEFA0AB080BDA6
:101D000080B56F468AB0029009904EF21000CEF274
:101D10000000019003900490059000F088FA00F014
:101D200052FB0146019806900791089000F0E4FAF2
:101D30000AB080BD80B56F4694B0039007F83D1C93
:101D4000059017F83D0CC007B0B9FFE70398139052
:101D50004EF21000CEF20000029007900890099019
:101D600000F065FA00F0A5F8014602980C900D917C
:101D70000E9000F0C1FA15E0039812904EF2100098
:101D8000CEF20000019006900A900B9000F04FFAFE
:101D900000F095F8014601980F901091119000F015
:101DA000ABFAFFE714B080BD80B56F4600F069F86C
:101DB00080BD80B56F4600F064F880BD80B56F4689
:101DC00000F05FF880BD80B56F4600F05AF880BD26
:101DD00080B56F4600F055F880BD80B56F4600F0C5
:101DE00050F880BD80B56F4600F04BF880BD80B5DF
:101DF0006F4600F046F880BD80B56F4600F041F8B0
:101E000080BD80B56F4600F041F880BD80B56F465B
:101E100000F037F880BD80B56F4600F037F880BD20
:101E200080B56F4600F02DF880BD80B56F4600F09C
:101E300028F880BD80B56F4600F023F880BD80B5DE
:101E40006F4600F01EF880BD81B0FFE740F600400D
:101E5000C4F201000090FFE7009801B0704780B520
:101E60006F4682B00190FFF7C6FE02B080BD80B51C
:101E70006F4684B0029000F083F900F07DF904B061
:101E800080BD80B56F4600F013F880BD704782B00A
:101E90000090019102680B6800209A4288BF0120DF
:101EA000411E9A4238BF084602B0704770477047DB
:101EB000704782B0019040F0040002B0704782B0D9
:101EC000019020F0040002B0704780B56F4682B0E8
:101ED000009007F8011C002200F018F802B080BD45
:101EE00080B56F4682B0009007F8011C012200F017
:101EF0000DF802B080BD80B56F4682B0009007F843
:101F0000011C012200F085F802B080BD80B56F464B
:101F10008EB0134606930B460793099007F80E1CE4
:101F200007F80D2C089042F60C30C0F6000008A906
:101F3000FFF79CFD58B9FFE742F61830C0F60000E5
:101F400042F6C032C0F60002492100F080FA07983C
:101F5000C0B220280BD3FFE742F6D030C0F6000015
:101F600042F6EC32C0F600021A2100F070FA07982F
:101F7000C0B2014604910B90089800F140410591D0
:101F8000B0F1804F06D3FFE705984101C00E0391E1
:101F900070B905E042F6FC30C0F6000000F093FA9C
:101FA000039901F184400246029288420CD305E075
:101FB00042F6FC30C0F6000000F098FA0498810068
:101FC000800F019170B905E042F60C40C0F60000A8
:101FD00000F066FA0299019808440246009288428D
:101FE00011D305E042F61C40C0F6000000F07EFA76
:101FF000009806990C9001F0010107F8011C00F00F
:102000007BF90EB080BD42F60C40C0F6000000F037
:1020100047FA80B56F468EB0134606930B4607937A
:10202000099007F80E1C07F80D2C089042F60C30AA
:10203000C0F6000008A9FFF719FD58B9FFE742F6FE
:102040001830C0F6000042F6C032C0F60002492146
:1020500000F0FDF90798C0B220280BD3FFE742F645
:10206000D030C0F6000042F6EC32C0F600021A2171
:1020700000F0EDF90798C0B2014604910B90089862
:1020800000F140410591B0F1804F06D3FFE705987C
:102090004101C00E039170B905E042F6FC30C0F674
:1020A000000000F010FA039901F184400246029208
:1020B00088420CD305E042F6FC30C0F6000000F088
:1020C00015FA04988100800F019170B905E042F67D
:1020D0000C40C0F6000000F0E3F9029901980844B2
:1020E00002460092884211D305E042F61C40C0F639
:1020F000000000F0FBF9009806990C9001F0010136
:1021000007F8011C00F0F8F80EB080BD42F60C4054
:10211000C0F6000000F0C4F981B001B07047B0B55E
:1021200002AF99B000210C910E911091129114916F
:1021300016910C9A0D99009201910E9A0F990292A4
:102140000391109A119904920591129A139906928B
:102150000791149A159908920991169A17990A925B
:102160000B916946B1E83C50A0E83C5091E83C50E6
:1021700080E83C5019B0B0BD81B0009001B070470C
:1021800080B56F4684B000900290012007F8090CDA
:1021900017F8090C00F00101A7F10A00FFF7CAFDCA
:1021A0000098FEF7AFFD0821FFF742FD04B080BDA7
:1021B00080B56F4686B041F20000C4F20200009084
:1021C00003900490FEF7F5FA03210191FFF793FEC7
:1021D00000980590FEF7F2FA0199FFF781FE00984A
:1021E000FEF7ECFA0199FFF770FEFFF7DDFDFFF750
:1021F000EAFDFFF7F2FDFFF704FEFFF70CFEFFF725
:10220000DDFDFFF7E5FDFFF70BFEFFF7D2FDFFF762
:10221000FDFDFFF7F1FDFFF708FEFFF7E3FDFFF718
:10222000E6FDFFF707FEFFF70AFE06B080BD80B5AA
:102230006F4684B001900290FFE70198042100F0FE
:1022400007F8FFE7019800680390039804B080BD89
:1022500080B56F468EB0019109900A9142F65841BF
:10226000C0F600010B910C900146029108B9FFE7FE
:1022700019E001984FF0553101EA5001401A4FF032
:10228000333101EA900120F0CC30084400EB10100B
:1022900020F0F0304FF001314843000E0D900D98C2
:1022A000012807D00CE042F6E440C0F600006E21A1
:1022B00000F0E0F802980199013908421AD0F2E7DB
:1022C00042F65840C0F6000003900120049042F608
:1022D0000430C0F6000001684068079108900420AF
:1022E00005900020069042F6D441C0F6000103A8F4
:1022F00000F08EF80EB080BD80B56F4684B00091BE
:10230000019002900391FFE70198042100F006F884
:10231000FFE700980199086004B080BD80B56F4662
:102320008EB000910890099142F65841C0F6000124
:102330000A910B900C900146019108B9FFE719E052
:1023400000984FF0553101EA5001401A4FF03331F7
:1023500001EA900120F0CC30084400EB101020F08E
:10236000F0304FF001314843000E0D900D980128D8
:1023700007D00CE042F65250C0F600006F2100F08A
:1023800079F801980099013908421AD0F2E742F62B
:102390005840C0F6000002900120039042F604303D
:1023A000C0F6000001684068069107900420049080
:1023B0000020059042F6D441C0F6000102A800F0CA
:1023C00027F80EB080BD82B0019020F0010002B06D
:1023D000704782B0019040F0010002B0704772B6C1
:1023E000704762B67047EFF310807047704781B056
:1023F0000090FFE7FEE7FFE7FEE7704780B56F4616
:10240000024642F66C60C0F600002B2100F01FF877
:1024100080B56F4684B0CDE9010101A80122ADF875
:102420000C20FFF7E4FF80B56F468AB00DF1040C75
:1024300090E870430020634683E870438DF82400E1
:1024400007A88DF82510CDE907C2FFF7D0FF80B5AA
:102450006F4688B094460122019206AA0023CDE976
:102460000601009204226846614604930393029297
:10247000FFF7CEFF80B56F4688B00022CDE9060198
:102480000492012303920422029242F6AC6268464F
:10249000C0F600020021019306AB0093FFF7C3FFD3
:1024A00080B56F4686B0014600200122049001925B
:1024B00042F6E05203900420C0F600020290684603
:1024C0000092FFF7A5FF80B56F4686B00146002059
:1024D00001220490019242F60C6203900420C0F69F
:1024E0000002029068460092FFF792FF80B56F46A7
:1024F00086B00146002001220490019242F6386223
:1025000003900420C0F60002029068460092FFF794
:102510007FFF80B56F4686B00146002001220490FF
:10252000019242F6646203900420C0F60002029019
:1025300068460092FFF76CFF80B56F4686B0014693
:10254000002001220490019242F6D86203900420F8
:10255000C0F60002029068460092FFF759FFFFE7BD
:04256000FEE7D4D4EA
:102564007372632F6D61696E2E72730064250008A7
:102574000B0000000B000000270000006425000889
:102584000B0000000D0000002C000000002F686FFD
:102594006D652F636C2F2E636172676F2F72656791
:1025A40069737472792F7372632F696E6465782E00
:1025B4006372617465732E696F2D366631376432C8
:1025C400326262613135303031662F73746D33326B
:1025D400663178782D68616C2D302E31302E302F95
:1025E4007372632F6770696F2E72730091250008F0
:1025F4005E000000130400003A000000912500086A
:102604005E0000001304000035000000912500085E
:102614005E0000002802000041000000912500082F
:102624005E000000280200003C0000002F686F6D6F
:10263400652F636C2F2E636172676F2F72656769F4
:10264400737472792F7372632F696E6465782E6365
:1026540072617465732E696F2D3666313764323258
:102664006262613135303031662F66756769742D69
:10267400302E332E372F7372632F64757261746931
:102684006F6E2E727300000030260008590000009F
:102694006F020000010000002F686F6D652F636CEE
:1026A4002F2E636172676F2F726567697374727915
:1026B4002F7372632F696E6465782E63726174651B
:1026C400732E696F2D36663137643232626261313E
:1026D40035303031662F73746D333266312D302EC0
:1026E40031352E312F7372632F67656E657269639E
:1026F4002E7273009C2600085B0000005502000047
:10270400010000002F686F6D652F636C2F2E6361CD
:1027140072676F2F72656769737472792F7372634E
:102724002F696E6465782E6372617465732E696FA8
:102734002D36663137643232626261313530303180
:10274400662F73746D3332663178782D68616C2D21
:10275400302E31302E302F7372632F7263632E72DA
:1027640073000000082700085D0000002B02000031
:102774000D000000082700085D0000004102000071
:1027840013000000082700085D000000410200005B
:1027940026000000082700085D0000004502000034
:1027A40013000000082700085D0000005702000025
:1027B4001C000000082700085D000000570200000C
:1027C40016000000082700085D0000005702000002
:1027D4000D000000082700085D00000055020000FD
:1027E4001C000000082700085D00000055020000DE
:1027F40016000000082700085D00000055020000D4
:102804000D000000082700085D00000061020000C0
:1028140021000000082700085D000000610200009C
:1028240020000000082700085D0000006A02000084
:1028340013000000082700085D0000007502000076
:102844001A000000082700085D000000750200005F
:1028540015000000082700085D0000007602000053
:1028640015000000082700085D0000008002000039
:1028740013000000082700085D0000009F0200000C
:1028840019000000082700085D0000009F020000F6
:102894000D000000082700085D000000A9020000E8
:1028A4001C000000082700085D000000A9020000C9
:1028B40016000000082700085D000000A9020000BF
:1028C4000D000000082700085D000000A7020000BA
:1028D4001C000000082700085D000000A70200009B
:1028E40016000000082700085D000000A702000091
:1028F4000D000000082700085D000000AC02000085
:102904001A000000082700085D000000AC02000067
:1029140015000000082700085D000000AD0200005B
:1029240015000000082700085D000000AF02000049
:102934001A000000082700085D000000AF02000034
:1029440015000000082700085D000000B002000028
:1029540015000000082700085D000000B202000016
:1029640014000000082700085D000000B302000006
:1029740016000000617373657274696F6E2066617E
:10298400696C65643A20737973636C6B203C3D20F9
:1029940037325F3030305F30303020262620686395
:1029A4006C6B203C3D2037325F3030305F3030304C
:1029B4002026262070636C6B31203C3D2033365F2B
:1029C4003030305F3030302026260A20202020206E
:1029D40020202070636C6B32203C3D2037325F3006
:1029E40030305F30303020262620616463636C6BA6
:1029F400203C3D2031345F3030305F3030300000D7
:102A0400082700085D000000BD0200000900000066
:102A14002F686F6D652F636C2F2E636172676F2F44
:102A240072656769737472792F7372632F696E6448
:102A340065782E6372617465732E696F2D36663105
:102A4400376432326262613135303031662F7374EB
:102A54006D3332663178782D68616C2D302E3130CB
:102A64002E302F7372632F74696D65722F64656CD9
:102A740061792E7273000000142A000865000000BA
:102A84002A0000001D000000142A00086500000050
:102A9400340000000D0000002F686F6D652F636C1B
:102AA4002F2E636172676F2F726567697374727911
:102AB4002F7372632F696E6465782E637261746517
:102AC400732E696F2D36663137643232626261313A
:102AD40035303031662F66756769742D302E332E8C
:102AE400372F7372632F726174652E727300000046
:102AF4009C2A0008550000004B0200000100000061
:102B0400000000000000000000000040FFFF0F4034
:102B140000000000617373657274696F6E206661F2
:102B2400696C65643A2028504552495F41444452D7
:102B34004553535F53544152542E2E3D50455249F0
:102B44005F414444524553535F454E44292E636FBD
:102B54006E7461696E73282661646472292F686FCC
:102B64006D652F636C2F2E636172676F2F726567BB
:102B740069737472792F7372632F696E6465782E2A
:102B84006372617465732E696F2D366631376432F2
:102B9400326262613135303031662F73746D333295
:102BA400663178782D68616C2D302E31302E302FBF
:102BB4007372632F62622E7273000000612B00082F
:102BC4005C0000002D0000000500000061737365C7
:102BD4007274696F6E206661696C65643A2062691B
:102BE40074203C2033320000612B00085C0000009C
:102BF4002E00000005000000612B00085C000000AE
:102C04003100000029000000612B00085C00000076
:102C14003100000013000000612B00085C0000007C
:102C2400310000004D00000069735F616C69676EDC
:102C340065645F746F3A20616C69676E2069732004
:102C44006E6F74206120706F7765722D6F662D74BE
:102C5400776F00002C2C00082A0000002F686F6D8D
:102C6400652F636C2F2E7275737475702F746F6F6C
:102C74006C636861696E732F737461626C652D781F
:102C840038365F36342D756E6B6E6F776E2D6C69CA
:102C94006E75782D676E752F6C69622F72757374FB
:102CA4006C69622F7372632F727573742F6C69620F
:102CB400726172792F636F72652F7372632F7074F0
:102CC400722F636F6E73745F7074722E7273000070
:102CD400602C000872000000430600000D00000094
:102CE400756E7361666520707265636F6E64697476
:102CF400696F6E2873292076696F6C617465643A14
:102D0400207074723A3A726561645F766F6C6174B4
:102D1400696C652072657175697265732074686188
:102D2400742074686520706F696E746572206172B6
:102D340067756D656E7420697320616C69676E6573
:102D44006420616E64206E6F6E2D6E756C6C756E92
:102D54007361666520707265636F6E646974696F10
:102D64006E2873292076696F6C617465643A2070EB
:102D740074723A3A77726974655F766F6C617469DC
:102D84006C6520726571756972657320746861740D
:102D94002074686520706F696E7465722061726753
:102DA400756D656E7420697320616C69676E656406
:102DB40020616E64206E6F6E2D6E756C6C61747420
:102DC400656D707420746F20616464207769746821
:102DD400206F766572666C6F77000000C12D000865
:102DE4001C000000617474656D707420746F20732E
:102DF400756274726163742077697468206F766594
:102E040072666C6F77000000E82D00082100000056
:102E1400617474656D707420746F206D756C746961
:102E2400706C792077697468206F766572666C6F50
:102E340077000000142E00082100000061747465FE
:102E44006D707420746F207368696674206C656695
:102E5400742077697468206F766572666C6F77008A
:102E6400402E00082300000063616C6C65642060E0
:102E74004F7074696F6E3A3A756E77726170282973
:102E840060206F6E206120604E6F6E6560207661F9
:102E94006C7565636F72652F7372632F70616E69F1
:102EA400636B696E672E7273972E0008150000001D
:102EB400DD00000005000000617474656D7074200D
:102EC400746F20646976696465206279207A65721A
:0C2ED4006F000000BC2E00081900000078
:0400000508000131BD
:00000001FF
