:020000040800F2
:100000000000012031010008132800087B290008A6
:100010001328000813280008132800080000000017
:10002000000000000000000000000000132800088D
:1000300013280008000000001328000813280008F7
:1000400013280008132800081328000813280008A4
:100050001328000813280008132800081328000894
:100060001328000813280008132800081328000884
:100070001328000813280008132800081328000874
:100080001328000813280008132800081328000864
:100090001328000813280008132800081328000854
:1000A0001328000813280008132800081328000844
:1000B0001328000813280008132800081328000834
:1000C0001328000813280008132800081328000824
:1000D0001328000813280008132800081328000814
:1000E0001328000813280008000000001328000847
:1000F00013280008132800081328000813280008F4
:1001000013280008132800081328000813280008E3
:1001100013280008132800081328000813280008D3
:1001200013280008132800081328000813280008C3
:1001300002F071FB084809490022814201D004C045
:10014000FBE707480749084A814202D008CA08C0AD
:10015000FAE700F00BF800DE0000002004000020A9
:100160000000002000000020E033000880B56F464A
:1001700000F000F880B56F46B6B000F0C1F807F89F
:10018000010C17F8010CC00730B9FFE742F68C10DC
:10019000C0F6000002F040FB00F0C3FB07F8020CC1
:1001A00017F8020CC00730B9FFE742F69C10C0F602
:1001B000000002F031FB07A8029002F07FF90299DB
:1001C00019A80390B1E83C50A0E83C5091E83C509D
:1001D00080E83C5002F06FF90399A7F142000490C7
:1001E00030902CA800F0B7FE049A2C982D992E9BE5
:1001F000DDF8BCC0CDF8D0C033933291319013A854
:10020000059031A900F003FC02F0A1F9A7F141002B
:1002100000F024FA02F0DAF9A7F13F0000F012FA38
:100220000598012107F83D1C01F0F0FF27900A20F6
:1002300000F0C5FB014606912A90FFE7A7F13E00BA
:1002400000F001FB0146019107F8290C17F83D0C5D
:10025000C00728B9FFE70198C0070028EED10FE0DA
:100260000198C0070028F6D0FFE7002007F83D0CF2
:1002700026A800F003FB069927A801F074FBDDE730
:10028000012007F83D0C27A80A2101F0FDFBD5E766
:1002900084B000900191007800F00100029009788C
:1002A00001F001010391401AB0FA80F0400904B056
:1002B000704780B56F4682B002F0A3FA019000F05B
:1002C0000100012804D0FFE7002007F8050C03E037
:1002D000012007F8050CFFE717F8050C00F00100F6
:1002E00002B080BD80B56F4682B007F8010C42F6BF
:1002F000AC11C0F60001781EFFF7CAFF02B080BD46
:1003000080B56F4600F008F880BD40F20001C2F2EF
:10031000000101200870704780B56F4684B0FFF778
:10032000C8FF019007F8020C00F028FB02F06CFAFD
:1003300003A800F002FB014601980A46029207F862
:10034000011CFFF7CFFF28B9FFE7029800F001007A
:1003500004B080BD00F00DFBF7E780B56F4684B0B8
:10036000FFF7A7FF019007F8020C00F007FB02F06F
:100370004BFA03A800F007FB014601980A460292D7
:1003800007F8011CFFF7AEFF28B9FFE7029800F05D
:10039000010004B080BD00F0ECFAF7E780B56F46CD
:1003A000AAB0059106900A900B9101F01CFF01463E
:1003B00007910C90022007F8850C17F8850C02288D
:1003C00008D0FFE717F8850C00F0010007F8710C62
:1003D000E0BB28E005980699032209920E910F9040
:1003E00009A80390109001F0FEFE0399049011906B
:1003F000209021912590269002F027F9014603983C
:10040000229123911E9124911F911EA91FAA00F0F1
:1004100004FA01460498096827902891299002F06F
:1004200079F92AB080BD079810300290139000200F
:100430001490129012A800F0D1F8014602980968B1
:1004400015901691179002F065F9C3E707981030E0
:100450000190199000201A90189018A800F0E7F861
:100460000146019809681B901C911D9002F052F9F9
:10047000B0E780B56F46AAB0059106900A900B913F
:1004800001F0A6FE014607910C90012007F8850CAB
:1004900017F8850C022808D0FFE717F8850C00F044
:1004A000010007F8710CE0BB28E0059806990822C6
:1004B00009920E910F9009A80390109001F088FE08
:1004C000039904901190209021912590269002F09C
:1004D000BCF801460398229123911E9124911F910B
:1004E0001EA91FAA00F083F9014604980968279005
:1004F0002891299002F00EF92AB080BD079810309B
:100500000290199000201A90189018A800F032F864
:100510000146029809681B901C911D9002F0FAF8A0
:10052000C3E70798103001901390002014901290A8
:1005300012A800F014F80146019809681590169168
:10054000179002F0E7F8B0E782B00090019121F433
:1005500070200099096840EA014002B0704787B0F6
:100560000190029010210391049005910160069082
:1005700007B0704780B56F468AB001900490142090
:100580000290002028B9FFE70298C0B2202806D3C5
:1005900013E042F60C20C0F6000002F08FF901983B
:1005A000029901F01F0201219140059006910790E8
:1005B0000891016009900AB080BD42F61C20C0F687
:1005C000000002F0B4F982B00090019121F47000B3
:1005D0000099096840EA015002B0704780B56F4643
:1005E0008AB00190049015200290002028B9FFE7FE
:1005F0000298C0B2202806D313E042F60C20C0F6C1
:10060000000002F05BF90198029901F01F0201213C
:1006100091400590069107900891016009900AB0F9
:1006200080BD42F61C20C0F6000002F080F987B0C1
:1006300001900290202103910490059101600690A1
:1006400007B0704780B56F4682B001460191781FB0
:10065000FFF70FFF00F059F802B080BD80B56F467C
:1006600082B00190012107F8061C17F8061C01F062
:10067000010100F002F802B080BD80B56F4696B06F
:100680000390059007F83E1C07F83D1CA7F14500B4
:10069000079017F83D0CC007B8B9FFE7A7F1450070
:1006A000099001F0A0FD103002900B9000200C90FA
:1006B0000A900AA800F090F80146029809680D9087
:1006C0000E910F9002F026F816E0A7F14500089071
:1006D00001F089FD103001901190002012901090CF
:1006E00010A800F045F8014601980968139014918C
:1006F000159002F00FF8FFE70399A7F14500FFF707
:100700004DFE00F007F816B080BD80B56F4600F0D2
:10071000FCF880BD80B56F4600F0FCF880BD80B568
:100720006F468AB00190049015200290002028B9ED
:10073000FFE70298C0B2202806D313E042F62C202F
:10074000C0F6000002F0BAF80198029901F01F0209
:100750000121914005900691079008910160099050
:100760000AB080BD42F63C20C0F6000002F0DFF87F
:1007700080B56F468AB00190049015200290002049
:1007800028B9FFE70298C0B2202806D313E042F64A
:100790002C20C0F6000002F091F80198029901F0B7
:1007A0001F02012191400590069107900891016078
:1007B00009900AB080BD42F63C20C0F6000002F06D
:1007C000B6F887B001900290202103910490059122
:1007D0000160069007B0704787B001900290202119
:1007E0000391049005910160069007B0704780B5B1
:1007F0006F468CB00192029003910492059106918C
:100800000968FFF7A1FE0146019807900891099039
:100810000A9101600B900CB080BD80B56F468CB022
:100820000192029003910492059106910968FFF7E5
:10083000CAFE014601980790089109900A9101604B
:100840000B900CB080BD80B56F468AB001900390CC
:1008500001F0BEFC083006900890099001F0F5FE0A
:100860000790029002A8049005909DF8080000F0FF
:100870001001012080EA11100AB080BD80B56F46DA
:100880009AB002900390059001F0ADFC0C300A90F4
:100890000C900D9001F0D9FE0B90049004A80890E4
:1008A00009909DF810008006002816D5FFE70298F1
:1008B000069001F098FC10300190159000201690E1
:1008C000149014A8FFF72BFF0146019809681790B0
:1008D0001891199001F01EFF15E00298079001F0A1
:1008E00082FC103000900F90002010900E900EA807
:1008F000FFF767FF01460098096811901291139065
:1009000001F008FFFFE71AB080BD80B56F4600F028
:1009100007F880BD80B56F4600F001F880BD7047D4
:10092000704780B56F46FFF718FD80BD40F20101AA
:10093000C2F2000101200870704780B56F4682B096
:10094000019040F20000C2F200000078C00730B908
:10095000FFE7FFF7DAFC012007F8060C03E00020B0
:1009600007F8060CFFE717F8060C00F0010002B0CC
:1009700080BD80B56F4601F042FF80BD80B56F46F7
:1009800001F03BFF80BD80B56F4682B0019040F220
:100990000100C2F200000078C00730B9FFE7FFF79E
:1009A000C5FF012007F8060C03E0002007F8060C3D
:1009B000FFE717F8060C00F0010002B080BD80B51B
:1009C0006F4682B001904FF47A71A0FB0110009144
:1009D00028B9FFE7009801F07BFA02B080BD42F62B
:1009E000A820C0F6000001F08FFF81B08DF8020052
:1009F0008DF80300C0B201B0704781B0009018308C
:100A000001B0704781B000900C3001B07047B0B5B4
:100A100002AFE4B00692099105901B920AA80790D4
:100A200000F0ACFD069801F03AF8014607980891ED
:100A30000C302691279030212891259125A900F08E
:100A4000F0F801460898096829902A912B9001F046
:100A500061FE099841F20001C4F202011C9101F00B
:100A60007AF938B9FFE70998007A00F00100012807
:100A70003BD07DE041F20000C4F2020004903990C6
:100A80003D903E9001F0E1FD3A903B9037903C90D4
:100A9000389037A838A900F00DF901460498096884
:100AA0003F904091419001F035FEFFE741F2000098
:100AB000C4F2020021902390249001F0C6FD229000
:100AC000119011A85E905F901198C0F3404007F814
:100AD000150C8DF843000DF143005B905C909DF880
:100AE0004300C0070028E1D0BDE70999487A8DF896
:100AF0004A0041F20400C4F2020002904F900DF14E
:100B00004A020192509251915590569001F09DFDEC
:100B1000099902460198529253924D9254924E92E4
:100B20004DAA4EAB00F0DEF80146029809685790D6
:100B30005891599001F0EEFD41F20000C4F202001C
:100B4000039044904890499001F07FFD4590469075
:100B500042904790439042A843A900F002F9014611
:100B6000039809684A904B914C9001F0D3FD39E00D
:100B7000099C04F1080E04F10E0C04F10C0304F1BD
:100B80000D0204F10A0104F10B001494CDF854E0B5
:100B9000CDF858C01793189219911A9041F2040099
:100BA000C4F2020000902E903290339001F04DFD7F
:100BB0002F9030902C9031902D9014A82CA92DAA14
:100BC00000F0E7F8014600980968349035913690B6
:100BD00001F0A0FD05980AA991E83C5080E83C503E
:100BE00064B0B0BD41F20000C4F202001D901F903D
:100BF000209001F02AFD1E90139013A8619062903E
:100C00001398C0F3406007F8090C8DF84B000DF104
:100C10004B005A905D909DF84B00C0070028E1D032
:100C2000A6E780B56F4690B00291049008910C91B0
:100C30000D9104980390182001F0E0FA0146039802
:100C4000069106A900F06EFF68B9FFE704980190CD
:100C5000302001F0D3FA01460198079107A900F06E
:100C600061FF40B903E0002007F8290C07E00220EB
:100C700007F8290C03E0012007F8290CFFE7029987
:100C800017F8290C099107F8150C09990B910968B7
:100C9000009142F61431C0F60001FFF7A6FE0246AD
:100CA000009809990E9162F30200086009980F906C
:100CB00010B080BD8BB00190029109910A9104910E
:100CC000059101218DF81A100598079000688DF89C
:100CD0001B100599089140F4803008600598039036
:100CE0000BB0704780B56F4694B0039004910592A5
:100CF000069310931193039800780C9307F8190C3E
:100D00000C990E91096821F47011019142F6143189
:100D1000C0F60001FFF769FE0146019801F00F02DD
:100D20000C990F9140EA824008600C980290129052
:100D30001390049801F00FF802460298089007F803
:100D40002A2C08980A90006820F4803007F8292C93
:100D500008990B9140EA024008600898079014B087
:100D600080BD8BB00190029109910A910491059187
:100D700001218DF81A100598079000688DF81B1056
:100D80000599089140F080700860059803900BB0B9
:100D9000704780B56F46B8B0039209900C910D92E0
:100DA0003492359280690078169207F8810C42F6E9
:100DB0001431C0F60001079101F000F8039A079979
:100DC000189207F8790C189A1A92126822F4404285
:100DD0000292FFF70AFE029B039A0799844609983C
:100DE0000CF0030EDDF860C0CDF86CC043EA8E3322
:100DF000CCF8003032923392006900788DF82C00E4
:100E00009DF82C00249207F8490C249A2692126827
:100E100022F460520492FFF7E8FD049A0799034612
:100E2000099803F0070C249B279342EACC221A600E
:100E3000249A30923192C068007807F8B30C17F802
:100E4000B30C1C9207F8690C1C9A1E92126822F4CB
:100E5000E0620592FFF7C9FD059A079903460998D4
:100E600003F0070C1C9B1F9342EA0C221A601C9A89
:100E70002E922F928068007807F8B20C17F8B20C07
:100E8000289207F8390C289A2A92126822F0F00268
:100E90000692FFF7AAFD069A07990346099803F000
:100EA0000F0C289B2B9342EA0C121A60289A089286
:100EB0003692379240690078109200F0010007F8EE
:100EC000990C00F070FF089903460998129107F8F1
:100ED000923C12991491096821F4800107F8913C21
:100EE000129A159241EA8351116012990A912C913C
:100EF0002D91406800F043FF48B9FFE7099800686A
:100F000000F029FF07F8A50C07F8B10C03E0022058
:100F100007F8B10CFFE70A9917F8B10C209107F810
:100F2000590C209922910968019142F61431C0F6BA
:100F30000001FFF75AFD024601982099239162F3C0
:100F40000100086020980F9038B080BD81B00090FB
:100F5000006801B07047F0B503AF4DF8048DBAB02A
:100F60001A9101461A981B91016840681C911D90C6
:100F70001C98012804D1FFE71D982F901E9005E0D2
:100F800040F60010C0F23D001E90FFE71A98006A7C
:100F9000012808D1FFE71A98406A189030901E98EF
:100FA000199048B102E001201F900BE018981999A0
:100FB000B0FBF1F01F9005E042F68430C0F600006F
:100FC00001F0C8FC1F98012807D1FFE7002007F8AF
:100FD0006E0C1C98012803D006E01F9880BB2CE003
:100FE0001D983190239005E041F20020C0F27A0074
:100FF0002390FFE717F86E1C17F86D0C01F0010144
:101000008DF880108DF8810023982190FFE71A98C1
:101010009DF880209DF88110134615930B4616937A
:1010200002F0010207F82E2C07F82D1C21991791C8
:101030003391806801283DD042E01F9838B109E023
:101040001F981028F9D8FFE71F98249005E0012089
:10105000249002E010202490FFE79DF89000811E6C
:10106000149102280DD3FFE7149807F8620C0120B1
:1010700007F8630C1E982499A0FB0110139198B9EE
:1010800005E042F69430C0F6000001F02AFC139807
:1010900017F8632C17F8621C02F001028DF880200B
:1010A0008DF881102190B2E742F6A430C0F600001E
:1010B00001F02AFC1A98C0681290349068B103E0DD
:1010C000072007F8610C22E017981299B0FBF1F0A5
:1010D0000146119100280AD205E042F6B430C0F66C
:1010E000000001F037FC1198022808D00BE011989D
:1010F0000128F8D8FFE7072007F8610C07E008206F
:1011000007F8610C03E0119802280DD808E017F8E1
:10111000610C07F85B0C17F85B0C0B2854D848E0FF
:10112000119805280CD807E011980528F8D8FFE792
:10113000092007F8610CEAE711980B280CD807E0A2
:1011400011980B28F8D8FFE70A2007F8610CDEE7B2
:10115000119827280CD807E011982728F8D8FFE71E
:101160000B2007F8610CD2E711985F280CD807E034
:1011700011985F28F8D8FFE70C2007F8610CC6E744
:101180001198BF280CD807E01198BF28F8D8FFE7BE
:101190000D2007F8610CBAE70F2007F8610CB6E7DD
:1011A0001198C0090228F7D8FFE70E2007F8610C54
:1011B000ADE717F8610C07F8590C17F8590CC11F67
:1011C0001091072810D30AE017F8610C07F85A0CA1
:1011D00017F85A0C811F0F91062830D32AE0109877
:1011E000C0B2202806D30EE042F6C430C0F600009C
:1011F00001F077FB109800F01F01012088400146A4
:101200000E9160B105E042F6D430C0F6000001F066
:101210008EFB17980E99B0FBF1F0269005E042F690
:10122000E430C0F6000001F095FB1A98006901282F
:1012300026D02AE00F98C0B2202806D30EE042F64E
:10124000F430C0F6000001F04CFB0F9800F01F01D5
:101250000120884001460D9160B105E042F604404E
:10126000C0F6000001F063FB17980D99B0FBF1F098
:101270002690DAE742F61440C0F6000001F06AFB5F
:101280001A9840693590289007E0269845F2001199
:10129000C0F2252188420ED307E0269928980844F9
:1012A00002460C9288420ED308E045F20010C0F2CC
:1012B00025202890F1E726982890EEE70C98411E0B
:1012C0000B9150B105E042F62440C0F6000001F059
:1012D000F5FA28980A9098B105E042F63440C0F635
:1012E000000001F0FEFA0B980A99B0FBF1F00146FC
:1012F000099102280ED3FFE7099802280ED005E0D5
:1013000042F63440C0F6000001F024FB09980228A0
:1013100011D80CE003208DF8A40003E004208DF820
:10132000A400FFE71A988069012818D01FE00998E7
:1013300005280CD807E009980528F8D8FFE705200C
:101340008DF8A400EEE707208DF8A400EAE70998DD
:101350000B28F8D8FFE706208DF8A400E2E71A98DA
:10136000C069079036902699089168B103E0032080
:1013700007F8530C22E008980799B0FBF1F00146FA
:10138000069100280AD205E042F64440C0F600006B
:1013900001F0E0FA0698022808D00BE00698012830
:1013A000F8D8FFE7032007F8530C07E0042007F8FC
:1013B000530C03E0069802280FD80AE017F8530CE4
:1013C00007F8520C17F8520CC11E059103281DD3C3
:1013D00017E0069805280CD807E006980528F8D8E5
:1013E000FFE7052007F8530CE8E7072007F8530C40
:1013F000E4E706980B28F8D8FFE7062007F8530C17
:10140000DCE70598C0B2202806D311E042F654402C
:10141000C0F6000001F065FA059800F01F010120F8
:1014200088400146039137902699049118B305E04E
:1014300042F66440C0F6000001F079FA1798169958
:10144000159A049BDDF80CC0B3FBFCF39C46CDF869
:1014500008C03893DDF870C01D9BCDF8A8C02B9351
:1014600002F001028DF8B0208DF8B1102D902A986D
:10147000012806D00CE042F67440C0F6000001F0EE
:1014800069FA9DF8B00000F00100012804D0FFE7E0
:10149000012007F8510C0BE02D984AF20021C0F210
:1014A0004A418842F4D1FFE7002007F8510CFFE7DA
:1014B0001A98806A012806D1FFE71A98C06A01903D
:1014C000399068B103E0032007F83D0C32E0029840
:1014D0000199B0FBF1F00146009100280AD205E025
:1014E00042F68440C0F6000001F034FA0098022869
:1014F0000CD807E000980228F8D8FFE7002007F88A
:101500003D0C17E0009804280CD807E00098042848
:10151000F8D8FFE7012007F83D0C0BE0032007F89F
:101520003D0C07E000980728F8D8FFE7022007F8ED
:101530003D0CFFE71B99169C159D17F861EC9DF873
:10154000A4C017F8533C17F8512C17F83D0CDDF8E0
:1015500070801D9EC1F800804E6005F001050D727F
:101560004C7281F80EE081F80CC04B7302F001025E
:101570008A72C8723AB05DF8048BF0BDF0B503AF63
:101580004DF804BDAEB019911A902491087AC007A5
:1015900050B1FFE71998417A0A46189207F8311CB2
:1015A0000068012805D009E019980068012833D0A7
:1015B00037E01998406826901C9005E040F600102E
:1015C000C0F23D001C90FFE718981C991691C0B21C
:1015D00002301790002038B9FFE716981799A0FB42
:1015E0000110159148B905E042F69440C0F600009C
:1015F00001F064F915981B9005E042F6A440C0F68E
:10160000000001F081F91998807B07F84F0C17F85A
:101610004F0C0B2818D80AE01998406827901B90A7
:10162000F1E741F20020C0F27A001B90EBE7199835
:101630001B991391807B07F84D0C17F84D0CC11FB7
:101640001491072812D30CE019981B991191807BF3
:1016500007F84E0C17F84E0C811F1291062836D34E
:1016600030E01498C0B2202806D30EE042F6B44011
:10167000C0F6000001F035F9149800F01F010120B8
:1016800088400146109160B105E042F6C440C0F6C2
:10169000000001F04CF913981099B0FBF1F01D9087
:1016A00005E042F6D440C0F6000001F053F9199865
:1016B000007B8DF87C009DF87C00C11E0F910328F3
:1016C0002BD325E01298C0B2202806D30EE042F6B4
:1016D000E440C0F6000001F004F9129800F01F0188
:1016E0000120884001460E9160B105E042F6F440C9
:1016F000C0F6000001F01BF911980E99B0FBF1F053
:101700001D90D4E742F60450C0F6000001F022F923
:101710000F98C0B2082806D314E042F61450C0F661
:10172000000001F0DEF80F9800F00701012088406A
:1017300001460B9107F8250C1D990C9101460D915E
:10174000C0B105E042F62450C0F6000001F0EFF809
:1017500019980C990D9AB1FBF2F10A460992299158
:10176000407B07F84B0C17F84B0CC11E0A9103285D
:101770000BD305E042F63450C0F6000001F0EAF861
:101780000A98C0B2082806D314E042F64450C0F6C6
:10179000000001F0A6F80A9800F007010120884037
:1017A0000146069107F81D0C1D9907910146089105
:1017B000D0B105E042F65450C0F6000001F0B7F891
:1017C00019980799089AB1FBF2F10A4604922B91F5
:1017D000C07A07F84A0C17F84A0C411CC8B20A46EE
:1017E000059288420FD105E042F66450C0F6000031
:1017F00001F0B0F80598400007F8150CC0B201469A
:10180000039110B305E042F67450C0F6000001F0F9
:1018100055F819980499039AB1FBF2F10A4602921D
:101820002D91D0F800C04368027A417A1B98CDF818
:1018300080C0219302F001028DF888208DF8891074
:1018400023902098012806D00CE042F68450C0F680
:10185000000001F07FF89DF8880000F001000128E9
:1018600004D0FFE7002007F8490C14E0239801900A
:1018700046F60041C0F2DC21884208D0FFE701981B
:101880004AF20021C0F24A418842EBD1FFE7012031
:1018900007F8490CFFE71B984AF20121C0F24A41C0
:1018A00088420BD3FFE742F69450C0F6000042F6A0
:1018B0002062C0F600028A2100F0D7FF1D984AF28C
:1018C0000021C0F24A418842EDD8FFE7099845F26D
:1018D0000011C0F225218842E5D8FFE704984AF2BA
:1018E0000021C0F24A418842DDD8FFE7029849F65C
:1018F0008071C0F2D5018842D5D8FFE71D9800F06D
:1019000001F90646099800F0FDF80546049800F034
:10191000F9F804461B9800F0F5F80146029800918A
:1019200000F0F0F8DDF818C0009B1A99DDF82CE003
:10193000024617F8490C0E604D608C6081F814E087
:1019400081F815C0CB600A6100F0010088752EB0E7
:101950005DF804BBF0BD81B0009001B0704781B06C
:10196000009001B0704780B56F468AB00390069131
:10197000089006A800F0B8FA014603980491FFF712
:10198000EAFF00F088FA014604984DF68362C4F23B
:101990001B32A1FB0221890CA0FB0110059118B993
:1019A000FFE70598079005E042F69860C0F6000052
:1019B00000F0AAFF079810B9FFE70AB080BD0798AA
:1019C0006FF07F4100F0D2F8014603980191099130
:1019D000FFF7C5FF0199043000F0B4FA0398FFF750
:1019E000BEFF043000F0D3FA0398FFF7B8FF0430CD
:1019F00000F0E0FA01990798421A0292884203D354
:101A0000FFE70298079005E042F6A860C0F60000E4
:101A100000F067FF0398FFF7A2FF043000F0A5FA7B
:101A20000028F7D0FFE70398FFF799FF043000F094
:101A3000DBFABFE780B56F4684B00091014600989D
:101A400001910291039000F065F801460198FFF7BB
:101A50008AFF04B080BD80B56F4684B000900290CC
:101A600003914FF47A70A1FB0010019130B9FFE7A8
:101A700001990098FFF7DEFF04B080BD42F62070A8
:101A8000C0F6000000F040FF80B56F4682B00090C5
:101A900007F8011CC9B2FFF7DEFF02B080BD81B0BC
:101AA000009042F20000C4F2020001B0704783B01F
:101AB00002900190002000900098019903B07047B7
:101AC00084B000900390007AC00730B9FFE7009817
:101AD000043002900020019005E00098043002904C
:101AE00001200190FFE70198029904B0704780B58A
:101AF0006F4682B0009001910068096800F067F9B4
:101B000002B080BD80B56F4682B0019000F0B0F9A0
:101B100002B080BD80B56F4682B0019000F0E9F957
:101B200002B080BD80B56F4684B002900391FFF78C
:101B3000DEFF07F8090C17F8090C022807D0FFE7A9
:101B400017F8091C481CC0B2022805D3FFE7002083
:101B500007F80A0C04E0FEDE012007F80A0CFFE794
:101B600017F80A0C00F0010004B080BD80B56F4684
:101B700082B00090019100F002F802B080BD80B503
:101B80006F4684B000900191012007F8020C68466E
:101B900001A900F0D5F807F8030C17F8031C481C3E
:101BA000C0B2022802D3FFE706E0FEDE002007F8FD
:101BB000020C0098029002E00198029003E0FFE717
:101BC000029804B080BD17F8020CC0070028F7D0B7
:101BD000FFE7F5E787B003900491A0FB0110002810
:101BE00018BF01200A46009205918DF81A008DF861
:101BF0001B009DF81B00C00728B9FFE70098029062
:101C00000120019008E042F69870C0F600000168DB
:101C1000406801910290FFE70198029907B0704770
:101C200080B56F46A2B0019003910F90FFF73FFF80
:101C3000059006910598029030B1FFE702980128BF
:101C400017D0FFE72AE0FEDE0698079007A810905D
:101C50000398089008A81190079903981C911D906B
:101C6000096802680020914298BF012007F8750CAE
:101C700015E00698099009A8129003980A900AA8FE
:101C80001390099903982091219009680268002017
:101C9000914238BF012007F8750C00E008E017F802
:101CA000750CC00720B9FFE7002007F8760C0DE09F
:101CB0000198FFF705FF0B900C910B98009058B11D
:101CC000FFE7009801281AD0FFE72BE017F8760C01
:101CD00000F0010022B080BD0C98149003A915916A
:101CE0000D900DA9169103991A911B90096802682D
:101CF0000020914298BF012007F8760C16E00C985E
:101D0000179003A918910E900EA9199103991E918D
:101D10001F90096802680020914238BF012007F82F
:101D2000760C03E0012007F8760CFFE7CEE780B5DC
:101D30006F4682B000900191FFF772FF02B080BD44
:101D400080B56F4684B0019002910198029900F02D
:101D50006DFA04B080BD82B001900068012804D102
:101D6000FFE701208DF8030003E000208DF8030059
:101D7000FFE79DF8030000F0010002B0704782B059
:101D800001900078C00720B1FFE701208DF8030023
:101D900003E000208DF80300FFE79DF8030000F04A
:101DA000010002B0704781B08DF802008DF8030089
:101DB0009DF8030000F0010001B0704781B08DF87C
:101DC00002008DF803009DF8030001B0704780B554
:101DD0006F4696B0049105900B900C91FFE7059823
:101DE0000121FFF7F7FE02460498029203910D923B
:101DF0000E9144F24021C0F20F01FFF7EBFE029B6F
:101E0000039A0F9010910793089209900A910798EE
:101E1000012804D1FFE70998012804D0FFE7022038
:101E200007F83D0C20E00898009011900A99019164
:101E3000129114901591884205D3FFE700980199FB
:101E4000884208D803E0FF2007F8090C07E00020CB
:101E500007F8090C03E0012007F8090CFFE717F861
:101E6000090C07F83D0CFFE717F83D0C16B080BDD4
:101E700080B56F4682B001900090002028B9FFE73E
:101E8000009800F00DF802B080BD42F68870C0F6F0
:101E9000000000F039FD81B00090006801B070478B
:101EA00080B56F4682B00090019000F0CFF900F04D
:101EB000CDF9009802B080BD80B56F4682B0009029
:101EC000019000F0C2F900F0C1F9009802B080BDA5
:101ED00080B56F4682B00090019000F0B7F900F035
:101EE000B4F9009802B080BD81B00090006801B0E4
:101EF000704780B56F4682B001900090002028B9ED
:101F0000FFE70098FFF7E4FF02B080BD42F6FC70E7
:101F1000C0F6000000F0F8FC80B56F4684B0019177
:101F20000290039141B1FFE701990298B0FBF1F0F3
:101F30000290029804B080BD42F68870C0F600009E
:101F400000F008FD80B56F4688B0009001910790C1
:101F50004EF21400CEF2000002900391049005911D
:101F6000069000F0D7FB08B080BD80B56F4686B004
:101F7000019005904EF21000CEF200000290039006
:101F8000049000F062FBC0F3004006B080BD80B555
:101F90006F4688B0019007904EF21800CEF2000014
:101FA00002900021039104900591069000F0B2FB8D
:101FB00008B080BD80B56F468AB0029009904EF29D
:101FC0001000CEF20000019003900490059000F004
:101FD0003CFB00F00CFC014601980690079108902C
:101FE00000F098FB0AB080BD80B56F468AB00290C1
:101FF00009904EF21000CEF2000001900390049080
:10200000059000F022FB00F0ECFB014601980690E1
:102010000791089000F07EFB0AB080BD80B56F4646
:1020200094B0039007F83D1C059017F83D0CC007CD
:10203000B0B9FFE7039813904EF21000CEF2000003
:10204000029007900890099000F0FFFA00F000F964
:10205000014602980C900D910E9000F05BFB15E08C
:10206000039812904EF21000CEF2000001900690FC
:102070000A900B9000F0E9FA00F0F0F801460198A0
:102080000F901091119000F045FBFFE714B080BD58
:1020900080B56F4600F0C4F880BD80B56F4600F093
:1020A000BFF880BD80B56F4600F0BAF880BD80B53E
:1020B0006F4600F0B5F880BD80B56F4600F0B0F80F
:1020C00080BD80B56F4600F0ABF880BD80B56F462F
:1020D00000F0A6F880BD80B56F4600F0A1F880BD85
:1020E00080B56F4600F09CF880BD80B56F4600F06B
:1020F00097F880BD80B56F4600F092F880BD80B53E
:102100006F4600F08DF880BD80B56F4600F088F80E
:1021100080BD80B56F4600F088F880BD80B56F4601
:1021200000F07EF880BD80B56F4600F079F880BD84
:1021300080B56F4600F074F880BD80B56F4600F042
:102140006FF880BD80B56F4600F06AF880BD80B53D
:102150006F4600F06AF880BD80B56F4600F060F809
:1021600080BD80B56F4600F05BF880BD80B56F46DE
:1021700000F056F880BD80B56F4600F051F880BD84
:1021800080B56F4600F04CF880BD80B56F4600F01A
:1021900047F880BD80B56F4600F042F880BD80B53D
:1021A0006F4600F03DF880BD80B56F4600F038F80E
:1021B00080BD80B56F4600F033F880BD80B56F46B6
:1021C00000F02EF880BD80B56F4600F029F880BD84
:1021D00081B0FFE741F60000C4F201000090FFE784
:1021E000009801B0704781B0FFE740F60040C4F2AC
:1021F00001000090FFE7009801B0704780B56F467E
:1022000082B00190FFF758FE02B080BD80B56F46E6
:1022100084B0029000F083F900F07DF904B080BD35
:1022200080B56F4600F013F880BD704782B0009013
:10223000019102680B6800209A4288BF0120411E6C
:102240009A4238BF084602B07047704770477047DF
:1022500082B0019040F0040002B0704782B001905B
:1022600020F0040002B0704780B56F4682B0009045
:1022700007F8011C002200F018F802B080BD80B5FC
:102280006F4682B0009007F8011C012200F00DF8A3
:1022900002B080BD80B56F4682B0009007F8011C87
:1022A000012200F085F802B080BD80B56F468EB087
:1022B000134606930B460793099007F80E1C07F880
:1022C0000D2C089043F20C00C0F6000008A9FFF79F
:1022D0002EFD58B9FFE743F21800C0F6000043F2A4
:1022E000C002C0F60002492100F0BFFA0798C0B250
:1022F00020280BD3FFE743F2D000C0F6000043F2E2
:10230000EC02C0F600021A2100F0AFFA0798C0B242
:10231000014604910B90089800F140410591B0F1FD
:10232000804F06D3FFE705984101C00E039170B9B5
:1023300005E043F2FC00C0F6000000F0D2FA039979
:1023400001F184400246029288420CD305E043F238
:10235000FC00C0F6000000F0D7FA04988100800F5E
:10236000019170B905E043F20C10C0F6000000F0D6
:10237000A5FA02990198084402460092884211D3B6
:1023800005E043F21C10C0F6000000F0BDFA009812
:1023900006990C9001F0010107F8011C00F0BAF950
:1023A0000EB080BD43F20C10C0F6000000F086FABB
:1023B00080B56F468EB0134606930B46079309907F
:1023C00007F80E1C07F80D2C089043F20C00C0F61D
:1023D000000008A9FFF7ABFC58B9FFE743F218006B
:1023E000C0F6000043F2C002C0F60002492100F02E
:1023F0003CFA0798C0B220280BD3FFE743F2D00085
:10240000C0F6000043F2EC02C0F600021A2100F010
:102410002CFA0798C0B2014604910B90089800F17D
:1024200040410591B0F1804F06D3FFE70598410187
:10243000C00E039170B905E043F2FC00C0F6000045
:1024400000F04FFA039901F184400246029288425B
:102450000CD305E043F2FC00C0F6000000F054FA93
:1024600004988100800F019170B905E043F20C10CF
:10247000C0F6000000F022FA0299019808440246D2
:102480000092884211D305E043F21C10C0F6000010
:1024900000F03AFA009806990C9001F0010107F853
:1024A000011C00F037F90EB080BD43F20C10C0F6ED
:1024B000000000F003FA81B001B07047B0B502AF80
:1024C00099B000210C910E911091129114911691D6
:1024D0000C9A0D99009201910E9A0F990292039114
:1024E000109A119904920591129A139906920791E4
:1024F000149A159908920991169A17990A920B91B4
:102500006946B1E83C50A0E83C5091E83C5080E876
:102510003C5019B0B0BD81B0009001B0704780B59B
:102520006F4684B000900290012007F8090C17F85C
:10253000090C00F00101A7F10A00FFF76FFD0098F8
:10254000FEF704FD0821FFF7E7FC04B080BD80B56D
:102550006F4686B041F20000C4F202000090039082
:102560000490FEF74AFA03210191FFF793FE0098C9
:102570000590FEF747FA0199FFF781FE0098FEF7F4
:1025800041FA0199FFF770FEFFF782FDFFF79EFD0C
:10259000FFF7A6FDFFF7BDFDFFF7D9FDFFF782FDB1
:1025A000FFF799FDFFF7E7FDFFF777FDFFF7C0FDA8
:1025B000FFF7A5FDFFF7E9FDFFF797FDFFF79AFD90
:1025C000FFF7E8FDFFF7EBFD06B080BD80B56F4675
:1025D00086B041F20000C4F2020000900390049023
:1025E000FEF70BFA06210191FFF754FE00980590C3
:1025F000FEF708FA0199FFF742FE0098FEF702FA8B
:102600000199FFF731FEFFF7D9FDFFF7CDFDFFF789
:1026100094FDFFF7CEFDFFF7B3FDFFF7A7FDFFF732
:1026200046FDFFF799FDFFF77EFDFFF76DFDFFF714
:1026300075FDFFF746FDFFF785FDFFF73DFDFFF751
:10264000C2FDFFF78EFD06B080BD80B56F4684B039
:1026500001900290FFE70198042100F007F8FFE7DE
:10266000019800680390039804B080BD80B56F4660
:102670008EB0019109900A9143F25811C0F6000101
:102680000B910C900146029108B9FFE719E00198FF
:102690004FF0553101EA5001401A4FF0333101EA51
:1026A000900120F0CC30084400EB101020F0F03006
:1026B0004FF001314843000E0D900D98012807D0CE
:1026C0000CE043F2E410C0F600006E2100F0E0F8E8
:1026D00002980199013908421AD0F2E743F25810E2
:1026E000C0F6000003900120049042F69870C0F6F6
:1026F00000000168406807910890042005900020C0
:10270000069043F2D411C0F6000103A800F08EF841
:102710000EB080BD80B56F4684B0009101900290EC
:102720000391FFE70198042100F006F8FFE7009805
:102730000199086004B080BD80B56F468EB00091ED
:102740000890099143F25811C0F600010A910B90CC
:102750000C900146019108B9FFE719E000984FF08D
:10276000553101EA5001401A4FF0333101EA90012E
:1027700020F0CC30084400EB101020F0F0304FF087
:1027800001314843000E0D900D98012807D00CE050
:1027900043F25220C0F600006F2100F079F8019852
:1027A0000099013908421AD0F2E743F25810C0F6F6
:1027B000000002900120039042F69870C0F60000DD
:1027C000016840680691079004200490002005905D
:1027D00043F2D411C0F6000102A800F027F80EB0B1
:1027E00080BD82B0019020F0010002B0704782B03D
:1027F000019040F0010002B0704772B6704762B6B7
:102800007047EFF310807047704781B00090FFE78A
:10281000FEE7FFE7FEE7704780B56F46024643F2EA
:102820006C30C0F600002B2100F01FF880B56F4619
:1028300084B0CDE9010101A80122ADF80C20FFF719
:10284000E4FF80B56F468AB00DF1040C90E8704348
:102850000020634683E870438DF8240007A88DF8B4
:102860002510CDE907C2FFF7D0FF80B56F4688B0CD
:1028700094460122019206AA0023CDE906010092A6
:10288000042268466146049303930292FFF7CEFF49
:1028900080B56F4688B00022CDE90601049201237D
:1028A00003920422029243F2AC326846C0F6000260
:1028B0000021019306AB0093FFF7C3FF80B56F467D
:1028C00086B00146002001220490019243F2E022EA
:1028D00003900420C0F60002029068460092FFF7C1
:1028E000A5FF80B56F4686B0014600200122049006
:1028F000019243F20C3203900420C0F600020290D1
:1029000068460092FFF792FF80B56F4686B0014699
:10291000002001220490019243F2383203900420F7
:10292000C0F60002029068460092FFF77FFF80B574
:102930006F4686B00146002001220490019243F2C6
:10294000643203900420C0F60002029068460092B0
:10295000FFF76CFF80B56F4686B00146002001226C
:102960000490019243F2D83203900420C0F6000292
:10297000029068460092FFF759FFFFE7FEE7D4D4C4
:102980007372632F6D61696E2E7273008029000867
:102990000B0000000B000000270000008029000849
:1029A0000B0000000D0000002C000000002F686FDD
:1029B0006D652F636C2F2E636172676F2F72656771
:1029C00069737472792F7372632F696E6465782EE0
:1029D0006372617465732E696F2D366631376432A8
:1029E000326262613135303031662F73746D33324B
:1029F000663178782D68616C2D302E31302E302F75
:102A00007372632F6770696F2E727300AD290008AF
:102A10005E000000130400003A000000AD29000829
:102A20005E0000001304000035000000AD2900081E
:102A30005E0000002802000041000000AD290008EF
:102A40005E000000280200003C0000002F686F6D4F
:102A5000652F636C2F2E636172676F2F72656769D4
:102A6000737472792F7372632F696E6465782E6345
:102A700072617465732E696F2D3666313764323238
:102A80006262613135303031662F66756769742D49
:102A9000302E332E372F7372632F64757261746911
:102AA0006F6E2E72730000004C2A0008590000005F
:102AB0006F020000010000002F686F6D652F636CCE
:102AC0002F2E636172676F2F7265676973747279F5
:102AD0002F7372632F696E6465782E6372617465FB
:102AE000732E696F2D36663137643232626261311E
:102AF00035303031662F73746D333266312D302EA0
:102B000031352E312F7372632F67656E657269637D
:102B10002E727300B82A00085B0000005502000006
:102B2000010000002F686F6D652F636C2F2E6361AD
:102B300072676F2F72656769737472792F7372632E
:102B40002F696E6465782E6372617465732E696F88
:102B50002D36663137643232626261313530303160
:102B6000662F73746D3332663178782D68616C2D01
:102B7000302E31302E302F7372632F7263632E72BA
:102B800073000000242B00085D0000002B020000F1
:102B90000D000000242B00085D0000004102000031
:102BA00013000000242B00085D000000410200001B
:102BB00026000000242B00085D00000045020000F4
:102BC00013000000242B00085D00000057020000E5
:102BD0001C000000242B00085D00000057020000CC
:102BE00016000000242B00085D00000057020000C2
:102BF0000D000000242B00085D00000055020000BD
:102C00001C000000242B00085D000000550200009D
:102C100016000000242B00085D0000005502000093
:102C20000D000000242B00085D0000006102000080
:102C300021000000242B00085D000000610200005C
:102C400020000000242B00085D0000006A02000044
:102C500013000000242B00085D0000007502000036
:102C60001A000000242B00085D000000750200001F
:102C700015000000242B00085D0000007602000013
:102C800015000000242B00085D00000080020000F9
:102C900013000000242B00085D0000009F020000CC
:102CA00019000000242B00085D0000009F020000B6
:102CB0000D000000242B00085D000000A9020000A8
:102CC0001C000000242B00085D000000A902000089
:102CD00016000000242B00085D000000A90200007F
:102CE0000D000000242B00085D000000A70200007A
:102CF0001C000000242B00085D000000A70200005B
:102D000016000000242B00085D000000A702000050
:102D10000D000000242B00085D000000AC02000044
:102D20001A000000242B00085D000000AC02000027
:102D300015000000242B00085D000000AD0200001B
:102D400015000000242B00085D000000AF02000009
:102D50001A000000242B00085D000000AF020000F4
:102D600015000000242B00085D000000B0020000E8
:102D700015000000242B00085D000000B2020000D6
:102D800014000000242B00085D000000B3020000C6
:102D900016000000617373657274696F6E2066615E
:102DA000696C65643A20737973636C6B203C3D20D9
:102DB00037325F3030305F30303020262620686375
:102DC0006C6B203C3D2037325F3030305F3030302C
:102DD0002026262070636C6B31203C3D2033365F0B
:102DE0003030305F3030302026260A20202020204E
:102DF00020202070636C6B32203C3D2037325F30E6
:102E000030305F30303020262620616463636C6B85
:102E1000203C3D2031345F3030305F3030300000B6
:102E2000242B00085D000000BD0200000900000026
:102E30002F686F6D652F636C2F2E636172676F2F24
:102E400072656769737472792F7372632F696E6428
:102E500065782E6372617465732E696F2D366631E5
:102E6000376432326262613135303031662F7374CB
:102E70006D3332663178782D68616C2D302E3130AB
:102E80002E302F7372632F74696D65722F64656CB9
:102E900061792E7273000000302E0008650000007A
:102EA0002A0000001D000000302E00086500000010
:102EB000340000000D0000002F686F6D652F636CFB
:102EC0002F2E636172676F2F7265676973747279F1
:102ED0002F7372632F696E6465782E6372617465F7
:102EE000732E696F2D36663137643232626261311A
:102EF00035303031662F73746D3332663178782D0A
:102F000068616C2D302E31302E302F7372632F7428
:102F1000696D65722F68616C5F30322E72730000CC
:102F2000B82E0008660000001A000000170000001C
:102F30002F686F6D652F636C2F2E636172676F2F23
:102F400072656769737472792F7372632F696E6427
:102F500065782E6372617465732E696F2D366631E4
:102F6000376432326262613135303031662F6675D6
:102F70006769742D302E332E372F7372632F726171
:102F800074652E7273000000302F00085500000099
:102F90004B020000010000000000000000000000E3
:102FA0002F686F6D652F636C2F2E636172676F2FB3
:102FB00072656769737472792F7372632F696E64B7
:102FC00065782E6372617465732E696F2D36663174
:102FD000376432326262613135303031662F667566
:102FE0006769742D302E332E372F7372632F6475FB
:102FF000726174696F6E2E7273000000A02F00085A
:10300000590000006F0200000100000000000040B5
:10301000FFFF0F4000000000617373657274696FF9
:103020006E206661696C65643A2028504552495F9C
:10303000414444524553535F53544152542E2E3D04
:10304000504552495F414444524553535F454E44B5
:10305000292E636F6E7461696E73282661646472D1
:10306000292F686F6D652F636C2F2E636172676FF8
:103070002F72656769737472792F7372632F696E2B
:103080006465782E6372617465732E696F2D366680
:1030900031376432326262613135303031662F73DC
:1030A000746D3332663178782D68616C2D302E3135
:1030B000302E302F7372632F62622E727300000005
:1030C000613000085C0000002D00000005000000D9
:1030D000617373657274696F6E206661696C656493
:1030E0003A20626974203C203332000061300008CD
:1030F0005C0000002E0000000500000061300008A8
:103100005C00000031000000290000006130000870
:103110005C00000031000000130000006130000876
:103120005C000000310000004D00000069735F6129
:103130006C69676E65645F746F3A20616C69676E75
:10314000206973206E6F74206120706F7765722D17
:103150006F662D74776F00002C3100082A00000084
:103160002F686F6D652F636C2F2E72757374757079
:103170002F746F6F6C636861696E732F7374616213
:103180006C652D7838365F36342D756E6B6E6F77C3
:103190006E2D6C696E75782D676E752F6C69622F58
:1031A000727573746C69622F7372632F72757374A6
:1031B0002F6C6962726172792F636F72652F7372FF
:1031C000632F7074722F636F6E73745F7074722EDE
:1031D00072730000603100087200000043060000B6
:1031E0000D000000756E7361666520707265636F17
:1031F0006E646974696F6E2873292076696F6C61DB
:103200007465643A207074723A3A726561645F76EC
:103210006F6C6174696C6520726571756972657334
:1032200020746861742074686520706F696E7465BD
:103230007220617267756D656E7420697320616CB0
:1032400069676E656420616E64206E6F6E2D6E75A9
:103250006C6C756E7361666520707265636F6E6409
:103260006974696F6E2873292076696F6C61746563
:10327000643A207074723A3A77726974655F766F57
:103280006C6174696C652072657175697265732013
:10329000746861742074686520706F696E746572FB
:1032A00020617267756D656E7420697320616C6949
:1032B000676E656420616E64206E6F6E2D6E756C36
:1032C0006C617474656D707420746F206164642027
:1032D00077697468206F766572666C6F770000009E
:1032E000C13200081C000000617474656D707420A8
:1032F000746F207375627472616374207769746887
:10330000206F766572666C6F77000000E832000807
:1033100021000000617474656D707420746F206DFD
:10332000756C7469706C792077697468206F766544
:1033300072666C6F770000001433000821000000F3
:10334000617474656D707420746F2073686966743D
:10335000206C6566742077697468206F7665726684
:103360006C6F7700403300082300000063616C6CD1
:10337000656420604F7074696F6E3A3A756E77724B
:103380006170282960206F6E206120604E6F6E652D
:10339000602076616C7565636F72652F7372632F41
:1033A00070616E69636B696E672E72739733000884
:1033B00015000000DD000000050000006174746568
:1033C0006D707420746F2064697669646520627919
:1033D000207A65726F000000BC33000819000000FD
:0400000508000131BD
:00000001FF
