:020000040800F2
:1000000000000120310100084B620008F57700086C
:100010004B6200084B6200084B62000800000000C1
:100020000000000000000000000000004B6200081B
:100030004B620008000000004B62000895030008B6
:100040004B6200084B6200084B6200084B620008DC
:100050004B6200084B6200084B6200084B620008CC
:100060004B6200084B620008A90300084B620008BD
:100070004B6200084B6200084B6200084B620008AC
:100080004B6200084B6200084B6200084B6200089C
:100090004B6200084B6200084B6200084B6200088C
:1000A0004B6200084B6200084B6200084B6200087C
:1000B0004B6200084B6200084B6200084B6200086C
:1000C0004B6200084B6200084B6200084B6200085C
:1000D0004B6200084B6200084B6200084B6200084C
:1000E0004B6200084B620008000000004B620008F1
:1000F0004B6200084B6200084B6200084B6200082C
:100100004B6200084B6200084B6200084B6200081B
:100110004B6200084B6200084B6200084B6200080B
:100120004B6200084B6200084B6200084B620008FB
:1001300006F08DF8084809490022814201D004C028
:10014000FBE707480749084A814202D008CA08C0AD
:10015000FAE700F00BF800DE200000203400002059
:1001600000000020200000203C8B000880B56F4676
:1001700000F000F880B56F46FAB000F072F907F8A9
:10018000010C17F8010CC00730B9FFE747F604006F
:10019000C0F6000006F0F1F801F0FBFE07F8020CD3
:1001A00017F8020CC00730B9FFE747F61400C0F695
:1001B000000006F0E2F812A8029005F025FE029970
:1001C0003CA80390B1E83C50A0E83C5091E83C507A
:1001D00080E83C50082002F059F8769076A805F0A7
:1001E000F6FA03997890012005907790779A78989D
:1001F0003C923D9030A80490B1E83C50A0E83C50BF
:1002000091E83C5080E83C50482002F03FF8739061
:1002100073A805F0DCFA049902460598759274906B
:10022000749A75983892399024A80690B1E83C5099
:10023000A0E83C5091E83C5080E83C5005F0E1FDDE
:100240000699A7F1C50007906E906AA804F0AEFA6F
:10025000079A6A986B996C9BDDF8B4C1CDF8C8C158
:10026000719370916F901EA80F906FA903F0F0FF2B
:1002700005F022FE05F05FFE05F09CFE49A80890FF
:1002800000F00FFD089800F0F1FC05F050FC07F8B5
:10029000C10CA7F1C1000B9063904CA8099005F028
:1002A000EDFD4FF4E13005F00AFC099902464AA839
:1002B0000A9005F0D6FD0A990B980F9A02F025FADC
:1002C00002F0AFFA0F9A64A9084692E8785080E8E5
:1002D00078504EA80E9002F0D5FDA7F1C30000F0B3
:1002E000D1FCA7F1C20000F0B5FC0B99A7F1920078
:1002F0000C9001F05AF80C98022107F8911C17F89D
:10030000912C0DF147010D9100F02AFE0C980D99EA
:1003100000F0FFFF0E9A56A80146B2E80850A1E887
:10032000085092E8185081E8185000F058F9002061
:1003300007F8710C17F8710C00F00101A7F17200B9
:1003400001F07AFE0F9804F022FA5E905EA805F0A4
:100350003EFA3221A0FB01101091A0B9FFE71099DD
:10036000A7F17200019001F020FE019801F030FE2B
:10037000019801F047FE0A2027F86A0C37F86A0C4A
:1003800001F0C0FF05E047F62400C0F6000006F0CB
:1003900070FEFEE780B56F4600F001F880BD80B5C5
:1003A0006F4600F092F980BD80B56F4600F001F80D
:1003B00080BD80B56F4688B000F02CF940F2004057
:1003C000C4F20100019040F21440C4F20100009018
:1003D000039000200490029002A801F0B8FC0146AE
:1003E0000098096805900691079005F08CFE08B00A
:1003F00080BD84B000900191007800F0010002906F
:10040000097801F001010391401AB0FA80F0400927
:1004100004B0704780B56F4682B005F029FF0190A7
:1004200000F00100012804D0FFE7002007F8050CC8
:1004300003E0012007F8050CFFE717F8050C00F0B2
:10044000010002B080BD80B56F4682B007F8010C94
:1004500047F63401C0F60001781EFFF7CAFF02B06C
:1004600080BD80B56F4600F0EEF880BD40F23101EE
:10047000C2F2000101200870704780B56F4682B05B
:100480000190043000F014F802B080BD80B56F46D2
:1004900082B00190043000F00BF802B080BD80B54E
:1004A0006F4682B00190043000F002F802B080BDC7
:1004B00080B56F4682B0019000F002F802B080BDB6
:1004C00089B001460091086801900290006803908D
:1004D0000968049101300590069107910A68089215
:1004E000086009B0704780B56F4694B001930292DE
:1004F00003910C900D910E920F9347F66001C0F698
:1005000000011091119012900146049108B9FFE783
:1005100019E002984FF0553101EA5001401A4FF0AE
:10052000333101EA900120F0CC30084400EB101088
:1005300020F0F0304FF001314843000E1390139833
:10054000012801D006E026E004980299013908420A
:100550001AD0F8E747F66000C0F6000005900120C9
:10056000069047F69010C0F60000016840680991B7
:100570000A90042007900020089047F60C21C0F64E
:10058000000105A805F003FF0398B0FA80F14909BE
:10059000009138B10AE047F6E800C0F60000A62155
:1005A00005F027FF4FF0FF300B9003E00098C007E5
:1005B00060B904E001980B9988420ED90CE00399C8
:1005C0006FF00040B0FBF1F00B90F3E747F6D80076
:1005D000C0F6000006F086FDDDE714B080BD80B5F2
:1005E0006F4684B00190FFF715FF029007F8010CE9
:1005F00001F0BEFD05F055FE0198F91E01F0DAF993
:100600000298FFF720FF10B9FFE704B080BD01F0AA
:10061000AAFDFAE780B56F4682B0FFF7FBFE0090B7
:1006200007F8010C01F0A4FD05F03BFE01A801F064
:1006300000FB0098FFF707FF10B9FFE702B080BD8D
:1006400001F091FDFAE780B56F4684B0FFF7E2FE56
:10065000019007F8020C01F08BFD05F022FE03A8C3
:1006600001F05AFD014601980A46029207F8011C62
:10067000FFF7E9FE28B9FFE7029800F0010004B097
:1006800080BD01F070FDF7E780B56F4684B0FFF7DD
:10069000C1FE019007F8020C01F06AFD05F001FEB1
:1006A00003A801F013FE014601980A46029207F8DA
:1006B000011CFFF7C8FE28B9FFE7029800F001000F
:1006C00004B080BD01F04FFDF7E780B56F4682B002
:1006D000FFF7A0FE009007F8010C01F049FD05F0BE
:1006E000E0FD01A801F0E0F90098FFF7ACFE10B9B9
:1006F000FFE702B080BD01F036FDFAE780B56F4636
:10070000AAB0059106900A900B9105F0CDF901462B
:1007100007910C90022007F8850C17F8850C022829
:1007200008D0FFE717F8850C00F0010007F8710CFE
:10073000E0BB28E005980699032209920E910F90DC
:1007400009A80390109005F0AFF903990490119057
:10075000209021912590269005F070FC0146039889
:10076000229123911E9124911F911EA91FAA00F08E
:1007700079FB01460498096827902891299005F093
:10078000C2FC2AB080BD0798103002901390002060
:100790001490129012A800F01DFA01460298096800
:1007A00015901691179005F0AEFCC3E7079810302E
:1007B0000190199000201A90189018A800F03FFAA4
:1007C0000146019809681B901C911D9005F09BFC47
:1007D000B0E780B56F46AAB0059106900A900B91DC
:1007E00005F057F9014607910C90022007F8850C97
:1007F00017F8850C022808D0FFE717F8850C00F0E1
:10080000010007F8710CE8BB29E00598069904225D
:1008100009920E910F9009A80390109005F039F9F4
:1008200003991190043004902090219125902690F6
:1008300005F004FC01460398229123911E91249116
:100840001F911EA91FAA00F039FB014604980968F0
:1008500027902891299005F056FC2AB080BD079872
:1008600010300290199000201A90189018A800F0EB
:10087000F3F80146029809681B901C911D9005F041
:1008800042FCC2E7079810300190139000201490AA
:10089000129012A800F009F9014601980968159014
:1008A0001691179005F02FFCAFE780B56F46AAB000
:1008B000059106900A900B9105F0E0F8014607912A
:1008C0000C90012007F8850C17F8850C022808D039
:1008D000FFE717F8850C00F0010007F8710CE0BB8A
:1008E00028E005980699082209920E910F9009A810
:1008F0000390109005F0C2F8039904901190209095
:1009000021912590269005F099FB014603982291AC
:1009100023911E9124911F911EA91FAA00F08CFA09
:1009200001460498096827902891299005F0EBFB6F
:100930002AB080BD079810300290199000201A90BC
:10094000189018A800F0FCF80146029809681B905E
:100950001C911D9005F0D7FBC3E70798103001905C
:10096000139000201490129012A800F0DEF80146B7
:100970000198096815901691179005F0C4FBB0E72F
:1009800080B56F46AAB0059106900A900B9105F0CC
:1009900080F8014607910C90022007F8850C17F8A3
:1009A000850C022808D0FFE717F8850C00F001003D
:1009B00007F8710CE8BB29E0059806990B2209920B
:1009C0000E910F9009A80390109005F062F803991A
:1009D000119004300490209021912590269005F0EC
:1009E0002DFB01460398229123911E9124911F9182
:1009F0001EA91FAA00F04CFA014604980968279026
:100A00002891299005F07FFB2AB080BD079810300F
:100A10000290199000201A90189018A800F05CF825
:100A20000146029809681B901C911D9005F06BFB14
:100A3000C2E7079810300190139000201490129094
:100A400012A800F0F0F80146019809681590169177
:100A5000179005F058FBAFE780B56F468AB001905C
:100A600004901A200290002028B9FFE70298C0B233
:100A7000202806D313E047F67C20C0F6000006F0DD
:100A8000D2FA0198029901F01F02012191400590CC
:100A9000069107900891016009900AB080BD47F661
:100AA0008C20C0F6000006F00AFB87B0019002908F
:100AB0004FF480610391049005910160069007B0A6
:100AC000704782B00090019121F47020009909686C
:100AD00040EA014002B0704780B56F468AB001908D
:100AE000049019200290002028B9FFE70298C0B2B4
:100AF000202806D313E047F67C20C0F6000006F05D
:100B000092FA0198029901F01F020121914005908B
:100B1000069107900891016009900AB080BD47F6E0
:100B20008C20C0F6000006F0CAFA87B0019002904F
:100B300010210391049005910160069007B0704761
:100B400080B56F468AB00190049014200290002076
:100B500028B9FFE70298C0B2202806D313E047F671
:100B60007C20C0F6000006F05EFA0198029901F0C0
:100B70001F020121914005900691079008910160A4
:100B800009900AB080BD47F68C20C0F6000006F040
:100B900096FA82B00090019121F0F0000099096866
:100BA00040EA011002B0704782B00090019121F438
:100BB00070600099096840EA012002B0704782B075
:100BC0000090019121F470000099096840EA0150F9
:100BD00002B0704780B56F468AB00190049015202E
:100BE0000290002028B9FFE70298C0B2202806D35F
:100BF00013E047F67C20C0F6000006F014FA0198D6
:100C0000029901F01F020121914005900691079081
:100C10000891016009900AB080BD47F68C20C0F6AB
:100C2000000006F04CFA87B0019002904FF400717A
:100C30000391049005910160069007B0704787B05A
:100C4000019002902021039104900591016006908B
:100C500007B0704780B56F4682B001460191781F9A
:100C6000FFF723FE00F076F802B080BD80B56F4636
:100C700082B001460191781FFFF7ABFD04F0D1FE71
:100C800002B080BD80B56F4682B00190012107F8A7
:100C9000061C17F8061C01F0010100F00EF802B066
:100CA00080BD80B56F4682B001460191781FFFF785
:100CB00067FE00F04AF802B080BD80B56F4696B07E
:100CC0000390059007F83E1C07F83D1CA7F145006E
:100CD000079017F83D0CC007B8B9FFE7A7F145002A
:100CE000099004F0E1FE103002900B9000200C906F
:100CF0000A900AA800F095F80146029809680D903C
:100D00000E910F9005F0FFF916E0A7F1450008904D
:100D100004F0CAFE10300190119000201290109043
:100D200010A800F04AF80146019809681390149140
:100D3000159005F0E8F9FFE70399A7F14500FFF7E3
:100D4000DDFC00F00CF816B080BD80B56F4600F0F9
:100D500017FD80BD80B56F4600F008FD80BD80B5F1
:100D60006F4600F008FD80BD80B56F468AB00190E7
:100D7000049015200290002028B9FFE70298C0B225
:100D8000202806D313E047F69C20C0F6000006F0AA
:100D90004AF90198029901F01F0201219140059042
:100DA000069107900891016009900AB080BD47F64E
:100DB000AC20C0F6000006F082F980B56F468AB01C
:100DC0000190049015200290002028B9FFE70298B6
:100DD000C0B2202806D313E047F69C20C0F60000DE
:100DE00006F021F90198029901F01F0201219140BA
:100DF0000590069107900891016009900AB080BDA6
:100E000047F6AC20C0F6000006F059F987B0019013
:100E1000029020210391049005910160069007B093
:100E2000704787B0019002902021039104900591B2
:100E30000160069007B0704780B56F468CB0019294
:100E4000029003910492059106910968FFF739FE1B
:100E5000014601980790089109900A9101600B9052
:100E60000CB080BD80B56F468CB0019202900391AA
:100E70000492059106910968FFF7A1FE01460198C9
:100E80000790089109900A9101600B900CB080BD09
:100E900080B56F468CB00192029003910492059147
:100EA00006910968FFF775FE0146019807900891C1
:100EB00009900A9101600B900CB080BD80B56F461F
:100EC0008CB00192029003910492059106910968F9
:100ED000FFF76AFE014601980790089109900A9170
:100EE00001600B900CB080BD80B56F468AB0029057
:100EF000039004F0D9FD1030019005900020069079
:100F0000049004A8FFF730FF014601980968079094
:100F10000891099005F0F7F80AB080BD80B56F46DA
:100F20008AB00290039004F0BFFD1030019005904C
:100F300000200690049004A8FFF768FF014601987E
:100F4000096807900891099005F0DDF80AB080BDA6
:100F500080B56F4682B0019000F017FC02B080BDF2
:100F600080B56F46DEB00A918DF832200D900E915B
:100F70005D9004208DF833009DF8320001460B91FE
:100F800030B1FFE70B98012847D0FFE78AE0FEDE8B
:100F90000A98149040F20840C4F201000790539060
:100FA0000DF13301089154915890599005F046F88D
:100FB000014608985591569151915791529151A9D6
:100FC00052AA00F02EF90146079809685A905B91E1
:100FD0005C9005F098F80A980899139040F20C403C
:100FE000C4F201000990179018911C901D9005F013
:100FF00025F80146089819911A9115911B9116919F
:1010000015A916AA00F095F80146099809681E90DE
:101010001F91209005F077F889E00A98129040F22D
:101020000C40C4F2010004903B900DF13301059196
:101030003C914090419005F001F8014605983D91A2
:101040003E9139913F913A9139A93AAA00F099F825
:1010500001460498096842904391449005F053F882
:101060000A980599119040F20840C4F201000690D8
:10107000479048914C904D9004F0E0FF0146059850
:1010800049914A9145914B91469145A946AA00F054
:10109000A0F80146069809684E904F91509005F0CF
:1010A00032F844E00A98109040F20840C4F201007F
:1010B00001902F900DF133010291309134903590D1
:1010C00004F0BCFF01460298319132912D91339189
:1010D0002E912DA92EAA00F0F4F801460198096876
:1010E00036903791389005F00EF80A9802990F90D3
:1010F00040F20C40C4F20100039023902491289008
:10110000299004F09BFF0146029825912691219198
:101110002791229121A922AA00F0ABF80146039859
:1011200009682A902B912C9004F0EDFFFFE75EB048
:1011300080BD80B56F468EB00192049005910692F5
:10114000079108910868029004980078014603917D
:101150001F2810D8FFE701980299039A02F01F0395
:1011600001229A40914309900A910B900C910160E1
:101170000D900EB080BD47F6E420C0F6000005F0EB
:101180009EFF80B56F468EB0019204900591069245
:10119000079108910868029004980078014603912D
:1011A0001F2810D8FFE701980299039A02F01F0345
:1011B00001229A40114309900A910B900C91016011
:1011C0000D900EB080BD47F6F420C0F6000005F08B
:1011D00076FF80B56F468EB001920490059106921D
:1011E00007910891086802900498007801460391DD
:1011F0001F2810D8FFE701980299039A02F01F03F5
:1012000001229A40914309900A910B900C91016040
:101210000D900EB080BD47F60430C0F6000005F01A
:101220004EFF80B56F468EB00192049005910692F4
:10123000079108910868029004980078014603918C
:101240001F2810D8FFE701980299039A02F01F03A4
:1012500001229A40114309900A910B900C91016070
:101260000D900EB080BD47F61430C0F6000005F0BA
:1012700026FF80B56F468EB00192049005910692CC
:10128000079108910868029004980078014603913C
:101290001F2810D8FFE701980299039A02F01F0354
:1012A00001229A40114309900A910B900C91016020
:1012B0000D900EB080BD47F62430C0F6000005F05A
:1012C000FEFE80B56F468EB00192049005910692A5
:1012D00007910891086802900498007801460391EC
:1012E0001F2810D8FFE701980299039A02F01F0304
:1012F00001229A40114309900A910B900C910160D0
:101300000D900EB080BD47F63430C0F6000005F0F9
:10131000D6FE80B56F4692B00091014600980191CB
:1013200003910490059040F20040C4F20100029045
:10133000089009910D900E9004F080FE01460198EE
:101340000A910B9106910C91079106A907AA00F04A
:101350000AF80146029809680F901091119004F064
:10136000D2FE12B080BD80B56F468EB00192039060
:1013700004910592069108910868029003980D90D7
:10138000002060B9FFE70198029941F0100109902F
:101390000A910B900C91016007900EB080BD47F64A
:1013A0004430C0F6000005F08AFE80B56F46CAB032
:1013B0000D9101460D98119112904891042007F863
:1013C000D90C49910F90002001460E9130B9FFE7EA
:1013D0000E9807F8E50C012048B905E047F65430AF
:1013E000C0F6000005F045FE012068BB29E00120A1
:1013F0000028F9D1FFE70D98013004F0BFFB0C90F5
:101400003D90A7F1E5010B913E910FA90A913F9103
:101410004390449004F012FE0A9902460B984092C1
:1014200041923B9242923C923BAA3CAB00F01CF9A9
:1014300001460C98096845904691479004F063FE78
:101440008EE0002068BB29E000200028F9D1FFE7EA
:101450000D98013004F099FB09901690A7F1E50171
:10146000089117910FA9079118911C901D9004F0F5
:10147000E5FD07990246089819921A9214921B9258
:10148000159214AA15AB00F06DF801460998096889
:101490001E901F91209004F036FE61E00020A8BB52
:1014A00029E000200028F9D1FFE70D98013004F071
:1014B00073FB06902390A7F1E501059124910FA9F4
:1014C0000491259129902A9004F0B8FD04990246D0
:1014D00005982692279221922892229221AA22AB45
:1014E00000F081F80146069809682B902C912D9008
:1014F00004F009FE34E047F6BC20C0F6000047F6D1
:101500006432C0F60002282104F060FF00200028A9
:10151000F1D1FFE70D98013004F045FB03903090C6
:10152000A7F1E501029131910FA901913291369015
:10153000379004F083FD0199024602983392349269
:101540002E9235922F922EAA2FAB00F0CEF80146A4
:1015500003980968389039913A9004F0D4FDFFE778
:101560004AB080BD80B56F4692B004930790089151
:1015700009920A9310920B921068059007980078D0
:10158000014606911F2812D8FFE70598069901F039
:101590001F020F219140884301900798089909681C
:1015A0000291007801460391202806D315E047F602
:1015B0007430C0F6000005F082FD04980199029A8B
:1015C000039B03F01F039A4011430C900D910E9062
:1015D0000F910160119012B080BD47F68430C0F6C3
:1015E000000005F06CFD80B56F4692B00493079043
:1015F000089109920A9310920B921068059007982F
:101600000078014606911F2812D8FFE70598069931
:1016100001F01F020F21914088430190079808991B
:1016200009680291007801460391202806D315E04D
:1016300047F69430C0F6000005F041FD049801998A
:10164000029A039B03F01F039A4011430C900D91E3
:101650000E900F910160119012B080BD47F6A4303A
:10166000C0F6000005F02BFD80B56F4692B00493E4
:101670000790089109920A9310920B9210680590B6
:1016800007980078014606911F2812D8FFE70598B1
:10169000069901F01F020F2191408843019007989D
:1016A000089909680291007801460391202806D321
:1016B00015E047F6B430C0F6000005F000FD0498D0
:1016C0000199029A039B03F01F039A4011430C9067
:1016D0000D910E900F910160119012B080BD47F6F0
:1016E000C430C0F6000005F0EAFC80B56F4692B049
:1016F00004930790089109920A9310920B92106834
:10170000059007980078014606911F2812D8FFE738
:101710000598069901F01F020F219140884301901E
:1017200007980899096802910078014603912028DA
:1017300006D315E047F6D430C0F6000005F0BFFC34
:1017400004980199029A039B03F01F039A401143E6
:101750000C900D910E900F910160119012B080BD10
:1017600047F6E430C0F6000005F0A9FC80B56F46EE
:1017700000F0EAF880BD80B56F4600F0E4F880BD67
:1017800080B56F4600F0DFF880BD80B56F4692B03F
:10179000029004900078C00720B9FFE7022007F804
:1017A000390C03E0002007F8390CFFE7029804F039
:1017B000DEF901900890A7F13901009109910D908F
:1017C0000E9004F03BFC014600980A910B910691A3
:1017D0000C91079106A907AA00F00AF801460198A2
:1017E00009680F901091119004F08DFC12B080BD2B
:1017F00080B56F468EB001920A4601990292024668
:10180000029804920590069101F00EF801460A91A3
:101810000B9104980078079107F8150C0799099126
:10182000096821F0E061039147F65041C0F60001DC
:1018300002F0ECFC0146039801F0070207990C91B5
:1018400040EA0260086007980D900EB080BDD0B5E8
:1018500002AF89B08C460146D7F810E0FC68B86842
:10186000CDF808C00392049305900694CDF81CE0CF
:101870000094CDF804E0C1F800C04A60DDF800C073
:10188000019AC1F810C04A618B60C86009B0D0BD30
:1018900080B56F4684B00191014601980291039092
:1018A00047F66041C0F60001052205F034F904B0A6
:1018B00080BD83B000900191029003B0704783B067
:1018C00000900191029003B0704783B000900191A5
:1018D000029003B0704780B56F4686B003900490C5
:1018E00004F078FC0290029868B9FFE747F665407B
:1018F000C0F600000178407801F0010107F8121CE1
:1019000007F8110C09E00298007807F8010C07F8B5
:10191000110C012007F8120CFFE717F8120C17F84A
:10192000111C06B080BD8CB0009001910290039113
:1019300004910590069107900890014409910A903E
:101940000B910CB070477047704784B000900290C4
:10195000407E022803D1FFE70020019003E00098B9
:1019600003900190FFE7019804B0704784B00090A5
:1019700002900078C00718B9FFE70020019004E04A
:101980000098013003900190FFE7019804B0704780
:1019900084B0009002900078C00718B9FFE70020DB
:1019A000019004E00098013003900190FFE7019856
:1019B00004B07047B0B502AF9EB0049103461C91CD
:1019C0000DAA1046B3E81050A0E8105093E830502C
:1019D00080E8305006A80090B2E80850A0E808500F
:1019E00092E8185080E8185040F20000C2F200005F
:1019F000FFF76BFF47F6B041C0F6000100F0BEF9FB
:101A00001490159114A8019000F090FA009A0146E4
:101A10000198B2E80850A1E8085092E8185081E80F
:101A20001850FEF72AFD04990120039007F8250CB1
:101A300040F22000C2F20000FFF73BFF47F6C04132
:101A4000C0F6000100F0C4F91790189117A8029091
:101A500000F073FA0246029817F8251C01F0010104
:101A60001170FEF713FD0398049907F8190C40F262
:101A70002800C2F20000FFF722FF47F6D041C0F66F
:101A8000000100F090F91A901B911AA8059000F03F
:101A90005BFA0246059817F8191C01F00101117054
:101AA000FEF7FDFC1EB0B0BDB0B502AFC0B00790F0
:101AB0002F9040F23000C2F200000078C00710B949
:101AC000FFE740B0B0BD079940F20000C2F200004D
:101AD000FFF7FBFE47F6E041C0F6000100F04EF9CB
:101AE00009900A9109A800F021FAFFF72EFF08904B
:101AF0000898D8B1FFE7079908980690309040F20F
:101B00002000C2F20000FFF7D4FE47F6F041C0F615
:101B1000000100F05DF90C900D910CA800F00DFA99
:101B2000FFF736FF0B900B9820B97EE009A8FEF76F
:101B3000A4FCC6E706980B990491319101F061F875
:101B40000E900EA93C9147F2D110C0F600003D90D6
:101B50003E913A913B903A983B991891179017987B
:101B6000189916911590032007F8610C02222B9208
:101B70004FF0000ECDF8A8E02C9217F8614CDDF87C
:101B8000A8C02B9B2C992D98CDF8C8E02025339523
:101B900007F8354CCDF8D4E0CDF8D8C0379338915C
:101BA0003990CDF898E025958DF8A040CDF89CE0CF
:101BB000CDF884C022932391249021A919AB184613
:101BC000B1E83050A0E8305091E8305080E8305013
:101BD0006946012088604B60086047F61451C0F6E2
:101BE00000010FA8059015ABFFF731FE0498059989
:101BF00000F04CFE07F80A0C17F80A0CC00798B161
:101C0000FFE747F62450C0F600006946086047F633
:101C10007840C0F6000047F66843C0F600032B2169
:101C2000A7F1090204F01AFCFFE70CA8FEF72EFC4E
:101C30007CE780B56F46A2B001460D9140F22800C6
:101C4000C2F20000FFF73BFE47F63451C0F6000138
:101C500000F0A9F80690079106A800F075F9FFF7C3
:101C600085FE05900598002853D0FFE70598019060
:101C70000E9041F60800C4F20100039014901690F3
:101C8000179004F0DBF91590099009A81F90209097
:101C90009DF82400C0F3001007F8010C07F8650C4C
:101CA000A7F1650019901A9017F8650C00F0010172
:101CB000049180F001000146029100F0010007F854
:101CC0004A0C4FF4FA5000F095FE039810901290D1
:101CD000139004F0B3F90146049811910B910BA9EC
:101CE0001C911D919DF82C10C1F3001107F80D1CDB
:101CF00007F85D1CA7F15D0118911B9117F85D3C79
:101D000003F0010101229A4307F8492C884205D0CB
:101D1000FFE706A8FEF7C3FB22B080BD0298C0070C
:101D20000028F6D0FFE740F23000C2F2000002784F
:101D30000121914301700078C00720B9FFE70198A5
:101D4000FFF7D2F8E5E70198FFF7E8F8E1E78AB096
:101D50000190089009900390049001218DF81610CD
:101D60000498069000688DF817100499079140F0C8
:101D700010000860049802900AB0704780B56F4662
:101D800088B00191049000F06BF8029003910298E2
:101D900030B1FFE7029803990690079108B080BD23
:101DA000019804F088FA80B56F4688B001910490DC
:101DB00000F089F802900391029830B1FFE7029891
:101DC00003990690079108B080BD019804F073FA5A
:101DD00080B56F4688B00191049000F00EF8029033
:101DE0000391029830B1FFE702980399069007919A
:101DF00008B080BD019804F05EFA80B56F4694B0DB
:101E0000029006904FF0FF310791089109910A91D5
:101E10000B900C90006890B9FFE702980D900E901F
:101E200001680F914FF0FF31016005900599009115
:101E300010910430119001460191129002E00020AF
:101E4000039009E0019800F09FFAFFE700980199DC
:101E5000139103910490FFE70398049914B080BD97
:101E600080B56F4694B0029006904FF0FF31079115
:101E7000089109910A910B900C90006890B9FFE7C6
:101E800002980D900E9001680F914FF0FF310160A4
:101E9000059005990091109104301190014601912F
:101EA000129002E00020039009E0019800F06CFA23
:101EB000FFE700980199139103910490FFE70398BD
:101EC000049914B080BD80B56F4694B0029006901E
:101ED0004FF0FF310791089109910A910B900C90F6
:101EE000006890B9FFE702980D900E9001680F917D
:101EF0004FF0FF3101600590059900911091043079
:101F0000119001460191129002E00020039009E037
:101F1000019800F039FAFFE70098019913910391B5
:101F20000490FFE70398049914B080BD83B000903B
:101F300001900068029003B0704783B00090019058
:101F40000068029003B0704783B000900190006871
:101F5000029003B0704780B56F4682B0009007F8DA
:101F6000011C00F02EFD02B080BD82B0FFE7002012
:101F70008DF80400FFE79DF8040000F0010002B0B6
:101F8000704781B001B0704782B0FFE7FFE702B051
:101F9000704780B56F46FEF777FB80BD40F2320197
:101FA000C2F2000101200870704780B56F4688B00A
:101FB0000090019107904EF21400CEF200000290C2
:101FC000039104900591069004F09DF808B080BD3F
:101FD00080B56F468AB0029009904EF21000CEF2A2
:101FE0000000019003900490059004F027F804F09D
:101FF0002FF90146019806900791089004F083F8A4
:102000000AB080BD80B56F468AB0029009904EF24A
:102010001000CEF20000019003900490059004F0AF
:102020000DF803F06AFD01460198069007910890AB
:1020300004F069F80AB080BD80B56F4694B0039093
:1020400007F83D1C059017F83D0CC007B0B9FFE735
:10205000039813904EF21000CEF20000029006900A
:102060000A900B9003F0EAFF03F04DFD0146029841
:102070000F901091119004F046F815E0039812901B
:102080004EF21000CEF200000190079008900990E7
:1020900003F0D4FF03F03DFD014601980C900D9133
:1020A0000E9004F030F8FFE714B080BD80B56F46A5
:1020B00082B00090019100F002F802B080BD80B5BE
:1020C0006F4686B0009001910390FFE70098FFF7FC
:1020D00002FC00F0010007F80F0C07F80E1C17F8BF
:1020E0000F0CC00750B1FFE717F80E1C07F8011CD2
:1020F00001A8FFF730FFFFF747FF02E0FFF741FFBE
:1021000000E0E3E706B080BD80B56F4682B0019085
:1021100002F047FB02B080BD80B56F4682B00190EF
:1021200040F23100C2F200000078C00730B9FFE78A
:10213000FEF79CF9012007F8060C03E0002007F8E1
:10214000060CFFE717F8060C00F0010002B080BD96
:1021500081B08DF802008DF803009DF8030000F0B7
:10216000010001B0704780B56F4604F079F880BD7A
:1021700080B56F4604F072F880BD80B56F4694B0AC
:10218000019202910390059006910792802805D351
:10219000FFE70398B0F5006F0BD305E0019801212C
:1021A0000491002862D116E00398B0F5803F0CD36B
:1021B00005E0019802210491012848D80BE001981C
:1021C0000421049103280CD805E00198032104910F
:1021D000022827D8FFE7019A0398049904F085F8AC
:1021E0001AE00299039808914A1C09928A1C0A92E3
:1021F000CA1C0B92820C1E2363F3DF020A70030BCE
:10220000022262F39F134B70830962F39F138B705A
:1022100062F39F10C870FFE7029812900498009034
:10222000139028E0029903980C914A1C0D928A1C85
:102230000E92020B0E2363F31F120A70830902220F
:1022400062F39F134B7062F39F108870E4E702996A
:1022500003980F914A1C10928209062363F35F12C0
:102260000A70022262F39F104870D5E70398029922
:1022700011910870D0E7009B029801221146FEF7E9
:1022800032F9FFE70099029814B080BD80B56F461F
:1022900082B0019000F002F802B080BD80B56F46B8
:1022A00082B0019044F24021C0F20F01A0FB011066
:1022B000009128B9FFE7009803F0D8FA02B080BD7A
:1022C00047F69C50C0F6000004F0D3FE80B56F4680
:1022D00082B0019040F23200C2F200000078C007E4
:1022E00030B9FFE7FFF75AFE012007F8060C03E0BC
:1022F000002007F8060CFFE717F8060C00F00100B5
:1023000002B080BD80B56F468CB0ADF8100027F8E4
:10231000020C37F8020C0146029127F81E0C400906
:1023200027F8120C014603910F2810D8FFE70298F6
:10233000039A4EF20011CEF2000101EB82010091EE
:1023400000F01F0001460191202808D316E00398F1
:1023500047F61062C0F60002102104F061F8009800
:10236000019901F01F02012191400590069108900A
:1023700009910A9003F0C7FE0CB080BD47F62060BB
:10238000C0F6000004F09BFE80B56F4684B001905B
:102390000290039038B9FFE747F63060C0F60000BE
:1023A0005D2104F026F804B080BD80B56F46B8B05A
:1023B00008910A90169103F03CFE014608980A46DF
:1023C00009921791FFF7A0FE0E900EA803F0FFF9F7
:1023D00001460A980B9100680C9048B1FFE70B98F2
:1023E0000C99B0FBF1F00D900D980F2815D805E071
:1023F00047F6F060C0F6000004F074FE47F6147172
:10240000C0F600010FA8079003F035FF079847F6C4
:102410001C71C0F6000103F0BAFF09980830019062
:1024200019900DA81A9000211B91189118A900F07D
:1024300050F80146019809681C901D911E9003F008
:1024400062FE0A9909980C3004908A1D03920531A6
:1024500002912190229223912790289003F0EEFD83
:10246000029902460398249225921F922692209266
:102470001FAA20AB00F03DF8014604980968299096
:102480002A912B9003F03FFE0A990998097907F8E1
:10249000891C103006902E90A7F1890105912F918B
:1024A0003390349003F0CAFD014605983091319184
:1024B0002C9132912D912CA92DAA00F08CF8014677
:1024C0000698096835903691379003F01CFE38B0B5
:1024D00080BD88B000910146009801910290019959
:1024E000096803900491059006910160079008B077
:1024F000704780B56F469CB001930290039105929E
:1025000006931293139302980078C00720B9FFE74F
:10251000002007F85E0C03E0012007F85E0CFFE7DF
:10252000019817F85E1C0A9001F0010307F8423C7D
:102530000A990C91096821F4805107F8413C0A9AE4
:10254000199241EA033111601490159003980078B4
:10255000022804D1FFE7012007F85D0C03E000200A
:1025600007F85D0CFFE7019917F85D0C0D9100F07D
:10257000010007F8350C47F6B071C0F60001FFF70F
:10258000E7FD034601980F9007F82E3C0F99119133
:10259000096821F4007107F82D3C0F9A189241EA5E
:1025A000432111601690179003990B78002B18BFE8
:1025B0000123079007F84E3C07990991096821F417
:1025C000806107F84D3C079A1A9241EA8321116015
:1025D0001B901CB080BD80B56F468CB002900391FB
:1025E00004920892099202980078059207F8150C57
:1025F00005990791096821F44051019147F6B0719E
:10260000C0F6000101F002FE0146019801F003024C
:1026100005990A9140EA0230086005980B900CB0C9
:1026200080BD80B56F4682B0009007F8011CC9B22A
:1026300000F002F802B080BD80B56F4698B0ADF8EA
:102640001010069003F0F5FC0146039107900890E6
:102650000A900B9003F0F2FC0990059005A81590E4
:1026600016909DF81400C00907F8010C07F84D0CEE
:10267000A7F14D001390149017F84D0CC00720B926
:10268000FFE7012007F84E0C18E003980430019092
:102690000D9004A80E90002102910F910C910CA9AD
:1026A00000F012F8014601980968109011911290FB
:1026B00003F029FD029807F84E0CFFE717F84E0CBF
:1026C00000F0010018B080BD80B56F468AB001905F
:1026D00002910691079101980088039127F8160C42
:1026E000039905910968009147F6B071C0F60001A1
:1026F00001F094FD024600980399089162F30800E6
:102700000860039809900AB080BD80B56F469CB000
:102710000592039102900B900C9241F20000C4F2DA
:10272000020000900D900F9001F088FD0E210191A4
:1027300003F056FA00980E9001F085FD019903F020
:1027400044FA009801F07FFD019903F033FA0298F2
:10275000FEF7FEFB039947F62C72C0F6000208A8AC
:10276000049000F09BF804980599FFF71EFEA7F16E
:102770005100109043F60C00C4F201000690139033
:102780001790189003F05AFC149015901190169021
:10279000129011A812A900F00AF8014606980968DB
:1027A00019901A911B9003F0AEFC1CB080BD9AB03A
:1027B00000910146009802910390149015900490A6
:1027C000059001228DF81A200599079109688DF866
:1027D0001B20059B189341F400511960129013902F
:1027E000089009908DF82A2009990B9109688DF8B5
:1027F0002B20099B179341F008011960109011904C
:102800000C900D908DF83A200D990F9109688DF874
:102810003B200D9A169241F00401116019901AB0F4
:10282000704781B001B0704789B001900291069164
:102830000791039100218DF812100398059000680C
:1028400020F004008DF81310039908910860039894
:1028500009B0704780B56F468AB000910146009874
:102860000191049105900021039103A9069104228E
:102870000792FFF782FC0246019802920A460299EB
:102880000891099200F082F80AB080BD80B56F46C9
:1028900082B0019000F009F802B080BD0A460146FE
:1028A000106852684A6008607047F0B503AF4DF891
:1028B000048D98B0009101900B900C9108680290E3
:1028C00048680390C968049118B9FFE7049820B1DB
:1028D00008E00398012813D004E0012008900020AC
:1028E000099008E047F69010C0F6000001684068C3
:1028F00008910990FFE708A80E90089858B90EE0D3
:1029000004980028EED1FFE702980D900168406816
:1029100008910990EFE7012007F8450C03E000203B
:1029200007F8450CFFE7002007F8310C17F8310CC9
:10293000C00708B9FFE706E00899099806910790D3
:10294000069888B9FFE70198009B12AA114693E800
:10295000705181E8705147F63C71C0F6000103F0F8
:10296000A0FD07F8590C09E001980699079A109103
:10297000119200F00BF807F8590CFFE717F8590C03
:1029800000F0010018B05DF8048BF0BD80B56F4613
:1029900088B000920A46009901920246019802927C
:1029A000059206900791FEF7BEFF0246084602997F
:1029B0000392049003A8FFF779FBFFF7D6FA08B05B
:1029C00080BD80B56F4686B001900A4602920490A1
:1029D0008DF81410FFE7029901980068FFF721FEB7
:1029E00007F8090C17F8090CC00710B9FFE706B083
:1029F00080BDF0E780B56F4682B0019003F032FCF5
:102A000002B080BD80B56F4682B007F8010C00F0BF
:102A100024F802B080BD80B56F4682B007F8010C83
:102A200000F00AF802B080BD81B003208DF80300E9
:102A30009DF8030001B0704781B08DF803009DF848
:102A4000030001B0704781B000208DF803009DF8AD
:102A5000030000F0010001B0704781B08DF8020062
:102A60009DF80200C00720B9FFE700208DF80300A1
:102A700003E001208DF80300FFE79DF8030000F05C
:102A8000010001B0704780B56F46ACB003900A46B4
:102A90000492089007F88B1C18300C9042F2084002
:102AA000C4F201000D900F90109003F0C7FA0E9041
:102AB000069006A829902A900698C0F3C05007F8FF
:102AC000010C07F8990CA7F199002790289017F8A6
:102AD000990CC00720B1FFE7002007F89A0C31E0FD
:102AE000039818300B9042F20840C4F201000290A3
:102AF0001E902290239003F0A1FA1F9020901C902A
:102B000021901D901CA81DA900F04BF801460298C9
:102B1000096824902591269003F0F5FA039801F0B6
:102B200036FE079007A802F052FE41F25971CDF22D
:102B3000B711A0FB0110000C02F0F1FF012007F813
:102B40009A0CFFE70499039801F02FFA01460191CE
:102B500027F88A0C17F89A0CC00718B9FFE70198F4
:102B60002CB080BD039818300A9042F20840C4F29D
:102B70000100009013901790189003F05FFA1490E2
:102B8000159011901690129011A812A900F021F83A
:102B900001460098096819901A911B9003F0B3FA46
:102BA000DDE78BB00190029109910A9104910591A2
:102BB00001218DF81A100598079000688DF81B10F8
:102BC0000599089140F400000860059803900BB047
:102BD00070478BB00190029109910A91049105917F
:102BE00000218DF81A1005980790006820F4000065
:102BF0008DF81B10059908910860059803900BB09B
:102C0000704780B56F4692B007900D9000F0C3F901
:102C100002460798134608930B46099302F00102F7
:102C200007F80E2C07F80D1C01F0B6FD0C900CA84F
:102C300002F0CDFD01460A91002808D2FFE70A986C
:102C400044F68071C0F21201884214D80BE00A9851
:102C500044F68071C0F212018842F0D8FFE70020EC
:102C600007F8190C73E00A984EF26031C0F21601B1
:102C7000884214D80BE00A984EF26031C0F2160177
:102C80008842F0D8FFE7012007F8190C5FE00A98A6
:102C900049F60071C0F22401884214D80BE00A986A
:102CA00049F60071C0F224018842F0D8FFE7022003
:102CB00007F8190C4BE00A9844F66051C0F22F0156
:102CC000884214D80BE00A9844F66051C0F22F01F4
:102CD0008842F0D8FFE7032007F8190C37E00A987C
:102CE00040F60011C0F23D01884214D80BE00A986A
:102CF00040F60011C0F23D018842F0D8FFE7042001
:102D000007F8190C23E00A9844F64031C0F24C0150
:102D1000884210D80BE00A9844F64031C0F24C01CA
:102D20008842F0D8FFE7052007F8190C0FE00720CC
:102D300007F8190C0BE00A9849F68071C0F2D5012A
:102D40008842F4D8FFE7062007F8190CFFE7079838
:102D500017F8191C00F02FF907981021FFF793FEC0
:102D600048F28C01C0F6000101F060FA01460798B4
:102D700004910F911121FFF786FE48F29C01C0F6E5
:102D8000000101F053FA014604980A460592109199
:102D90004FF4966180FB01100A460692B0EBE17F8A
:102DA00003D1FFE7059878B105E048F2AC00C0F622
:102DB000000004F05EF90598013058B9FFE7069865
:102DC000B0F1004F1CD005E048F2AC00C0F60000A6
:102DD00004F088F9099A07980899069BDDF814C051
:102DE00093FBFCF30293119301F0010100F0D9F879
:102DF000029940F29650421A0392884210D605E09A
:102E000048F2AC00C0F6000004F046F903980A212D
:102E100080FB01100A460192B0EBE17F0ED105E084
:102E200048F2BC00C0F6000004F010F9012058B9C7
:102E3000FFE70198B0F1004F15D005E048F2BC0063
:102E4000C0F6000004F015F901984BF68361C2F654
:102E5000A07180FB0101C81000EBD1701930009007
:102E6000002048B905E048F2BC00C0F6000004F0BC
:102E700013F9009812B080BD48F2BC00C0F6000003
:102E800004F0D1F8F0B503AF4DF804BD98B00A9145
:102E90000890FFF7C9FD0990FFF7D5FD09990A9A37
:102EA0008DF848108DF849000CA80B90014692E867
:102EB000785081E8785000F023F90B9800F0CCF8B6
:102EC0000B9800F004F90B9800F0E5F90B9800F06E
:102ED00079F80B9801F060FC139040F6C41002F0F2
:102EE000F2FD149013A814A902F0FEF990B9FFE7BF
:102EF0000CA8079000F015F907990898B1E80C1094
:102F0000A0E80C1091E80C5080E80C5018B05DF867
:102F100004BBF0BD0CA8049001F039FC01460498F4
:102F2000059101F039FC0146059802F07DF9014652
:102F3000481802460692884216D3FFE70698169074
:102F40000CA801F024FC02904FF4487002F0BBFD85
:102F50000146029802F082F9014606980A46039259
:102F60001791884206D8C3E748F2CC00C0F60000AB
:102F700004F07FF806980399421A0192884204D31C
:102F8000FFE7019802F0CBFDB2E748F2CC00C0F6B3
:102F9000000004F05BF881B00090017E407E01B03B
:102FA000704782B000908DF806108DF807200276E9
:102FB000417602B0704782B000908DF8071001761C
:102FC00002B0704780B56F4690B001900390183002
:102FD000049042F20840C4F20100009007900B9068
:102FE0000C9003F02BF80890099005900A90069039
:102FF00005A806A900F018F80146009809680D9088
:103000000E910F9003F07FF8019801F0C0FB029041
:103010004FF4487002F057FD0146029802F01EF985
:1030200002F07DFD10B080BD8BB00190029109913E
:103030000A910491059101218DF81A1005980790C5
:1030400000688DF81B100599089140F00100086098
:10305000059803900BB0704780B56F468EB0019015
:103060001830029042F20840C4F20100009005902E
:1030700009900A9002F0E2FF0690079003900890F2
:10308000049003A804A900F00AF801460098096812
:103090000B900C910D9003F036F80EB080BD8BB004
:1030A0000190029109910A910491059100218DF8F6
:1030B0001A1005980790006820F001008DF81B1089
:1030C000059908910860059803900BB0704780B58A
:1030D0006F4686B0039041F20000C4F202000190F6
:1030E0000490059001F0AFF80921029102F06DFD06
:1030F000019801F0A8F8029902F05CFD06B080BDCD
:1031000080B56F4684B0019041F20000C4F2020025
:103110000290039001F092F8092102F061FD04B0E1
:1031200080BD80B56F46B4B00190079018300B9009
:1031300042F20840C4F201000290219025902690AE
:1031400002F07CFF229023901F90249020901FA8D3
:1031500020A900F070F8014602980968279028918C
:10316000299002F0D0FFFFE7019818300A9042F250
:103170000840C4F2010010901290139002F05EFF1C
:103180001190049004A8319032909DF81000C0F383
:10319000C00007F8010C07F8C10CA7F1C1002A9084
:1031A0002D9017F8C10CC0070028DDD1FFE701986A
:1031B0001830099042F20840C4F2010000901690C5
:1031C0001A901B9002F03AFF1790189014901990E3
:1031D000159014A815A900F046F801460098096852
:1031E0001C901D911E9002F08EFFFFE70198183091
:1031F000089042F20840C4F201000C900E900F902B
:1032000002F01CFF0D90069006A82E902F909DF8BE
:103210001800C0F3800007F80D0C07F8B90CA7F1EF
:10322000B9002B902C9017F8B90CC0070028DDD1FD
:10323000FFE734B080BD8BB00190029109910A91F3
:103240000491059101218DF81A10059807900068E6
:103250008DF81B100599089140F00800086005984A
:1032600003900BB070478BB00190029109910A91C5
:103270000491059101218DF81A10059807900068B6
:103280008DF81B100599089140F00400086005981E
:1032900003900BB0704780B56F46AAB00590183008
:1032A0000390089042F20840C4F201000190169089
:1032B0001A901B9002F0C2FE17901890149019906B
:1032C000159014A815A900F044F801460198096862
:1032D0001C901D911E9002F016FF0398079042F279
:1032E0000440C4F20100029021902590269002F043
:1032F000A5FE229023901F90249020901FA820A923
:1033000000F06FF8014602980968279028912990EB
:1033100002F0F9FE0398069042F22C40C4F201003C
:1033200004900B900F90109002F088FE0C900D907E
:1033300009900E900A9009A80AA900F07CF80146AD
:103340000498096811901291139002F0DCFE2AB0E3
:1033500080BD80B56F469AB0039004911491159189
:103360000B910C91002107F8321C0C980E9000680C
:1033700020F0020007F8311C0C990F9108600C989E
:103380001890199006900790012107F8461C07989D
:103390000990006807F8451C07990A9140F48010CD
:1033A00008600798169017901090072007F8210CD6
:1033B00010991291096821F46021019148F21C01D1
:1033C000C0F6000100F022FF0146019801F007025B
:1033D0001099139140EA42400860109805901AB085
:1033E00080BD92B0019002910E910F9109910A91C6
:1033F00000218DF82E100A980C90006820F480703F
:103400008DF82F100A990D9108600A98109011906C
:103410000490059001218DF81A1005980790006816
:103420008DF81B100599089140F40060086005981C
:10343000039012B0704780B56F468CB00390049132
:10344000089109910591002007F8150C059907913D
:10345000096821F47001019148F21C01C0F60001D5
:1034600000F0D4FE0146019801F00F0205990A917F
:1034700040EA0250086005980B900CB080BDD4D48F
:1034800080B56F46ADF58B6D259227910246259844
:1034900026922A928DF8AE108DF8AF0048F2CC013A
:1034A000C0F60001FFF7B7FA27998DF8A700C8B258
:1034B00001462891112814D82899DFE811F01D0041
:1034C000420067008C00B100D600FB002E015301C2
:1034D00078019D01C201E70116023B0260028502EC
:1034E000AA0248F2DC00C0F6000048F2CC02C0F6A6
:1034F0000002282102F06AFF269818303D9042F21F
:103500001040C4F201002490DC900DF1A70123913A
:10351000DD91E190E29002F091FD01462398DE9169
:10352000DF91DA91E091DB91DAA9DBAA00F099FA58
:10353000014624980968E390E491E59002F0E3FDE8
:103540008CE2269818303C9042F21040C4F2010000
:103550002290E8900DF1A7012191E991ED90EE9074
:1035600002F06CFD01462198EA91EB91E691EC9115
:10357000E791E6A9E7AA00F096FA014622980968C1
:10358000EF90F091F19002F0BEFD67E226981830BE
:103590003B9042F21040C4F201002090C4900DF123
:1035A000A7011F91C591C990CA9002F047FD01463D
:1035B0001F98C691C791C291C891C391C2A9C3AACD
:1035C00000F097FA014620980968CB90CC91CD90F5
:1035D00002F099FD42E2269818303A9042F21040EB
:1035E000C4F201001E90A0900DF1A7011D91A191C0
:1035F000A590A69002F022FD01461D98A291A391EC
:103600009E91A4919F919EA99FAA00F098FA0146CD
:103610001E980968A790A891A99002F074FD1DE278
:1036200026981830399042F21040C4F201001C90E4
:10363000B8900DF1A7011B91B991BD90BE9002F019
:10364000FDFC01461B98BA91BB91B691BC91B79114
:10365000B6A9B7AA00F099FA01461C980968BF906C
:10366000C091C19002F04FFDF8E1269818303890D3
:1036700042F21040C4F201001A90D0900DF1A7015F
:103680001991D191D590D69002F0D8FC01461998A5
:10369000D291D391CE91D491CF91CEA9CFAA00F05F
:1036A0009AFA01461A980968D790D891D99002F0F1
:1036B0002AFDD3E126981830379042F21040C4F228
:1036C0000100189047F8280C0DF1A701179147F851
:1036D000241C47F8140C47F8100C02F0AFFC01460C
:1036E000179847F8201C47F81C1C47F8301C47F86F
:1036F000181C47F82C1CA7F13001A7F12C0200F090
:1037000090FA01461898096847F80C0C47F8081C0D
:1037100047F8040C02F0F7FCA0E126981830369028
:1037200042F21040C4F20100169064900DF1A7011E
:103730001591659169906A9002F080FC0146159898
:103740006691679162916891639162A963AA00F0A2
:103750008EFA0146169809686B906C916D9002F094
:10376000D2FC7BE126981830359042F21040C4F22A
:103770000100149058900DF1A701139159915D909B
:103780005E9002F05BFC014613985A915B91569152
:103790005C91579156A957AA00F08FFA01461498E8
:1037A00009685F906091619002F0ADFC56E1269847
:1037B0001830349042F21040C4F201001290889008
:1037C0000DF1A701119189918D908E9002F036FC38
:1037D000014611988A918B9186918C91879186A947
:1037E00087AA00F090FA0146129809688F9090918C
:1037F000919002F088FC31E126981830339042F223
:103800000C40C4F20100109094900DF1A7010F91AB
:10381000959199909A9002F011FC01460F9896911B
:10382000979192919891939192A993AA00F091FA0D
:103830000146109809689B909C919D9002F063FC52
:103840000CE126981830329042F20C40C4F201008C
:103850000E90AC900DF1A7010D91AD91B190B29089
:1038600002F0ECFB01460D98AE91AF91AA91B09198
:10387000AB91AAA9ABAA00F08EFA01460E9809688E
:10388000B390B491B59002F03EFCE7E02698183072
:10389000319042F20C40C4F201000C9047F8580CF1
:1038A0000DF1A7010B9147F8541C47F8440C47F859
:1038B000400C02F0C3FB01460B9847F8501C47F838
:1038C0004C1CFE9147F8481CFF91FEA9FFAA00F08E
:1038D00088FA01460C98096847F83C0C47F8381CF0
:1038E00047F8340C02F00FFCB8E0269818303090FE
:1038F00042F20C40C4F201000A90F4900DF1A701CD
:103900000991F591F990FA9002F098FB0146099817
:10391000F691F791F291F891F391F2A9F3AA00F0E0
:1039200086FA01460A980968FB90FC91FD9002F026
:10393000EAFB93E0269818302F9042F20C40C4F234
:10394000010008904C900DF1A70107914D91519005
:10395000529002F073FB014607984E914F914A91A5
:1039600050914B914AA94BAA00F087FA014608985A
:10397000096853905491559002F0C5FB6EE026986B
:1039800018302E9042F20C40C4F2010006907C9058
:103990000DF1A70105917D918190829002F04EFB7F
:1039A000014605987E917F917A9180917B917AA9C9
:1039B0007BAA00F088FA01460698096883908491F2
:1039C000859002F0A0FB49E0269818302D9042F235
:1039D0000C40C4F20100049040900DF1A701039146
:1039E00041914590469002F029FB0146039842918F
:1039F00043913E9144913F913EA93FAA00F089FA3C
:103A000001460498096847904891499002F07BFB71
:103A100024E0269818302C9042F20C40C4F20100A9
:103A2000029070900DF1A7010191719175907690BF
:103A300002F004FB01460198729173916E917491AA
:103A40006F916EA96FAA00F08AFA01460298096880
:103A500077907891799002F056FBFFE70DF58B6D2A
:103A600080BD80B56F468CB002900391049208929D
:103A7000099202980078059207F8150C05990791AC
:103A80000968019148F21C01C0F6000100F0BEFB7C
:103A90000246019805990A9162F3020008600598B0
:103AA0000B900CB080BD80B56F468CB00290039136
:103AB00004920892099202980078059207F8150C72
:103AC00005990791096821F03801019148F21C011C
:103AD000C0F6000100F09AFB0146019801F00702D0
:103AE00005990A9140EAC200086005980B900CB055
:103AF00080BD80B56F468CB002900391049208920D
:103B0000099202980078059207F8150C059907911B
:103B1000096821F4E071019148F21C01C0F600012E
:103B200000F074FB0146019801F0070205990A9123
:103B300040EA8210086005980B900CB080BD80B5FB
:103B40006F468CB0029003910492089209920298F9
:103B50000078059207F8150C05990791096821F47A
:103B60006061019148F21C01C0F6000100F04EFBBB
:103B70000146019801F0070205990A9140EA4220A6
:103B8000086005980B900CB080BD80B56F468CB076
:103B9000029003910492089209920298007805928B
:103BA00007F8150C05990791096821F4E041019186
:103BB00048F21C01C0F6000100F028FB0146019804
:103BC00001F0070205990A9140EA02300860059861
:103BD0000B900CB080BD80B56F468CB00290039105
:103BE00004920892099202980078059207F8150C41
:103BF00005990791096821F46031019148F21C018F
:103C0000C0F6000100F002FB0146019801F0070236
:103C100005990A9140EAC230086005980B900CB0F3
:103C200080BD80B56F468CB00290039104920892DB
:103C3000099202980078059207F8150C05990791EA
:103C4000096821F4E011019148F21C01C0F600015D
:103C500000F0DCFA0146019801F0070205990A918B
:103C600040EA8240086005980B900CB080BD80B59A
:103C70006F468CB0029003910492089209920298C8
:103C80000078059207F8150C05990791096821F449
:103C90006001019148F21C01C0F6000100F0B6FA83
:103CA0000146019801F0070205990A9140EA425045
:103CB000086005980B900CB080BD80B56F468CB045
:103CC000029003910492089209920298007805925A
:103CD00007F8150C05990791096821F0E061019139
:103CE00048F21C01C0F6000100F090FA014601986C
:103CF00001F0070205990A9140EA02600860059800
:103D00000B900CB080BD80B56F468CB002900391D3
:103D100004920892099202980078059207F8150C0F
:103D200005990791096821F06051019148F21C0141
:103D3000C0F6000100F06AFA0146019801F007029E
:103D400005990A9140EAC260086005980B900CB092
:103D500080BD80B56F468CB00290039104920892AA
:103D6000099202980078059207F8150C05990791B9
:103D70000968019148F21C01C0F6000100F046FA02
:103D80000246019805990A9162F3020008600598BD
:103D90000B900CB080BD80B56F468CB00290039143
:103DA00004920892099202980078059207F8150C7F
:103DB00005990791096821F03801019148F21C0129
:103DC000C0F6000100F022FA0146019801F0070256
:103DD00005990A9140EAC200086005980B900CB062
:103DE00080BD80B56F468CB002900391049208921A
:103DF000099202980078059207F8150C0599079129
:103E0000096821F4E071019148F21C01C0F600013B
:103E100000F0FCF90146019801F0070205990A91AA
:103E200040EA8210086005980B900CB080BD80B508
:103E30006F468CB002900391049208920992029806
:103E40000078059207F8150C05990791096821F487
:103E50006061019148F21C01C0F6000100F0D6F942
:103E60000146019801F0070205990A9140EA4220B3
:103E7000086005980B900CB080BD80B56F468CB083
:103E80000290039104920892099202980078059298
:103E900007F8150C05990791096821F4E041019193
:103EA00048F21C01C0F6000100F0B0F9014601988B
:103EB00001F0070205990A9140EA0230086005986E
:103EC0000B900CB080BD80B56F468CB00290039112
:103ED00004920892099202980078059207F8150C4E
:103EE00005990791096821F46031019148F21C019C
:103EF000C0F6000100F08AF90146019801F00702BE
:103F000005990A9140EAC230086005980B900CB000
:103F100080BD80B56F468CB00290039104920892E8
:103F2000099202980078059207F8150C05990791F7
:103F3000096821F4E011019148F21C01C0F600016A
:103F400000F064F90146019801F0070205990A9111
:103F500040EA8240086005980B900CB080BD80B5A7
:103F60006F468CB0029003910492089209920298D5
:103F70000078059207F8150C05990791096821F456
:103F80006001019148F21C01C0F6000100F03EF909
:103F90000146019801F0070205990A9140EA425052
:103FA000086005980B900CB080BD80B56F46D0B00E
:103FB00003908DF819100E9018300290159042F26F
:103FC0004C40C4F2010022902490259002F036F873
:103FD000014603982391079107A947914891BDF89D
:103FE0001C1027F81A1CADF81A100DF11A01439194
:103FF000027E9DF81910FFF743FA0298149042F2DE
:104000003440C4F20100019034900DF11901009187
:10401000359139903A9002F011F8014600983691A6
:10402000379132913891339132A933AA00F092F846
:104030000146019809683B903C913D9002F063F87D
:1040400002990398139100F11901049142F208407A
:10405000C4F201000590289029912D902E9001F036
:10406000EDFF014604982A912B9126912C912791DE
:1040700026A927AA00F090F80146059809682F9014
:104080003091319002F03FF8FFE70398183012901A
:1040900042F20840C4F2010016901890199001F005
:1040A000CDFF1790099009A84D904E900998C0F344
:1040B000805007F8010C8DF823000DF123003E908D
:1040C00040909DF82300C0070028DED1FFE7039849
:1040D0001830119042F20040C4F201001A901C9076
:1040E0001D9001F0ABFF1B900B900BA84A904B90DA
:1040F0009DF82C00C0F3400007F80D0C8DF82B0044
:104100000DF12B003F9041909DF82B00C007002837
:10411000DDD0FFE703981830109042F24C40C4F213
:1041200001001E902090219001F088FF1F900D90BB
:104130000DA844904590BDF8340027F8260CADF842
:1041400032000DF132004290BDF83200ADF83E0071
:1041500050B080BD80B56F468CB002900391049240
:104160000892099202980078059207F8150C0599B3
:1041700007910968019148F21C01C0F6000100F0A6
:1041800045F80246019805990A9162F30400086017
:1041900005980B900CB080BD80B56F4692B0019031
:1041A000029103921092119209920A92012107F84A
:1041B0001A1C0A980C90006807F8191C0A990D91AE
:1041C00040F4800008600A9800900E900F900198CB
:1041D000007800F0010048F2CC01C0F60001FEF7C3
:1041E00011FC02460098059007F82E2C05980790C0
:1041F000006820F4006007F82D2C0599089140EA2A
:10420000C22008600598049012B080BD81B08DF87E
:1042100002008DF80300C0B201B0704781B0ADF864
:104220000000ADF8020080B201B0704781B0ADF877
:104230000000ADF8020080B201B0704781B000907C
:10424000183001B0704781B000900C3001B0704759
:10425000B0B502AFE4B00692099105901B920AA88E
:10426000079000F0B6FD069800F0A0FF0146079801
:1042700008910C302691279030212891259125A96D
:1042800000F0F0F801460898096829902A912B90CF
:1042900001F039FF099841F20001C4F202011C91BA
:1042A00001F051F938B9FFE70998007A00F00100F0
:1042B00001283BD07DE041F20000C4F202000490EE
:1042C00039903D903E9001F0B9FE3A903B90379086
:1042D0003C90389037A838A900F00DF901460498B1
:1042E00009683F904091419001F00DFFFFE741F2D6
:1042F0000000C4F2020021902390249001F09EFE61
:104300002290119011A85E905F901198C0F34040E8
:1043100007F8150C8DF843000DF143005B905C909D
:104320009DF84300C0070028E1D0BDE70999487A0D
:104330008DF84A0041F20400C4F2020002904F904E
:104340000DF14A020192509251915590569001F010
:1043500075FE099902460198529253924D925492D9
:104360004E924DAA4EAB00F0DEF801460298096865
:1043700057905891599001F0C6FE41F20000C4F2E6
:104380000200039044904890499001F057FE4590F8
:10439000469042904790439042A843A900F002F90A
:1043A0000146039809684A904B914C9001F0ABFE8E
:1043B00039E0099C04F1080E04F10E0C04F10C0321
:1043C00004F10D0204F10A0104F10B001494CDF87C
:1043D00054E0CDF858C01793189219911A9041F2F1
:1043E0000400C4F2020000902E903290339001F04D
:1043F00025FE2F9030902C9031902D9014A82CA950
:104400002DAA00F0E7F8014600980968349035912C
:10441000369001F078FE05980AA991E83C5080E8B2
:104420003C5064B0B0BD41F20000C4F202001D90E7
:104430001F90209001F002FE1E90139013A861902F
:1044400062901398C0F3406007F8090C8DF84B0098
:104450000DF14B005A905D909DF84B00C00700286D
:10446000E1D0A6E780B56F4690B002910490089124
:104470000C910D9104980390182001F02CFB01463B
:104480000398069106A900F00BFF68B9FFE70498AE
:104490000190302001F01FFB01460198079107A908
:1044A00000F0FEFE40B903E0002007F8290C07E009
:1044B000022007F8290C03E0012007F8290CFFE788
:1044C000029917F8290C099107F8150C09990B9115
:1044D0000968009148F26011C0F60001FFF796FEEE
:1044E0000246009809990E9162F30200086009984B
:1044F0000F9010B080BD8BB00190029109910A918C
:104500000491059101218DF81A1005980790006813
:104510008DF81B100599089140F4803008600598CB
:1045200003900BB0704780B56F4694B00390049130
:104530000592069310931193039800780C9307F853
:10454000190C0C990E91096821F47011019148F22F
:104550006011C0F60001FFF759FE0146019801F015
:104560000F020C990F9140EA824008600C9802906B
:1045700012901390049800F0E6FF0246029808900B
:1045800007F82A2C08980A90006820F4803007F871
:10459000292C08990B9140EA02400860089807907E
:1045A00014B080BD8BB00190029109910A910491E1
:1045B000059101218DF81A100598079000688DF873
:1045C0001B100599089140F08070086005980390D1
:1045D0000BB0704780B56F46B8B0039209900C914C
:1045E0000D923492359280690078169207F8810C0A
:1045F00048F26011C0F60001079100F0D7FF039A5E
:104600000799189207F8790C189A1A92126822F4EE
:1046100040420292FFF7FAFD029B039A07998446F3
:1046200009980CF0030EDDF860C0CDF86CC043EAC9
:104630008E33CCF8003032923392006900788DF8D6
:104640002C009DF82C00249207F8490C249A2692FD
:10465000126822F460520492FFF7D8FD049A079979
:104660000346099803F0070C249B279342EACC22C7
:104670001A60249A30923192C068007807F8B30C1F
:1046800017F8B30C1C9207F8690C1C9A1E9212685A
:1046900022F4E0620592FFF7B9FD059A07990346F7
:1046A000099803F0070C1C9B1F9342EA0C221A6026
:1046B0001C9A2E922F928068007807F8B20C17F897
:1046C000B20C289207F8390C289A2A92126822F024
:1046D000F0020692FFF79AFD069A07990346099899
:1046E00003F00F0C289B2B9342EA0C121A60289AB5
:1046F00008923692379240690078109200F00100DB
:1047000007F8990C00F047FF0899034609981291A1
:1047100007F8923C12991491096821F4800107F876
:10472000913C129A159241EA8351116012990A91B3
:104730002C912D91406800F01AFF48B9FFE70998C5
:10474000006800F000FF07F8A50C07F8B10C03E0C3
:10475000022007F8B10CFFE70A9917F8B10C209175
:1047600007F8590C209922910968019148F26011CB
:10477000C0F60001FFF74AFD0246019820992391F7
:1047800062F30100086020980F9038B080BD81B0BE
:104790000090C06801B0704781B00090006901B01E
:1047A000704781B00090806801B07047F0B503AFEA
:1047B0004DF8048DBAB01A9101461A981B91016800
:1047C00040681C911D901C98012804D1FFE71D989A
:1047D0002F901E9005E040F60010C0F23D001E90A4
:1047E000FFE71A98006A012808D1FFE71A98406A83
:1047F000189030901E98199048B102E001201F9047
:104800000BE018981999B0FBF1F01F9005E048F201
:10481000D010C0F6000002F065FC1F98012807D1F7
:10482000FFE7002007F86E0C1C98012803D006E073
:104830001F9880BB2CE01D983190239005E041F239
:104840000020C0F27A002390FFE717F86E1C17F8DB
:104850006D0C01F001018DF880108DF88100239816
:104860002190FFE71A989DF880209DF8811013464B
:1048700015930B46169302F0010207F82E2C07F849
:104880002D1C219917913391806801283DD042E079
:104890001F9838B109E01F981028F9D8FFE71F9832
:1048A000249005E00120249002E010202490FFE7EE
:1048B0009DF89000811E149102280DD3FFE71498F3
:1048C00007F8620C012007F8630C1E982499A0FBDE
:1048D0000110139198B905E048F2E010C0F600000D
:1048E00002F0B4FB139817F8632C17F8621C02F05F
:1048F00001028DF880208DF881102190B2E748F2F6
:10490000F010C0F6000002F0B4FB1A98C0681290D4
:10491000349068B103E0072007F8610C22E0179893
:104920001299B0FBF1F00146119100280AD205E07E
:1049300048F20020C0F6000002F0D4FB11980228D3
:1049400008D00BE011980128F8D8FFE7072007F8F6
:10495000610C07E0082007F8610C03E011980228B9
:104960000DD808E017F8610C07F85B0C17F85B0C22
:104970000B2854D848E0119805280CD807E0119866
:104980000528F8D8FFE7092007F8610CEAE7119835
:104990000B280CD807E011980B28F8D8FFE70A205D
:1049A00007F8610CDEE7119827280CD807E011986A
:1049B0002728F8D8FFE70B2007F8610CD2E71198F9
:1049C0005F280CD807E011985F28F8D8FFE70C2083
:1049D00007F8610CC6E71198BF280CD807E01198BA
:1049E000BF28F8D8FFE70D2007F8610CBAE70F20C1
:1049F00007F8610CB6E71198C0090228F7D8FFE75D
:104A00000E2007F8610CADE717F8610C07F8590C98
:104A100017F8590CC11F1091072810D30AE017F896
:104A2000610C07F85A0C17F85A0C811F0F910628D1
:104A300030D32AE01098C0B2202806D30EE048F206
:104A40001020C0F6000002F001FB109800F01F01DA
:104A50000120884001460E9160B105E048F2202017
:104A6000C0F6000002F02BFB17980E99B0FBF1F096
:104A7000269005E048F23020C0F6000002F032FB3C
:104A80001A980069012826D02AE00F98C0B2202881
:104A900006D30EE048F24020C0F6000002F0D6FA3D
:104AA0000F9800F01F010120884001460D9160B170
:104AB00005E048F25020C0F6000002F000FB179815
:104AC0000D99B0FBF1F02690DAE748F26020C0F6CD
:104AD000000002F007FB1A9840693590289007E023
:104AE000269845F20011C0F2252188420ED307E036
:104AF00026992898084402460C9288420ED308E072
:104B000045F20010C0F225202890F1E72698289061
:104B1000EEE70C98411E0B9150B105E048F2702071
:104B2000C0F6000002F07FFA28980A9098B105E0DC
:104B300048F28020C0F6000002F088FA0B980A992B
:104B4000B0FBF1F00146099102280ED3FFE7099866
:104B500002280ED005E048F28020C0F6000002F0E6
:104B6000C1FA0998022811D80CE003208DF8A4009E
:104B700003E004208DF8A400FFE71A98806901285B
:104B800018D01FE0099805280CD807E009980528D7
:104B9000F8D8FFE705208DF8A400EEE707208DF890
:104BA000A400EAE709980B28F8D8FFE706208DF85B
:104BB000A400E2E71A98C0690790369026990891F8
:104BC00068B103E0032007F8530C22E00898079926
:104BD000B0FBF1F00146069100280AD205E048F248
:104BE0009020C0F6000002F07DFA0698022808D056
:104BF0000BE006980128F8D8FFE7032007F8530CCC
:104C000007E0042007F8530C03E0069802280FD8A9
:104C10000AE017F8530C07F8520C17F8520CC11E93
:104C2000059103281DD317E0069805280CD807E046
:104C300006980528F8D8FFE7052007F8530CE8E7A1
:104C4000072007F8530CE4E706980B28F8D8FFE78D
:104C5000062007F8530CDCE70598C0B2202806D3DD
:104C600011E048F2A020C0F6000002F0EFF905982C
:104C700000F01F01012088400146039137902699DA
:104C8000049118B305E048F2B020C0F6000002F02D
:104C900016FA17981699159A049BDDF80CC0B3FB09
:104CA000FCF39C46CDF808C03893DDF870C01D9B1E
:104CB000CDF8A8C02B9302F001028DF8B0208DF83A
:104CC000B1102D902A98012806D00CE048F2C0209F
:104CD000C0F6000002F006FA9DF8B00000F00100F6
:104CE000012804D0FFE7012007F8510C0BE02D98B4
:104CF0004AF20021C0F24A418842F4D1FFE7002085
:104D000007F8510CFFE71A98806A012806D1FFE7DF
:104D10001A98C06A0190399068B103E0032007F83F
:104D20003D0C32E002980199B0FBF1F00146009190
:104D300000280AD205E048F2D020C0F6000002F0B8
:104D4000D1F9009802280CD807E000980228F8D87A
:104D5000FFE7002007F83D0C17E0009804280CD866
:104D600007E000980428F8D8FFE7012007F83D0C79
:104D70000BE0032007F83D0C07E000980728F8D85F
:104D8000FFE7022007F83D0CFFE71B99169C159DD5
:104D900017F861EC9DF8A4C017F8533C17F8512C94
:104DA00017F83D0CDDF870801D9EC1F800804E6044
:104DB00005F001050D724C7281F80EE081F80CC00F
:104DC0004B7302F001028A72C8723AB05DF8048B2C
:104DD000F0BDF0B503AF4DF804BDAEB019911A9017
:104DE0002491087AC00750B1FFE71998417A0A4622
:104DF000189207F8311C0068012805D009E01998BD
:104E00000068012833D037E01998406826901C903C
:104E100005E040F60010C0F23D001C90FFE7189836
:104E20001C991691C0B202301790002038B9FFE7E4
:104E300016981799A0FB0110159148B905E048F2A2
:104E4000E020C0F6000002F0EEF815981B9005E097
:104E500048F2F020C0F6000002F00BF91998807BB0
:104E600007F84F0C17F84F0C0B2818D80AE01998C0
:104E7000406827901B90F1E741F20020C0F27A00D1
:104E80001B90EBE719981B991391807B07F84D0C49
:104E900017F84D0CC11F1491072812D30CE0199874
:104EA0001B991191807B07F84E0C17F84E0C811F4F
:104EB0001291062836D330E01498C0B2202806D3C9
:104EC0000EE048F20030C0F6000002F0BFF814987F
:104ED00000F01F01012088400146109160B105E0FB
:104EE00048F21030C0F6000002F0E9F8139810996B
:104EF000B0FBF1F01D9005E048F22030C0F6000054
:104F000002F0F0F81998007B8DF87C009DF87C0089
:104F1000C11E0F9103282BD325E01298C0B2202880
:104F200006D30EE048F23030C0F6000002F08EF8F2
:104F3000129800F01F010120884001460E9160B1D7
:104F400005E048F24030C0F6000002F0B8F81198D1
:104F50000E99B0FBF1F01D90D4E748F25030C0F646
:104F6000000002F0BFF80F98C0B2082806D314E082
:104F700048F26030C0F6000002F068F80F9800F0C8
:104F800007010120884001460B9107F8250C1D9967
:104F90000C9101460D91C0B105E048F27030C0F6A9
:104FA000000002F08CF819980C990D9AB1FBF2F1FF
:104FB0000A4609922991407B07F84B0C17F84B0CD5
:104FC000C11E0A9103280BD305E048F28030C0F6D9
:104FD000000002F087F80A98C0B2082806D314E04F
:104FE00048F29030C0F6000002F030F80A9800F065
:104FF0000701012088400146069107F81D0C1D9904
:10500000079101460891D0B105E048F2A030C0F602
:10501000000002F054F819980799089AB1FBF2F1D0
:105020000A4604922B91C07A07F84A0C17F84A0CEA
:10503000411CC8B20A46059288420FD105E048F2E9
:10504000B030C0F6000002F04DF80598400007F8B7
:10505000150CC0B20146039110B305E048F2C03010
:10506000C0F6000001F0DFFF19980499039AB1FB24
:10507000F2F10A4602922D91D0F800C04368027AFC
:10508000417A1B98CDF880C0219302F001028DF87F
:1050900088208DF8891023902098012806D00CE0F4
:1050A00048F2D030C0F6000002F01CF89DF88800ED
:1050B00000F00100012804D0FFE7002007F8490CA8
:1050C00014E02398019046F60041C0F2DC218842AA
:1050D00008D0FFE701984AF20021C0F24A41884215
:1050E000EBD1FFE7012007F8490CFFE71B984AF2D4
:1050F0000121C0F24A4188420BD3FFE748F2E03079
:10510000C0F6000048F26C42C0F600028A2101F0AD
:105110005DF91D984AF20021C0F24A418842EDD85B
:10512000FFE7099845F20011C0F225218842E5D831
:10513000FFE704984AF20021C0F24A418842DDD8D4
:10514000FFE7029849F68071C0F2D5018842D5D8B0
:10515000FFE71D9800F09CF80646099800F098F8C3
:105160000546049800F094F804461B9800F090F867
:1051700001460298009100F08BF8DDF818C0009B02
:105180001A99DDF82CE0024617F8490C0E604D60C4
:105190008C6081F814E081F815C0CB600A6100F0E2
:1051A000010088752EB05DF804BBF0BD81B00090A1
:1051B00042F20000C4F2020001B0704783B00290D6
:1051C0000190002000900098019903B0704784B0CE
:1051D00000900390007AC00730B9FFE700980430D0
:1051E00002900020019005E0009804300290012018
:1051F0000190FFE70198029904B0704780B56F46AF
:1052000082B0009001910068096800F07CFA02B059
:1052100080BD80B56F4682B000900191006809683A
:1052200000F022FA02B080BD80B56F4686B00191D1
:105230000390049100F0D0FA019902460292059081
:1052400031B1FFE702980199B0FBF1F006B080BDE3
:1052500048F2D440C0F6000001F044FF80B56F462C
:1052600086B001910390049100F0D5FA01990246AD
:105270000292059031B1FFE702980199B0FBF1F07D
:1052800006B080BD48F2D440C0F6000001F02AFF0D
:1052900080B56F4682B0019000F086FA02B080BD02
:1052A00080B56F4684B002900391FFF7A7FF07F81F
:1052B000090C17F8090C022807D0FFE717F8091C9A
:1052C000481CC0B2022805D3FFE7002007F80A0CEB
:1052D00004E0FEDE012007F80A0CFFE717F80A0CCD
:1052E00000F0010004B080BD80B56F4684B002902C
:1052F0000391FFF78EFF07F8090C17F8090C022835
:1053000009D0FFE717F8090CFF38B0FA80F0400920
:1053100007F80A0C03E0002007F80A0CFFE717F86B
:105320000A0C00F0010004B080BD87B00390049126
:10533000A0FB0110002818BF01200A460092059129
:105340008DF81A008DF81B009DF81B00C00728B9C6
:10535000FFE7009802900120019008E047F69010C6
:10536000C0F600000168406801910290FFE70198D3
:10537000029907B07047B0B502AF90B01C460191DA
:1053800001460198099008910B940A92A4FB015CD4
:10539000A0FB023E2B44A1FB0221C9184FF00003E1
:1053A00043F10003002C18BF0124002818BF01207E
:1053B0002040BEF1000F18BF4FF0010E40EA0E0072
:1053C000BCF1000F18BF4FF0010C40EA0C0018436D
:1053D000134602930B4603930C920D9107F80A0CA7
:1053E00007F8090C17F8090CC00748B9FFE703983C
:1053F00002990691079000200590012004900CE08E
:1054000048F2E841C0F600010A684B688868C9683C
:105410000593049207910690FFE704980599069A70
:10542000079B10B0B0BD80B56F46A2B0019003914C
:105430000F90FFF7C3FE059006910598029030B1DA
:10544000FFE70298012817D0FFE72AE0FEDE069862
:10545000079007A810900398089008A81190079942
:1054600003981C911D90096802680020914298BF22
:10547000012007F8750C15E00698099009A812900C
:1054800003980A900AA813900999039820912190F3
:10549000096802680020914238BF012007F8750CA6
:1054A00000E008E017F8750CC00720B9FFE70020FE
:1054B00007F8760C0DE00198FFF789FE0B900C9130
:1054C0000B98009058B1FFE7009801281AD0FFE729
:1054D0002BE017F8760C00F0010022B080BD0C988C
:1054E000149003A915910D900DA9169103991A9185
:1054F0001B90096802680020914298BF012007F8BC
:10550000760C16E00C98179003A918910E900EA92E
:10551000199103991E911F90096802680020914219
:1055200038BF012007F8760C03E0012007F8760C5D
:10553000FFE7CEE780B56F4682B000900191FFF79C
:1055400072FF02B080BD82B001900068012804D1D2
:10555000FFE701208DF8030003E000208DF8030031
:10556000FFE79DF8030000F0010002B0704782B031
:1055700001900078C00720B1FFE701208DF80300FB
:1055800003E000208DF80300FFE79DF8030000F022
:10559000010002B0704781B08DF802008DF8030061
:1055A0009DF8030000F0010001B0704781B08DF854
:1055B00002008DF803009DF8030001B0704780B52C
:1055C0006F4684B000900390FFE7009800F04EF91A
:1055D000029001200190FFE70198029904B080BD7C
:1055E00080B56F468EB001900990FFE701980122C7
:1055F00000231946FFF7BFFE05910490079306921A
:10560000049801280FD1FFE7069807990B910A909B
:105610004FF47A72002301F049FF024600920D9187
:105620000C9031B102E00020029009E000200290CD
:1056300006E0009800F00EF9039001200290FFE7C9
:10564000029803990EB080BD80B56F4682B001907C
:10565000FFF7C6FF02B080BD80B56F4682B00190F3
:10566000FFF7ADFF02B080BD80B56F4696B00491E4
:1056700005900B900C91FFE705980121FFF755FE6F
:1056800002460498029203910D920E914FF47A71A2
:10569000FFF74BFE029B039A0F901091079308921D
:1056A00009900A910798012804D1FFE70998012879
:1056B00004D0FFE7022007F83D0C20E00898009096
:1056C00011900A990191129114901591884205D375
:1056D000FFE700980199884208D803E0FF2007F807
:1056E000090C07E0002007F8090C03E0012007F887
:1056F000090CFFE717F8090C07F83D0CFFE717F84E
:105700003D0C16B080BD80B56F4696B004910590F3
:105710000B900C91FFE705980121FFF706FE02466A
:105720000498029203910D920E9144F24021C0F22E
:105730000F01FFF7FAFD029B039A0F901091079358
:10574000089209900A910798012804D1FFE7099867
:10575000012804D0FFE7022007F83D0C20E008985C
:10576000009011900A99019112911490159188421C
:1057700005D3FFE700980199884208D803E0FF208D
:1057800007F8090C07E0002007F8090C03E00120E6
:1057900007F8090CFFE717F8090C07F83D0CFFE7BD
:1057A00017F83D0C16B080BD80B56F4682B00190F1
:1057B0000090002028B9FFE7009800F057F802B0E9
:1057C00080BD48F2D440C0F6000001F052FC81B028
:1057D0000090006801B0704780B56F468CB00A90A9
:1057E000FFF73AFF029003910298012804D1FFE7E6
:1057F00003980B900CB080BD48F20851C0F6000130
:1058000004A8019000F037FD019848F2D441C0F699
:10581000000100F0BCFD80B56F468CB00A90FFF728
:1058200013FF029003910298012804D1FFE7039827
:105830000B900CB080BD48F20851C0F6000104A8DE
:10584000019000F018FD019848F2D441C0F6000123
:1058500000F09DFD80B56F4682B00090019000F091
:1058600048F900F048F9009802B080BD80B56F4655
:1058700082B00090019000F03EF900F03CF90098F1
:1058800002B080BD80B56F4682B00090019000F0FC
:1058900031F900F030F9009802B080BD80B56F4654
:1058A00000F021F980BD80B56F4600F01CF980BD85
:1058B00080B56F4600F017F980BD80B56F4600F0E7
:1058C00012F980BD80B56F4600F00DF980BD80B53E
:1058D0006F4600F008F980BD80B56F4600F003F90F
:1058E00080BD80B56F4600F0FEF880BD80B56F4684
:1058F00000F0F9F880BD80B56F4600F0F4F880BD87
:1059000080B56F4600F0EFF880BD80B56F4600F0BF
:10591000EAF880BD80B56F4600F0E5F880BD80B53F
:105920006F4600F0E0F880BD80B56F4600F0DBF810
:1059300080BD80B56F4600F0DBF880BD80B56F4656
:1059400000F0D1F880BD80B56F4600F0CCF880BD86
:1059500080B56F4600F0C7F880BD80B56F4600F097
:10596000C2F880BD80B56F4600F0C2F880BD80B53A
:105970006F4600F0B8F880BD80B56F4600F0B3F810
:1059800080BD80B56F4600F0AEF880BD80B56F4633
:1059900000F0A9F880BD80B56F4600F0A4F880BD86
:1059A00080B56F4600F09FF880BD80B56F4600F06F
:1059B0009FF880BD80B56F4600F095F880BD80B53A
:1059C0006F4600F090F880BD80B56F4600F08BF810
:1059D00080BD80B56F4600F086F880BD80B56F460B
:1059E00000F086F880BD80B56F4600F081F880BD7C
:1059F00080B56F4600F077F880BD80B56F4600F047
:105A000072F880BD80B56F4600F06DF880BD80B53E
:105A10006F4600F068F880BD80B56F4600F063F80F
:105A200080BD80B56F4600F05EF880BD80B56F46E2
:105A300000F059F880BD80B56F4600F054F880BD85
:105A400080B56F4600F04FF880BD80B56F4600F01E
:105A50004AF880BD80B56F4600F045F880BD80B53E
:105A60006F4600F040F880BD80B56F4600F03BF80F
:105A700080BD80B56F4600F036F880BD81B0FFE78D
:105A800041F60000C4F201000090FFE7009801B069
:105A9000704781B0FFE740F60000C4F201000090BB
:105AA000FFE7009801B0704781B0FFE740F6004083
:105AB000C4F201000090FFE7009801B0704781B088
:105AC000009001B0704780B56F4682B00190FFF73B
:105AD000C1FE02B080BD80B56F4682B00190FFF775
